:100000000C94D6020C94F3020C94F3020C9408297D
:100010000C94F3020C94F3020C94F3020C94F3028C
:100020000C94F3020C94F3020C9499210C94552136
:100030000C9496220C94F3020C94F3020C94F302A9
:100040000C94F3020C94F3020C94F3020C94F3025C
:100050000C94F3020C9472220C94F3020C94F302AD
:100060000C94F3020C94F3020C94F3020C94F3023C
:100070000C94F3020C94F3020C94F3020C94F3022C
:100080000C94F3020C94F3020C94F3020C94F3021C
:100090000C94F3020C94F3020C94F3020C94F3020C
:1000A0000C94F3020C94F3020C94F302050109067C
:1000B000A1018506050719E029E715002501950826
:1000C000750181020507190029EF1500250195F03A
:1000D000750181020508190129059505750191022F
:1000E000950175039101C00660FF0961A1010962D4
:1000F000150026FF0095207508810209631500266A
:10010000FF00952075089102C005010906A10105AF
:100110000719E029E7150025019508750181029569
:1001200001750881010507190029FF150026FF0048
:1001300095067508810005081901290595057501C1
:100140009102950175039101C000000000000000BC
:10015000000000000000000000000000000000009F
:10016000000000000000000000000000007E0F0002
:10017000D4FFFFFFC700000078000000000000006F
:10018000002A2B28000000000000000000000000F2
:100190000000000029000000002C1E342021222431
:1001A000342627252E362D3738271E1F20212223BF
:1001B0002425263333362E37381F04050607080951
:1001C0000A0B0C0D0E0F1011121314151617181917
:1001D0001A1B1C1D2F3130232D3504050607080975
:1001E0000A0B0C0D0E0F10111213141516171819F7
:1001F0001A1B1C1D2F3130354CFD377A585A000020
:1002000004E6D6B4460200210116000000742FE572
:10021000A3E0042F01425D003D8889C65436C31710
:100220004FE4DCCBB3DF6320E7D71739D83D5F520B
:10023000C90BECB7E6D5195224B0736759B3E0B4D3
:1002400056C74788C96520CF4A3C940C015E298671
:100250005C8E1FD2901470DD8177B2096EB5F6AE58
:10026000E987F3FD6E8628D433CFB875786A02A982
:1002700026DEE8E6250BF2F12FEB95EF757127C22C
:100280007F9195E2635AB0D245B872C0B554D70099
:100290004EDE62BA2013945BD1FF5921584935656F
:1002A0008A11E5CA1A8401C66412A7BCC461E80AAF
:1002B0008B8F1814972CD485C2CA11139D81944535
:1002C0004D5141C1135A07F3F59C8A2EB089D73F8F
:1002D0003EF2C32110C396AA6256BA70B3106145AC
:1002E0005FB111971836BB16666F7B478FC44223E8
:1002F000D0767E3FA7ECEA0CBF2774C309BD093C4A
:1003000035A8EED8AEC7E9FF0F2F64DF72C5CDF672
:10031000701A8177ECEF634989711EFAEC985A05DF
:100320009B0A0F6BC0B382F93085B0A8A630E1DE1E
:1003300091E0E101A42FEECFFAB4CC09FA55E9DC43
:100340003EB4782343F5F745FEAA6A7F620EBDEB03
:10035000FB2CF315BF380D4959E00000005614AAD4
:10036000DD3187545C0001DE02B0080000C0E5C04A
:1003700082B1C467FB020000000004595A2B00142C
:10038000001A00080015001700E00004001600071E
:100390000009000A00E1001D001B0006001900050D
:1003A00000000000000000E300105F2C002A001392
:1003B0000012000C0018001C00340033000F000E67
:1003C000000D000B00290038003700360010001126
:1003D00000000000000000E600115F28002B001E56
:1003E000001F00200021002200E0000000000000AB
:1003F0000000000000E1000000000000000000001C
:1004000000000000000000E30001002C002A00278B
:10041000002600250024002300000000004F0052A9
:10042000005100500000000000000000000000002B
:1004300000000000000000E600010028002B001E64
:10044000021F02200221022202E000000000000040
:100450000000000000E100000000000000000000BB
:1004600000000000000000E30001002C002A00272B
:100470000226022502240223023500310030002F1B
:10048000002E002D003502310230022F022E022DE7
:1004900002000000000000E60001002800005C00EF
:1004A000000000000000000000C25CC55CC75CC921
:1004B0005C00000000C35CC65CC85CCA5C00000055
:1004C00000000000000000E30001002C000000001C
:1004D000000000000000000000000000000000001C
:1004E000000000000000000000000000000000000C
:1004F00000000000000000E6000100280009025B87
:1005000000030100A0FA0904000001030101000931
:1005100021110100012240000705810308000109A3
:100520000401000203000000092111010001222240
:1005300000070582032000010705030320000109CD
:100540000402000103000000092111010001223B07
:1005500000070584032000011201000200000008CA
:10056000534601000100010203011C0376006900EB
:1005700061006C003A00660036003400630032000F
:1005800062003300630000000C0343006F00720040
:100590006E0065000000100366006F006F007300BE
:1005A000740061006E0000000403090411241FBEE2
:1005B000CFEFDAE0DEBFCDBF11E0A0E0B1E0ECE1CB
:1005C000F6E502C005900D92AC34B107D9F724E0EE
:1005D000ACE4B1E001C01D92AE33B207E1F70E9476
:1005E000BD220C94E82A0C940000FC01AC014C5F85
:1005F0005F4F8FEF91E32191822728E030E087FF62
:1006000009C0880F892721503109C9F7E417F50778
:1006100091F70895880FF7CFE8EDF0E080818E7FA5
:1006200080831092E2001092DA001092E100A0EEB6
:10063000B0E08C9181608C9380818F77808319BC2E
:10064000A7EDB0E08C918E7F8C9380818F7E80832C
:1006500010920B0408952091E4003091E50095E696
:10066000A9012091EC00822F817020FF06C08091AB
:10067000E80080FF06C080E008952091E80022FD98
:100680001AC080913904882389F0853089F08091DF
:10069000EB0085FD0FC02091E4003091E50042178A
:1006A0005307F9F29150E1F684E0089582E008954D
:1006B00083E0089581E00895EF92FF920F931F93D6
:1006C000CF937C018B010E942B03C82F811117C08F
:1006D0008091E80085FD0BC08091E8008E778093C3
:1006E000E8000E942B03882399F3C82F08C0F70164
:1006F00081917F018093F1000150110949F78C2FFE
:10070000CF911F910F91FF90EF900895CF93FC012F
:1007100080913904843001F5C091E900CF702091B7
:10072000EC00922F917020FD90E8C92B82E080931D
:10073000E9008091E80080FF0CC050E040E060E2FA
:1007400070E0CF010E945C038091E8008E77809377
:10075000E800CF70C093E900CF91089580913104F3
:1007600087FF13C08091E80082FF06C08091E800F7
:100770008B778093E80004C0809139048111F2CF17
:100780000895809139048823D9F38091E80080FF8F
:10079000F8CF8091E8008E77ECCF982F9093E90006
:1007A000242F762F50E0891731F07091EC002091C2
:1007B000ED005091F00021FD07C09F5F973071F769
:1007C0008093E90081E008953091EB003E7F309303
:1007D000EB003091ED003D7F3093ED003091EB0068
:1007E00031603093EB007093EC002093ED00509358
:1007F000F0002091EE0027FDE0CF80E00895B0E00A
:10080000A0E0E5E0F4E00C942E2AC8EDD0E0888169
:100810008F7E8883E7EDF0E080818160808384E0D3
:1008200082BF81E080930B0488818E7F888302EEF3
:1008300010E0F80110821092DA0081EEC82ED12C5F
:10084000F601108288818F77888388818068888309
:1008500088818F7D888319BC1092390410923004EE
:1008600010922F0410922E0490EEE92EF12CF70135
:1008700080818B7F808388818160888342E060E013
:1008800080E00E94CD03F60180818E7F8083F80195
:10089000808181608083808188608083F70180818E
:1008A0008E7F8083888180618883CDB7DEB7E8E062
:1008B0000C944A2AFC0180913704909138048617E1
:1008C0009707A0F06115710529F49091E8009E77D3
:1008D0009093E80090E06115710551F4911108C002
:1008E0008091E80082FF34C080E00895BC01F2CF1F
:1008F000809139048823C1F18530C1F18091E800ED
:1009000083FD30C08091E80082FDEACF8091E8004D
:1009100080FFE1CF8091F3002091F200382F611524
:10092000710519F02830310558F091E02830310573
:1009300009F090E02091E8002E772093E800CBCFDB
:1009400081918093F100615071092F5F3F4FE7CF94
:1009500080913904882341F0853041F08091E8008E
:1009600083FFBECF81E0089582E0089583E008957B
:10097000089508950895089580910D04089587E7D6
:1009800097E7909301088093000888E19AE00FB6FA
:10099000F894A895809360000FBE90936000FFCFFD
:1009A0009C014FB7F8948091050490910604A091A2
:1009B0000704B09108044FBF821B930B08952FB713
:1009C000F894609105047091060480910704909159
:1009D00008042FBF08952FB7F894809105049091D3
:1009E0000604A0910704B09108042FBF0895209138
:1009F00028012223C9F02091090427FF15C0E62F02
:100A0000E695E695E695EE31D8F4E80FF92FF11D5D
:100A1000677021E030E001C0220F6A95EAF7209567
:100A20008281282322830895FC0132960896219121
:100A3000621303C0DF0111971C92E817F907B9F799
:100A40000895209128012223C1F02091090427FF55
:100A500014C0E62FE695E695E695EE31F8F4E80F3A
:100A6000F92FF11D677021E030E001C0220F6A9577
:100A7000EAF78281822B82830895FC0132962FEF60
:100A800030E04191641751F02F3F19F4411101C03A
:100A9000232F3F5F3630A9F72F3F09F40895820FC7
:100AA000911D27FD9A95FC0162830895DC016091F8
:100AB0004A0380914B03962F891301C00895292F73
:100AC00030E0F901EE0FFF1FEE5BFC4F40815181DA
:100AD0004A175B07A1F487E08A9FA0018B9F500D06
:100AE0001124465F5C4F81E0FA0184839613E6CFC0
:100AF0002F5F3F4F2370332720934A0308952F5FC2
:100B00003F4F922F9370D8CF1092A7021092A60257
:100B1000EAE0F3E08581811102C0148216823796E3
:100B200083E0E234F807B1F7089581152CE59207C8
:100B300041F42091A0023091A102232B11F490E006
:100B400080E0089580E00895F894E82FE295EF7032
:100B5000F0E031A1282F2F7081E090E001C0880FD4
:100B60002A95EAF7982F9095932391A392A1892B28
:100B700082A3789408959091090492FF06C0282FCB
:100B800028712830F9F4877F846093FF06C0282FEE
:100B900028712831F1F4877E846120910A0420FFB6
:100BA00006C0382F38713830D9F4877F816021FF33
:100BB00006C0282F28712831D1F4877E816194FDE9
:100BC000877E0895282F24712430F9F68B7F886062
:100BD000DCCF282F2471243101F78B7E8861DDCF93
:100BE000382F3171313019F78E7F8860E0CF282F90
:100BF0002171213121F78E7E8861E1CFCF93DF9380
:100C0000EC018238910589F1B8F58133910509F439
:100C100092C028F58932910509F486C08A9709F4B3
:100C200091C0C11523E5D20708F0ACC0C11532E56B
:100C3000D30708F011C1C11540E2D40708F090C0F5
:100C4000C11581E0D80730F5C53AD10508F081C05B
:100C5000C430D105F8F4C130D105E1F040C085338E
:100C6000910509F45AC0C997E1F68091090483708F
:100C700089F0C0EED0E00EC0833E910599F170F48A
:100C8000803E910501F1823E910559F6809109045B
:100C900082FD21C0CE01DF91CF910895863E91055E
:100CA00061F1873E910571F1843E910509F0B9CF5C
:100CB00080910A0481FFEECF80910904C7EED0E055
:100CC00084FD0DC0E7CF8091090480FDF4C09091B0
:100CD0000A0490FFDFCFC3EED0E084FFDBCFD0E08B
:100CE000C0E0D8CF8091090482FDE8C090910A0449
:100CF00090FDBFCF84FFCECFF2CF8091090483FD5A
:100D0000DDCFC8CF8091090483FDDBC090910A0438
:100D100091FFF0CFC4EED0E0BDCF8091090485FFF4
:100D2000B9CFC9E2D0E0B6CF8091090485FFB2CF38
:100D3000C5E3D0E0AFCF8091090486FFABCFCAE214
:100D4000D0E0A8CF8091090486FFA4CFC1E3D0E012
:100D5000A1CFCE01815E9109079708F49BCFBFCF49
:100D6000C11591E5D90708F072C0C11520E5D20779
:100D700008F050C0C11530E4D30708F4B0CFDF70DD
:100D8000D06A88CFC11546E5D407F0F4C11585E5D2
:100D9000D80708F077C0C11594E5D90708F06DC0F1
:100DA000CE018370992721E030E002C0220F331F6B
:100DB0008A95E2F7C695C69590E2C99FE001112495
:100DC000C22BD32BDA6866CFC1152AE5D20778F497
:100DD000C11539E5D30708F060C0C11548E5D4074F
:100DE00008F47DCFDC2FCC27C06FD06A53CFCE0163
:100DF00090568115904208F072CF8D2F8F710E940E
:100E0000BB0590E0982F882788279F719C012C2B89
:100E1000E90141C0CE01E4E096958795EA95E1F7B6
:100E200083702C2F26952695237040E2249F9001F5
:100E30001124382B8C2F8370C1E0D0E002C0CC0F7E
:100E4000DD1F8A95E2F7C22BD32BDC6823CFDC2F82
:100E5000CC27C16FD06A1ECFCE018370992721E0C5
:100E600030E002C0220F331F8A95E2F7C695C6957F
:100E700080E2C89FE0011124E6CFDC2FCC27C46FAD
:100E8000D06A08CF8C2F0E94BB05C82FD0E0DC2F82
:100E9000CC27CC27DF71D062FDCE8C2F8F700E94C3
:100EA000BB0534E0D695C7953A95E1F7CF709C2FF6
:100EB000EC01D069EFCEC9E3D0E0ECCEC2EED0E0D9
:100EC000E9CEC6EED0E0E6CE8091F701882331F07E
:100ED0001092F7011092F6011092F5010895809595
:100EE00090914F03982390934F030895809590918C
:100EF0004E03982390934E0308951092D4011092BC
:100F0000D3011092D20108958091D1019091900166
:100F1000981301C008958F5F8770FACF292F9830FA
:100F200078F5863068F590E036E0239F800D911DBE
:100F30001124682F677023E0969587952A95E1F72D
:100F4000FC01EE0FFF1FE80FF91FEA58FE4F50E0BB
:100F500040E080E0219130E0062E02C036952795D2
:100F60000A94E2F721703327042E01C0220F0A945D
:100F7000EAF7822B4F5F5F4F4330510559F70895D1
:100F800080E00895292F983098F5863088F590E014
:100F900036E0239F800D911D1124282F277041E0FA
:100FA00001C0440F2A95EAF723E0969587952A9584
:100FB000E1F7FC01EE0FFF1FE80FF91FEA58FE4FA3
:100FC00030E020E070E05191DF011197CB01022E5B
:100FD00002C0969587950A94E2F7817081958527DE
:100FE000842385278C932F5F3F4F2330310559F79A
:100FF000089592959F70963091F058F4925F9F708B
:10100000923058F4803F19F030F4883E30F481E09B
:1010100008959A5FF4CF843FD1F380E00895883E2D
:10102000B0F3813FD1F7F3CF9C013A9521153F41B1
:1010300050F5FC01EE27F170BC0166277270AC011F
:10104000442754709C012227387094FF0EC080E121
:10105000EF2B09F480E0672B09F08062452B09F043
:101060008064232B89F08068089581E0EF2B09F4D8
:1010700080E0672B09F08260452B09F08460232B08
:1010800019F08860089580E00895CF93DF93EC0114
:10109000809128018823B1F18091090487FF32C033
:1010A00060E284E08093E9008FEF9091E800815046
:1010B00095FD06C095ED9A95F1F700008111F5CFE9
:1010C0008091E80085FF1BC08091280170E050E00E
:1010D00040E0811104C050E040E068E070E0CE01E3
:1010E0000E945C038091E8008E778093E80080E2A4
:1010F000FE01AEE0B4E001900D928A95E1F7DF9138
:10110000CF91089568E081E0CDCFB0E0A0E0EBE8BA
:10111000F8E00C942C2A7C015B016A018091190291
:1011200001E010E08A3010F40AE010E0C1E0D0E005
:10113000B501C701F6010995811104C021960C176C
:101140001D072CF4CDB7DEB7EAE00C94482ACC9FFB
:101150009001CD9F300D300D112490E080E045E3EB
:101160004A95F1F70000019682179307C1F7E0CF87
:1011700080910302811110C08091D800806180931A
:10118000D8008AE18A95F1F700C08091D90080FFEC
:101190000AC081E08093030281E0909103029130C4
:1011A00009F080E0089582E0809303020E940C031E
:1011B00010923904F1CF0E94B808882359F0E091C9
:1011C0000204F0910304309729F00190F081E02DA2
:1011D0000995089580E00895CF93DF93C7E4D2E0A6
:1011E00060E0CE010E94AC2A2196C11584E0D807A8
:1011F000B9F7DF91CF9108951F93CF93DF93122F0B
:101200008430E0F46830D0F44630C0F4C42FD0E02D
:10121000CC0FDD1F9CE0699FC00DD11D112490E60D
:10122000899FC00DD11D1124632FCE0187960E9486
:10123000AC2A612FCE0188960E94AC2ADF91CF9113
:101240001F910895CF93C82F6FEF81116FED83E247
:1012500090E00E94AC2A6FEFC11163EE84E290E04F
:101260000E94AC2A6FEFC1116BE085E290E00E9412
:10127000AC2ACF910895A4E1B0E0E1E4F9E00C9448
:10128000292AA090A002B090A10281E090E0909362
:10129000A1028093A0028DE7C82E83E0D82E00E043
:1012A000760110E015C0F40125913491472D612F8E
:1012B000802F0E94FC0882E0880E911C7394E6E067
:1012C0007E12F1CFFCE0EF0EF11C1F5F183019F019
:1012D0004701712CE8CF0F5F80E6C80ED11C0430A7
:1012E000F9F61A8219821C821B821E821D821886C0
:1012F0001F828CE291E09A87898707EA11E04AE031
:1013000050E0B801CE0101960E94D02A065F1F4F1F
:10131000073FE1E01E0799F77E01FBE0EF0EF11CAD
:101320008AE0F70111928A95E9F74AE050E0B801A6
:10133000C7010E94D02A065F1F4F0734F2E01F0743
:10134000A1F7B092A102A092A0026496EDE00C94E5
:10135000452A80E00E94220960E086E290E00E9437
:10136000AC2A0E943B090E94EC0881E00E942209FD
:1013700008959B01883070F49AE0899FB001112490
:1013800069557E4F4AE050E0C9010E948E2A90E0E4
:1013900080E008958FEF9FEF0895AAE0B0E0E3EDBD
:1013A000F9E00C942A2A02E513E0F12CE12C85EBFC
:1013B000C82E80E2D82E9CEDA92E90E2B92E23E211
:1013C000822E20E2922EF801D182C082B382A282C4
:1013D00095828482F58AE48ABE016F5F7F4F8E2DED
:1013E0000E94B909892B29F489859A85F801938B84
:1013F000828BFFEFEF1AFF0A0A5E1F4F88E0E816A4
:10140000F10409F72A96ECE00C94462A0F931F93F7
:10141000CF93DF93843030F5683020F5463010F5F7
:10142000C42FD0E0CC0FDD1F2CE0629FC00DD11D7A
:10143000112430E6839FC00DD11D1124CE01879663
:101440000E949E2A082F10E0102F0027CE018896B8
:101450000E949E2A9801282BC901DF91CF911F91EC
:101460000F91089590E080E0F8CF462F2091A402DC
:101470003091A502232B99F4703F39F4603F79F441
:101480008091A2029091A3020895843040F47830B4
:1014900030F4663020F4672F0E94060A089590E029
:1014A00080E00895CF92DF92FF920F931F93CF9326
:1014B000DF936C0100913A048091F801082BC7E09A
:1014C000D0E010E0FC2EC8010C2E02C09595879547
:1014D0000A94E2F780FD0CC02197A0F7F12C8F2D24
:1014E000DF91CF911F910F91FF90DF90CF900895E2
:1014F000B6018C2F0E94350A0E94FE05019761F308
:10150000EECFCF93DF93EC010E94520ABE010E94FE
:10151000350A0E94FE05DF91CF910895FC01868176
:101520009781009729F00E94FE050E94F90708950F
:10153000808191810E94810AF8CFA5E0B0E0E3EAC2
:10154000FAE00C94332A9C01FC0186819781009774
:10155000E1F485E0DE01119601900D928A95E1F7A4
:10156000F901228189819A81222399F0662389F0E9
:101570000E94520A182F682F89819A810E94C207FF
:1015800069817A81812F0E94350A2596E3E00C94C7
:101590004F2A0E948E07182FF3CF83E290E00E941B
:1015A0009E2A8F3D89F484E290E00E949E2A833E29
:1015B00059F485E290E00E949E2A91E08B3009F078
:1015C00090E0892F8170089580E0FCCFCF9384E074
:1015D00090E00E949E2AC82F82E290E00E949E2AFC
:1015E000982F8C2FCF910895AAE0B0E0EAEFFAE0AF
:1015F0000C942E2AE0E5F2E080E5DF011D928A9549
:10160000E9F7EAE0F3E088E3DF011D928A95E9F764
:1016100080E5C82E82E0D82E7F0107EF11E0F701A8
:10162000D182C0824AE050E0B801CE0101960E940A
:101630008E2A88E0FE013196D60101900D928A959E
:10164000E1F789859A85D70113969C938E9312971B
:10165000BAE0CB0ED11CE7E0EE0EF11C065F1F4F87
:101660000734F2E01F07D9F62A96E8E00C944A2ADC
:10167000A4E0B0E0EEE3FBE00C94322A40911502C6
:101680005091160260911702709118022FB7F894CA
:101690008091050490910604A0910704B09108047C
:1016A0002FBF841B950BA60BB70B11E08436910559
:1016B000A105B10590F10E94B808882399F10E9414
:1016C000DF046E5F7F4F8F4F9F4F69837A838B83D9
:1016D0009C838091110190911201845F9D4F4091F4
:1016E000100150E04530510510F044E050E0BE01DB
:1016F0006F5F7F4F0E947E2A82E090E00E94AE29B9
:10170000182F882351F00E94DF0460931502709314
:1017100016028093170290931802812F2496E4E01A
:101720000C944E2A0E94DF0400911A0210911B02B1
:1017300020911C0230911D02600F711F821F931FA8
:10174000C0CFEF92FF921F93CF93DF9300D000D0D2
:101750000F92CDB7DEB77B0190E080E00E94AE290A
:10176000182F882309F487C04091030150E04115E8
:10177000510511F041E050E06091040170910501C4
:10178000645F7D4FCE0105960E947E2A409108023B
:101790005091090260910A0270910B022FB7F894E0
:1017A0008091050490910604A0910704B09108046B
:1017B0002FBF841B950BA60BB70B84369105A10593
:1017C000B10540F48DE092E00E94F5029D818917F9
:1017D00009F451C081E090E00E94AE2981111AC045
:1017E00010E08091040290910502A0910602B09150
:1017F0000702F70180839183A283B383812F0F9027
:101800000F900F900F900F90DF91CF911F91FF904D
:10181000EF90089540910B0150E04530510510F0D4
:1018200044E050E060910C0170910D01645F7D4FC8
:10183000CE0101960E947E2A8DE092E00E94F50280
:101840009D818913CDCF0E94DF04609308027093BD
:10185000090280930A0290930B0289819A81AB81DD
:10186000BC818093040290930502A0930602B0937A
:10187000070211E0B6CF80910D0290910E02A09167
:101880000F02B091100289839A83AB83BC8311113C
:10189000E4CFA7CFACE0B0E0E0E5FCE00C94292A6F
:1018A0008E010F5F1F4F88E0D8011D928A95E9F7DE
:1018B00083E3C82E81E0D82EF12CE12CAA24A39436
:1018C000B12C2DE3822E21E0922EF60181916F0141
:1018D0008F3F09F442C0F894E82FE295EF70F0E0F2
:1018E00021A18F70A50102C0440F551F8A95E2F710
:1018F000CA01922F982B91A392A18095892382A34C
:10190000789400C0E7E3F1E0712C31E021912F3FA2
:1019100009F46EC0A22FA295AF70B0E090968C91A2
:1019200090E02F7002C0959587952A95E2F780FD8B
:101930005FC0832F782A330F8E169F0639F7F60182
:10194000319780818F3F11F00E94A40550EA5A958B
:10195000F1F7F801EE0DFF1D70828FEFE81AF80A1B
:10196000A4E0EA16F10409F0B0CF48E050E0B80175
:101970008EE192E00E94712A7C01892B41F088E07F
:10198000F801AEE1B2E001900D928A95E1F7109175
:101990002702E114F10471F181E08093FB010E94C0
:1019A000EB049093FA018093F9018091F9019091F1
:1019B000FA010E94D004059790F0E12FF0E0EA5C74
:1019C000FD4F80911E02808380911F028183809150
:1019D000200282838091210283831092FB0181E0A7
:1019E00090E0E114F10451F02C96EDE00C94452ABE
:1019F00080E0A0CF8091FB018111D7CF0E94B80871
:101A0000F82EE0912702882309F46CC019861A8603
:101A10001B861C860E2F10E00A5C1D4F8091190258
:101A20008A3050F541EA5BE0BE01675F7F4FC80135
:101A30000E948508882379F148E35BE0BE01675F77
:101A40007F4FC8010E948508882329F1109219024E
:101A50008091260290E044E050E0BE01675F7F4F36
:101A60008A5C9D4F0E94712A21E020930202892BFB
:101A700059F5F12C8F2DB8CF8091FC019091FD018B
:101A80000E94D004843F914068F680910202811147
:101A900012C080E0A9CF809119028F3F29F08F5F9B
:101AA000809319028A30A0F20E94EB049093FD010A
:101AB0008093FC01EACFFE01399684E0DF011D929C
:101AC0008A95E9F710920202E0912602F0E0EA5CC2
:101AD000FD4F89859A85AB85BC8580839183A283E0
:101AE000B383C8CFF0E0EA5CFD4F84E0ADE0B2E044
:101AF00001900D928A95E1F78DE092E00E94F50247
:101B000080930C02C0901102D0901202E090130258
:101B1000F09014028091FE019091FF01A0910002CB
:101B2000B0910102C816D906EA06FB0609F4B1CF46
:101B3000C092FE01D092FF01E0920002F0920102F9
:101B40000E94B8088111A5CF0E94DF04C61AD70AE7
:101B5000E80AF90AC0921A02D0921B02E0921C0213
:101B6000F0921D0296CF80914E0390914F03892BE6
:101B700080934E018091F701882329F10E94EB04A4
:101B80002091F5013091F601821B930B8838934127
:101B900010F00E94640780914E019091F701892B0B
:101BA00080934E01809128018823E1F180910904FE
:101BB00087FF38C08EE1E0E5F1E090E08150A0F5CC
:101BC00091110E94640740E250E065ED71E08EE4FF
:101BD00091E00E94712A892B21F180E2EEE4F1E08C
:101BE000A5EDB1E001900D928A95E1F7E091020434
:101BF000F09103043097A9F080912801882359F0CF
:101C00008091090487FF07C080914E0180934F01A6
:101C100086E080934E010280F381E02D8EE491E016
:101C20000995089586E0C7CF2191222339F29F5F5D
:101C3000C5CFEF92FF920F931F93CF93DF93EC01E9
:101C40008A85811134C0EB80FC8087E5F81A26E193
:101C50002E9DC0012F9D900D1124DC01AE5ABC4F6A
:101C60001496ED91FC911597309731F054966D9143
:101C70007C91885A9C4F099586E18E9D80018F9DAD
:101C8000100D11240E5A1C4FF80187810E9476070F
:101C9000F80180850E946F070E94B30D1882198693
:101CA0001B861E821D821092510310925003CDB7E5
:101CB000DEB7E6E00C944C2ACF93DF93EC018989E0
:101CC000811119C081E0898B80914E039F81892BFE
:101CD00080934E0380914F039885892B80934F0307
:101CE0000E94B30DEA81FB81309729F06C897D89D0
:101CF000CE0106960995DF91CF91089510924E037B
:101D000080912801E0E5F1E0882371F080910904D9
:101D100087FF0AC08EE1DF011D928A95E9F71092D4
:101D20004F030E94B30D089586E0F5CFAAE2B0E01C
:101D3000ECE9FEE00C94332A81E394E02091F10079
:101D4000DC012D93CD01B4E089339B07B9F7809175
:101D50003204833009F472C0B8F4813009F449C008
:101D6000823009F4B3C08091E80083FF96C280916D
:101D70003104909132049A3008F08FC2E92FF0E0DC
:101D8000E651F54D0C945B2A8A3009F48EC08B30F5
:101D900009F471C0893039F780913104813219F723
:101DA0008091350490913604009711F00297D9F68E
:101DB0008091E800877F8093E8008091E80082FFAF
:101DC00038C09091F3008091F200029731F4809135
:101DD000F100813011F0863021F48091F100809380
:101DE0000D048091E8008B778093E8000E94AE0399
:101DF000BACF80913104813A09F0B5CF8091E800E3
:101E0000877F8093E8008091350490913604892B78
:101E100061F460E28EE094E070E00E945A048091E8
:101E2000E8008B778093E8009ECF60E090E080E050
:101E3000F3CF809139048111C0CF95CF80913104C7
:101E4000813A09F090CF8091350490913604892B26
:101E500009F089CF8091E800877F8093E800809126
:101E6000E80080FFFCCF809128018093F1008091F1
:101E7000E8008E77B9CF80913104813209F073CFB9
:101E80008091350490913604892B09F06CCF8091B4
:101E9000E800877F8093E8000E94AE0380913304BE
:101EA000809328010E947E0E5ECF809131048132A2
:101EB00009F059CF8091E800877F8093E8000E9465
:101EC000AE038091340480930C044DCF8091310493
:101ED000813A09F048CF8091E800877F8093E8003D
:101EE0008091E80080FFFCCF80910C04BECF803849
:101EF00099F0823809F0D1C1809135048F70873014
:101F000008F0CBC18093E9008091EB0085FB882726
:101F100080F91092E90006C080912E0490912F0460
:101F2000911182609091E800977F9093E8008093F0
:101F3000F1001092F1008091E8008E77AAC1882309
:101F400009F498C1823009F0A8C18091330481114D
:101F50009BC1809135048F702FEF280F263008F039
:101F60009CC18093E9002091EB0020FF8DC193304C
:101F700031F48091EB0080628093EB0085C19091F9
:101F8000EB0090619093EB0021E030E001C0220F64
:101F90008A95EAF72093EA001092EA008091EB001C
:101FA0008860EACF811179C1109133041F77809145
:101FB000E3008078812B8093E3008091E800877FA5
:101FC0008093E8000E94AE038091E80080FFFCCF80
:101FD0008091E30080688093E30082E0111183E048
:101FE000809339045AC18058823008F056C120913C
:101FF0003304309134042C3DE3E03E07A1F583E047
:102000008A838AE289834FB7F894DE01139620E031
:102010003EE051E2E32FF0E050935700E49120FFBF
:1020200003C0E295EF703F5FEF708E2F90E0EA30D3
:10203000C0F0C7968D939D932F5F243159F74FBF02
:102040008091E800877F8093E8006AE270E0CE012B
:1020500001960E945A048091E8008B778093E800F3
:102060001CC1C096E7CF8091350490913604432F70
:1020700055274330510509F44AC078F541305105E0
:1020800009F485C08BE590E0EDEFF4E042305105B6
:1020900009F003C12091E800277F2093E8002091F8
:1020A0003704309138048217930708F49C0140E00C
:1020B0002115310509F070C041116EC08091E80012
:1020C00082FDC9CF80913904882329F2853019F225
:1020D0008091E80083FFF2CFBECF4132510509F471
:1020E00047C04232510509F0D8C08330910508F04D
:1020F000D4C0FC01EE0FFF1FE05CFE4F0190F081A9
:10210000E02D835C9E4FDC018C9190E01DC0332755
:1021100021303105E9F02115310579F02230310502
:10212000F9F02330310509F0B8C0EAE6F5E0E491B2
:102130008E2F90E0EAE6F5E007C0E8EAF5E0E491EA
:102140008E2F90E0E8EAF5E0009709F4A6C0A2CF50
:10215000E6E9F5E0E4918E2F90E0E6E9F5E0F4CFD2
:10216000E8E8F5E0E4918E2F90E0E8E8F5E0ECCFC8
:102170008330910508F091C0880F991FFC01EA5B3C
:10218000FE4F0190F081E02D89E090E083CF82E165
:1021900090E0E8E5F5E07ECF80913904882309F4EA
:1021A0005ACF853009F457CF8091E80083FD53CF93
:1021B0008091E80082FD82CF8091E80080FF78CF97
:1021C0009091F3008091F2002115310519F08830CB
:1021D000910550F041E0089709F040E08091E80057
:1021E0008E778093E80064CF44914093F10031965C
:1021F000215031090196E8CF803809F04EC0809116
:10220000E800877F8093E800809130048093F1009C
:1022100092CE811142C0109133041230F0F58091BA
:10222000E800877F8093E800109330040E94AE039B
:10223000112311F084E005C08091E30087FDFACFFF
:1022400081E08093390442E061EC81E00E94CD039B
:1022500042E261EC84E00E94CD0342E261EC82E064
:102260000E94CD0342E260EC83E00E94CD038091A6
:10227000390413C080913304813079F481E09330C4
:1022800009F080E080932F041092E9008091E8002B
:10229000877F8093E8000E94AE038091E80083FF6F
:1022A0000AC08091E800877F8093E8008091EB006E
:1022B00080628093EB00AA96E3E00C944F2A0E9480
:1022C0007E0E2FEF84E39CE0215080409040E1F7A8
:1022D00000C0000088E19AE00FB6F894A8958093BA
:1022E00060000FBE90936000FFCF80933A0410927D
:1022F0004F030E94B30D089580913A04982F967071
:10230000963021F488600E9475110895877FFBCF75
:1023100021E030E001C0220F8A95EAF720958091F4
:102320003A0482230E94751108959091D4018095FA
:1023300089238093D401282F277091F4282F082E09
:10234000000C330B9217130659F090910A0492FF78
:1023500007C08595859585950E9488110E947D0707
:102360000895CF93C0910A04C2FB992790F998175A
:1023700091F080FBC2F9C0930A046091090484E0E3
:1023800090E00E94AC2A6C2F82E290E00E94AC2A7E
:1023900082E00E949511CF91089521E030E001C0C4
:1023A000220F8A95EAF780913A04822B0E947511D8
:1023B000089590910A0492FF10C098E0899F9001BF
:1023C0001124622B6093D4010E94CD110E94EB0472
:1023D0009093D3018093D20108950E94CD11089566
:1023E0008093F80110924F030E94B30D0895882343
:1023F00021F00E946F070E94B30D0895882339F0E1
:1024000090914F03982B90934F030E94B30D089522
:10241000882321F00E9476070E94B30D0895882337
:1024200039F090914E03982B90934E030E94B30D78
:1024300008958823A1F19CEF980F913A40F4682FFA
:102440008EE491E00E94F7040E94B30D089590E29B
:10245000980F983050F4877091E001C0990F8A95D9
:10246000EAF7892F0E947607EFCF9BE5980F93300C
:10247000B8F48091720190917301892B81F01092D0
:10248000730110927201E0910204F09103043097FD
:1024900031F00680F781E02D90E080E00995089505
:1024A000885A8731E0F78091740190917501892BEA
:1024B000B1F31092750110927401E0910204F09151
:1024C0000304309761F30084F185E02DE5CFCF93CD
:1024D000C82F8823D9F18CEF8C0F813AC8F58091F1
:1024E0002801882311F18091090487FF1EC0EC2F79
:1024F000E695E695E695F0E0E25BFE4F828190E09E
:102500004C2F477021E030E002C0220F331F4A9564
:10251000E2F782239323892B91F06C2F8EE491E0D4
:102520000E94F7040E94B30D0AC0E0E5F1E086E5E1
:1025300091E02191C21789F38E179F07D1F76C2F75
:102540008EE491E00E9421050E94B30DCF91089581
:1025500080E28C0F8830D0F7C77021E030E001C0F6
:10256000220FCA95EAF780914E03822B80934E0387
:10257000EBCF1F93CF93DF93182FD0E0C0E08933C8
:1025800011F4C0E5D0E0812F0E946712209739F442
:10259000812F0E941912DF91CF911F9108958FE929
:1025A0009FE00197F1F700C000002197EFCF0F9354
:1025B0001F93CF93DF93C62FD42F022FFC0182816C
:1025C0008823A9F060933D040E94EB0490933C049F
:1025D00080933B04C77081E001C0880FCA95EAF779
:1025E0000E940F12DF91CF911F910F91089580915A
:1025F0003D04681332C080913B0490913C040E94DA
:10260000D0048C32914048F510E21D0FCD17B9F07F
:1026100080E28C0F883040F4C77081E001C0880FE1
:10262000CA95EAF70E940812183048F481E09D2FFD
:10263000977001C0880F9A95EAF70E940F12802FB9
:102640000E94B912183070F6D77081E001C0880F6F
:10265000DA95EAF70E940812C5CFC77081E001C081
:10266000880FCA95EAF7F6CFB0E0A0E0EAE3F3E11D
:102670000C942C2AEC018AE0A82E2881222309F44C
:102680008FC02130C9F599818A81913021F4229639
:102690000E94B91205C0923029F422960E94671256
:1026A0002196EBCF933021F422960E941912F8CF95
:1026B000943011F02196F4CF229630E020E0AE0164
:1026C0004F5F5F4F8053990B8A30910550F0215036
:1026D000310930F38FE99FE00197F1F700C0000066
:1026E000F6CFA29EB001A39E700D11249C01260F6F
:1026F000371F8981EA01E3CFE22FF0E0E758FE4F70
:10270000B490822F86958695869590E0FC01E759D6
:10271000FE4FE4902770F12C022E02C0F594E7944E
:102720000A94E2F731E0E322FF24FC01E75AFE4F6E
:10273000C490D12C022E02C0D594C7940A94E2F71B
:1027400031E0C322DD24FC01E75BFE4F049110E081
:1027500002C0159507952A95E2F701701127E1143B
:10276000F10419F081EE0E946712C114D10419F02E
:1027700086EE0E9467128B2D0E94B912C114D104FB
:1027800019F086EE0E941912E114F10419F081EE9D
:102790000E9419120115110509F482CF8CE278CF3D
:1027A000CDB7DEB7EAE00C94482A68EE7EEF90E001
:1027B00080E00E94CA2A60E082E090E00E94AC2A99
:1027C00060E083E090E00E94AC2A1092F80160E0A3
:1027D00084E090E00E94AC2A64E082E290E00E94F3
:1027E000AC2A60E085E090E00E94AC2A60E086E0E0
:1027F00090E00E94AC2A6FEF87E090E00E94AC2A44
:1028000040E050E0BA0188E090E00E94BE2A60E01B
:102810008DE090E00E94AC2A40E050E0BA0188E1EF
:1028200090E00E94BE2A60E087E190E00E94AC2A1E
:1028300040E050E0BA018CE190E00E94BE2A70E0D6
:1028400060E080E290E00E94CA2A40E050E0BA01D5
:1028500088E190E00E94BE2A80E00E9422090E9446
:10286000A90940E050E0BA018FE090E00E94BE2A42
:1028700040E050E0BA0183E190E00E94BE2A089552
:10288000A4E0B0E0E6E4F4E10C942B2A7C01DC0146
:1028900013968D919C911497892B39F08C911196F8
:1028A0009C9189238F3F09F0C5C52496EBE00C94D9
:1028B000472AD60116968C9116978823D1F019963F
:1028C0008D919C910817190739F4809150039091CC
:1028D00051030817190769F0F601978614870387D3
:1028E000C6010E945C0EC60106960E94190E109247
:1028F0004F03FFEFAF1ABF0A26E1C20ED11CB2C5CB
:10290000980122513F452031310508F063C58FEF12
:1029100093E00E949E2A8111A6C05EEED52ED00EB5
:1029200007E412E0D11036C019821A821B821C8281
:1029300099249A9468014FEFC41AD40AC8010E94DE
:102940009E2A89831A82882309F48DC0813009F078
:102950007FC0580152E0A50EB11CC6010E949E2AFC
:10296000C82E8A83882309F47EC0C5010E949E2A4E
:10297000D82E8FEF8C0D8330D8F4580183E0A80E49
:10298000B11CDB82DD2021F0CE0101960E943413C0
:102990008501D0CF011534E0130709F464C0C801E4
:1029A0000E949E2A811101C0DA940F5F1F4FBACF97
:1029B0008BEF8C0D833030F5C8010396DB825C0110
:1029C000DD2031F35801A4E0AA0EB11C0E949E2A1A
:1029D0008C838823E9F28B819C818130BFEF9B0738
:1029E00010F0982F8827E6E0CE1631F0F7E0CF16EA
:1029F00031F00E94AA20CCCF0E947120C9CF0E9442
:102A0000EB1FC6CF24E0C212C3CF580134E0A30E9F
:102A1000B11CC80103960E949E2ADD2021F1882363
:102A200011F18150990B989E9001999E300D1124BF
:102A30004D2D4150550BCA01820F931F019708F489
:102A4000A7CFAFE9BFE01197F1F700C00000F6CFC4
:102A5000CE0101960E94341356019ACF81E00E9464
:102A6000CD110E947C118091D401877009F41DCF93
:102A7000D70112968C91882309F417CF80910A040C
:102A800082FF13CF82E00E9495110FCF81E00E9458
:102A90008811E7CF82E0E3CF2FEFC216D10411F007
:102AA00008F0AEC466E472E08C2D0E94B909892B4F
:102AB00029F586E18C9DF0018D9DF00D1124EE5AD3
:102AC000FC4F8681813009F0B1C08091460290911F
:102AD0004702892B99F08091480290914902892BF5
:102AE00069F080914A0290914B0220914C02309102
:102AF0004D02822B932B892B09F4A2C080912501D2
:102B0000909126018C159D0524F4D0922601C09247
:102B10002501F701828196E19C9D50019D9DB00C9D
:102B2000112495012E5A3C4F6901D90150968C937E
:102B30005097928116968C911697992309F48EC01E
:102B40001A961C930E9319978F5F16968C930E947A
:102B5000EB04F601968785878091F7018783809142
:102B60004F0390914E03892B80870190F081E02DD7
:102B7000309741F0D60154966D917C91C501885AE9
:102B80009C4F09951093510300935003F7018281E4
:102B9000882309F47FC410923D040330FDE51F072C
:102BA00008F08EC00A3F2CE5120730F4C8018250AD
:102BB0009C45449708F08EC00E94E60A90930A0450
:102BC0008093090401315CE5150709F45DC108F043
:102BD000DAC009309CE5190709F444C108F0A5C022
:102BE0000530BCE51B0709F435C108F08AC0033085
:102BF000FCE51F0709F424C108F028C180910904ED
:102C0000816002303CE5130709F41DC1609109049D
:102C100010910A0484E090E00E94AC2A612F82E2C5
:102C200090E00E94AC2A0E947E0E1DCF823009F0F7
:102C300065CF80914A0290914B02892B09F45ECFB7
:102C400026E12C9DC0012D9D900D11248E5A9C4F84
:102C5000DC0150961C920E945C0E50CF882309F430
:102C600095CFF9018189882309F490CFC501885A4D
:102C70009C4F0E94190E8ACF053F8CE51807C9F0BA
:102C8000A0F027E245EE66EE063FACE51A0709F034
:102C90007DCFC7010E94D712E6CE27E245EE65EE52
:102CA000F8CF26E241EE60EEF4CF27E245EE64EE87
:102CB000F0CF26E241EE62EEECCF28E241E0EFCF2A
:102CC00001363DE5130709F477CF053A4DE51407C2
:102CD00009F472CF0631ACE51A0709F0EAC3809116
:102CE0004E038A7A91E009F490E090936E0169E2D4
:102CF000811165E38EE491E00E9421050E94B30DED
:102D0000B2CE80910904806207304CE5140709F4C3
:102D10009AC080910904806108305CE5150708F4C9
:102D200092C08091090480648EC00D308CE5180734
:102D300009F49EC0A0F4809109048E7F0B30ACE5AD
:102D40001A0709F480C0809109048C600C30BCE53E
:102D50001B0708F478C0809109048D7F74C08091AE
:102D600009048F7E0F30ECE51E0709F46CC08091DA
:102D70000904877F0031FCE51F0708F464C08091D7
:102D800009048F7D60C00D3F2CE5120709F478C05F
:102D900040F505314CE5140709F484C080F4033193
:102DA0008CE5180709F47AC008F472C00E947E0E00
:102DB00090910904892F97FB87F9805844C00B3FF5
:102DC000ACE51A0709F44AC008F056C080910A041D
:102DD00081600A3FECE51E0709F018CF80930A04D2
:102DE00015CF0130FDE51F0709F468C0C0F48091DC
:102DF0000A048C7F0F3F3CE5130781F380910A049E
:102E0000836001154DE5140748F380910A04982F5B
:102E1000909591708E7F892B90FB81F9DFCF0136E1
:102E20005DE5150709F450C0053A8DE5180709F46A
:102E300052C002309DE5190709F0E8CE60E03FC0BE
:102E400080910904826080930904E0CE8091090496
:102E50008460F9CF809109048860F5CF80910A04DD
:102E60008260BCCF0E947E0E809109048068EBCF07
:102E7000809109048B7FE7CF80910A048E7FAECFCB
:102E800080910A048D7FAACF809109048F7BDBCFCC
:102E90000E947E0E809109048F77D5CF809109041E
:102EA000837FD1CF8091090482FB992790F921E09B
:102EB000922790FB82F990FB83F9C5CF61E08EE009
:102EC00090E00E94AC2AA2CE90910904892F8F7EB7
:102ED00094FF8061B8CF90910904892F8E7F90FF75
:102EE0008160B1CF0E947E0EBFEFE4E3FCE0B15001
:102EF000E040F040E1F700C000000E94BF04809174
:102F00000A0482FB882780F991E089270E94B11189
:102F1000F701868197810097C9F10E94FE05182F5D
:102F2000092FF701B280C580C2943FE0C32280918F
:102F3000D4018770C1F0AB2CBB20B1F0892F807F0A
:102F4000803421F080E2810F883068F080910A049B
:102F500082FF09C082E00E9495118091D4018770A0
:102F6000AA24A3948111A12C902E92942FE0922256
:102F7000FBE0F91508F480C0E92DF0E0EC50F54DC8
:102F80000C945B2A81E0C2CF80E0C0CF82810081B7
:102F90001181882369F0C8010E94520AD82E682F37
:102FA000C8010E94C207B8018D2D0E94350AB5CF15
:102FB000C8010E948E07D82EF6CF202F2F70D22E58
:102FC000802F807F19F0D29490EFD922BB20B9F0E6
:102FD000DD2069F080E2810F883010F0111109C006
:102FE00080914E03D82AD0924E030E94B30D812FB8
:102FF00041C080914F03D82AD0924F03F6CF812F42
:103000000E941912DD20C1F180E2810F883010F09A
:10301000111104C08D2D0E94760703C08D2D0E94D2
:103020006F070E94B30D28C0302F3F70D32E802F22
:10303000807F803219F0D29480EFD822112351F092
:10304000113009F49AC0BB2009F4A3C0CC2009F4C4
:1030500072C0CDCF80910A0482FD43C0BB20D9F15C
:10306000DD2039F080914E03D82AD0924E030E9481
:10307000B30D80E00E946712292D2850330B2430B5
:10308000310510F40E94DB08812F902F0E94F90770
:1030900081118EC11092710110927001AA20B1F0BD
:1030A0008091D40180FD12C0D70112961C928595A3
:1030B000859585950E94CD11C7010E94401480918D
:1030C000D4018595859585950E94881160E0C7019A
:1030D0000E949D0AEACB80E00E941912DD2061F275
:1030E00099CFBB2051F1C11006C08091F7018D2905
:1030F0000E940F12C1CF41E0C41211C082FFBCCFA9
:103100008091F701D82AD81609F4B6CF0E94EB04B3
:103110009093F6018093F501D092F701ADCF55E081
:10312000C512E3CF0E94640790916F018D2D892B0A
:10313000891380936F018D2DDBCFC11003C00E94D6
:10314000640712C081E0C81213C080914E038D2124
:1031500009F492CF0E94640790916F018D2D8095A4
:103160008923891380936F018D2D0E94081284CFCB
:1031700095E0C91609F480CFE2CFBB2029F0A5E085
:10318000AC1508F479CFD7CFB4E0BC1508F474CFF0
:10319000EBCFCC2049F3193349F4EFEFF7EE23E0FE
:1031A000E150F0402040E1F700C00000812F0E9474
:1031B000191262CF802F837091F5B1105DCF412F2E
:1031C000429546954770440F440F812F8F70042E0F
:1031D00001C0880F0A94EAF7212F207114FF07C05D
:1031E0002FE030E001C0220F4A95EAF72095302FFA
:1031F000369536953370323069F050F44091F801CD
:10320000313029F0822B84230E94F01135CF842B9A
:10321000822BFACF282B8091F8018227F5CF869553
:10322000BB2011F0802F8170882309F425CF412F16
:10323000429546954770440F440F812F8F70042E9E
:1032400001C0880F0A94EAF7212F207114FF07C0EC
:103250002FE030E001C0220F4A95EAF72095302F89
:10326000369536953370323069F050F440913A0417
:10327000313029F0822B84230E947511FDCE842BDE
:10328000822BFACF282B80913A048227F5CF302F5A
:103290003F70D32EBB2029F0832F0E94CD11812FA8
:1032A00027CF812F0E9408128D2D0E948811E4CE15
:1032B000123F89F160F4103FB9F0113F81F0BB205B
:1032C00009F466C0C11093CE802F8F7128C0133FC0
:1032D00049F1143FA1F780910A0482FD2FC0802F8D
:1032E0008F71BB2011F31BC0BB2081F044E04C1553
:1032F00008F4C2CE202F2F7181E090E001C0880F2A
:103300002A95EAF790913A048927B6CF55E05C15E3
:1033100008F4B2CEEFCF802F8F71B110C6CF0E94CC
:10332000CD11AACE80E0BB2009F4A6CF81E0902F7A
:103330009F7101C0880F9A95EAF79ECFBB20D9F004
:103340008091D4018770843041F40E947D07802FE2
:103350008F710E948811A12C8FCE84E08C15D8F338
:10336000902F9F71D92E892F0E94CD1163E08D2D52
:103370000E94D911F0CFA4E0AC1530F40E947D0773
:1033800064E0802F8F71F4CF81E00E949511E3CF2C
:10339000CC2059F0193309F009CFBFEFE7EEF3E085
:1033A000B150E040F040E1F7FFCE802F8F717DCF2C
:1033B000BB2019F0C1106ECE71CEC1106BCE8091C2
:1033C000700190917101029709F064CE812F0E94E3
:1033D000B91260CE0031BFE51B0709F43FCB0131C4
:1033E000EFE51E0709F456CB6801E7E5DE1A8823EE
:1033F00009F452CBFFEFCF16D10409F008F47ECBCD
:10340000033FFCE51F0709F44CCC08F035CC083D20
:103410003CE5130709F441CC093D4CE5140709F4D8
:103420004CCC073D5CE5150709F0B0CB26E241EE38
:1034300061EE2FCC61E0C7010E949D0A8C01D7018B
:1034400012968C918823B1F08091250190912601EC
:10345000019681F062E5C62E63E0D62EB12CA12C38
:103460009924939480912501909126018A159B05BA
:103470000CF01FCAF7018281811142CA0031FFE5B9
:103480001F0709F403CB01312FE5120709F0ACCF78
:1034900082E0FDCA0631BCE51B0709F039CD8091F9
:1034A0006E0169E2811165E38EE491E00E94F70408
:1034B00025CC0A35EDE51E0709F464CD68F4011545
:1034C0002CE5120709F40ECD0E3D1C4509F020CD68
:1034D0000E94D5130E945F110C354DE5140709F4C5
:1034E0000ECD08F451CD073A1D45A1F311CDCF9370
:1034F000DF9380918D01807F09F049C080918A011E
:10350000882309F444C08091D101D0919001609149
:10351000880170918901A0918B01B0918C01C62F17
:10352000C723D817A1F190E0109711F0CF3F19F4FD
:1035300001968770F6CF9C0143E0220F331F4A9516
:10354000E1F7F901EF56FE4F41814713F1CF40817A
:103550004613EECF42814111EBCF438154814A1B88
:103560005B0B4C32514020F780918D018F70806150
:1035700080938D01F901EA56FE4F80818F70806142
:10358000808388E891E00E9440140E948407DF91C4
:10359000CF910895A5E1B0E0E0EDFAE10C942C2A7A
:1035A0008C0185E0F801DE01519601900D928A951B
:1035B000E1F7F801E28068E8A62E61E0B62E60919E
:1035C0008B0170918C016115710509F44CC19091CA
:1035D000880140918901892F84238F3F09F443C1D9
:1035E00020813181C380D480F0908A01F601E61BEE
:1035F000F70BBF01FF2009F411C180918D01582FF5
:10360000507F6C32714008F0C4C0511175C0FE2C5F
:1036100043131EC092131CC060918E0170918F01E4
:10362000F801468157816417750791F4E11010C0C5
:103630008F70806180938D01C5010E94401480913C
:103640008D01F80185838F2D6596EAE00C94482A58
:10365000C114D10429F0822F83238F3F09F01EC1AA
:1036600080E0F82FF170DF2E80FF3CC08091D10107
:1036700040919001841315C0298B3A8B89899A89CE
:103680000E94810A292F22952F702230F8F02430D1
:1036900020F59F70F9F0F8019581907FD9F4D12C35
:1036A0001FC090E0FC0153E0EE0FFF1F5A95E1F7B9
:1036B000EF56FE4F5181351306C05081251303C0CC
:1036C0005281E5120FC001968770D4CF9F7011F020
:1036D000882329F3805E883010F3C8010E944014CB
:1036E000FD2CB1CFEE2009F4AECF80918D01816029
:1036F00080938D01F12CA7CF43131BC0921319C0E7
:1037000040918E0150918F01F80126813781421737
:10371000530779F4E1100DC08583C8010E9440145D
:1037200088E0F801A8E8B1E001900D928A95E1F7F0
:103730008ACFC8010E948E0A882339F1EE2029F130
:1037400080918D018032A0F0209188013091890113
:103750003A8729871B86DD86CC868E8780918E01ED
:1037600090918F01988B8F87CE0109960E9440140B
:1037700088E0F801A8E8B1E001900D928A95E1F7A0
:103780000E94771AFF24F3945ECFC8010E94401470
:10379000F9CF51110AC088E891E00E94401488E0F6
:1037A000F50111928A95E9F7A5CF431318C092133A
:1037B00016C040918E0150918F01F801268137810A
:1037C0004217530761F4E1100AC08583C8010E94C3
:1037D000401488E0F50111928A95E9F734CFC801C9
:1037E0000E948E0A882389F2EE2079F280918D0161
:1037F000803208F4BDCF20918801309189013A834D
:1038000029831B82DD82CC828E8380918E019091F0
:103810008F0198878F83CE010196A8CF6C327140BB
:10382000C0F6FE2CEE2009F4B0CF43130EC0921365
:103830000CC020918E0130918F01F8018681978113
:103840002817390711F488E06DCFC8010E948E0A4D
:1038500081118ECF80918D01816080938D01C8018F
:103860000E944014F0CEEE2009F48FCFC8010E94D0
:103870008E0AF82E882309F488CF88E0F801A8E89A
:10388000B1E001900D928A95E1F7809188019091C5
:1038900089010E94810A0E94771AD5CE81E08E2587
:1038A000E0CEA0E1B0E0E7E5FCE10C94342A298702
:1038B0003A874B875C876D877E878F87988BCE0191
:1038C00009960E94CA1A811112C088E0FE01399639
:1038D000DE01119601900D928A95E1F78C859D8508
:1038E000892B29F089859A8589238F3F81F58091DD
:1038F000D10190919001891317C06096E2E00C9479
:10390000502A93E0AA0FBB1F9A95E1F7AF56BE4F1E
:1039100098E0FE01319601900D929A95E1F780931F
:1039200090010E948407E3CFB8E08B9FC00111246F
:103930008F569E4F0E94CA1A8823F9F28091D101B6
:1039400090E00196877099278093D101D0CFA09104
:103950009001B0E0CD010196877099272091D101A7
:103960002817190671F60E947E0E1092900110928F
:10397000D10188E0E8E8F1E0DF011D928A95E9F7DE
:10398000B6CF0F931F93CF93DF938091A902E0915D
:10399000A802CCE081111AC0DF91CF911F910F9145
:1039A0000895D1E0DE0FD093A8020E2F10E0EC9F17
:1039B000F0011124E655FD4F83819481892B29F074
:1039C0008081918189238F3F51F4ED2F8091A9024D
:1039D000E81738F31092A9021092A802DDCFC09F19
:1039E000D001C19FB00D1124A655BD4F16968D91E3
:1039F0009C911797892B29F418968D919C9101968B
:103A000051F42081318142815381648175818681A5
:103A100097810E94511CC09FF001C19FF00D11249D
:103A2000E655FD4F1482138210924F03CECF1092B1
:103A30004D0310924C031092270180914B03809309
:103A40004A030E9484050E94C11C0895B0E0A0E0D2
:103A5000ECE2FDE10C94252AC0914A0397E0892EFF
:103A600001E010E02CE0322E3EEF932E44244394EC
:103A700080914B038C1309C00E94C11C0E948405D5
:103A8000CDB7DEB7E1E10C94412AD0E0FE01EE0FA4
:103A9000FF1FEE5BFC4F80819181889ED001899E43
:103AA000B00D1124A65FBC4F14962C9114972111D0
:103AB00058C05090A902EAEAF2E030E020E0712C10
:103AC0005D01251508F04BC0E284F384D501CD904B
:103AD000DC906FEF7FEF612C462D50E0DA01AA0FEA
:103AE000BB1FAC0DBD1D0D90BC91A02D109731F0EA
:103AF000EA16FB0609F4BA016394EECF6F3F76072E
:103B0000A9F1D80102C0AA0FBB1F6A95E2F77A2A71
:103B1000B801062C02C0660F771F0A94E2F7AB01CA
:103B20004150510974161506F9F4329EF001339E86
:103B3000F00D1124E655FD4F889ED001899EB00DF1
:103B40001124A65FBC4F12962D913C911397378399
:103B50002683908291829187808715964C920E944D
:103B600056052196C37084CF148213822F5F3F4F76
:103B70003C96A7CFA9E1B0E0E0ECFDE10C94242A4B
:103B8000498B5A8B6B8B7C8B8D8B8C899D89892B78
:103B900029F0CA0189238F3F09F013C28B89811153
:103BA00010924F031D861E861F86188A85E0FE012F
:103BB0007196DE01199601900D928A95E1F7809138
:103BC0000A0482FF1CC00E94EB042091D2013091B4
:103BD000D301821B930B8838934120F08091D4014C
:103BE00082FFEBC10E94EB042091F5013091F601B8
:103BF000821B930B8838934110F00E9464078C85D8
:103C00009D85892B31F089859A8589238F3F09F01D
:103C1000C0C129853A854B855C856D857E858F85FC
:103C200098890E94511CC3C048EFC4164CE5D406C5
:103C300029F4882379F00E94171DEBCF69EFC6168F
:103C40006CE5D60639F4882329F08091270181118B
:103C5000F2CFAFC10AE013E0E12CB12CA12C8824F3
:103C60008394912C2EEF522E44244394F8014081EA
:103C7000518166246A94762C20E0822F90E0FC012A
:103C8000EE0FFF1FE40FF51F608171816115710553
:103C900031F0C616D70609F43C012F5FEECFF12CA8
:103CA000FFEF6F167F0609F444C0F8014481F090DD
:103CB00027018F2D411180E0F82FF170FF2EF801C0
:103CC000258086819B85992309F4F2C0FF2009F4A1
:103CD000EFC0211014C0A401062C01C0440F0A94A7
:103CE000EAF7842B86838091A6029091A702C2975F
:103CF00030F462E370E07093A7026093A602C401FF
:103D000002C0880F991F2A95E2F70197F8012681D2
:103D10002817190671F480914C0390914D03009778
:103D200009F449C00E94D004C39708F444C0F801C4
:103D30004482EF28FFEFAF1ABF0A095F1F4F28E048
:103D4000A216B10409F092CF8B85882309F40CC127
:103D5000EE2009F409C10E94EB0490934D03809377
:103D60004C038091A902883010F591E0980F909350
:103D7000A90298E0FE013996DE01119601900D929C
:103D80009A95E1F73CE0839FC001112486559D4F31
:103D900028E0FE013196DC0101900D922A95E1F7B1
:103DA0002FEF3FEFFC0131872087D386C2866996CB
:103DB000E2E10C94402A80914A0350914B03982FE2
:103DC000F0E0E0E0851314C090934A030E171F073C
:103DD00009F4AFCF90E0FC01EE0FFF1FEE5BFC4F4C
:103DE000B182A08201968370992780934B03A1CF63
:103DF000282E312CF101EE0FFF1FEE5BFC4F2081CE
:103E00003181F7E0F29FD001F39FB00D1124A65F3E
:103E1000BC4F2D913C911197398F288F40E020E0C5
:103E200030E0E32FF0E0EE0FFF1F688D798DE60F95
:103E3000F71F6080718061147104E1F0F801019056
:103E4000F081E02DFF8BEE8B20E005C06616770633
:103E500009F44F2D2F5FE22FF0E0EE0FFF1F6E8968
:103E60007F89E60FF71F608171816115710571F718
:103E70003F5FD7CF4423C9F0F801231708F0FD01B5
:103E800044820E171F0721F490934A03F42E51CF5A
:103E9000891305C0AE17BF0711F49F5F937091019E
:103EA0002F5F3F4F822F83708DCFF0E0E0E0F7CFA0
:103EB00090E0211020C0B40102C0660F771F2A9540
:103EC000E2F79B01215031098217930731F4442313
:103ED00009F448C0C5010E945605C401062C01C062
:103EE000880F0A94EAF7982F9095F8018681892324
:103EF0008683F22C1ECF9C01062C02C03595279597
:103F00000A94E2F7A90141705527BC01615071097B
:103F100086239723892B11F5452B01F1F801828126
:103F20009381892BC1F01B821C821D821E825982C3
:103F30005A820E94EB048160582F9D838C83F80184
:103F4000828193818F83988729813A814B816D810A
:103F50007E810E94511CF8011582BFCFF22FF170B3
:103F60002F2EBBCF2F2CB9CF90914A0380914B03BA
:103F7000981731F00E94261DEE2009F44ACE17CF83
:103F80000E94C11C10924D0310924C030E948405A4
:103F9000F3CF61E0CE0109960E949D0A6C018B85EA
:103FA000F7EFCF16FCE5DF0609F03ECE882309F4D3
:103FB00051CE81E0809327012CCE82E00E949511A2
:103FC00011CE8091700190917101019690937101D1
:103FD00080937001E3CDA5E0B0E0E1EFFFE10C9448
:103FE000322A8C019093A3028093A202011580E2F1
:103FF0001807C0F4802F0E941912C8010E941408EB
:104000009801205E31092830310518F0011511059D
:1040100031F40E9408122596E4E00C944E2A0E9486
:10402000F711F9CF80EF89838A831B820E94EB040A
:104030008160782F9D838C8349815A816B818D812A
:104040000E94BA1DE8CF0F931F93CF93DF938C018B
:10405000EB0166E472E08C2F0E94B909892B71F4A0
:10406000DD27C25CDD4F8881F80110821882833021
:10407000F1F048F4813059F0823081F0DF91CF9136
:104080001F910F9108958430B9F08530B9F7809170
:10409000460290914702009789F306C0809148023A
:1040A00090914902009799F30E94EB1FE7CF80910E
:1040B0004A0290914B02F6CF80914C0290914D02B2
:1040C000009791F720914602309147028091480273
:1040D0009091490221153105F1F2009729F7C901A4
:1040E000E3CFA5E0B0E0E7E7F0E20C94322A8C01E0
:1040F0009093A3028093A202011580E21807C0F4F6
:10410000C8010E9414089801205E31092830310549
:1041100018F00115110549F40E940F12802F0E941A
:1041200067122596E4E00C944E2A0E94FE11F6CF09
:1041300080EF89838A8381E08B830E94EB04816016
:10414000782F9D838C8349815A816B818D810E9458
:10415000BA1DE7CFCF93DF93EC010E947120CE010F
:104160000E94EB1FDF91CF9108950F931F93CF9380
:10417000DF938C01862F66E472E00E94B909892BD7
:10418000B1F4C0914602D0914702209781F0F80126
:104190008081833051F4CE010E94AA20CE010E947A
:1041A000AA20CE010E94AA2002C08430D0F7DF915D
:1041B000CF911F910F9108950F931F93CF93DF938A
:1041C0008C01EB0166E472E08C2F0E94B909892B07
:1041D00009F061C0FE01FF27D8018C91E25CFD4F20
:1041E0008130D9F419969C911997992311F0808305
:1041F0000CC01A969C919923D1F382E08083809120
:104200004802909149020097D9F48091460290911A
:104210004702009709F43FC013C08230D1F51996C8
:104220008C91199781112AC01A968C9181110BC01B
:1042300083E0808380914A0290914B02009701F1C4
:104240000E94712028C084E0808380914C0290916C
:104250004D020097A9F7809146029091470200977E
:10426000F9F00E94AA20809148029091490200979B
:1042700039F78091460290914702E2CF85E0808332
:104280008091460290914702009729F00E94AA204F
:10429000F0CF86E08083DF91CF911F910F91089539
:1042A0008091480290914902B4CF1F920F920FB6AD
:1042B0000F9211242F933F934F935F936F937F93AC
:1042C0008F939F93AF93BF93CF93DF93EF93FF931E
:1042D000D091E900DF708091EC00C82FC17080FDA3
:1042E000C0E81092E9008091F000877F8093F00091
:1042F00078940E94960E1092E9008091F0008860F8
:104300008093F000CD2BCF70C093E900FF91EF9127
:10431000DF91CF91BF91AF919F918F917F916F91DD
:104320005F914F913F912F910F900FBE0F901F9073
:1043300018951F920F920FB60F9211242F933F934F
:104340004F935F936F937F938F939F93AF93BF939D
:10435000EF93FF938091E10082FF09C08091E2001A
:1043600082FF05C08091E1008B7F8093E100809106
:10437000DA0080FF24C08091D80080FF20C08091A7
:10438000DA008E7F8093DA008091D90080FF9DC093
:1043900080E189BD82E189BD09B400FEFDCF81E0E5
:1043A0008093390480910B04811109C00E940C0391
:1043B0000E94FF038091E20084608093E20080917C
:1043C000E10080FF17C08091E20080FF13C0809160
:1043D000E2008E7F8093E2008091E2008061809312
:1043E000E2008091D80080628093D80019BC85E0FB
:1043F000809339048091E10084FF2BC08091E2001A
:1044000084FF27C080E189BD82E189BD89B5982FED
:10441000917080FFFBCF8091D8008F7D8093D80072
:104420008091E1008F7E8093E1008091E2008F7E99
:104430008093E2008091E20081608093E2008091AD
:104440003004882309F447C084E0809339048091C4
:1044500039048091E10083FF27C08091E20083FF4F
:1044600023C08091E100877F8093E10082E0809308
:104470003904109230048091E1008E7F8093E10036
:104480008091E2008E7F8093E2008091E200806163
:104490008093E20042E060E080E00E94CD038091E2
:1044A000F00088608093F000FF91EF91BF91AF9191
:1044B0009F918F917F916F915F914F913F912F913C
:1044C0000F900FBE0F901F90189519BC10923904D1
:1044D00010920B0474CF8091E30087FD93E09093DA
:1044E0003904B5CF78941F921FB61F9211248F9371
:1044F0009F93AF93BF938091050490910604A09180
:104500000704B09108040196A11DB11D8093050414
:1045100090930604A0930704B0930804BF91AF9151
:104520009F918F911F901FBE1F9018951F921FB6CD
:104530001F9211248F939F93AF93BF938091040494
:10454000811113C08091050490910604A091070485
:10455000B09108044196A11DB11D8093050490936C
:104560000604A0930704B0930804BF91AF919F91F4
:104570008F911F901FBE1F901895CDB7DEB7E5979E
:104580000FB6F894DEBF0FBECDBF85B7806885BF7C
:1045900085B7806885BF84B7877F84BF0FB6F894DE
:1045A000A8958091600088618093600010926000FF
:1045B0000FBE80E890E00FB6F8948093610090936E
:1045C00061000FBE82EA95E090934D0180934C010B
:1045D0000E94CD090E94F40A0E940C030E94FF036E
:1045E0008091E20084608093E200789480913904A5
:1045F0008823A1F01091E9001F709091EC00892FA1
:10460000817090FD80E8182B1092E9008091E800FD
:1046100083FD0E94960E1F701093E90082E084BD16
:1046200093E095BD9AEF97BD80936E0010921A02A9
:1046300010921B0210921C0210921D020E94CD0AC1
:10464000811102C00E94A9090E94B8088093180134
:104650000E94B80881110E94C2288091180180919F
:10466000180194E0811190E09093270284E0891B67
:104670008093260284E90E94A40586E60E94A40590
:1046800087E90E94A40586EC0E94A40507E311E0D7
:10469000FDE3EF2EF1E0FF2ED8018D918D018F3FCC
:1046A00011F00E94A405E016F106B1F788E0E6E3F8
:1046B000F2E0DF01282F1D922A95E9F7EEE1F2E002
:1046C000DF011D928A95E9F790E080E00E94A62A1A
:1046D000883E9E4F21F40E94CD0A811102C00E94A3
:1046E000D51382E090E00E949E2A809328020E94C7
:1046F000E60A90930A04809309040E944A0CEFE3AF
:10470000FCE93197F1F700C000000E944A0C0E94BA
:10471000B808E4E08111E0E0F0E0EA5CFD4F808160
:1047200081FF08C06FEF7FEF90E080E00E94CA2A0F
:104730000E94BF0483E090E00E949E2A0E94F01134
:104740000E94B808811102C00E94C52889E191E049
:104750009093030480930204E8E12E2E312C86E32B
:1047600092E0F8E0F80FFDAB8091390470E4F72E89
:1047700000E112E1853009F4BEC00E944A0C8111AB
:104780000E94DF04E6E3F2E0A9E2B2E010E000E01C
:10479000C02EF1908D918F1509F4BCC08F25D12CBE
:1047A000EE24E394982F9E2109F4AFC00E94B8082C
:1047B000882399F0DBA6CCA6FE2081E009F480E0F6
:1047C0008DA70E94EB048160782F9FA78EA74BA531
:1047D0005CA56DA58FA50E94BA1DF801E75DFD4F90
:1047E0008081E826E0820E94B808882369F08091E1
:1047F00025019091260110E006E1019609F0D0C054
:10480000809127018111D6C00E94DB08909131026E
:1048100089138093310280913904843009F0A4CF48
:1048200083E08093E9008091E80082FF9DCF809132
:10483000E80090E085FF06C00E942B03882309F45E
:10484000E4C091E08091E8008B778093E8009923A1
:1048500009F48ACF0091A4021091A5028981011563
:10486000110509F4EEC08E3F09F073C18A818330CF
:1048700020F08550833008F06CC1EA81EE3008F0FA
:1048800068C1F0E0E050F54DCE0101960C945B2A32
:1048900080913904843009F1109204040FB6F89421
:1048A000A895209260000FBEF092600083B7817FD0
:1048B000846083BF83B7816083BF7894889583B712
:1048C0008E7F83BF0FB6F894A895809160008861B1
:1048D00080936000109260000FBE80912F048823A7
:1048E00051F00E944A0CE6E3F2E081918111D2C3BB
:1048F0002DA92E13FACF80913904853009F4C8CF41
:104900000E947E0E0E94DB0838CFD394EE0C36E076
:10491000D31248CF0F5F1F4F0830110509F038CF71
:104920008FEF88AB89AB1AAA0E94EB048160782FC5
:104930009CAB8BAB48A959A96AA98CA90E94BA1D46
:1049400052CF089FF001099FF00D1124EE5AFC4F41
:10495000E288F388E114F10421F46CE2E62EFF24EE
:10496000F394089FF001099FF00D1124EE5AFC4FBB
:1049700086818823A1F0858596850E94D004E8165B
:10498000F90668F4109F70011124C7018E5A9C4FDC
:104990000E945C0EC701885A9C4F0E94190E1F5F2F
:1049A000812F90E0209125013091260128173907A9
:1049B00044F626CF80914C0390914D03009709F463
:1049C00023CF0E94D0042091A6023091A70228177D
:1049D000390708F019CF90914A0380914B0398173B
:1049E00059F00E94261D1092A7021092A602109262
:1049F0004D0310924C0308CF0E94C11C10924D032E
:104A000010924C030E948405FFCE00E210E0FE01EC
:104A100031967F018091E80085FD0AC08091E80011
:104A20008B778093E8000E942B03882399F309CFAA
:104A30008091F100D7018D937D010150110951F74B
:104A400000CF8C3009F4D1C058F5843009F4B4C0DB
:104A500058F4823009F46CC008F09FC0813009F42A
:104A600063C08FEF898375C0863009F4BBC008F43A
:104A7000AEC08B30B1F78091A0029091A102892B3A
:104A800009F467C0CE0101960E9486033FEF81EED4
:104A900094E0315080409040E1F700C0000048CEE3
:104AA000803109F4D5C0A0F58E3009F4A5C008F412
:104AB0009FC08091A0029091A102892B09F449C066
:104AC0008C81E82EF12C2DE1E216F10408F041C0B2
:104AD000CA80DB80DC24CD24DC248E010F5F1F4FD5
:104AE000E00EF11EC601895B9D4FE016F10689F1CB
:104AF00039EBC31631E0D30628F4D80114966C9133
:104B00000E94AC2A0F5F1F4FBFEFCB1ADB0AEACF20
:104B1000823109F4A2C008F49EC0833109F4C8C0F0
:104B20008E3F09F09ECFA9CE1A8289E08B8311C0F7
:104B30008A81823009F4C4C2833081F0813009F067
:104B400090CF0E94DF040E94612A6B837C838D8357
:104B50009E83CE0101960E94860306CE8091A0021C
:104B60009091A102892BA9F3809136028B838091C9
:104B700037028C83809138028D83809139028E8335
:104B800080913A028F8380913B02888780913C021A
:104B9000898780913D028A87DCCF8A81823009F043
:104BA00060CF6B817C818D819E810E94612A86E22B
:104BB00090E00E94AC2ACDCF4C816B818A810E940B
:104BC000060A9827892798279E838D83C2CF2D8137
:104BD0003E813227232732274C816B818A810E94B4
:104BE000FC08B7CF0E943B09B4CF80E18A83B1CFE4
:104BF00081E08A8389EB9ACF8C81E82EF12CBDE18C
:104C0000EB16F10408F0A5CFCA80DB80DC24CD24AC
:104C1000DC248E010F5F1F4FE00EF11EC601895B81
:104C20009D4F0E151F0509F494CFE9EBCE16E1E078
:104C3000DE0658F40E949E2AD80114968C93FFEF4A
:104C4000CF1ADF0A0F5F1F4FE9CFF8011482F7CFA9
:104C50000E94EC087ECF84E0C9CF8C81E82EF12C35
:104C6000EDE1EE16F10408F074CFCA80DB80DC249D
:104C7000CD24DC248E010F5F1F4FE00EF11EC60114
:104C800087960E151F0509F464CFF0E8CF16F1E002
:104C9000DF0658F40E949E2AD80114968C93FFEFE9
:104CA000CF1ADF0A0F5F1F4FEACFF8011482F7CF48
:104CB000EC80F12C2DE1E216F10408F04ACF0A81D4
:104CC0001B81102701271027003831E0130708F057
:104CD00040CF80E891E0801B910B8E159F0508F472
:104CE00038CF480187E2880E911C8091A0029091F4
:104CF000A1023701600E711E892BB9F5680191E0A0
:104D0000C922DD2400FF0DC0C80186960E949E2A9C
:104D10009D8189279827892781159C4511F48FEF5C
:104D20008D83570160FE17C0B1E0AB1AB10855E0A2
:104D3000452E512C4C0E5D1E4A0C5B1CC4018E0D81
:104D40009F1D0E949E2AF201908181159C4519F4B5
:104D50008FEFD2018C93E1E0F0E0EC0FFD1FEC0D42
:104D6000FD1D2FEFCA14DB0428F09E012F5F3F4F7B
:104D7000790119C09481858181159C4511F42483A2
:104D8000258332E0C30ED11C3296ECCF0038A1E06F
:104D90001A0720F4F70164810E94AC2AFFEFEF1A92
:104DA000FF0A0F5F1F4FC80187966016710671F7E3
:104DB000D0CE28E0E9E2F1E0DE01919601900D927B
:104DC0002A95E1F720E2DC011D922A95E9F785E0BA
:104DD000898388E0FE01B196DE01159601900D925F
:104DE0008A95E1F7B6CE84E8898381E08A831B82C5
:104DF0001C82AFCE0C81602F70E0762F66270B816E
:104E0000060F172F111D012E000C220B330B45E04E
:104E1000000F111F221F331F4A95D1F7B901A801B6
:104E2000405E5F4F6F4F7F4F401751076207730718
:104E300008F48FCE0438B1E01B072105310508F0D6
:104E400088CE4538E1E05E076105710520F044E851
:104E500051E060E070E0401B510BB80167507E4F9D
:104E60000E94682A76CE4AE150E06FEF70E0CE01F2
:104E700007960E94872A8091A00289830A831B8259
:104E80001C821D8281E08E8364CE81E090E090934D
:104E9000A5028093A40282E390E090933502809370
:104EA00034020E94EB04909333028093320251CE7D
:104EB000012B51F110913602809132029091330210
:104EC0000E94D0048536910540F111FF26C010FFE5
:104ED00024C00E94EB0490933302809332028091AD
:104EE00034029091350201979093350280933402F9
:104EF000892B51F41092A5021092A40281E090E057
:104F00009093A1028093A0028091A0028983809156
:104F1000A4028A838091340209CE82E390E09093C8
:104F2000350280933402F0CF1092A1021092A002B9
:104F300010CE40E250E06FEF70E00E94872A09CE69
:104F40008B81823009F452C0E8F4882309F444C00C
:104F5000813009F0FECD8C811AE07E01B1E2EB0ECA
:104F6000F11CF701212F11922A95E9F7B7010E9450
:104F7000B9098983F701DE01129601900D921A9505
:104F8000E1F7E7CD833009F467C0843009F0E1CD63
:104F90001C818AE0FE013596DE01919601900D920A
:104FA0008A95E1F789A59AA50E9495059AA789A7F0
:104FB0008FEF183068F4FAE01F9FB0011124695098
:104FC0007E4F4AE050E0CE0181960E94D02A80E0D8
:104FD00089830E94F40ABDCDFE0133968EE1DF0184
:104FE0001D928A95E9F788E0898300CE1C818AE0CA
:104FF000FE013596DE01919601900D928A95E1F7BA
:1050000089A19AA10E9495059AA389A38BA19CA12D
:105010000E9495059CA38BA38DA19EA10E9495053E
:105020009EA38DA38FA198A50E94950598A78FA3F5
:105030008FEF183068F43AE0139FB00111246955DE
:105040007E4F4AE050E0CE0181960E94D02A80E057
:1050500089830E94CD097DCD6C812AE0CE018196A5
:10506000DC01E22F1D92EA95E9F7683088F4629F2F
:10507000B001112469507E4F4AE050E00E948E2A10
:1050800080E089838AE0FE01B196DE011296A6CE09
:105090008FEFF7CF09BD19BD09B400FEFDCF809198
:1050A000D8008F7D8093D8008091E000826080934B
:1050B000E0008091E00081FDFCCF0E947E0E1BCCC1
:1050C00086E290E00E949E2A1B821C821D82DBCE1B
:1050D0008EE14A9B02C08150E1F74A9BFECF0895C2
:1050E0005A9880E28A95F1F75A9A0895FC013BE0BC
:1050F0003A95F1F798E020E080E031E040E14A9510
:10510000F1F7880F4A9B02C08160232742E04A954D
:10511000F1F7000040E14A95F1F7915079F790E1FD
:105120009A95F1F799B132E03A95F1F7000040E134
:105130004A95F1F792FB992790F992272081920FD7
:1051400090830895A1E0B0E0E8EAF8E20C94302AF8
:1051500019828C017C01E60EF11C0E151F0541F42D
:1051600081E09981911180E02196E6E00C944C2A2F
:105170000E946828CE0101960E947628F80181934A
:105180008F01EBCF529A5A9A089552985A9AEA9AF6
:10519000E9E6F0E080818F7C808308956150770B91
:1051A00091E001C0990F6A95EAF720E031E0911192
:1051B00008C0222391F05A9A80E28A95F1F75A9812
:1051C0000895492F482339F05A9A232740E24A95F7
:1051D000F1F79695ECCF5A98F9CF5A98EDCFFF9208
:1051E0000F931F93CF93DF93EC018C01060F111DDA
:1051F000C017D10729F4CDB7DEB7E5E00C944D2AEE
:10520000F9900E94702868E08F2D0E94CE28F0CF80
:105210001F920F920FB60F9211240F931F932F938B
:105220003F934F935F936F937F938F939F93AF932E
:10523000BF93EF93FF93CF93DF930F92CDB7DEB77A
:1052400019820E946828CE0101960E947628082FB4
:10525000069506950695282F22952570902F957016
:10526000290F922F937026952695920F9827977065
:105270008981982B09F05CC0043008F059C080E1A6
:105280008A95F1F75A9A529A82E08A95F1F700C00E
:105290005A9888E0089F80011124D801A050BF4F80
:1052A0001696ED91FC9117973097A9F06091310116
:1052B0007091320114962D913C911597260F371F4E
:1052C00011968D919C911297680F791F13964C91AE
:1052D00013978C910995F801E050FF4F6381662385
:1052E00051F0209131013091320184819581820FFA
:1052F000931F0E94EF280E94702880E18A95F1F7A1
:105300005A9852985A9A80E18A95F1F7F801E0503C
:10531000FF4F6081662351F02091310130913201BD
:1053200081819281820F931F0E94A2280E94682887
:105330000F90DF91CF91FF91EF91BF91AF919F912E
:105340008F917F916F915F914F913F912F911F911D
:105350000F910F900FBE0F901F9018950F931F93F2
:10536000CF93DF93EC0104970CF04CC0F894529A61
:105370005A9885E08A95F1F700009C2F96959570D4
:105380008C2F8570980F892F83709695969523E0C2
:10539000CC0FDD1F2A95E1F7980F8E01092B0E9493
:1053A000702800C068E0802F0E94CE2880E18A9596
:1053B000F1F752985A9A4A9B1EC087E090E04A99AA
:1053C0001CC0FE01E050FF4F63816623F9F020917D
:1053D00031013091320184819581820F931F0E94A7
:1053E000A228811113C0529A5A9A7894DF91CF91D2
:1053F0001F910F91089500C0DECF019729F4529AB2
:105400005A9A789480E0F2CF00C0D9CF0E946828E1
:1054100080E28A95F1F75A98529A80E18A95F1F7DD
:10542000C050DF4F6881662351F0209131013091E7
:10543000320189819A81820F931F0E94EF280E9476
:105440007028789481E0D2CF2F923F924F925F9252
:105450006F927F928F929F92AF92BF92CF92DF9284
:10546000EF92FF920F931F93CF93DF93CDB7DEB7E9
:10547000CA1BDB0B0FB6F894DEBF0FBECDBF09947D
:105480002A88398848885F846E847D848C849B84D4
:10549000AA84B984C884DF80EE80FD800C811B81E2
:1054A000AA81B981CE0FD11D0FB6F894DEBF0FBE11
:1054B000CDBFED010895EE0FFF1F0590F491E02D93
:1054C00009946927962769277827872778270895D9
:1054D000FB01DC0102C005900D9241505040D8F70D
:1054E0000895FB01DC0104C08D910190801921F425
:1054F00041505040C8F7881B990B0895FB01DC010F
:1055000002C001900D9241505040D8F70895DC013F
:1055100001C06D9341505040E0F70895DC01CB018C
:10552000FC01F999FECF06C0F2BDE1BDF89A3196B3
:1055300000B40D9241505040B8F70895F999FECF4C
:1055400092BD81BDF89A992780B50895A8E1B0E091
:1055500042E050E00C94902A262FF999FECF92BD9C
:1055600081BDF89A019700B4021639F01FBA20BD28
:105570000FB6F894FA9AF99A0FBE08950396272F5A
:105580000E94AD2A0E94AC2A252F0E94AD2A242F0A
:105590000C94AD2A0196272F0E94AD2A0C94AC2AB8
:1055A000DC01CB0103C02D910E94DB2A4150504009
:1055B000D0F70895262FF999FECF1FBA92BD81BD6D
:1055C00020BD0FB6F894FA9AF99A0FBE0196089585
:1055D000F894FFCF770F9F0F4D119F0F4D11D20FF2
:1055E000F30F4D11FC100911DD17DD1714181418F5
:1055F0003C183C183C183C18DA1847195819581927
:10560000D926F326FA26A925A92533274527582781
:0C56100094279927A925A925A925A027E2
:10561C000000000100000000000000040100000078
:10562C00040500000000000001BC044508BB04B9DF
:10563C0004BA04B804FFFF01013B6BA0298056EDAE
:10564C00D10C02946697C6F4F5F6F7313340223B41
:0C565C000901E700AC000F052805480517
:00000001FF
