:100000000C9478060C9495060C9495060C94303A52
:100010000C9495060C9495060C9495060C949506F4
:100020000C9495060C9495060C9409140C94361BAC
:100030000C94A02F0C9495060C9495060C949506A0
:100040000C9495060C9495060C9495060C949506C4
:100050000C9495060C94E2140C9495060C94950659
:100060000C9495060C9495060C9495060C949506A4
:100070000C9495060C9495060C9495060C94950694
:100080000C9495060C9495060C9495060C94950684
:100090000C9495060C9495060C9495060C94950674
:1000A0000C9495060C9495060C949506050109028E
:1000B000A10185020901A100050919012905150001
:1000C00025019505750181029501750381010501E1
:1000D000093009311581257F950275088106093897
:1000E0001581257F950175088106050C0A380215D2
:1000F00081257F950175088106C0C005010980A191
:1001000001850319012AB700150126B7009501756D
:10011000108100C0050C0901A101850419012AA064
:1001200002150126A002950175108100C005010984
:1001300006A1018506050719E029E71500250195A7
:1001400008750181020507190029EF1500250195A1
:10015000F0750181020508190129059505750191C0
:1001600002950175039101C00660FF0961A10109B3
:1001700062150026FF0095207508810209631500AD
:1001800026FF00952075089102C005010906A1010E
:10019000050719E029E71500250195087501810279
:1001A0009501750881010507190029FF150026FF33
:1001B0000095067508810005081901290595057542
:1001C000019102950175039101C00000000000003B
:1001D000000000000000000000000000000000001F
:1001E00000000000000000000000000000007E0F82
:1001F00000D4FFFFFFC700000078000000000000EF
:1002000000002A2B28000000000000000000000071
:10021000000000000029000000002C1E34202122D4
:1002200024342627252E362D3738271E1F2021223D
:10023000232425263333362E37381F0405060708B6
:10024000090A0B0C0D0E0F101112131415161718A6
:10025000191A1B1C1D2F3130232D350405060708E4
:10026000090A0B0C0D0E0F10111213141516171886
:10027000191A1B1C1D2F3130354C00DA0281FFD9B1
:10028000F1DB20A4A62EAF00A0C000A1C800AED50F
:1002900080A81FD300408D14200041646A757374D8
:1002A000005261697365004C6F7765720044656642
:1002B00061756C74004C617965723A2000808182AE
:1002C000838485868788898A8B8C8D8E8F90919286
:1002D0009394A0A1A2A3A4A5A6A7A8A9AAABACADDC
:1002E000AEAFB0B1B2B3B4C0C1C2C3C4C5C6C7C853
:1002F000C9CACBCCCDCECFD0D1D2D3D400FD377AA2
:10030000585A000004E6D6B4460200210116000047
:1003100000742FE5A3E0042F01425D003D8889C6EB
:100320005436C3174FE4DCCBB3DF6320E7D717396C
:10033000D83D5F52C90BECB7E6D5195224B07367AC
:1003400059B3E0B456C74788C96520CF4A3C940CDE
:10035000015E29865C8E1FD2901470DD8177B20910
:100360006EB5F6AEE987F3FD6E8628D433CFB87547
:10037000786A02A926DEE8E6250BF2F12FEB95EF6D
:10038000757127C27F9195E2635AB0D245B872C0A9
:10039000B554D7004EDE62BA2013945BD1FF5921C9
:1003A000584935658A11E5CA1A8401C66412A7BC8A
:1003B000C461E80A8B8F1814972CD485C2CA111314
:1003C0009D8194454D5141C1135A07F3F59C8A2EE6
:1003D000B089D73F3EF2C32110C396AA6256BA70C5
:1003E000B31061455FB111971836BB16666F7B4736
:1003F0008FC44223D0767E3FA7ECEA0CBF2774C39C
:1004000009BD093C35A8EED8AEC7E9FF0F2F64DF60
:1004100072C5CDF6701A8177ECEF634989711EFAC7
:10042000EC985A059B0A0F6BC0B382F93085B0A8CF
:10043000A630E1DE91E0E101A42FEECFFAB4CC09C1
:10044000FA55E9DC3EB4782343F5F745FEAA6A7F06
:10045000620EBDEBFB2CF315BF380D4959E00000CF
:10046000005614AADD3187545C0001DE02B008009A
:1004700000C0E5C082B1C467FB020000000004595F
:100480005A2B0014001A00080015001700E00004A1
:10049000001600070009000A00E1001D001B00060D
:1004A0000019000500000000000000E300105F2CB0
:1004B000002A00130012000C0018001C0034003346
:1004C000000F000E000D000B002900380037003629
:1004D0000010001100000000000000E600115F287D
:1004E000002B001E001F00200021002200E0000061
:1004F000000000000000000000E10000000000001B
:100500000000000000000000000000E30001002CDB
:10051000002A0027002600250024002300000000F8
:10052000004F005200510050000000000000000089
:100530000000000000000000000000E600010028AC
:10054000002B001E021F02200221022202E00000F6
:10055000000000000000000000E1000000000000BA
:100560000000000000000000000000E30001002C7B
:10057000002A002702260225022402230235003128
:100580000030002F002E002D003502310230022FE6
:10059000022E022D02000000000000E600010028EB
:1005A00000005C00000000000000000000C25CC50C
:1005B0005CC75CC95C00000000C35CC65CC85CCA68
:1005C0005C00000000000000000000E30001002CBF
:1005D000000000000000000000000000000000001B
:1005E000000000000000000000000000000000000B
:1005F0000000000000000000000000E600010028EC
:1006000000010001007804BB11EE1100000200029D
:10061000007404BB11EE110000030001007904BB5B
:1006200011EE110000040002005E04BB11EE11EF98
:1006300009050001007A04BB11EE1100000600025A
:10064000006004BB11EE110000070002007604BB3D
:1006500011EE110000080001007B04BB11EE110037
:1006600000090002006204BB11EE11CA090A00026F
:10067000006404BB11EE11CA090B0002006604BB42
:1006800011EE11CA090C0002006804BB11EE11CA78
:10069000090D0002006A04BB11EE11CA090E000226
:1006A000006C04BB11EE11CA090F0002006E04BBFE
:1006B00011EE11CA09100002007004BB11EE11CA3C
:1006C00009110002007204BB11EE11CA09120002E6
:1006D000007C04BB11EE110000130002007E04BB7D
:1006E00011EE110000140001008004BB11EE110096
:1006F000001500000000005009B51C000000AF000C
:10070000AE09025B00030100A0FA09040000010326
:1007100001010009211101000122400007058103A8
:100720000800010904010002030000000921110171
:1007300000012222000705820320000107050303B0
:100740002000010904020001030000000921110139
:10075000000122BC000705840320000112010002F1
:1007600000000008534601000100010203011C03C0
:100770007600690061006C003A00660036003400C3
:100780006300320062003300630000000C0343008A
:100790006F0072006E0065000000100366006F00BD
:1007A0006F007300740061006E0000000403090410
:1007B0000000000000003E5B4F5B3E003E6B4F6B55
:1007C0003E001C3E7C3E1C00183C7E3C18001C5722
:1007D0007D571C001C5E7F5E1C0000183C1800004A
:1007E000FFE7C3E7FF00001824180000FFE7DBE77E
:1007F000FF0030483A060E00262979292600407F5E
:1008000005050700407F05253F005A3CE73C5A009C
:100810007F3E1C1C0800081C1C3E7F0014227F2207
:1008200014005F5F005F5F0006097F017F000066C4
:1008300089956A0060606060600094A2FFA29400E5
:1008400008047E04080010207E20100008082A1CDE
:100850000800081C2A0808001E10101010000C1EAA
:100860000C1E0C0030383E383000060E3E0E0600DE
:1008700000000000000000005F000000000700070B
:100880000000147F147F1400242A7F2A12002313EF
:100890000864620036495620500000080703000033
:1008A000001C224100000041221C00002A1C7F1C69
:1008B0002A0008083E080800008070300000080880
:1008C0000808080000006060000020100804020012
:1008D0003E5149453E0000427F400000724949496F
:1008E00046002141494D33001814127F100027455E
:1008F000454539003C4A4949310041211109070069
:10090000364949493600464949291E00000014006D
:1009100000000040340000000008142241001414BC
:1009200014141400004122140800020159090600A1
:100930003E415D594E007C1211127C007F494949AD
:1009400036003E41414122007F4141413E007F4906
:10095000494941007F09090901003E4141517300A5
:100960007F0808087F0000417F4100002040413F90
:1009700001007F08142241007F40404040007F0278
:100980001C027F007F0408107F003E4141413E0071
:100990007F09090906003E4151215E007F0919299E
:1009A000460026494949320003017F0103003F40C8
:1009B00040403F001F2040201F003F4038403F0084
:1009C0006314081463000304780403006159494D5B
:1009D0004300007F41414100020408102000004113
:1009E00041417F00040201020400404040404000B9
:1009F0000003070800002054547840007F28444436
:100A00003800384444442800384444287F0038548F
:100A10005454180000087E0902001824241C780091
:100A20007F080404780000447D4000002040403DE1
:100A300000007F102844000000417F4000007C043B
:100A4000780478007C080404780038444444380072
:100A50007C1824241800182424187C007C08040422
:100A6000080048545454240004043F4424003C40EB
:100A700040207C001C2040201C003C4030403C00BA
:100A80004428102844004C9090907C004464544CBE
:100A900044000008364100000000770000000041DB
:100AA000360800000201020402003C2623263C0016
:100AB0000000000000000000000000000000000036
:100AC000C0E0F0F8F81800C0F0FCFEFFFFFFFFFFE9
:100AD000FFFF7E00000000000000000080C0E0E09A
:100AE000E0E0E0E0E0E0C0800000000080C0E0E086
:100AF000E0E0E0E0E0E0C080000000E0E0C0C0E056
:100B0000E0E0E00000E0E0C0C0E0E0E0E0E0C08065
:100B10000000000080C0E0E0E0E0E0E0E0E0C08055
:100B20000000000000000000000000000000E0F0F5
:100B3000F0F0E0ECEEF7F37020007C7C7C7E007E31
:100B40007E7E7F7F7F000080C0E07E5B4F5BFEC0CB
:100B50000000C000DCD7DEDEDED7DC00C000000015
:100B60000000000000000000000000000000000085
:100B7000000000000000000000F8FCFEFFE000FFA5
:100B8000FFFFFFFFFF80FFFFFFFFFFFFFFFFFF1FD4
:100B90000701000000000000000000FFFFFF8100CF
:100BA000000000000081C3C3C30000FFFFFF8100FD
:100BB000000000000081FFFFFF0000FFFFFF0100B9
:100BC0000000000000FFFFFF010000000001FFFF28
:100BD000FF0000FFFFFF9D1C1C1C1C1C1C9DDFDF79
:100BE000DF000000000000000000000000000F1FF8
:100BF0003F7F7F7F7F7F3F1E0C001F1F1F3F003FF7
:100C00003F3F7F7F7F00307B7F7830202030787FB0
:100C10003B0003000F7F0F0F0F7F0F00030000004A
:100C200000000000000000000000000000000000C4
:100C3000000000000000000000030F1F3F3F3F3F87
:100C40001F1F3F3F7F7F7F3F3F1F3F7F7F7F7F7C17
:100C50007878381C0F00000000000000010307072F
:100C60000707070707070301000000000103070744
:100C70000707070707070301000000070707000031
:100C80000000000000070707000000000000070741
:100C9000070000000103070707070707070703010D
:100CA0000000000000000000000000000000000044
:100CB0000000000000000000000000000000000034
:100CC0000000000000000000000000000000000024
:100CD0000000000000000000000000000000000014
:100CE0000000000000000000000000000000000004
:100CF00011241FBECFEFDAE0DEBFCDBF11E0A0E0D0
:100D0000B1E0E0E3FEE702C005900D92A43EB1071A
:100D1000D9F727E0A4EEB1E001C01D92A338B207D5
:100D2000E1F70E94C72F0C94E33E0C940000FC01F5
:100D3000AC014C5F5F4F8FEF91E32191822728E058
:100D400030E087FF09C0880F892721503109C9F792
:100D5000E417F50791F70895880FF7CFE8EDF0E075
:100D600080818E7F80831092E2001092DA001092D0
:100D7000E100A0EEB0E08C9181608C9380818F7750
:100D8000808319BCA7EDB0E08C918E7F8C9380811D
:100D90008F7E80831092470508952091E400309162
:100DA000E50095E6A9012091EC00822F817020FFDB
:100DB00006C08091E80080FF06C080E00895209181
:100DC000E80022FD1AC080917505882389F08530DE
:100DD00089F08091EB0085FD0FC02091E4003091F7
:100DE000E50042175307F9F29150E1F684E00895C7
:100DF00082E0089583E0089581E00895EF92FF92E4
:100E00000F931F93CF937C018B010E94CD06C82FB7
:100E1000811117C08091E80085FD0BC08091E8002A
:100E20008E778093E8000E94CD06882399F3C82F1F
:100E300008C0F70181917F018093F10001501109F1
:100E400049F78C2FCF911F910F91FF90EF9008954C
:100E5000CF93FC0180917505843001F5C091E900C4
:100E6000CF702091EC00922F917020FD90E8C92B5B
:100E700082E08093E9008091E80080FF0CC050E0A0
:100E800040E060E270E0CF010E94FE068091E80041
:100E90008E778093E800CF70C093E900CF910895DA
:100EA00080916D0587FF13C08091E80082FF06C026
:100EB0008091E8008B778093E80004C080917505ED
:100EC0008111F2CF0895809175058823D9F380911F
:100ED000E80080FFF8CF8091E8008E77ECCF982F64
:100EE0009093E900242F762F50E0891731F070910C
:100EF000EC002091ED005091F00021FD07C09F5FB4
:100F0000973071F78093E90081E008953091EB000C
:100F10003E7F3093EB003091ED003D7F3093ED004C
:100F20003091EB0031603093EB007093EC00209334
:100F3000ED005093F0002091EE0027FDE0CF80E01F
:100F40000895B0E0A0E0E7EAF7E00C946A3BC8ED52
:100F5000D0E088818F7E8883E7EDF0E0808181603A
:100F6000808384E082BF81E08093470588818E7F03
:100F7000888302EE10E0F80110821092DA0081EE10
:100F8000C82ED12CF601108288818F7788838881C2
:100F90008068888388818F7D888319BC109275054D
:100FA00010926C0510926B0510926A0590EEE92E76
:100FB000F12CF70180818B7F808388818160888319
:100FC00042E060E080E00E946F07F60180818E7F42
:100FD0008083F80180818160808380818860808344
:100FE000F70180818E7F8083888180618883CDB77F
:100FF000DEB7E8E00C94863BFC018091730590918C
:10100000740586179707A0F06115710529F4909172
:10101000E8009E779093E80090E06115710551F427
:10102000911108C08091E80082FF34C080E00895EB
:10103000BC01F2CF809175058823C1F18530C1F1E3
:101040008091E80083FD30C08091E80082FDEACF06
:101050008091E80080FFE1CF8091F3002091F200C1
:10106000382F6115710519F02830310558F091E0DD
:101070002830310509F090E02091E8002E77209388
:10108000E800CBCF81918093F100615071092F5F0F
:101090003F4FE7CF80917505882341F0853041F0BF
:1010A0008091E80083FFBECF81E0089582E008953B
:1010B00083E00895089580914905089587E797E7AB
:1010C000909301088093000888E19AE00FB6F894A5
:1010D000A895809360000FBE90936000FFCF2FB75C
:1010E000F89460913E0570913F0580914005909184
:1010F00041052FBF089520913A012223C9F0209184
:10110000420527FF15C0E62FE695E695E695EE31F8
:10111000D8F4E80FF92FF11D677021E030E001C02D
:10112000220F6A95EAF72095828128232283089569
:10113000FC01329608962191621303C0DF011197DA
:101140001C92E817F907B9F7089520913A01222374
:10115000C1F02091420527FF14C0E62FE695E695E1
:10116000E695EE31F8F4E80FF92FF11D677021E0F4
:1011700030E001C0220F6A95EAF78281822B8283D8
:101180000895FC0132962FEF30E04191641751F041
:101190002F3F19F4411101C0232F3F5F3630A9F7CB
:1011A0002F3F09F40895820F911D27FD9A95FC01A8
:1011B0006283089520913B0530913C05281739073B
:1011C00071F090933C0580933B05E0913905F091D7
:1011D0003A05309721F00084F185E02D09950895B6
:1011E00020913705309138052817390771F0909311
:1011F000380580933705E0913905F0913A0530972D
:1012000021F00680F781E02D09950895452B39F0EE
:10121000682381E06F3F09F080E08170089581E0EC
:10122000FCCFDC0160915A0480915B04962F8913F6
:1012300001C00895292F30E0F901EE0FFF1FEE5A8B
:10124000FB4F408151814A175B07A1F487E08A9FD9
:10125000A0018B9F500D1124465E5B4F81E0FA0187
:1012600084839613E6CF2F5F3F4F2370332720935D
:101270005A0408952F5F3F4F922F9370D8CF10924A
:10128000B7031092B603EAE1F4E08581811102C050
:1012900014821682379684E0E235F807B1F7089594
:1012A000B0E0A0E0E6E5F9E00C94683B8FEF9FEF3B
:1012B0004430510508F469C04091420541FB88273C
:1012C00080F990E0880F991F42FB002700F910E099
:1012D000000F111F000F111F802B912B40FBCC24FE
:1012E000C0F8D12C8C299D2943FB222720F9C22F3D
:1012F000E0E0DE2F53E0CC0FDD1F5A95E1F78C2B99
:101300009D2B44FBAA27A0F9B0E0E4E0AA0FBB1F85
:10131000EA95E1F78A2B9B2B45FBEE27E0F9F0E0FD
:10132000A5E0EE0FFF1FAA95E1F78E2B9F2B46FB42
:10133000222720F930E0B6E0220F331FBA95E1F7FB
:10134000822B932B47FB222720F930E03695322F52
:10135000222737952795822B932B20914305322FF7
:101360003170F32EE82EF92A26952170B22EBB0C8F
:10137000A82EBF28C501BB0CAA0BBB0BFB018083A9
:101380009183A283B38390E080E0CDB7DEB7EAE03B
:101390000C94843BEEE5F4E0848195812AE030E012
:1013A000B9010E944C3B60933501868180933401E2
:1013B0008285809333018485809332018685978569
:1013C000B9010E944C3B60933101808980933001C8
:1013D000828980932F01848980932E0108958091C2
:1013E0005E0490915F0490933701809336010895D5
:1013F00081152CE5920741F42091850330918603F5
:10140000232B11F490E080E0089590911F03803F1A
:1014100059F48091200387FF0DC010922003911191
:101420000BC01092170308C0813F81F48091200304
:1014300018169CF3992381F0809121039091220347
:10144000892B09F064C0109216030895823F49F475
:1014500097FFF0CF10921F03809120038111ECCFF2
:10146000E0CF833F19F41916ACF3E4CF20912103A8
:10147000893F29F41216F4F610922103DBCF8A3F3C
:1014800019F427FFD7CFF8CF209122038B3F29F4FF
:1014900027FFD0CF10922203CDCF8C3F19F4121624
:1014A000CCF3C8CF843F31F480911E038E7F8093AC
:1014B0001E03C0CF853F21F480911E038D7FF7CF9F
:1014C000863F21F480911E038B7FF1CF873F21F46B
:1014D00080911E03877FEBCF883F21F480911E030C
:1014E0008F7EE5CF8D3F31F4809118038E7F8093FE
:1014F0001803A0CF8E3F21F4809118038D7FF7CF82
:101500008F3F09F097CF809118038B7FF0CF08951C
:101510008091180380FF0CC060912F0170E07595D9
:101520006795759567956115710549F1862F089541
:1015300081FF06C060912F0170E075956795F3CF2C
:1015400060912F0182FD0BC0909116039923A1F0A9
:1015500060912E0180912F01961738F0682F70E06E
:101560006038710500F38FE70895899FC001112449
:1015700070E00E94A33BF4CF61E070E0D7CF81E040
:10158000089580911803609166047091670480FF4C
:1015900016C020913301269FC001279F900D112472
:1015A000BC0176956795769567956038710508F06A
:1015B00043C06115710509F441C0862F089581FF6C
:1015C0000BC020913301269FC001279F900D11244D
:1015D000BC0176956795E9CF82FF09C08091330100
:1015E0009B01829FB001839F700D1124DECF20915B
:1015F00017032223D1F29091320180913301482FB9
:1016000050E0291748F0CB01849FB001859F700DF1
:10161000949F700D1124C9CF289F90011124269FFB
:10162000A001279F500D369F500D1124692F70E0A7
:10163000CA010E944C3BB9CF8FE7089581E008951D
:10164000803F31F40E94C10A819580932003089560
:10165000813F19F40E94C10AF8CF823F31F40E9401
:10166000C10A819580931F030895833F19F40E9456
:10167000C10AF8CF893F29F40E94880A8093210388
:1016800008958A3F21F40E94880A8195F7CF8B3F05
:1016900031F40E94880A81958093220308958C3F3B
:1016A00019F40E94880AF8CF843F31F480911E0318
:1016B000816080931E030895853F21F480911E036D
:1016C0008260F7CF863F21F480911E038460F1CFC2
:1016D000873F21F480911E038860EBCF883F21F47F
:1016E00080911E038061E5CF8D3F31F48091180316
:1016F00081608093180308958E3F21F48091180330
:101700008260F7CF8F3FB9F7809118038460F1CFE3
:1017100080E00895F894E82FE295EF70F0E031A1B1
:10172000282F2F7081E090E001C0880F2A95EAF7FA
:10173000982F9095932391A392A1892B82A37894BB
:1017400008959091420592FF06C0282F28712830F5
:10175000F9F4877F846093FF06C0282F2871283111
:10176000F1F4877E84612091430520FF06C0382F65
:1017700038713830D9F4877F816021FF06C0282F67
:1017800028712831D1F4877E816194FD877E089588
:10179000282F24712430F9F68B7F8860DCCF282F26
:1017A0002471243101F78B7E8861DDCF382F3171B0
:1017B000313019F78E7F8860E0CF282F21712131D9
:1017C00021F78E7E8861E1CFCF93DF93EC018238E1
:1017D0009105A9F1D8F58133910509F496C048F532
:1017E0008932910509F48AC08A9709F495C0C11518
:1017F00021E5D20708F0BCC0C11530E5D30708F0D9
:1018000014C1C83ED10508F09CC0C03ED10560F5AA
:10181000C83AD10508F087C0C53AD10508F0FDC027
:10182000C130D10509F12097F9F0C430D105E0F4B9
:1018300040C08533910509F45AC0C997C1F680911B
:101840004205837089F0C0EED0E00EC0833E910562
:1018500099F170F4803E910501F1823E910539F6CF
:101860008091420582FD21C0CE01DF91CF91089584
:10187000863E910561F1873E910571F1843E9105A7
:1018800009F0B5CF8091430581FFEECF80914205ED
:10189000C7EED0E084FD0DC0E7CF8091420580FD0A
:1018A00012C19091430590FFDFCFC3EED0E084FFDB
:1018B000DBCFD0E0C0E0D8CF8091420582FD06C1E9
:1018C0009091430590FDBFCF84FFCECFF2CF8091A2
:1018D000420583FDDDCFC8CF8091420583FDF9C06D
:1018E0009091430591FFF0CFC4EED0E0BDCF809141
:1018F000420585FFB9CFC9E2D0E0B6CF809142055D
:1019000085FFB2CFC5E3D0E0AFCF8091420586FF1F
:10191000ABCFCAE2D0E0A8CF8091420586FFA4CF2A
:10192000C1E3D0E0A1CFCF3BD10518F6C85AD0E033
:10193000CC0FDD1FCD56DE4F0990D881C02DD46469
:1019400093CFC11540E2D40758F4C11581E0D80700
:1019500008F08ACFC03FD10508F4ABCFD06584CF63
:10196000C11590E4D90708F4A4CFDF70D06A7CCF0A
:10197000C11525E5D20700F5C11534E5D30708F0F8
:101980008AC0C11543E5D40708F071C0C11582E5CE
:10199000D80708F467C0CE018370992721E030E0B2
:1019A00002C0220F331F8A95E2F7C695C69580E2E2
:1019B000C89FE001112452C0C11599E5D907A8F4C8
:1019C000C11528E5D20708F06BC0C11536E5D3076D
:1019D00008F06FCF8C2F0E94A10BC82FD0E0DC2F16
:1019E000CC27CC27DF71D0623FCFC1154AE5D407A1
:1019F00008F45BC0CE0190568115904208F059CF93
:101A00008D2F8F710E94A10B90E0982F8827882737
:101A10009F719C012C2BE901E6CFC55AD0E0C0573D
:101A2000DE4FC881D0E0D0641FCFCE01E4E09695B0
:101A30008795EA95E1F783702C2F269526952370DC
:101A400040E2249F90011124382B8C2F8370C1E039
:101A5000D0E002C0CC0FDD1F8A95E2F7C22BD32B5A
:101A6000DC6802CFDC2FCC27C16FD06AFDCECE015F
:101A70008370992721E030E002C0220F331F8A953E
:101A8000E2F7C695C69590E2C99FE0011124C22BEA
:101A9000D32BDA68E9CEDC2FCC27C46FD06AE4CE32
:101AA000DC2FCC27C06FD06ADFCE8C2F8F700E94C6
:101AB000A10B34E0D695C7953A95E1F7CF709C2FEE
:101AC000EC01D069D1CEC9E3D0E0CECEC2EED0E0F9
:101AD000CBCEC6EED0E0C8CE80918B02882331F009
:101AE00010928B0210928A021092890208958095BA
:101AF000909177059823909377050895809590911C
:101B00009103982390939103089590919103892BC9
:101B100080939103089510926802109267021092C8
:101B2000660208952091650290912402291302C053
:101B300080E0089530E0F90153E0EE0FFF1F5A9561
:101B4000E1F7EB5DFD4F5181561306C050815813EC
:101B500003C05281541304C02F5F3F4F2770E6CF5C
:101B600081E008958091650290912402981301C04C
:101B700008958F5F8770FACF292F983078F58630D7
:101B800068F590E036E0239F800D911D1124682FA9
:101B9000677023E0969587952A95E1F7FC01EE0F93
:101BA000FF1FE80FF91FE65FFD4F50E040E080E0C7
:101BB000219130E0062E02C0369527950A94E2F76F
:101BC00021703327042E01C0220F0A94EAF7822BDA
:101BD0004F5F5F4F4330510559F7089580E00895F6
:101BE000292F983098F5863088F590E036E0239FCD
:101BF000800D911D1124282F277041E001C0440F52
:101C00002A95EAF723E0969587952A95E1F7FC0156
:101C1000EE0FFF1FE80FF91FE65FFD4F30E020E0F9
:101C200070E05191DF011197CB01022E02C0969511
:101C300087950A94E2F7817081958527842385270B
:101C40008C932F5F3F4F2330310559F708959295BC
:101C50009F70963091F058F4925F9F70923058F4D4
:101C6000803F19F030F4883E30F481E008959A5FA7
:101C7000F4CF843FD1F380E00895883EB0F3813FF4
:101C8000D1F7F3CF9C013A9521153F4150F5FC0166
:101C9000EE27F170BC0166277270AC0144275470C6
:101CA0009C012227387094FF0EC080E1EF2B09F4CD
:101CB00080E0672B09F08062452B09F08064232BBC
:101CC00089F08068089581E0EF2B09F480E0672BAC
:101CD00009F08260452B09F08460232B19F088609D
:101CE000089580E00895CF93DF93682F81E06A30F4
:101CF00019F06D3031F480E00E94010FDF91CF9137
:101D00000895809181079091820726E0FC01ABE75E
:101D1000B7E001900D922A95E1F7603E08F458C0B3
:101D200026E0FC0111922A95E9F7C0918107D09134
:101D3000820746E050E0BE018BE797E00E94CD3B72
:101D40009E012B573540892B41F1C90145E09695FD
:101D500087954A95E1F741E050E0BA0102C0660F6D
:101D6000771F8A95E2F7CB016091790570917A052A
:101D7000862B972BB9016B5F7F4FE5E076956795D2
:101D8000EA95E1F702C0440F551F6A95E2F7842BEC
:101D9000952B90937A05809379052A5F3F4F409168
:101DA0007805642F70E0C9010E944C3B481B463007
:101DB00010F4240F311D211572E0370710F030E0C8
:101DC00020E025583A4F309382072093810796CF21
:101DD000F6E06F9FB00111246055784F46E050E067
:101DE0000E94C43BA2CFCF93DF93EC01FE0184910C
:101DF000811103C0DF91CF9108950E94730E219647
:101E0000F5CFCF93382FE0918107F0918207EB5700
:101E1000F54020917805622F70E0CF010E944C3B85
:101E2000281B822F332361F066E00E94973BC82F66
:101E3000C15010F4CF91089580E20E94730EF8CF44
:101E40009F01280F311D2115324018F080E0F0E08D
:101E5000E0E08E0F9F2F911D85589A4F9093820737
:101E600080938107E7CFB0E0A0E0E9E3FFE00C94C6
:101E70006A3B6C017B0164E670E088E70E94A7384A
:101E8000EC0197FD12C010E000E0F601E00FF11F39
:101E9000849164E670E00E941539EC01892B29F4E5
:101EA0000F5F1F4F0E151F0581F70E948C39CE0161
:101EB000CDB7DEB7E8E00C94863B80918F0390911C
:101EC0009003911103C091E089270895882369F058
:101ED00062E070E08FEF96E00E94330F892B19F0DB
:101EE00080918F03089510928F0380918F03EBCF21
:101EF000CF93C0918F03809190038823D1F00E94EB
:101F00006F08605A75418F4F9F4F60938B0370939A
:101F10008C0380938D0390938E03C11108C062E0FF
:101F200070E08DEF96E00E94330F892B29F0C0916D
:101F30008F038C2FCF91089581E080938F03F7CF8B
:101F4000809344057093460560934505809175051F
:101F50008430F9F48093E9008FEF9091E80081508C
:101F600095FD06C095ED9A95F1F700008111F5CF2A
:101F70008091E80085FF0DC050E040E063E070E034
:101F800084E495E00E94FE068091E8008E778093BD
:101F9000E8000895BC0184E00E94A00F0895BC01F0
:101FA00083E00E94A00F08959C0184E08093E900E3
:101FB0009FEF8091E800915085FD06C085ED8A95E0
:101FC000F1F700009111F5CF8091E80085FF0CC07A
:101FD00050E040E066E070E0C9010E94FE0680919A
:101FE000E8008E778093E8000895CF93DF93EC01AB
:101FF00080913A018823B1F18091420587FF32C078
:1020000060E284E08093E9008FEF9091E8008150D6
:1020100095FD06C095ED9A95F1F700008111F5CF79
:102020008091E80085FF1BC080913A0170E050E08C
:1020300040E0811104C050E040E068E070E0CE0173
:102040000E94FE068091E8008E778093E80080E28F
:10205000FE01AAE4B5E001900D928A95E1F7DF91C7
:10206000CF91089568E081E0CDCF019708F40895FD
:10207000EFE9FFE03197F1F700C00000F6CFB0E0E4
:10208000A0E0E5E4F0E10C94683B7C015B016A01AF
:102090008091AD0201E010E08A3010F40AE010E017
:1020A000C1E0D0E0B501C701F6010995811104C076
:1020B00021960C171D072CF4CDB7DEB7EAE00C947F
:1020C000843BCC9F9001CD9F300D300D112490E0CA
:1020D00080E045E34A95F1F70000019682179307E7
:1020E000C1F7E0CF80919702811110C08091D80094
:1020F00080618093D8008AE18A95F1F700C08091D1
:10210000D90080FF0AC081E08093970281E090911E
:102110009702913009F080E0089582E08093970261
:102120000E94AE0610927505F1CF0E9472108823AE
:1021300059F0E0913905F0913A05309729F0019076
:10214000F081E02D0995089580E008950F931F9385
:10215000CF93DF930EE514E0C7EAD1E0CE010E94F1
:10216000993EF80181938F012196CB3CF1E0DF0786
:10217000A9F7CBE0D6E0FE0185919491009711F08C
:10218000FC0109952C96F7E0C730DF07A1F7DF9136
:10219000CF911F910F9108950F931F93CF93DF93CA
:1021A000843030F5683020F5463010F5C42FD0E08B
:1021B000CC0FDD1F2CE0629FC00DD11D112430E635
:1021C000839FC00DD11D1124CE0187960E94993E98
:1021D000082F10E0102F0027CE0188960E94993E0C
:1021E0009801282BC901DF91CF911F910F9108957C
:1021F00090E080E0F8CF462F2091890330918A0348
:10220000232B99F4703F39F4603F79F48091870370
:10221000909188030895843040F4783030F466302B
:1022200020F4672F0E94CC10089590E080E008957C
:10223000CF92DF92FF920F931F93CF93DF936C01A6
:102240000091760580918C02082BC7E0D0E010E069
:10225000FC2EC8010C2E02C0959587950A94E2F7D2
:1022600080FD0CC02197A0F7F12C8F2DDF91CF912D
:102270001F910F91FF90DF90CF900895B6018C2FA2
:102280000E94FB100E94E40B019761F3EECFCF9305
:10229000DF93EC010E941811BE010E94FB100E9406
:1022A000E40BDF91CF910895FC018681978100971F
:1022B00029F00E94E40B0E94270E089580819181ED
:1022C0000E944711F8CFA5E0B0E0E9E6F1E10C94F7
:1022D0006F3B49835A8389819A81662399F022232F
:1022E00089F00E941811182F682F89819A810E9405
:1022F000F00D69817A81812F0E94FB102596E3E021
:102300000C948B3B0E94BC0D182FF3CFFC01262FA1
:1023100086819781009739F4408151816281738170
:1023200084810E946311089583E290E00E94993EA7
:10233000893C89F484E290E00E94993E8D3259F400
:1023400085E290E00E94993E91E08F3809F090E09C
:10235000892F8170089580E0FCCFCF9384E090E0D6
:102360000E94993EC82F82E290E00E94993E982FE9
:102370008C2FCF910895DB01FC0132962591349189
:102380004217530758F0FC01349665917491A901E6
:10239000CD010E94DA3B90E080E008958FEF9FEF3F
:1023A00008950F931F93CF93DF930EE514E0C7EAD0
:1023B000D1E0CE010E94993EF80161918F0168172A
:1023C00019F0CE010E94A73E2196CB3CF1E0DF0739
:1023D00081F7DF91CF911F910F910895DA019C0150
:1023E0002E5F3F4FF90145915491F90125913491A8
:1023F000A217B30758F0FC013496859194910E947E
:10240000DA3B0E94D11190E080E008958FEF9FEFBA
:102410000895CF93DF93CBE6D2E060E0CE010E9437
:10242000A73E2196C11584E0D807B9F7DF91CF9177
:1024300008951F93CF93DF93122F8430E0F4683018
:10244000D0F44630C0F4C42FD0E0CC0FDD1F9CE0A8
:10245000699FC00DD11D112490E6899FC00DD11D2B
:102460001124632FCE0187960E94A73E612FCE01D3
:1024700088960E94A73EDF91CF911F910895CF9338
:10248000C82F6FEF811169EC83E290E00E94A73EB4
:102490006FEFC1116DE284E290E00E94A73E6FEF02
:1024A000C1116FE885E290E00E94A73ECF910895A8
:1024B000CF93C92F682F84E090E00E94A73E6C2F35
:1024C00082E290E00E94A73ECF9108959B01883060
:1024D00070F49AE0899FB001112465537E4F4AE061
:1024E00050E0C9010E94893E90E080E008958FEF9E
:1024F0009FEF0895AAE0B0E0E0E8F2E10C94663BBB
:1025000007E814E0F12CE12C8AE0C82E83E2D82EF3
:1025100091E3A92E93E2B92E2FE7822E22E2922E8A
:10252000F801D182C082B382A28295828482F58A28
:10253000E48ABE016F5F7F4F8E2D0E946612892B49
:1025400029F489859A85F801938B828BFFEFEF1A26
:10255000FF0A0A5E1F4F88E0E816F10409F72A9681
:10256000ECE00C94823BAAE0B0E0E9EBF2E10C94E1
:102570006A3BE5E3F3E080E5DF011D928A95E9F728
:10258000EAE1F4E088E3DF011D928A95E9F785E34B
:10259000C82E83E0D82E7F010BE112E0F701D18233
:1025A000C0824AE050E0B801CE0101960E94893E07
:1025B00088E0FE013196D60101900D928A95E1F7EF
:1025C00089859A85D70113969C938E931297BAE0CA
:1025D000CB0ED11CE7E0EE0EF11C065F1F4F0B3651
:1025E000F2E01F07D9F62A96E8E00C94863BA4E0B7
:1025F000B0E0EDEFF2E10C946E3B4091A9025091F6
:10260000AA026091AB027091AC022FB7F89480914E
:102610003E0590913F05A0914005B09141052FBF27
:10262000841B950BA60BB70B11E084369105A10511
:10263000B10590F10E947210882399F10E946F08F1
:102640006E5F7F4F8F4F9F4F69837A838B839C830D
:10265000809111019091120180569D4F409110017F
:1026600050E04530510510F044E050E0BE016F5F8E
:102670007F4F0E94DA3B82E090E00E94D63A182F0A
:10268000882351F00E946F086093A9027093AA02F8
:102690008093AB029093AC02812F2496E4E00C94DB
:1026A0008A3B0E946F080091AE021091AF02209108
:1026B000B0023091B102600F711F821F931FC0CF13
:1026C000EF92FF921F93CF93DF9300D000D00F9231
:1026D000CDB7DEB77B0190E080E00E94D63A182F9C
:1026E000882309F487C04091030150E0411551054A
:1026F00011F041E050E060910401709105016056D5
:102700007D4FCE0105960E94DA3B40919C0250918C
:102710009D0260919E0270919F022FB7F894809164
:102720003E0590913F05A0914005B09141052FBF16
:10273000841B950BA60BB70B84369105A105B1053B
:1027400040F481EA92E00E9497069D81891709F47E
:1027500051C081E090E00E94D63A81111AC010E089
:102760008091980290919902A0919A02B0919B0257
:10277000F70180839183A283B383812F0F900F9001
:102780000F900F900F90DF91CF911F91FF90EF90DE
:10279000089540910B0150E04530510510F044E0A0
:1027A00050E060910C0170910D0160567D4FCE019B
:1027B00001960E94DA3B81EA92E00E9497069D8191
:1027C0008913CDCF0E946F0860939C0270939D0285
:1027D00080939E0290939F0289819A81AB81BC81F4
:1027E0008093980290939902A0939A02B0939B02CF
:1027F00011E0B6CF8091A1029091A202A091A30214
:10280000B091A40289839A83AB83BC831111E4CF76
:10281000A7CF1F920F920FB60F9211242F933F93C1
:102820004F935F936F937F938F939F93AF93BF93D8
:10283000EF93FF938091E10082FF09C08091E20055
:1028400082FF05C08091E1008B7F8093E100809141
:10285000DA0080FF24C08091D80080FF20C08091E2
:10286000DA008E7F8093DA008091D90080FF9DC0CE
:1028700080E189BD82E189BD09B400FEFDCF81E020
:102880008093750580914705811109C00E94AE06AD
:102890000E94A1078091E20084608093E200809111
:1028A000E10080FF17C08091E20080FF13C080919B
:1028B000E2008E7F8093E2008091E200806180934D
:1028C000E2008091D80080628093D80019BC85E036
:1028D000809375058091E10084FF2BC08091E20018
:1028E00084FF27C080E189BD82E189BD89B5982F29
:1028F000917080FFFBCF8091D8008F7D8093D800AE
:102900008091E1008F7E8093E1008091E2008F7ED4
:102910008093E2008091E20081608093E2008091E8
:102920006C05882309F447C084E080937505809185
:1029300075058091E10083FF27C08091E20083FF4D
:1029400023C08091E100877F8093E10082E0809343
:10295000750510926C058091E1008E7F8093E100F7
:102960008091E2008E7F8093E2008091E20080619E
:102970008093E20042E060E080E00E946F07809177
:10298000F00088608093F000FF91EF91BF91AF91CC
:102990009F918F917F916F915F914F913F912F9177
:1029A0000F900FBE0F901F90189519BC10927505CF
:1029B0001092470574CF8091E30087FD93E09093D8
:1029C0007505B5CF78941F921FB61F9211248F936F
:1029D0009F93AF93BF9380913E0590913F05A09147
:1029E0004005B09141050196A11DB11D80933E05A2
:1029F00090933F05A0934005B0934105BF91AF91DF
:102A00009F918F911F901FBE1F9018959C014FB7EB
:102A1000F89480913E0590913F05A0914005B091BA
:102A200041054FBF821B930B08952FB7F8948091F7
:102A30003E0590913F05A0914005B09141052FBF03
:102A400008950E9415159C0190911F038091200309
:102A5000982B21F030931C0320931B0390912103AA
:102A600080912203982B21F030931A0320931903AD
:102A7000E0913905F0913A05309749F082E0809372
:102A80001D030480F581E02D8DE193E00995089503
:102A9000ACE0B0E0EEE4F5E10C94653B8E010F5F35
:102AA0001F4F88E0D8011D928A95E9F783ECC82E64
:102AB00081E0D82EF12CE12CAA24A394B12C2DEC8A
:102AC000822E21E0922EF60181916F018F3F09F451
:102AD00042C0F894E82FE295EF70F0E021A18F70EA
:102AE000A50102C0440F551F8A95E2F7CA01922F33
:102AF000982B91A392A18095892382A3789400C0FA
:102B0000E7ECF1E0712C31E021912F3F09F46EC028
:102B1000A22FA295AF70B0E090968C9190E02F70AC
:102B200002C0959587952A95E2F780FD5FC0832FB7
:102B3000782A330F8E169F0639F7F6013197808178
:102B40008F3F11F00E948A0B50EA5A95F1F7F80175
:102B5000EE0DFF1D70828FEFE81AF80AA4E0EA1666
:102B6000F10409F0B0CF48E050E0B80182EB92E008
:102B70000E94CD3B7C01892B41F088E0F801A2EB5B
:102B8000B2E001900D928A95E1F71091BB02E11439
:102B9000F10471F181E080938F020E9415159093EA
:102BA0008E0280938D0280918D0290918E020E9400
:102BB0000615059790F0E12FF0E0E25FFC4F809161
:102BC000B20280838091B30281838091B4028283B8
:102BD0008091B502838310928F0281E090E0E1142E
:102BE000F10451F02C96EDE00C94813B80E0A0CFF5
:102BF00080918F028111D7CF0E947210F82EE09140
:102C0000BB02882309F46CC019861A861B861C86B1
:102C10000E2F10E0025F1C4F8091AD028A3050F5FC
:102C200040E653E1BE01675F7F4FC8010E943F103D
:102C3000882379F147EF52E1BE01675F7F4FC801FA
:102C40000E943F10882329F11092AD028091BA02B0
:102C500090E044E050E0BE01675F7F4F825F9C4F91
:102C60000E94CD3B21E020939602892B59F5F12C4F
:102C70008F2DB8CF80919002909191020E940615FD
:102C8000843F914068F680919602811112C080E0E5
:102C9000A9CF8091AD028F3F29F08F5F8093AD0265
:102CA0008A30A0F20E9415159093910280939002B1
:102CB000EACFFE01399684E0DF011D928A95E9F79B
:102CC00010929602E091BA02F0E0E25FFC4F898533
:102CD0009A85AB85BC8580839183A283B383C8CF5B
:102CE000F0E0E25FFC4F84E0A1EAB2E001900D92D7
:102CF0008A95E1F781EA92E00E9497068093A0020C
:102D0000C090A502D090A602E090A702F090A80281
:102D10008091920290919302A0919402B0919502B9
:102D2000C816D906EA06FB0609F4B1CFC092920292
:102D3000D0929302E0929402F09295020E94721057
:102D40008111A5CF0E946F08C61AD70AE80AF90AAE
:102D5000C092AE02D092AF02E092B002F092B10205
:102D600096CFCF93C82F8091430582FF0CC08091EE
:102D70008B028C1741F00E94151590938A02809364
:102D80008902C0938B02CF91089580916004909145
:102D90006104892B89F00E941515209189023091D8
:102DA0008A02AC01421B530B81E0209160043091F8
:102DB00061044217530708F480E081700895809100
:102DC000910390917705892B8093E60180918B0286
:102DD000882319F18091600490916104892B29F076
:102DE0000E94C51681110E946C0D8091E6019091A0
:102DF0008B02892B8093E60180913A018823E1F1CF
:102E00008091420587FF38C08EE1E8EEF1E090E066
:102E10008150A0F591110E946C0D40E250E069E6EE
:102E200072E086EE91E00E94CD3B892B21F180E299
:102E3000E6EEF1E0A9E6B2E001900D928A95E1F7A5
:102E4000E0913905F0913A053097A9F080913A0167
:102E5000882359F08091420587FF07C08091E601E1
:102E60008093E70186E08093E6010280F381E02D04
:102E700086EE91E00995089586E0C7CF219122233F
:102E800039F29F5FC5CFEF92FF920F931F93CF93BD
:102E9000DF93EC018A85811134C0EB80FC8087E5EB
:102EA000F81A26E12E9DC0012F9D900D1124DC0102
:102EB000A957BB4F1496ED91FC911597309731F0BF
:102EC00054966D917C9183579B4F099586E18E9D19
:102ED00080018F9D100D112409571B4FF801878128
:102EE0000E947E0DF80180850E94770D0E94DF16FA
:102EF000188219861B861E821D82109286041092EB
:102F00008504CDB7DEB7E6E00C94883BCF93DF9322
:102F1000EC018989811116C081E0898B8F810E9423
:102F2000850D809177059885892B809377050E9480
:102F3000DF16EA81FB81309729F06C897D89CE010B
:102F400006960995DF91CF91089580913801877F8A
:102F50008093380182E00E94770D8091380184FFD0
:102F600006C08F7E8093380182E00E94850D80919B
:102F7000380185FF06C08F7D8093380180E20E9472
:102F8000850D0E94DF16089590E080E00E94F00811
:102F900090E080E00E94DA08109277050E94DF1628
:102FA00086E0EDE1F3E0DF011D928A95E9F71092EA
:102FB000170310921603109218030E94211508950A
:102FC000809376050E94C417089580917605982F06
:102FD0009670963021F488600E94E0170895877FEC
:102FE000FBCF21E030E001C0220F8A95EAF720955F
:102FF0008091760582230E94E017089590916802DF
:103000008095892380936802282F277091F4282FB8
:10301000082E000C330B9217130659F090914305BC
:1030200092FF07C08595859585950E94F1170E94AE
:103030008B0D08959091430592FB222720F92817C4
:1030400069F080FB92F9909343058091420590913D
:1030500043050E94581282E00E94FE17089521E065
:1030600030E001C0220F8A95EAF780917605822B25
:103070000E94E01708959091430592FF10C098E0D8
:10308000899F90011124622B609368020E942F187F
:103090000E941515909367028093660208950E941E
:1030A0002F18089580938C020E94C41708951092DF
:1030B000910380913A01E8EEF1E0882361F080917C
:1030C000420587FF08C08EE1DF011D928A95E9F76E
:1030D0000E94C417089586E0F7CFAAE2B0E0E3E7C4
:1030E000F8E10C946F3B8DE695E02091F100DC0156
:1030F0002D93CD01B5E085379B07B9F780916E051B
:10310000833009F472C0B8F4813009F449C08230C8
:1031100009F4B3C08091E80083FF96C280916D05E9
:1031200090916E059A3008F08FC2E92FF0E0EB51D4
:10313000F14C0C94B73B8A3009F48EC08B3009F403
:1031400071C0893039F780916D05813219F780910E
:10315000710590917205009711F00297D9F6809150
:10316000E800877F8093E8008091E80082FF38C004
:103170009091F3008091F200029731F48091F10078
:10318000813011F0863021F48091F100809349055F
:103190008091E8008B778093E8000E945007BACFB7
:1031A00080916D05813A09F0B5CF8091E800877F65
:1031B0008093E8008091710590917205892B61F4EC
:1031C00060E28AE495E070E00E94FC078091E800EC
:1031D0008B778093E8009ECF60E090E080E0F3CFB3
:1031E000809175058111C0CF95CF80916D05813A91
:1031F00009F090CF8091710590917205892B09F0AB
:1032000089CF8091E800877F8093E8008091E80073
:1032100080FFFCCF80913A018093F1008091E8001B
:103220008E77B9CF80916D05813209F073CF80918F
:10323000710590917205892B09F06CCF8091E8009F
:10324000877F8093E8000E94500780916F058093EC
:103250003A010E9457185ECF80916D05813209F0C6
:1032600059CF8091E800877F8093E8000E94500743
:1032700080917005809348054DCF80916D05813A0E
:1032800009F048CF8091E800877F8093E800809123
:10329000E80080FFFCCF80914805BECF803899F0D0
:1032A000823809F0D1C1809171058F70873008F0A4
:1032B000CBC18093E9008091EB0085FB882780F9E2
:1032C0001092E90006C080916A0590916B059111FA
:1032D00082609091E800977F9093E8008093F100DE
:1032E0001092F1008091E8008E77AAC1882309F43A
:1032F00098C1823009F0A8C180916F0581119BC1EE
:10330000809171058F702FEF280F263008F09CC137
:103310008093E9002091EB0020FF8DC1933031F4C0
:103320008091EB0080628093EB0085C19091EB006F
:1033300090619093EB0021E030E001C0220F8A956C
:10334000EAF72093EA001092EA008091EB0088608F
:10335000EACF811179C110916F051F778091E30049
:103360008078812B8093E3008091E800877F8093B1
:10337000E8000E9450078091E80080FFFCCF809118
:10338000E30080688093E30082E0111183E0809382
:1033900075055AC18058823008F056C120916F05DA
:1033A000309170052C3DE3E03E07A1F583E08A8370
:1033B0008AE289834FB7F894DE01139620E03EE05D
:1033C00051E2E32FF0E050935700E49120FF03C057
:1033D000E295EF703F5FEF708E2F90E0EA30C0F023
:1033E000C7968D939D932F5F243159F74FBF8091DE
:1033F000E800877F8093E8006AE270E0CE010196E2
:103400000E94FC078091E8008B778093E8001CC144
:10341000C096E7CF8091710590917205432F552793
:103420004330510509F44AC078F54130510509F49B
:1034300085C08BE590E0E1E0F7E04230510509F00E
:1034400003C12091E800277F2093E80020917305B5
:10345000309174058217930708F49C0140E0211510
:10346000310509F070C041116EC08091E80082FD05
:10347000C9CF80917505882329F2853019F2809192
:10348000E80083FFF2CFBECF4132510509F447C0B7
:103490004232510509F0D8C08330910508F0D4C0FC
:1034A000FC01EE0FFF1FE852FE4F0190F081E02D6E
:1034B0008B529E4FDC018C9190E01DC03327213050
:1034C0003105E9F02115310579F022303105F9F0A7
:1034D0002330310509F0B8C0EEE6F7E0E4918E2F15
:1034E00090E0EEE6F7E007C0ECEAF7E0E4918E2F1B
:1034F00090E0ECEAF7E0009709F4A6C0A2CFEAE971
:10350000F7E0E4918E2F90E0EAE9F7E0F4CFECE801
:10351000F7E0E4918E2F90E0ECE8F7E0ECCF833019
:10352000910508F091C0880F991FFC01E252FE4FEF
:103530000190F081E02D89E090E083CF82E190E07E
:10354000ECE5F7E07ECF80917505882309F45ACF2A
:10355000853009F457CF8091E80083FD53CF8091E7
:10356000E80082FD82CF8091E80080FF78CF9091C3
:10357000F3008091F2002115310519F08830910592
:1035800050F041E0089709F040E08091E8008E7724
:103590008093E80064CF44914093F100319621502C
:1035A00031090196E8CF803809F04EC08091E800DB
:1035B000877F8093E80080916C058093F10092CE24
:1035C000811142C010916F051230F0F58091E80032
:1035D000877F8093E80010936C050E9450071123A9
:1035E00011F084E005C08091E30087FDFACF81E00F
:1035F0008093750542E061EC81E00E946F0742E232
:1036000061EC84E00E946F0742E261EC82E00E947C
:103610006F0742E260EC83E00E946F0780917505BE
:1036200013C080916F05813079F481E0933009F007
:1036300080E080936B051092E9008091E800877F1D
:103640008093E8000E9450078091E80083FF0AC041
:103650008091E800877F8093E8008091EB00806292
:103660008093EB00AA96E3E00C948B3B1F920F92A1
:103670000FB60F9211242F933F934F935F936F9345
:103680007F938F939F93AF93BF93CF93DF93EF93EA
:10369000FF93D091E900DF708091EC00C82FC170DA
:1036A00080FDC0E81092E9008091F000877F809350
:1036B000F00078940E946D181092E9008091F0005B
:1036C00088608093F000CD2BCF70C093E900FF910C
:1036D000EF91DF91CF91BF91AF919F918F917F91AA
:1036E0006F915F914F913F912F910F900FBE0F906F
:1036F0001F901895EEE5F4E0128E138E8FEA90E09D
:103700009183808325E0248F88E893E193838283EB
:103710008AE090E09583848344E150E057834683B8
:1037200068E070E071876087938782874EE150E0A0
:10373000558744879787868740E550E0518B408BBB
:10374000738B628B68E270E0758B648B62E370E070
:10375000778B668B60EF70E0718F608F158E978F1F
:10376000868F51A340A322A30E94D1110E94571813
:103770001092430510924205E3E4F5E080818460F5
:10378000808380914205909143050E9458120E94C7
:10379000A6100895A4E1B0E0E0EDFBE10C94653BD8
:1037A000A0908503B090860381E090E0909386031B
:1037B0008093850381E8C82E84E0D82E00E076014E
:1037C00010E015C0F40125913491472D612F802F11
:1037D0000E94191282E0880E911C7394E6E07E121A
:1037E000F1CFFCE0EF0EF11C1F5F183019F047011C
:1037F000712CE8CF0F5F80E6C80ED11C0430F9F6BB
:103800000E947A1B1A8219821C821B821E821D82D0
:1038100018861F8280EF90E09A8789870BEC11E071
:103820004AE050E0B801CE0101960E94CB3E065F0F
:103830001F4F0B31E2E01E0799F77E01FBE0EF0E10
:10384000F11C8AE0F70111928A95E9F74AE050E00D
:10385000B801C7010E94CB3E065F1F4F0B36F2E056
:103860001F07A1F7B0928603A09285036496EDE04E
:103870000C94813B80E00E943F1260E086E290E081
:103880000E94A73E0E94CA1B0E94091281E00E946A
:103890003F12089568EE7EEF90E080E00E94C53E02
:1038A00060E082E090E00E94A73E60E083E090E06C
:1038B0000E94A73E10928C0260E084E090E00E949B
:1038C000A73E64E082E290E00E94A73E60E085E0CF
:1038D00090E00E94A73E60E086E090E00E94A73E54
:1038E0006FEF87E090E00E94A73E40E050E0BA0111
:1038F00088E090E00E94B93E60E08DE090E00E9498
:10390000A73E40E050E0BA0188E190E00E94B93E55
:1039100060E087E190E00E94A73E40E050E0BA01FD
:103920008CE190E00E94B93E70E060E080E290E0BF
:103930000E94C53E40E050E0BA0188E190E00E945C
:10394000B93E80E00E943F120E943A1C40E050E0E5
:10395000BA018FE090E00E94B93E40E050E0BA0129
:1039600083E190E00E94B93E0895CF92DF92EF92FA
:10397000FF928FEF9FEF4430510508F46AC0FB01BE
:10398000C080D180E280F3800E9457188091420568
:10399000C0FA80F9B701A6017695679557954795C6
:1039A00040FB81F9B701A60122E07695679557950E
:1039B00047952A95D1F740FB82F9B701A60133E07C
:1039C00076956795579547953A95D1F740FB83F9DA
:1039D000B701A601E4E07695679557954795EA9576
:1039E000D1F740FB84F9B701A601F5E0769567951C
:1039F00057954795FA95D1F740FB85F9B701A60190
:103A0000A6E07695679557954795AA95D1F740FB1F
:103A100086F9B701A601B7E0769567955795479562
:103A2000BA95D1F740FB87F9809342058091430511
:103A3000D0FA80F9D1FACC24C0F8C0FA81F9809389
:103A4000430580914205909143050E94581290E0F1
:103A500080E0FF90EF90DF90CF9008950E9457187C
:103A60002FEF84E39CE0215080409040E1F700C0BC
:103A7000000088E19AE00FB6F894A8958093600062
:103A80000FBE90936000FFCF882321F00E94770D36
:103A90000E94DF160895882339F090917705982BBE
:103AA000909377050E94DF160895882321F00E94E5
:103AB0007E0D0E94DF160895882321F00E94850D57
:103AC0000E94DF160895882391F19CEF980F913A98
:103AD00040F4682F86EE91E00E947B080E94DF167A
:103AE000089590E2980F983050F4877091E001C0EB
:103AF000990F8A95EAF7892F0E947E0DEFCF9BE5FB
:103B0000980F933028F490E080E00E94F008089528
:103B100098E5980F973128F490E080E00E94DA0849
:103B20000895803F20F00E94050A0E942115089503
:103B3000CF93DF93EC010E94631DCE010E94420EE1
:103B40009E01205E31092830310510F0CD2B29F47B
:103B50000E94551DDF91CF9108950E94441DFACF18
:103B6000CF93C82F8823D9F18CEF8C0F813AC8F5F9
:103B700080913A01882311F18091420587FF1EC090
:103B8000EC2FE695E695E695F0E0EA51FE4F82814E
:103B900090E04C2F477021E030E002C0220F331F2D
:103BA0004A95E2F782239323892B91F06C2F86EEBE
:103BB00091E00E947B080E94DF160AC0E8EEF1E067
:103BC0008EEE91E02191C21789F38E179F07D1F7EE
:103BD0006C2F86EE91E00E94A5080E94DF16CF911F
:103BE000089580E28C0F883048F4C77081E001C0EE
:103BF000880FCA95EAF70E94850DEFCFEBE5EC0F31
:103C0000E33040F4F0E0E057FE4F808190E00E9406
:103C1000F008E5CFE8E5EC0FE73150F4F0E0EE0F07
:103C2000FF1FED56FE4F808191810E94DA08D7CFA9
:103C3000C03FA8F28C2F0E94200B0E942115CFCFED
:103C40001F93CF93DF93182FC0917E04D0917F04F0
:103C5000893321F0C0917C04D0917D04812F0E9492
:103C6000B01D209739F4812F0E94631DDF91CF9101
:103C70001F9108958FE99FE00197F1F700C00000C0
:103C80002197EFCF0F931F93CF93DF93C42FD22FA2
:103C9000FC0182818823A9F0409384040E941515B9
:103CA0009093830480938204C77081E001C0880FE1
:103CB000CA95EAF70E945C1DDF91CF911F910F9189
:103CC000089510918404141336C080918204909159
:103CD00083040E94061520917604309177048217A0
:103CE000930748F5C0E2CD0F1D17B9F080E2810FB0
:103CF000883040F4177081E001C0880F1A95EAF708
:103D00000E94551DC83048F481E09D2F977001C076
:103D1000880F9A95EAF70E945C1D802F0E94201E52
:103D2000C83050F6D77081E001C0880FDA95EAF705
:103D30000E94551DC1CFC77081E001C0880FCA9590
:103D4000EAF7F6CFB0E0A0E0E8EAFEE10C94683BC9
:103D5000EC018AE0A82E2881222309F48FC02130AB
:103D6000C9F599818A81913021F422960E94201E02
:103D700005C0923029F422960E94B01D2196EBCF07
:103D8000933021F422960E94631DF8CF943011F0F5
:103D90002196F4CF229630E020E0AE014F5F5F4FD6
:103DA0008053990B8A30910550F02150310930F33E
:103DB0008FE99FE00197F1F700C00000F6CFA29EC7
:103DC000B001A39E700D11249C01260F371F89811D
:103DD000EA01E3CFE22FF0E0E650FE4FB490822FED
:103DE00086958695869590E0FC01E651FE4FE4901D
:103DF0002770F12C022E02C0F594E7940A94E2F7A2
:103E000031E0E322FF24FC01E652FE4FC490D12CA6
:103E1000022E02C0D594C7940A94E2F731E0C3227F
:103E2000DD24FC01E653FE4F049110E002C015951D
:103E300007952A95E2F701701127E114F10419F0B2
:103E400081EE0E94B01DC114D10419F086EE0E94CB
:103E5000B01D8B2D0E94201EC114D10419F086EED6
:103E60000E94631DE114F10419F081EE0E94631DAC
:103E70000115110509F482CF8CE278CFCDB7DEB7FA
:103E8000EAE00C94843BCF93DF93EC010E94420E56
:103E90009E01205E31092830310510F0209741F451
:103EA0000E945C1D8C2F0E94B01DDF91CF91089560
:103EB0000E944B1DF7CF662329F0209177052260E1
:103EC000209377059C013056211540E2340720F0FD
:103ED000305E2115304108F499270E94431F089550
:103EE000B0E0A0E0E6E7FFE10C946B3B7C018B01C6
:103EF000D42E8091380182FF8CC0C091B403D09140
:103F0000B503CE15DF0521F0E114F10409F081C0FD
:103F1000809138018B7F8093380181FD73C080913F
:103F2000B2039091B303A801481B590B81E0209183
:103F30003601309137014217530708F480E0817051
:103F4000F82E80913801F0FA81F980933801FE0152
:103F500083E0F695E7958A95E1F7EE71FF27EE5637
:103F6000FC4F20813181AE014F70552781E090E0F8
:103F700002C0880F991F4A95E2F7FF2009F444C058
:103F8000822B932B918380838091910381FF08C0C2
:103F90008091380180618093380182E00E947E0D1B
:103FA0008091910385FF08C08091380180628093E1
:103FB000380180E20E947E0D6F2DCE010E945B1FB2
:103FC000DD2031F08091790485FF02C086FF3BC07F
:103FD00080917C0490917D040E9435108091B403FF
:103FE0009091B5039C013056211540E2340720F032
:103FF000305E2115304108F499270E94981D0E94D7
:10400000A5171DC081E09BCF8095909582239323B7
:10401000B9CFC701992797013056211540E23407DF
:1040200028F0305E2115304108F0C7010E94981D2C
:104030008091B4039091B5038E159F0501F3109301
:10404000B3030093B203CDB7DEB7E7E00C94873B30
:10405000A9E1B0E0EEE2F0E20C94603B942F498BD2
:10406000252F5A8B6B8B7C8B8D8B4C895D89622FB6
:10407000892F0E940609811109C080910802909140
:104080000902019690930902809308028B8981119D
:10409000109277051D861E861F86188A85E0FE0110
:1040A0007196DE01199601900D928A95E1F7809143
:1040B000430582FF1EC08091600490916104892BAA
:1040C000C1F00E9415152091660230916702821B93
:1040D000930B20916004309161048217930720F0C4
:1040E0008091680282FFE2C10E94C51681110E9480
:1040F0006C0D4C855D856A8589850E940609811154
:1041000011C061E0CE0109960E9486116C018B8579
:1041100027EFC2162CE5D20681F4882321F181E035
:104120008093390129853A854B855C856D857E852F
:104130008F8598890E94412EC6C038EFC3163CE592
:10414000D30629F4882379F00E94FD2EEBCF49EFA6
:10415000C4164CE5D40639F4882329F0809139013E
:104160008111F2CFDCCF0AE114E0512CB12CA12C4B
:1041700022242394312C2EEF422EF80140815181CC
:1041800088248A94982C20E0822F90E0FC01EE0F86
:10419000FF1FE40FF51F608171816115710531F01A
:1041A000C616D70609F44C012F5FEECFF12CFFEFB6
:1041B0008F169F0609F449C0F8014481F090390137
:1041C0008F2D411180E0F82FF170FF2EF801E5806E
:1041D00086819B85992309F4F8C0FF2009F4F5C076
:1041E0006090740470907504E11013C0A101082C54
:1041F00001C0440F0A94EAF7842B86838091B603AA
:104200009091B7038615970520F47092B7036092DA
:10421000B603C10102C0880F991F2A95E2F70197E2
:10422000F80126812817190681F480915C04909189
:104230005D04009709F44BC00E94061568167906C4
:1042400008F045C021E0F80124835F28FFEFAF1A92
:10425000BF0A095F1F4F28E0A216B10409F08DCFF5
:104260008B85882309F40DC1552009F40AC10E94E9
:10427000151590935D0480935C048091B903883098
:1042800010F591E0980F9093B90398E0FE013996EC
:10429000DE01119601900D929A95E1F73CE0839F23
:1042A000C001112486549C4F28E0FE013196DC01A8
:1042B00001900D922A95E1F72FEF3FEFFC01318736
:1042C0002087D386C2866996E2E10C947C3B80917C
:1042D0005A0450915B04982FF0E0E0E0851314C07D
:1042E00090935A04E017F10709F4AFCF90E0FC0176
:1042F000EE0FFF1FEE5AFB4FB182A0820196837032
:10430000992780935B04A1CF682E712CF301EE0FE7
:10431000FF1FEE5AFB4F2081318147E0429FD001C1
:10432000439FB00D1124A65EBB4F6D917C911197F8
:10433000798F688F40E020E030E0E32FF0E0EE0F6F
:10434000FF1F688D798DE60FF71F808091808114A3
:104350009104E1F0F8010190F081E02DFF8BEE8BEC
:1043600020E005C08616970609F44F2D2F5FE22F37
:10437000F0E0EE0FFF1F6E897F89E60FF71F608167
:1043800071816115710571F73F5FD7CF4423D1F07B
:10439000F801231708F0FD0121E024830E171F0701
:1043A00021F490935A04F42E50CF981305C0AE1701
:1043B000BF0711F49F5F937093012F5F3F4F822FD0
:1043C00083708CCFF0E0E0E0F7CF90E0E11020C008
:1043D000B10102C0660F771F2A95E2F79B012150B9
:1043E00031098217930731F4442309F448C0C50109
:1043F0000E941109C101082C01C0880F0A94EAF734
:10440000982F9095F801868189238683FE2C1DCFF5
:104410009C01082C02C0359527950A94E2F7A90162
:1044200041705527BC016150710986239723892B60
:1044300011F5452B01F1F80182819381892BC1F09F
:104440001B821C821D821E8249824A820E9415158F
:104450008160582F9D838C83F801828193818F83A3
:10446000988729813A814B816D817E810E94412EFE
:10447000F8011582BFCFF22FF170EF2EBBCFEF2CDA
:10448000B9CF90915A0480915B04981731F00E9443
:104490000C2F552009F446CE16CF0E94AF2E109255
:1044A0005D0410925C040E943F09F3CF82E00E94F9
:1044B000FE171ACEA5E0B0E0E0E6F2E20C94703B05
:1044C0009093880380938703811520E2920730F44C
:1044D0000E94981D2596E2E00C948C3B80EF898326
:1044E0008A831B820E9415158160782F9D838C839F
:1044F00049815A816B818D810E942820EBCF0F93D7
:104500001F93CF93DF938C01EB016BE273E08C2F51
:104510000E946612892BA1F480917C0490917D0405
:104520000E943510DD27CD5DDC4F8881F8011082B7
:1045300018828330F1F048F4813059F0823081F0F4
:10454000DF91CF911F910F9108958430B9F085309C
:10455000B9F780912B0390912C03009789F306C043
:1045600080912D0390912E03009799F30E945A2277
:10457000E7CF80912F0390913003F6CF80913103E4
:1045800090913203009791F720912B0330912C03E7
:1045900080912D0390912E0321153105F1F20097A2
:1045A00029F7C901E3CFA5E0B0E0E9EDF2E20C9410
:1045B000703B9093880380938703811520E29207D4
:1045C00030F40E94431F2596E2E00C948C3B80EF70
:1045D00089838A8381E08B830E9415158160782FFF
:1045E0009D838C8349815A816B818D810E94282013
:1045F000EACFCF93DF93EC010E94D32280917C0419
:1046000090917D040E943510CE010E945A22DF91C4
:10461000CF9108950F931F93CF93DF938C01862F33
:104620006BE273E00E946612892BB1F4C0912B03F8
:10463000D0912C03209781F0F8018081833051F4D0
:10464000CE010E94F922CE010E94F922CE010E94E1
:10465000F92202C08430D0F7DF91CF911F910F91E2
:1046600008950F931F93CF93DF938C01EB016BE2BF
:1046700073E08C2F0E946612892B09F061C0FE0145
:10468000FF27D8018C91ED5DFC4F8130D9F419964C
:104690009C911997992311F080830CC01A969C91D4
:1046A0009923D1F382E0808380912D0390912E0392
:1046B0000097D9F480912B0390912C03009709F473
:1046C0003FC013C08230D1F519968C911997811192
:1046D0002AC01A968C9181110BC083E0808380914F
:1046E0002F0390913003009701F10E94D32228C03C
:1046F00084E0808380913103909132030097A9F781
:1047000080912B0390912C030097F9F00E94F922DD
:1047100080912D0390912E03009739F780912B0300
:1047200090912C03E2CF85E0808380912B039091C0
:104730002C03009729F00E94F922F0CF86E08083B5
:10474000DF91CF911F910F91089580912D0390914A
:104750002E03B4CFA4E0B0E0E0EBF3E20C94673BAF
:104760007C01DC0113964D915C91149711966C912C
:1047700011978C910E9406098111F8C161E0C7016F
:104780000E9486118C01F70182818111EDC0D70151
:1047900012968C91811127C10031BFE51B0709F4E6
:1047A000E9C10131EFE51E0709F4E8C16801E7E559
:1047B000DE1A882309F4E4C1C8019056811590429D
:1047C00008F013C2C801992720E28C33910520F428
:1047D000FC01EC5AFE4F20811F922F939F938F93E1
:1047E000D7018C911F928F9311968C911F928F936A
:1047F00083E491E09F938F931F9288E18F938DECD8
:1048000092E09F938F930E94EA3B0FB6F894DEBF2D
:104810000FBECDBFFFEFCF16D10411F008F048C096
:1048200080912501909126018C159D0524F4D0924C
:104830002601C0922501D70112968C91129796E11C
:104840009C9D50019D9DB00C1124F501E957FB4F33
:104850006F01808B12969C918681992309F4E3C1A4
:10486000128701878F5F86830E941515D6011E96D9
:104870009C938E931D9780918B0217968C9317971C
:104880008091770590919103892B18968C931897B6
:10489000ED91FC911197309739F054966D917C9180
:1048A000C50183579B4F0995109386040093850497
:1048B0008091790480FF39C00E9415156C01D701E1
:1048C00012968C91882309F4C9C18091380182FF26
:1048D00008C025EC32E040E0B60190E080E00E94A4
:1048E000701F0B31BCE51B0709F4AAC10C31ECE5C4
:1048F0001E0709F4ABC190913801892F8E7F90FF7C
:1049000081600A31FCE51F0709F4A3C1C801905674
:10491000811520E2920728F0905E8115904108F001
:10492000ABC11092B5031092B403033FBCE51B0763
:1049300009F4EEC208F090C2083DFCE51F0709F437
:10494000E1C2093D2CE5120709F4FAC2073D3CE536
:10495000130709F08DC206E221EE41EE67ED7CE51A
:10496000C7010E94421EF2C080912501909126014C
:10497000019609F40CCF77E8C72E74E0D72EB12C3E
:10498000A12C9924939480912501909126018A1558
:104990009B050CF4FCCEF60186818823E9F0818525
:1049A00092850817190739F480918504909186043F
:1049B0000817190789F0D6011F969C921F971C961D
:1049C0001C930E931B97C6010E948617C60106967C
:1049D0000E94431710927705BFEFAB1ABB0AE6E1BE
:1049E000CE0ED11CD0CF980122513F452031310548
:1049F00008F0A4C68FEF93E00E94993E8111A6C0F3
:104A00006EEED62ED00E0BE612E0D11036C0198213
:104A10001A821B821C8299249A9468012FEFC21A71
:104A2000D20AC8010E94993E89831A82882309F418
:104A30008DC0813009F07FC0580132E0A30EB11C57
:104A4000C6010E94993EC82E8A83882309F47EC03D
:104A5000C5010E94993ED82E8FEF8C0D8330D8F47B
:104A6000580143E0A40EB11CDB82DD2021F0CE0111
:104A700001960E94A21E8501D0CF0115F4E01F0708
:104A800009F464C0C8010E94993E811101C0DA9402
:104A90000F5F1F4FBACF8BEF8C0D833030F5C801FD
:104AA0000396DB825C01DD2031F3580154E0A50E52
:104AB000B11C0E94993E8C838823E9F28B819C81F2
:104AC0008130AFEF9A0710F0982F8827B6E0CB1609
:104AD00031F0E7E0CE1631F00E94F922CCCF0E94EF
:104AE000D322C9CF0E945A22C6CFF4E0CF12C3CF3F
:104AF000580124E0A20EB11CC80103960E94993E01
:104B0000DD2021F1882311F18150990B989E9001AD
:104B1000999E300D11244D2D4150550BCA01820F25
:104B2000931F019708F4A7CFAFE9BFE01197F1F702
:104B300000C00000F6CFCE0101960E94A21E5601D1
:104B40009ACF81E00E942F180E94E5178091680299
:104B5000877061F0D70112968C91882339F080918B
:104B6000430582FF03C082E00E94FE172496EBE01B
:104B70000C94833B81E00E94F117E6CF82E0FBCFEB
:104B80002FEFC216D10411F008F092CE6BE273E061
:104B90008C2D0E946612892B19F586E18C9DF001FF
:104BA0008D9DF00D1124E957FB4F8681813029F549
:104BB00080912B0390912C03892B91F080912D03F0
:104BC00090912E03892B61F080912F0390913003F7
:104BD0002091310330913203822B932B892BA9F042
:104BE000F7018281882309F41BCEC80190548115F6
:104BF000904108F4E7CDC801E7CD823089F7809174
:104C00002F0390913003892B59F326E12C9DC0018D
:104C10002D9D900D112489579B4FDC0150961C92BD
:104C20000E948617DDCF882309F442CE818988232C
:104C300009F43ECEC50183579B4F0E94431738CEDF
:104C40008091380181608093380160CE8091380175
:104C50008E7F809338010E94A51758CE809138012D
:104C60008F7E013E110531F0053E1105C9F480919A
:104C700038018F7D809338018091380180FF55CEB7
:104C8000D70112968C910832110528F50E311105C5
:104C900008F074C00430110580F5811142CE45CE74
:104CA000C8019056811540E2940720F0905E81156E
:104CB000904110F78091380182FF37CE80917B04BC
:104CC00081FD33CE25EC32E040E0B60190E080E09B
:104CD0000E94701F2ACE0933110558F40D321105B8
:104CE00018F40B321105C9F69091790492FDD5CFD5
:104CF00008C004361105C1F3D0CF9091790494FD1A
:104D0000CCCF882309F4A1C09091910380918B02AC
:104D1000282F292B322F3D7FB1F11092B50310922D
:104D2000B4033091790431FD2EC0F80143E0F695CB
:104D3000E7954A95E1F7EE71FF27EE56FC4F980193
:104D40002F70332781E090E002C0880F991F2A95C9
:104D5000E2F780959095208131818223932391837E
:104D6000808360E0C8010E945B1F80918B028D7F71
:104D70000E94B11682E00E94FE17E8CE909179045D
:104D800093FD8BCFBECF38E0F701A5ECB2E00190E8
:104D90000D923A95E1F71092C7021092C902109253
:104DA000C802A090B403B090B5030A151B05B1F575
:104DB0003091790435FF32C04091380141FB99248C
:104DC00090F841FF02C036FF29C04091B2035091D4
:104DD000B303B601641B750B4091760450917704C0
:104DE00064177507D8F491FF08C08091380180617D
:104DF0008093380182E00E947E0D8091910385FFAF
:104E000008C08091380180628093380180E20E945E
:104E10007E0D692DC5010E945B1F98CE90913801CF
:104E200021FB91F9909338018D7F0E94B116109368
:104E3000B5030093B403D092B303C092B203809140
:104E4000380184608093380195CF970140E0B60126
:104E5000C8010E94701F7ACE053F4CE5140709F483
:104E600063C008F45BC0063F8CE5180709F462C014
:104E7000D70112963C91332309F46CC41092840438
:104E80000330BDE51B0708F061C00A3FECE51E07D3
:104E900030F4C80182509C45449708F061C00E94DC
:104EA000AD11909343058093420501313CE5130712
:104EB00009F46CC108F0E6C009305CE5150709F497
:104EC00053C108F0B1C005309CE5190709F444C18D
:104ED00008F096C00330BCE51B0709F433C108F0A5
:104EE00037C18091420581600230FCE51F0709F45B
:104EF0002CC180914205909143050E9458120E9456
:104F0000571824CE07E225EE45EE68ED7CE528CD66
:104F100006E221EE40EE63EF7CE522CD07E225EECE
:104F200044EE64EF7CE51CCD06E221EE42EE65EF37
:104F30007CE516CD07E225EE46EE66EF7CE510CD6A
:104F400008E221E045EE69ED7CE50ACD0136FDE59C
:104F50001F0709F4A4CF053A2DE5120709F49FCFE6
:104F600006315CE5150709F4FAC30A358DE5180723
:104F700009F465C108F03EC10115ACE51A0709F452
:104F800044C10E3D1C4509F44DC1F701868197814E
:104F9000009709F458C10E94E40B182F092FF7015C
:104FA000D280C580C2943FE0C3228091680287709E
:104FB000C1F0AD2CDD20B1F0892F807F803421F04D
:104FC00080E2810F883068F08091430582FF09C03C
:104FD00082E00E94FE17809168028770AA24A39441
:104FE0008111A12C902E92942FE09222FBE0F915D2
:104FF00008F4B6C1E92DF0E0E151F14C0C94B73B57
:1050000080914205806207302CE5120709F49DC0AB
:1050100080914205806108303CE5130708F495C093
:1050200080914205806491C0809142058B7F0D3054
:105030004CE5140709F489C088F40B308CE5180797
:1050400009F498C0809142058C600C309CE51907EA
:1050500008F47BC0809142058D7F77C08091420526
:105060008F7E0F30ACE51A0709F46FC080914205BE
:10507000877F0031BCE51B0708F467C080914205BB
:105080008F7D63C00D3FECE51E0709F47BC058F52A
:1050900005312CE5120709F483C098F4809142058C
:1050A000837F03314CE5140709F44FC008F472C044
:1050B0000E94571890914205892F97FB87F98058D5
:1050C00044C00B3F8CE5180709F44AC008F056C0ED
:1050D0008091430581600A3FACE51A0709F009CFCA
:1050E0008093430506CF0130BDE51B0709F464C07A
:1050F000C0F4809143058C7F0F3FFCE51F0781F3CF
:1051000080914305836001152DE5120748F38091D6
:105110004305982F909591708E7F892B90FB81F994
:10512000DFCF01363DE5130709F44CC0053A4DE5E4
:10513000140709F44EC002305DE5150709F0D9CE19
:1051400060E03BC080914205826080934205D1CEF1
:10515000809142058460F9CF809142058860F5CF47
:10516000809143058260BCCF0E9457188091420510
:105170008068EBCF809142058E7FE7CF8091430519
:105180008E7FAECF809143058D7FAACF809142055F
:105190008F7BDBCF0E945718809142058F77D5CF48
:1051A0008091420582FB992790F921E0922790FB9C
:1051B00082F990FB83F9C9CF61E08EE090E00E9414
:1051C000A73E97CE90914205892F8F7E94FF8061F4
:1051D000BCCF90914205892F8E7F90FF8160B5CF23
:1051E0008091060269E2811165E386EE91E00E94FA
:1051F0007B08E2C20C35EDE51E07B9F010F1073A65
:105200001D4509F0C2CE0E942E1D0E9457183FEF87
:1052100044E35CE0315040405040E1F700C0000002
:105220000E945E080E944A1CEECF8091430582FBDB
:10523000882780F991E089270E941A18A6CE81E07C
:10524000FBCF80E0F9CF828100811181882369F052
:10525000C8010E941811D82E682FC8010E94F00DB5
:10526000B8018D2D0E94FB1096CEC8010E94BC0D86
:10527000D82EF6CF202F2F70B22E802F807F19F0DE
:10528000B29490EFB922DD20A9F0BB2059F080E262
:10529000810F883010F0111107C08B2D0E94850DF1
:1052A0000E94DF16812F5AC080917705B82AB092EC
:1052B0007705F6CF812F0E94631DBB2009F450C0F3
:1052C00080E2810F883010F0111104C08B2D0E94F4
:1052D0007E0D03C08B2D0E94770D0E94DF1640C00B
:1052E000302F3F70B32E802F807F803219F0B29420
:1052F00080EFB822112321F1113009F4AEC0DD2076
:1053000009F4B7C0CC2009F47FC020E0D7014C914C
:1053100011965C91119712966C91129713967C914D
:10532000139714968C910E94631180917B0481FDE8
:10533000B9CFF701858180FFB5CF8F70858364C0B9
:105340008091430582FD40C0DD20C1F1BB2029F0E2
:105350008B2D0E94850D0E94DF1680E00E94B01DFB
:10536000A92DA850BB0B149710F40E949510812F03
:10537000902F0E94270E8111C2C110920902109233
:105380000802AA20B1F08091680280FD12C0D70106
:1053900012961C928595859585950E942F18C701B8
:1053A0000E94AA23809168028595859585950E9423
:1053B000F11760E0C7010E948611D8CB80E00E94FF
:1053C000631DBB2069F282CFDD2011F1C11004C042
:1053D00080918B028B2919C041E0C41206C08091D4
:1053E0008B028B290E94B116BBCF80917A04823048
:1053F00078F3C812EDCF0E946C0D909107028B2DAF
:10540000892B8913809307028B2D0E945C1DA8CFE6
:10541000C11003C00E946C0D17C080917A0451E046
:10542000C51216C0823008F49BCF809191038B2166
:1054300009F496CF0E946C0D909107028B2D8095F8
:1054400089238913809307028B2D0E94551D88CFD5
:10545000823000F3C812DECF83CF80918004DD203C
:1054600021F08C1508F47CCFCFCFC81608F078CF88
:10547000EBCFCC2049F380917E0490917F041933C7
:1054800021F080917C0490917D040E943510812F41
:105490000E94631D65CF802F86958695837069F085
:1054A000813009F05DCF812F902F9370D11002C011
:1054B00090E080E00E94DA0853CF812F902F937004
:1054C000D11002C090E080E00E94F00849CF812F07
:1054D000DD2029F00E94200B0E94211541CF0E945F
:1054E000050AFACF802F837091F5D11039CF412F63
:1054F000429546954770440F440F812F8F70042EBC
:1055000001C0880F0A94EAF7212F207114FF07C009
:105510002FE030E001C0220F4A95EAF72095302FA6
:10552000369536953370323069F050F440918C02E4
:10553000313029F0822B84230E94521811CF842B02
:10554000822BFACF282B80918C028227F5CF86956B
:10555000DD2011F0802F8170882309F401CF412FC5
:10556000429546954770440F440F812F8F70042E4B
:1055700001C0880F0A94EAF7212F207114FF07C099
:105580002FE030E001C0220F4A95EAF72095302F36
:10559000369536953370323069F050F44091760587
:1055A000313029F0822B84230E94E017D9CE842B3E
:1055B000822BFACF282B809176058227F5CFF02F0A
:1055C000FF70BF2EDD2029F08F2F0E942F18812F12
:1055D0001CCF812F0E94551D8B2D0E94F117C0CE2C
:1055E000123F89F160F4103FB9F0113F81F0DD20E6
:1055F00009F480C0C11056CE802F8F7128C0133F90
:1056000049F1143FA1F78091430582FD2FC0802FFF
:105610008F71DD2011F31BC080918004DD2079F0B3
:10562000C81608F09DCE202F2F7181E090E001C0B8
:10563000880F2A95EAF7909176058927B5CF8C15C2
:1056400008F48ECEF0CF802F8F71D110C6CF0E947C
:105650002F1886CE80E0DD2009F4A6CF81E0902FC0
:105660009F7101C0880F9A95EAF79ECF80917A04C6
:10567000823040F1DD20D1F0909168029770943033
:1056800041F40E948B0D802F8F710E94F117A12C85
:1056900067CEC816E0F7202F2F71B22E822F0E94FE
:1056A0002F1863E08B2D0E943B18F1CFC81630F005
:1056B0000E948B0D64E0802F8F71F5CF81E00E94F6
:1056C000FE17E5CFDD2059F0302F3F71B32E832F29
:1056D0000E942F1863E08B2D0E943B1841CE81E081
:1056E0000E94FE1741E04C1508F03ACE82E00E947D
:1056F000FE1736CEC110BFCE802F8F716ECFDD204A
:1057000019F0C1103ACE3DCEC11037CE20E0F701DE
:10571000408151816281738184810E9463118091F3
:105720007B0483FF2ACE80910802909109020297A0
:1057300009F023CE812F0E94201E1FCE0031FFE5ED
:105740001F0709F4FEC901312FE5120709F02EC821
:1057500082E0F8C906314CE5140709F016CC8091B7
:105760009103982F9A7A2091780420FF04C0482F43
:10577000447409F090E021FF04C0482F417109F002
:1057800090E022FF04C0482F487809F090E023FF02
:1057900003C0827209F090E0332309F421CD81E047
:1057A000911101C080E08093060269E2911165E3E6
:1057B00086EE91E00E94A5080E94DF16C7C9B0E0FE
:1057C000A0E0E5EEFBE20C946A3B80912102807F31
:1057D00031F480911E02C0916502811107C0CDB7DE
:1057E000DEB7E8E00C94863B2196C77080912402D6
:1057F0008C17A9F3F0901C02E0901D02C0901F02CC
:10580000D0902002A6016E2D8F2D0E940609D0E0B7
:105810008111EACF8E0183E0000F111F8A95E1F715
:10582000F801EB5DFD4F81818E11DECF80818F11FC
:10583000DBCF82818111D8CFE380F480EC18FD08A2
:1058400060E08CE192E00E94861180917604909154
:105850007704E816F90640F6809121028F70806186
:1058600080932102F801E65DFD4F80818F70806199
:1058700080838CE192E00E94AA230E94B20DAFCFF8
:10588000A5E1B0E0E6E4FCE20C94613B8C0185E02C
:10589000F801DE01519601900D928A95E1F7D80149
:1058A0004C9011965C9011971296EC90129713966B
:1058B000CD90DC9060E08CE192E00E9486118CE15A
:1058C000A82E82E0B82E80901F0290902002A401A2
:1058D00060911D0280911C020E9406098111B6C1CF
:1058E000F0901E02F601E819F9094F0160E0FF206F
:1058F00009F459C1C5010E94861160907604709028
:105900007704309021028614970408F0FFC040917C
:105910001F0250912002B0901C02A0901D02832D06
:10592000807F6A2D09F099C08B2D0E940609FE2CFC
:10593000811127C0D80111968C9111978A1121C02D
:105940008C918B111EC02091220230912302169659
:105950008D919C9128173907A1F4E11012C0832D75
:105960008F708061809321028CE192E00E94AA23D3
:1059700080912102F80185838F2D6596E1E10C94D9
:105980007D3BF4EF6F16F1E07F0620F480917B04FD
:1059900080FF21C0A601652D842D0E94060981117A
:1059A00018C081E08E2580FF16C04E2D652D842DF8
:1059B0000E94920D882379F08CE192E00E94AA2344
:1059C00088E0ECE1F2E0DF011D928A95E9F7F12C25
:1059D000D3CF80E0E8CFA601652D842D0E94060973
:1059E000811124C081E08E25B82FB170CB2E80FFAD
:1059F0002BC04E2D652D842D0E94920DD82E811125
:105A000023C0498A5A8A89899A890E944711292F75
:105A100022952F70223060F0243088F49F7061F05E
:105A2000F8019581907F41F4FD2CA6CF80E0DCCF7A
:105A30009F7011F08823C1F3805E8830A8F3C801FD
:105A40000E94AA23DC2CF0CFEE2009F495CF8091A0
:105A50002102816080932102BACF8B2D0E9406091A
:105A6000811124C0D80111968C9111978A111EC002
:105A70008C918B111BC0209122023091230216962B
:105A80008D919C9117972817390781F4E1100EC06A
:105A900015963C92C8010E94AA2388E0F801ACE167
:105AA000B2E001900D928A95E1F766CFC8010E949D
:105AB0005411882339F1EE2029F18091210280329E
:105AC000A0F020911C0230911D023A8729871B8685
:105AD000DD86CC868E878091220290912302988B5E
