:100000000C94BA050C94D7050C94D7050C94E32FE7
:100010000C94D7050C94D7050C94D7050C94D705F0
:100020000C94D7050C94D7050C94AB100C94D816EF
:100030000C94D9260C94D7050C94D7050C94D705AD
:100040000C94D7050C94D7050C94D7050C94D705C0
:100050000C94D7050C9484110C94D7050C94D705F7
:100060000C94D7050C94D7050C94D7050C94D705A0
:100070000C94D7050C94D7050C94D7050C94D70590
:100080000C94D7050C94D7050C94D7050C94D70580
:100090000C94D7050C94D7050C94D7050C94D70570
:1000A0000C94D7050C94D7050C94D70505010906C7
:1000B000A1018506050719E029E715002501950826
:1000C000750181020507190029EF1500250195F03A
:1000D000750181020508190129059505750191022F
:1000E000950175039101C00660FF0961A1010962D4
:1000F000150026FF0095207508810209631500266A
:10010000FF00952075089102C005010906A10105AF
:100110000719E029E7150025019508750181029569
:1001200001750881010507190029FF150026FF0048
:1001300095067508810005081901290595057501C1
:100140009102950175039101C000000000000000BC
:10015000000000000000000000000000000000009F
:10016000000000000000000000000000007E0F0002
:10017000D4FFFFFFC700000078000000000000006F
:10018000002A2B28000000000000000000000000F2
:100190000000000029000000002C1E342021222431
:1001A000342627252E362D3738271E1F20212223BF
:1001B0002425263333362E37381F04050607080951
:1001C0000A0B0C0D0E0F1011121314151617181917
:1001D0001A1B1C1D2F3130232D3504050607080975
:1001E0000A0B0C0D0E0F10111213141516171819F7
:1001F0001A1B1C1D2F3130354C00DA0281FFD9F15A
:10020000DB20A4A62EAF00A0C000A1C800AED58000
:10021000A81FD300408D14200041646A75737400D8
:100220005261697365004C6F776572004465666161
:10023000756C74004C617965723A2000808182830C
:100240008485868788898A8B8C8D8E8F90919293F6
:1002500094A0A1A2A3A4A5A6A7A8A9AAABACADAE41
:10026000AFB0B1B2B3B4C0C1C2C3C4C5C6C7C8C9B8
:10027000CACBCCCDCECFD0D1D2D3D400FD377A5893
:100280005A000004E6D6B446020021011600000020
:10029000742FE5A3E0042F01425D003D8889C65418
:1002A00036C3174FE4DCCBB3DF6320E7D71739D869
:1002B0003D5F52C90BECB7E6D5195224B0736759AC
:1002C000B3E0B456C74788C96520CF4A3C940C01B7
:1002D0005E29865C8E1FD2901470DD8177B2096E24
:1002E000B5F6AEE987F3FD6E8628D433CFB87578BE
:1002F0006A02A926DEE8E6250BF2F12FEB95EF75F1
:100300007127C27F9195E2635AB0D245B872C0B5E9
:1003100054D7004EDE62BA2013945BD1FF592158A6
:100320004935658A11E5CA1A8401C66412A7BCC49E
:1003300061E80A8B8F1814972CD485C2CA11139DBB
:100340008194454D5141C1135A07F3F59C8A2EB053
:1003500089D73F3EF2C32110C396AA6256BA70B342
:100360001061455FB111971836BB16666F7B478FDA
:10037000C44223D0767E3FA7ECEA0CBF2774C309A2
:10038000BD093C35A8EED8AEC7E9FF0F2F64DF7278
:10039000C5CDF6701A8177ECEF634989711EFAECCE
:1003A000985A059B0A0F6BC0B382F93085B0A8A696
:1003B00030E1DE91E0E101A42FEECFFAB4CC09FAEE
:1003C00055E9DC3EB4782343F5F745FEAA6A7F621F
:1003D0000EBDEBFB2CF315BF380D4959E0000000B2
:1003E0005614AADD3187545C0001DE02B00800001B
:1003F000C0E5C082B1C467FB020000000004595A86
:100400002B0014001A00080015001700E00004007B
:100410001600070009000A00E1001D001B0006008D
:1004200019000500000000000000E300105F2C0030
:100430002A00130012000C0018001C0034003300C6
:100440000F000E000D000B002900380037003600A9
:1004500010001100000000000000E600115F2800FD
:100460002B001E001F00200021002200E0000000E1
:100470000000000000000000E1000000000000009B
:1004800000000000000000000000E30001002C005C
:100490002A00270026002500240023000000000079
:1004A0004F0052005100500000000000000000000A
:1004B00000000000000000000000E600010028002D
:1004C0002B001E021F02200221022202E000000077
:1004D0000000000000000000E1000000000000003B
:1004E00000000000000000000000E30001002C00FC
:1004F0002A002702260225022402230235003100A9
:1005000030002F002E002D003502310230022F0264
:100510002E022D02000000000000E600010028006D
:10052000005C00000000000000000000C25CC55C30
:10053000C75CC95C00000000C35CC65CC85CCA5CE8
:1005400000000000000000000000E30001002C009B
:10055000000000000000000000000000000000009B
:10056000000000000000000000000000000000008B
:1005700000000000000000000000E600010028006C
:1005800000AF00AE09025B00030100A0FA090400FD
:1005900000010301010009211101000122400007AF
:1005A000058103080001090401000203000000099D
:1005B000211101000122220007058203200001070A
:1005C00005030320000109040200010300000009E3
:1005D0002111010001223B000705840320000112C4
:1005E000010002000000085346010001000102035F
:1005F000011C037600690061006C003A0066003659
:100600000034006300320062003300630000000C1D
:100610000343006F0072006E006500000010036667
:10062000006F006F007300740061006E0000000432
:100630000309040000000000003E5B4F5B3E003EEB
:100640006B4F6B3E001C3E7C3E1C00183C7E3C18F1
:10065000001C577D571C001C5E7F5E1C0000183C70
:10066000180000FFE7C3E7FF00001824180000FF90
:10067000E7DBE7FF0030483A060E002629792926F5
:1006800000407F05050700407F05253F005A3CE7F5
:100690003C5A007F3E1C1C0800081C1C3E7F0014B6
:1006A000227F2214005F5F005F5F0006097F017FE9
:1006B00000006689956A0060606060600094A2FF37
:1006C000A2940008047E04080010207E2010000878
:1006D000082A1C0800081C2A0808001E1010101008
:1006E000000C1E0C1E0C0030383E383000060E3E4A
:1006F0000E060000000000000000005F0000000087
:100700000700070000147F147F1400242A7F2A1298
:100710000023130864620036495620500000080781
:10072000030000001C224100000041221C00002A9E
:100730001C7F1C2A0008083E08080000807030005A
:100740000008080808080000006060000020100889
:100750000402003E5149453E0000427F40000072C5
:1007600049494946002141494D33001814127F1070
:10077000002745454539003C4A494931004121118E
:10078000090700364949493600464949291E0000F3
:100790000014000000004034000000000814224152
:1007A000001414141414000041221408000201590A
:1007B0000906003E415D594E007C1211127C007FFB
:1007C00049494936003E41414122007F4141413E75
:1007D000007F49494941007F09090901003E414123
:1007E0005173007F0808087F0000417F410000200E
:1007F00040413F01007F08142241007F40404040BB
:10080000007F021C027F007F0408107F003E4141F0
:10081000413E007F09090906003E4151215E007FEB
:10082000091929460026494949320003017F01037D
:10083000003F4040403F001F2040201F003F403805
:10084000403F00631408146300030478040300614C
:1008500059494D4300007F414141000204081020E6
:1008600000004141417F0004020102040040404079
:100870004040000003070800002054547840007FE7
:100880002844443800384444442800384444287FED
:100890000038545454180000087E0902001824241B
:1008A0001C78007F080404780000447D400000208C
:1008B00040403D00007F102844000000417F400080
:1008C000007C04780478007C0804047800384444F0
:1008D0004438007C1824241800182424187C007C38
:1008E000080404080048545454240004043F4424D9
:1008F000003C4040207C001C2040201C003C40303C
:10090000403C004428102844004C9090907C0044C7
:1009100064544C4400000836410000000077000099
:10092000000041360800000201020402003C2623B8
:10093000263C000000000000000000000000000055
:10094000000000C0E0F0F8F81800C0F0FCFEFFFF67
:10095000FFFFFFFFFF7E000000000000000000809E
:10096000C0E0E0E0E0E0E0E0E0C080000000008007
:10097000C0E0E0E0E0E0E0E0E0C080000000E0E0B7
:10098000C0C0E0E0E0E00000E0E0C0C0E0E0E0E0A7
:10099000E0C0800000000080C0E0E0E0E0E0E0E0D7
:1009A000E0C0800000000000000000000000000027
:1009B00000E0F0F0F0E0ECEEF7F37020007C7C7CDF
:1009C0007E007E7E7E7F7F7F000080C0E07E5B4F6A
:1009D0005BFEC00000C000DCD7DEDEDED7DC00C07E
:1009E0000000000000000000000000000000000007
:1009F000000000000000000000000000F8FCFEFF06
:100A0000E000FFFFFFFFFFFF80FFFFFFFFFFFFFF93
:100A1000FFFF1F0701000000000000000000FFFFB3
:100A2000FF8100000000000081C3C3C30000FFFF7E
:100A3000FF8100000000000081FFFFFF0000FFFFBA
:100A4000FF01000000000000FFFFFF0100000000A8
:100A500001FFFFFF0000FFFFFF9D1C1C1C1C1C1C56
:100A60009DDFDFDF0000000000000000000000004C
:100A7000000F1F3F7F7F7F7F7F3F1E0C001F1F1FC8
:100A80003F003F3F3F7F7F7F00307B7F78302020DB
:100A900030787F3B0003000F7F0F0F0F7F0F0003A5
:100AA0000000000000000000000000000000000046
:100AB000000000000000000000000000030F1F3FC6
:100AC0003F3F3F1F1F3F3F7F7F7F3F3F1F3F7F7F56
:100AD0007F7F7C7878381C0F000000000000000148
:100AE00003070707070707070703010000000001C6
:100AF00003070707070707070703010000000707A9
:100B000007000000000000000707070000000000C9
:100B1000000707070000000103070707070707078B
:100B200007030100000000000000000000000000BA
:100B300000000000000000000000000000000000B5
:100B400000000000000000000000000000000000A5
:100B50000000000000000000000000000000000095
:100B60000000000000000000000000000000000085
:100B70000000000011241FBECFEFDAE0DEBFCDBFC2
:100B800011E0A0E0B1E0EEE6F9E602C005900D92BA
:100B9000A83AB107D9F726E0A8EAB1E001C01D9252
:100BA000A73EB207E1F70E9400270C9482340C9410
:100BB0000000FC01AC014C5F5F4F8FEF91E321918E
:100BC000822728E030E087FF09C0880F892721505D
:100BD0003109C9F7E417F50791F70895880FF7CFA2
:100BE000E8EDF0E080818E7F80831092E200109229
:100BF000DA001092E100A0EEB0E08C9181608C935D
:100C000080818F77808319BCA7EDB0E08C918E7FB7
:100C10008C9380818F7E80831092A9040895209107
:100C2000E4003091E50095E6A9012091EC00822FC7
:100C3000817020FF06C08091E80080FF06C080E040
:100C400008952091E80022FD1AC08091D7048823DE
:100C500089F0853089F08091EB0085FD0FC02091EF
:100C6000E4003091E50042175307F9F29150E1F6A4
:100C700084E0089582E0089583E0089581E0089576
:100C8000EF92FF920F931F93CF937C018B010E94F1
:100C90000F06C82F811117C08091E80085FD0BC099
:100CA0008091E8008E778093E8000E940F068823E9
:100CB00099F3C82F08C0F70181917F018093F1005B
:100CC0000150110949F78C2FCF911F910F91FF907F
:100CD000EF900895CF93FC018091D704843001F503
:100CE000C091E900CF702091EC00922F917020FD0F
:100CF00090E8C92B82E08093E9008091E80080FFB2
:100D00000CC050E040E060E270E0CF010E9440067D
:100D10008091E8008E778093E800CF70C093E9005F
:100D2000CF9108958091CF0487FF13C08091E80090
:100D300082FF06C08091E8008B778093E80004C0B2
:100D40008091D7048111F2CF08958091D704882330
:100D5000D9F38091E80080FFF8CF8091E8008E778A
:100D6000ECCF982F9093E900242F762F50E089172D
:100D700031F07091EC002091ED005091F00021FDD8
:100D800007C09F5F973071F78093E90081E0089575
:100D90003091EB003E7F3093EB003091ED003D7FD2
:100DA0003093ED003091EB0031603093EB007093A5
:100DB000EC002093ED005093F0002091EE0027FD11
:100DC000E0CF80E00895B0E0A0E0E9EEF6E00C941A
:100DD0001D31C8EDD0E088818F7E8883E7EDF0E09B
:100DE00080818160808384E082BF81E08093A90458
:100DF00088818E7F888302EE10E0F80110821092C5
:100E0000DA0081EEC82ED12CF601108288818F770E
:100E1000888388818068888388818F7D888319BCD6
:100E20001092D7041092CE041092CD041092CC04EC
:100E300090EEE92EF12CF70180818B7F80838881F1
:100E40008160888342E060E080E00E94B106F601A4
:100E500080818E7F8083F8018081816080838081A2
:100E600088608083F70180818E7F808388818061A4
:100E70008883CDB7DEB7E8E00C943931FC0180916E
:100E8000D5049091D60486179707A0F061157105D7
:100E900029F49091E8009E779093E80090E0611526
:100EA000710551F4911108C08091E80082FF34C0AF
:100EB00080E00895BC01F2CF8091D7048823C1F16E
:100EC0008530C1F18091E80083FD30C08091E80059
:100ED00082FDEACF8091E80080FFE1CF8091F300AE
:100EE0002091F200382F6115710519F02830310575
:100EF00058F091E02830310509F090E02091E800A9
:100F00002E772093E800CBCF81918093F100615040
:100F100071092F5F3F4FE7CF8091D704882341F0BD
:100F2000853041F08091E80083FFBECF81E00895D5
:100F300082E0089583E0089508950895089508953E
:100F40008091AB04089587E797E790930108809319
:100F5000000888E19AE00FB6F894A89580936000A5
:100F60000FBE90936000FFCF2FB7F8946091A30459
:100F70007091A4048091A5049091A6042FBF0895B8
:100F800020912F012223C9F02091A70427FF15C02B
:100F9000E62FE695E695E695EE31D8F4E80FF92FC1
:100FA000F11D677021E030E001C0220F6A95EAF779
:100FB00020958281282322830895FC013296089689
:100FC0002191621303C0DF0111971C92E817F90702
:100FD000B9F7089520912F012223C1F02091A70491
:100FE00027FF14C0E62FE695E695E695EE31F8F476
:100FF000E80FF92FF11D677021E030E001C0220FEA
:101000006A95EAF78281822B82830895FC013296E9
:101010002FEF30E04191641751F02F3F19F4411147
:1010200001C0232F3F5F3630A9F72F3F09F4089501
:10103000820F911D27FD9A95FC0162830895DC01C2
:101040006091E8038091E903962F891301C0089508
:10105000292F30E0F901EE0FFF1FE052FC4F4081D5
:1010600051814A175B07A1F487E08A9FA0018B9FFB
:10107000500D112448555C4F81E0FA01848396138A
:10108000E6CF2F5F3F4F237033272093E803089567
:101090002F5F3F4F922F9370D8CF1092450310923D
:1010A0004403E8EAF3E08581811102C014821682CC
:1010B000379683E0E03EF807B1F7089581152CE5F7
:1010C000920741F42091380330913903232B11F416
:1010D00090E080E0089580E00895F894E82FE2958C
:1010E000EF70F0E031A1282F2F7081E090E001C077
:1010F000880F2A95EAF7982F9095932391A392A1B0
:10110000892B82A3789408959091A70492FF06C03A
:10111000282F28712830F9F4877F846093FF06C058
:10112000282F28712831F1F4877E84612091A8044A
:1011300020FF06C0382F38713830D9F4877F81609E
:1011400021FF06C0282F28712831D1F4877E8161C4
:1011500094FD877E0895282F24712430F9F68B7F23
:101160008860DCCF282F2471243101F78B7E8861C1
:10117000DDCF382F3171313019F78E7F8860E0CFA5
:10118000282F2171213121F78E7E8861E1CFCF9305
:10119000DF93EC018238910589F1B8F5813391052F
:1011A00009F492C028F58932910509F486C08A971E
:1011B00009F491C0C11523E5D20708F0ACC0C115F0
:1011C00032E5D30708F011C1C11540E2D40708F099
:1011D00090C0C11581E0D80730F5C53AD10508F0B7
:1011E00081C0C430D105F8F4C130D105E1F040C070
:1011F0008533910509F45AC0C997E1F68091A70497
:10120000837089F0C0EED0E00EC0833E910599F165
:1012100070F4803E910501F1823E910559F680916E
:10122000A70482FD21C0CE01DF91CF910895863EB3
:10123000910561F1873E910571F1843E910509F0B8
:10124000B9CF8091A80481FFEECF8091A704C7EEAB
:10125000D0E084FD0DC0E7CF8091A70480FDF4C0ED
:101260009091A80490FFDFCFC3EED0E084FFDBCFE6
:10127000D0E0C0E0D8CF8091A70482FDE8C0909173
:10128000A80490FDBFCF84FFCECFF2CF8091A704FA
:1012900083FDDDCFC8CF8091A70483FDDBC0909193
:1012A000A80491FFF0CFC4EED0E0BDCF8091A70499
:1012B00085FFB9CFC9E2D0E0B6CF8091A70485FF02
:1012C000B2CFC5E3D0E0AFCF8091A70486FFABCF0C
:1012D000CAE2D0E0A8CF8091A70486FFA4CFC1E3E3
:1012E000D0E0A1CFCE01815E9109079708F49BCF92
:1012F000BFCFC11591E5D90708F072C0C11520E52F
:10130000D20708F050C0C11530E4D30708F4B0CFBD
:10131000DF70D06A88CFC11546E5D407F0F4C11557
:1013200085E5D80708F077C0C11594E5D90708F01E
:101330006DC0CE018370992721E030E002C0220FFA
:10134000331F8A95E2F7C695C69590E2C99FE001E2
:101350001124C22BD32BDA6866CFC1152AE5D20738
:1013600078F4C11539E5D30708F060C0C11548E528
:10137000D40708F47DCFDC2FCC27C06FD06A53CFC1
:10138000CE0190568115904208F072CF8D2F8F714B
:101390000E94840890E0982F882788279F719C01DD
:1013A0002C2BE90141C0CE01E4E096958795EA95A2
:1013B000E1F783702C2F26952695237040E2249F19
:1013C00090011124382B8C2F8370C1E0D0E002C033
:1013D000CC0FDD1F8A95E2F7C22BD32BDC6823CF1D
:1013E000DC2FCC27C16FD06A1ECFCE018370992726
:1013F00021E030E002C0220F331F8A95E2F7C69544
:10140000C69580E2C89FE0011124E6CFDC2FCC27EF
:10141000C46FD06A08CF8C2F0E948408C82FD0E0F8
:10142000DC2FCC27CC27DF71D062FDCE8C2F8F70C4
:101430000E94840834E0D695C7953A95E1F7CF70BD
:101440009C2FEC01D069EFCEC9E3D0E0ECCEC2EE28
:10145000D0E0E9CEC6EED0E0E6CE809153028823FC
:1014600031F01092530210925202109251020895DC
:1014700080959091ED0398239093ED0308958095C6
:101480009091EC0398239093EC030895109230020E
:1014900010922F0210922E02089580912D029091A9
:1014A000EC01981301C008958F5F8770FACF292F40
:1014B000983078F5863068F590E036E0239F800D0F
:1014C000911D1124682F677023E0969587952A95C2
:1014D000E1F7FC01EE0FFF1FE80FF91FEE52FE4F80
:1014E00050E040E080E0219130E0062E02C03695C9
:1014F00027950A94E2F721703327042E01C0220FAA
:101500000A94EAF7822B4F5F5F4F4330510559F73A
:10151000089580E00895292F983098F5863088F551
:1015200090E036E0239F800D911D1124282F277015
:1015300041E001C0440F2A95EAF723E0969587958C
:101540002A95E1F7FC01EE0FFF1FE80FF91FEE529D
:10155000FE4F30E020E070E05191DF011197CB01A8
:10156000022E02C0969587950A94E2F781708195C4
:101570008527842385278C932F5F3F4F23303105A8
:1015800059F7089592959F70963091F058F4925FB4
:101590009F70923058F4803F19F030F4883E30F458
:1015A00081E008959A5FF4CF843FD1F380E00895FD
:1015B000883EB0F3813FD1F7F3CF9C013A952115D6
:1015C0003F4150F5FC01EE27F170BC0166277270B7
:1015D000AC01442754709C012227387094FF0EC040
:1015E00080E1EF2B09F480E0672B09F08062452B46
:1015F00009F08064232B89F08068089581E0EF2B47
:1016000009F480E0672B09F08260452B09F08460C3
:10161000232B19F08860089580E00895CF93DF931D
:10162000682F81E06A3019F06D3031F480E00E945B
:101630009C0BDF91CF9108958091E5069091E6068D
:1016400026E0FC01AFEDB6E001900D922A95E1F79E
:10165000603E08F458C026E0FC0111922A95E9F793
:10166000C091E506D091E60646E050E0BE018FED60
:1016700096E00E946C319E012F5D3440892B41F130
:10168000C90145E0969587954A95E1F741E050E01C
:10169000BA0102C0660F771F8A95E2F7CB0160910D
:1016A000DD047091DE04862B972BB9016B5F7F4FB1
:1016B000E5E076956795EA95E1F702C0440F551F7E
:1016C0006A95E2F7842B952B9093DE048093DD04DA
:1016D0002A5F3F4F4091DC04642F70E0C9010E94F3
:1016E000FF30481B463010F4240F311D211572E0E5
:1016F000370710F030E020E021523B4F3093E606F0
:101700002093E50696CFF6E06F9FB00111246D5C43
:10171000794F46E050E00E946331A2CFCF93DF9330
:10172000EC01FE018491811103C0DF91CF910895F6
:101730000E940E0B2196F5CFCF93382FE091E5064E
:10174000F091E606EF5DF4402091DC04622F70E03A
:10175000CF010E94FF30281B822F332361F066E007
:101760000E944A31C82FC15010F4CF91089580E2F1
:101770000E940E0BF8CF9F01280F311D211532401A
:1017800018F080E0F0E0E0E08E0F9F2F911D815275
:101790009B4F9093E6068093E506E7CFB0E0A0E08C
:1017A000E4EDFBE00C941D316C017B0164E670E01C
:1017B00088E70E945A2EEC0197FD12C010E000E06D
:1017C000F601E00FF11F849164E670E00E94C82EDC
:1017D000EC01892B29F40F5F1F4F0E151F0581F7B0
:1017E0000E943F2FCE01CDB7DEB7E8E00C9439312F
:1017F0008091420390914303911103C091E08927A6
:101800000895882369F062E070E082E895E00E9424
:10181000CE0B892B19F08091420308951092420358
:1018200080914203EBCFCF93C09142038091430359
:101830008823D1F00E94B407605A75418F4F9F4FA3
:1018400060933E0370933F03809340039093410362
:10185000C11108C062E070E080E895E00E94CE0B04
:10186000892B29F0C09142038C2FCF91089581E0FC
:1018700080934203F7CFCF93DF93EC0180912F0148
:101880008823B1F18091A70487FF32C060E284E031
:101890008093E9008FEF9091E800815095FD06C09C
:1018A00095ED9A95F1F700008111F5CF8091E80050
:1018B00085FF1BC080912F0170E050E040E0811156
:1018C00004C050E040E068E070E0CE010E944006B5
:1018D0008091E8008E778093E80080E2FE01ACEA18
:1018E000B4E001900D928A95E1F7DF91CF910895D0
:1018F00068E081E0CDCFB0E0A0E0E1E8FCE00C944E
:101900001B317C015B016A018091750201E010E0EE
:101910008A3010F40AE010E0C1E0D0E0B501C70160
:10192000F6010995811104C021960C171D072CF4AE
:10193000CDB7DEB7EAE00C943731CC9F9001CD9F54
:10194000300D300D112490E080E045E34A95F1F729
:101950000000019682179307C1F7E0CF80915F02E4
:10196000811110C08091D80080618093D8008AE1F5
:101970008A95F1F700C08091D90080FF0AC081E00C
:1019800080935F0281E090915F02913009F080E0E6
:10199000089582E080935F020E94F0051092D704C0
:1019A000F1CF0E94AE0C882359F0E091A004F09191
:1019B000A104309729F00190F081E02D0995089558
:1019C00080E00895CF93DF93C7E4D2E060E0CE01DA
:1019D0000E9446342196C11584E0D807B9F7DF91FB
:1019E000CF9108951F93CF93DF93122F8430E0F4AB
:1019F0006830D0F44630C0F4C42FD0E0CC0FDD1FE7
:101A00009CE0699FC00DD11D112490E6899FC00DF7
:101A1000D11D1124632FCE0187960E944634612F79
:101A2000CE0188960E944634DF91CF911F91089590
:101A3000CF93C82F6FEF81116EED83E290E00E948B
:101A400046346FEFC1116AE784E290E00E944634A9
:101A50006FEFC1116BE385E290E00E944634CF91B5
:101A60000895A4E1B0E0E7E3FDE00C941831A09004
:101A70003803B090390381E090E09093390380936C
:101A8000380380E0C82E84E0D82E00E0760110E014
:101A900015C0F40125913491472D612F802F0E94AC
:101AA000F20C82E0880E911C7394E6E07E12F1CF76
:101AB000FCE0EF0EF11C1F5F183019F04701712C8C
:101AC000E8CF0F5F80E6C80ED11C0430F9F61A8209
:101AD00019821C821B821E821D8218861F828CE244
:101AE00091E09A87898707EA11E04AE050E0B8015F
:101AF000CE0101960E946A34065F1F4F073FE1E066
:101B00001E0799F77E01FBE0EF0EF11C8AE0F7015A
:101B100011928A95E9F74AE050E0B801C7010E94A6
:101B20006A34065F1F4F0734F2E01F07A1F7B09237
:101B30003903A09238036496EDE00C94343180E0D0
:101B40000E94180D60E086E290E00E9446340E94F8
:101B5000310D0E94E20C81E00E94180D08959B0156
:101B6000883070F49AE0899FB001112469557E4F46
:101B70004AE050E0C9010E94283490E080E00895D6
:101B80008FEF9FEF0895AAE0B0E0E9ECFDE00C9440
:101B9000193100EF13E0F12CE12C8DE8C82E8CE117
:101BA000D82E94EBA92E9CE1B92E2BEF822E2BE19F
:101BB000922EF801D182C082B382A2829582848261
:101BC000F58AE48ABE016F5F7F4F8E2D0E94AF0DB4
:101BD000892B29F489859A85F801938B828BFFEFF5
:101BE000EF1AFF0A0A5E1F4F88E0E816F10409F7B2
:101BF0002A96ECE00C943531AAE0B0E0E2E0FEE099
:101C00000C941D31E8EEF2E080E5DF011D928A952B
:101C1000E9F7E8EAF3E088E3DF011D928A95E9F746
:101C200088EEC82E82E0D82E7F0107EF11E0F70181
:101C3000D182C0824AE050E0B801CE0101960E94F4
:101C4000283488E0FE013196D60101900D928A95E4
:101C5000E1F789859A85D70113969C938E93129705
:101C6000BAE0CB0ED11CE7E0EE0EF11C065F1F4F71
:101C70000734F2E01F07D9F62A96E8E00C943931D0
:101C80000F931F93CF93DF93843030F5683020F5A6
:101C9000463010F5C42FD0E0CC0FDD1F2CE0629F42
:101CA000C00DD11D112430E6839FC00DD11D11241C
:101CB000CE0187960E943834082F10E0102F00279D
:101CC000CE0188960E9438349801282BC901DF91F3
:101CD000CF911F910F91089590E080E0F8CF462FAB
:101CE00020913C0330913D03232B99F4703F39F44C
:101CF000603F79F480913A0390913B0308958430DA
:101D000040F4783030F4663020F4672F0E94400EA3
:101D1000089590E080E00895CF92DF92FF920F93B4
:101D20001F93CF93DF936C010091D80480915402EC
:101D3000082BC7E0D0E010E0FC2EC8010C2E02C03A
:101D4000959587950A94E2F780FD0CC02197A0F73E
:101D5000F12C8F2DDF91CF911F910F91FF90DF908C
:101D6000CF900895B6018C2F0E946F0E0E94C70875
:101D7000019761F3EECFCF93DF93EC010E948C0EBD
:101D8000BE010E946F0E0E94C708DF91CF91089597
:101D9000FC0186819781009729F00E94C7080E9464
:101DA000C20A0895808191810E94BB0EF8CFA5E000
:101DB000B0E0EDEDFEE00C9422319C01FC01868147
:101DC00097810097E1F485E0DE01119601900D9274
:101DD0008A95E1F7F901228189819A81222399F07C
:101DE000662389F00E948C0E182F682F89819A81B2
:101DF0000E948B0A69817A81812F0E946F0E25963D
:101E0000E3E00C943E310E94570A182FF3CF83E28F
:101E100090E00E9438348E3D89F484E290E00E9484
:101E200038348A3759F485E290E00E94383491E0E2
:101E30008B3309F090E0892F8170089580E0FCCF0A
:101E4000CF9384E090E00E943834C82F82E290E083
:101E50000E943834982F8C2FCF910895A4E0B0E0E1
:101E6000E4E3FFE00C942131409171025091720241
:101E700060917302709174022FB7F8948091A3045B
:101E80009091A404A091A504B091A6042FBF841B37
:101E9000950BA60BB70B11E084369105A105B10592
:101EA00090F10E94AE0C882399F10E94B4076E5FF6
:101EB0007F4F8F4F9F4F69837A838B839C83809161
:101EC00011019091120188599D4F4091100150E0ED
:101ED0004530510510F044E050E0BE016F5F7F4F88
:101EE0000E94793182E090E00E948930182F882387
:101EF00051F00E94B4076093710270937202809354
:101F0000730290937402812F2496E4E00C943D3187
:101F10000E94B40700917602109177022091780216
:101F200030917902600F711F821F931FC0CFEF9213
:101F3000FF921F93CF93DF9300D000D00F92CDB7C5
:101F4000DEB77B0190E080E00E948930182F882363
:101F500009F487C04091030150E04115510511F08B
:101F600041E050E0609104017091050168597D4F96
:101F7000CE0105960E94793140916402509165022C
:101F800060916602709167022FB7F8948091A30464
:101F90009091A404A091A504B091A6042FBF841B26
:101FA000950BA60BB70B84369105A105B10540F43E
:101FB00089E692E00E94D9059D81891709F451C0F4
:101FC00081E090E00E94893081111AC010E0809178
:101FD000600290916102A0916202B0916302F701E8
:101FE00080839183A283B383812F0F900F900F90F2
:101FF0000F900F90DF91CF911F91FF90EF90089578
:1020000040910B0150E04530510510F044E050E0A4
:1020100060910C0170910D0168597D4FCE010196C0
:102020000E94793189E692E00E94D9059D81891349
:10203000CDCF0E94B40760936402709365028093D1
:1020400066029093670289819A81AB81BC818093FB
:10205000600290936102A0936202B093630211E068
:10206000B6CF8091690290916A02A0916B02B09103
:102070006C0289839A83AB83BC831111E4CFA7CF11
:1020800068EE7EEF90E080E00E94643460E082E0E1
:1020900090E00E94463460E083E090E00E94463485
:1020A0001092540260E084E090E00E94463464E0C4
:1020B00082E290E00E94463460E085E090E00E9479
:1020C000463460E086E090E00E9446346FEF87E09F
:1020D00090E00E94463440E050E0BA0188E090E091
:1020E0000E94583460E08DE090E00E94463440E069
:1020F00050E0BA0188E190E00E94583460E087E146
:1021000090E00E94463440E050E0BA018CE190E05B
:102110000E94583470E060E080E290E00E946434F5
:1021200040E050E0BA0188E190E00E94583480E03D
:102130000E94180D0E949F0D40E050E0BA018FE010
:1021400090E00E94583440E050E0BA0183E190E012
:102150000E94583408951F920F920FB60F921124C7
:102160002F933F934F935F936F937F938F939F939F
:10217000AF93BF93EF93FF938091E10082FF09C07B
:102180008091E20082FF05C08091E1008B7F809307
:10219000E1008091DA0080FF24C08091D80080FFA8
:1021A00020C08091DA008E7F8093DA008091D90080
:1021B00080FF9DC080E189BD82E189BD09B400FE38
:1021C000FDCF81E08093D7048091A904811109C0DB
:1021D0000E94F0050E94E3068091E20084608093F3
:1021E000E2008091E10080FF17C08091E20080FF53
:1021F00013C08091E2008E7F8093E2008091E20024
:1022000080618093E2008091D80080628093D80042
:1022100019BC85E08093D7048091E10084FF2BC036
:102220008091E20084FF27C080E189BD82E189BD01
:1022300089B5982F917080FFFBCF8091D8008F7D5A
:102240008093D8008091E1008F7E8093E10080919F
:10225000E2008F7E8093E2008091E20081608093B3
:10226000E2008091CE04882309F447C084E0809383
:10227000D7048091D7048091E10083FF27C080912B
:10228000E20083FF23C08091E100877F8093E1001B
:1022900082E08093D7041092CE048091E1008E7F7B
:1022A0008093E1008091E2008E7F8093E200809134
:1022B000E20080618093E20042E060E080E00E9402
:1022C000B1068091F00088608093F000FF91EF915B
:1022D000BF91AF919F918F917F916F915F914F913E
:1022E0003F912F910F900FBE0F901F90189519BC22
:1022F0001092D7041092A90474CF8091E30087FD57
:1023000093E09093D704B5CF78941F921FB61F9295
:1023100011248F939F93AF93BF938091A3049091C7
:10232000A404A091A504B091A6040196A11DB11D1D
:102330008093A3049093A404A093A504B093A6044F
:10234000BF91AF919F918F911F901FBE1F901895C5
:102350009C014FB7F8948091A3049091A404A0919C
:10236000A504B091A6044FBF821B930B08952FB70D
:10237000F8948091A3049091A404A091A504B09135
:10238000A6042FBF0895ACE0B0E0E9ECF1E10C94B5
:1023900018318E010F5F1F4F88E0D8011D928A957A
:1023A000E9F787E8C82E81E0D82EF12CE12CAA2489
:1023B000A394B12C21E9822E21E0922EF601819185
:1023C0006F018F3F09F442C0F894E82FE295EF7057
:1023D000F0E021A18F70A50102C0440F551F8A951E
:1023E000E2F7CA01922F982B91A392A1809589239D
:1023F00082A3789400C0EBE8F1E0712C31E02191E8
:102400002F3F09F46EC0A22FA295AF70B0E0909656
:102410008C9190E02F7002C0959587952A95E2F7F0
:1024200080FD5FC0832F782A330F8E169F0639F701
:10243000F601319780818F3F11F00E946D0850EABC
:102440005A95F1F7F801EE0DFF1D70828FEFE81A33
:10245000F80AA4E0EA16F10409F0B0CF48E050E031
:10246000B8018AE792E00E946C317C01892B41F02F
:1024700088E0F801AAE7B2E001900D928A95E1F7B1
:1024800010918302E114F10471F181E0809357020D
:102490000E94B71190935602809355028091550285
:1024A000909156020E94A811059790F0E12FF0E05C
:1024B000E253FD4F80917A02808380917B02818379
:1024C00080917C02828380917D02838310925702E7
:1024D00081E090E0E114F10451F02C96EDE00C94D1
:1024E000343180E0A0CF809157028111D7CF0E9474
:1024F000AE0CF82EE0918302882309F46CC0198693
:102500001A861B861C860E2F10E002531D4F8091E9
:1025100075028A3050F547E95FE0BE01675F7F4F83
:10252000C8010E947B0C882379F14EE25FE0BE0176
:10253000675F7F4FC8010E947B0C882329F11092AE
:1025400075028091820290E044E050E0BE01675F36
:102550007F4F82539D4F0E946C3121E020935E0299
:10256000892B59F5F12C8F2DB8CF8091580290917D
:1025700059020E94A811843F914068F680915E0242
:10258000811112C080E0A9CF809175028F3F29F0A0
:102590008F5F809375028A30A0F20E94B7119093EA
:1025A000590280935802EACFFE01399684E0DF0198
:1025B0001D928A95E9F710925E02E0918202F0E0A6
:1025C000E253FD4F89859A85AB85BC8580839183D5
:1025D000A283B383C8CFF0E0E253FD4F84E0A9E6C5
:1025E000B2E001900D928A95E1F789E692E00E94AF
:1025F000D90580936802C0906D02D0906E02E09081
:102600006F02F090700280915A0290915B02A0914B
:102610005C02B0915D02C816D906EA06FB0609F411
:10262000B1CFC0925A02D0925B02E0925C02F0926B
:102630005D020E94AE0C8111A5CF0E94B407C61A9C
:10264000D70AE80AF90AC0927602D0927702E0929D
:102650007802F092790296CF8091EC039091ED038D
:10266000892B8093AA0180915302882329F10E942B
:10267000B7112091510230915202821B930B88387E
:10268000934110F00E942D0A8091AA01909153026B
:10269000892B8093AA0180912F018823E1F18091F9
:1026A000A70487FF38C08EE1ECEAF1E090E08150AA
:1026B000A0F591110E942D0A40E250E061E372E022
:1026C0008AEA91E00E946C31892B21F180E2EAEAEA
:1026D000F1E0A1E3B2E001900D928A95E1F7E0917B
:1026E000A004F091A1043097A9F080912F018823D4
:1026F00059F08091A70487FF07C08091AA018093B9
:10270000AB0186E08093AA010280F381E02D8AEA82
:1027100091E00995089586E0C7CF2191222339F2EF
:102720009F5FC5CFEF92FF920F931F93CF93DF93DD
:10273000EC018A85811134C0EB80FC8087E5F81AB2
:1027400026E12E9DC0012F9D900D1124DC01A0518A
:10275000BC4F1496ED91FC911597309731F054963B
:102760006D917C918A509C4F099586E18E9D8001E8
:102770008F9D100D112400511C4FF80187810E947C
:102780003F0AF80180850E94380A0E942C131882A3
:1027900019861B861E821D821092EF031092EE0393
:1027A000CDB7DEB7E6E00C943B31CF93DF93EC017D
:1027B0008989811119C081E0898B8091EC039F8107
:1027C000892B8093EC038091ED039885892B80936E
:1027D000ED030E942C13EA81FB81309729F06C896C
:1027E0007D89CE0106960995DF91CF9108951092CB
:1027F000EC0380912F01ECEAF1E0882371F08091E5
:10280000A70487FF0AC08EE1DF011D928A95E9F7D0
:102810001092ED030E942C13089586E0F5CFAAE2F2
:10282000B0E0E5E1F4E10C9422318FEC94E02091EA
:10283000F100DC012D93CD01B4E0873D9B07B9F792
:102840008091D004833009F472C0B8F4813009F467
:1028500049C0823009F4B3C08091E80083FF96C27A
:102860008091CF049091D0049A3008F08FC2E92F64
:10287000F0E0EC57FB4C0C9456318A3009F48EC0D2
:102880008B3009F471C0893039F78091CF048132DF
:1028900019F78091D3049091D404009711F0029716
:1028A000D9F68091E800877F8093E8008091E80066
:1028B00082FF38C09091F3008091F200029731F4CA
:1028C0008091F100813011F0863021F48091F10087
:1028D0008093AB048091E8008B778093E8000E949E
:1028E0009206BACF8091CF04813A09F0B5CF80919A
:1028F000E800877F8093E8008091D3049091D4040E
:10290000892B61F460E28CEA94E070E00E943E075B
:102910008091E8008B778093E8009ECF60E090E0A4
:1029200080E0F3CF8091D7048111C0CF95CF809103
:10293000CF04813A09F090CF8091D3049091D404D0
:10294000892B09F089CF8091E800877F8093E80088
:102950008091E80080FFFCCF80912F018093F100EF
:102960008091E8008E77B9CF8091CF04813209F051
:1029700073CF8091D3049091D404892B09F06CCF4C
:102980008091E800877F8093E8000E949206809102
:10299000D10480932F010E94F7135ECF8091CF0462
:1029A000813209F059CF8091E800877F8093E80059
:1029B0000E9492068091D2048093AA044DCF809108
:1029C000CF04813A09F048CF8091E800877F809357
:1029D000E8008091E80080FFFCCF8091AA04BECF80
:1029E000803899F0823809F0D1C18091D3048F707A
:1029F000873008F0CBC18093E9008091EB0085FB24
:102A0000882780F91092E90006C08091CC0490914B
:102A1000CD04911182609091E800977F9093E80037
:102A20008093F1001092F1008091E8008E77AAC1A6
:102A3000882309F498C1823009F0A8C18091D1049B
:102A400081119BC18091D3048F702FEF280F263006
:102A500008F09CC18093E9002091EB0020FF8DC11C
:102A6000933031F48091EB0080628093EB0085C15C
:102A70009091EB0090619093EB0021E030E001C079
:102A8000220F8A95EAF72093EA001092EA008091DB
:102A9000EB008860EACF811179C11091D1041F77D2
:102AA0008091E3008078812B8093E3008091E8009F
:102AB000877F8093E8000E9492068091E80080FF63
:102AC000FCCF8091E30080688093E30082E01111E5
:102AD00083E08093D7045AC18058823008F056C1F1
:102AE0002091D1043091D2042C3DE3E03E07A1F5C2
:102AF00083E08A838AE289834FB7F894DE011396D4
:102B000020E03EE051E2E32FF0E050935700E491E3
:102B100020FF03C0E295EF703F5FEF708E2F90E0D3
:102B2000EA30C0F0C7968D939D932F5F243159F7FB
:102B30004FBF8091E800877F8093E8006AE270E0F1
:102B4000CE0101960E943E078091E8008B7780932A
:102B5000E8001CC1C096E7CF8091D3049091D404C3
:102B6000432F55274330510509F44AC078F54130C9
:102B7000510509F485C08BE590E0E4E8F5E04230CA
:102B8000510509F003C12091E800277F2093E80058
:102B90002091D5043091D6048217930708F49C0144
:102BA00040E02115310509F070C041116EC08091DF
:102BB000E80082FDC9CF8091D704882329F28530AF
:102BC00019F28091E80083FFF2CFBECF4132510568
:102BD00009F447C04232510509F0D8C0833091054D
:102BE00008F0D4C0FC01EE0FFF1FE456FE4F019029
:102BF000F081E02D87569E4FDC018C9190E01DC046
:102C0000332721303105E9F02115310579F02230E3
:102C10003105F9F02330310509F0B8C0E1EFF5E0F6
:102C2000E4918E2F90E0E1EFF5E007C0EFE2F6E0EF
:102C3000E4918E2F90E0EFE2F6E0009709F4A6C051
:102C4000A2CFEDE1F6E0E4918E2F90E0EDE1F6E029
:102C5000F4CFEFE0F6E0E4918E2F90E0EFE0F6E0C5
:102C6000ECCF8330910508F091C0880F991FFC01CB
:102C7000EE55FE4F0190F081E02D89E090E083CF8A
:102C800082E190E0EFEDF5E07ECF8091D7048823DC
:102C900009F45ACF853009F457CF8091E80083FDBD
:102CA00053CF8091E80082FD82CF8091E80080FFC1
:102CB00078CF9091F3008091F2002115310519F041
:102CC0008830910550F041E0089709F040E080918C
:102CD000E8008E778093E80064CF44914093F10040
:102CE0003196215031090196E8CF803809F04EC065
:102CF0008091E800877F8093E8008091CE048093E4
:102D0000F10092CE811142C01091D1041230F0F541
:102D10008091E800877F8093E8001093CE040E94A2
:102D20009206112311F084E005C08091E30087FD35
:102D3000FACF81E08093D70442E061EC81E00E9409
:102D4000B10642E261EC84E00E94B10642E261EC2D
:102D500082E00E94B10642E260EC83E00E94B1068C
:102D60008091D70413C08091D104813079F481E03F
:102D7000933009F080E08093CD041092E9008091B7
:102D8000E800877F8093E8000E9492068091E80027
:102D900083FF0AC08091E800877F8093E8008091DC
:102DA000EB0080628093EB00AA96E3E00C943E3146
:102DB0001F920F920FB60F9211242F933F934F93B0
:102DC0005F936F937F938F939F93AF93BF93CF93B3
:102DD000DF93EF93FF93D091E900DF708091EC00D7
:102DE000C82FC17080FDC0E81092E9008091F0000A
:102DF000877F8093F00078940E940F141092E9006E
:102E00008091F00088608093F000CD2BCF70C0934C
:102E1000E900FF91EF91DF91CF91BF91AF919F9129
:102E20008F917F916F915F914F913F912F910F9073
:102E30000FBE0F901F9018950E94F7132FEF84E399
:102E40009CE0215080409040E1F700C0000088E104
:102E50009AE00FB6F894A895809360000FBE909307
:102E60006000FFCF8093D8041092ED030E942C13D2
:102E700008958091D804982F9670963021F4886038
:102E80000E9432170895877FFBCF21E030E001C018
:102E9000220F8A95EAF720958091D80482230E9418
:102EA00032170895909130028095892380933002E3
:102EB000282F277091F4282F082E000C330B92171F
:102EC000130659F09091A80492FF07C08595859547
:102ED00085950E9445170E94460A0895CF93C09198
:102EE000A804C2FB992790F9981791F080FBC2F9CA
:102EF000C093A8046091A70484E090E00E94463447
:102F00006C2F82E290E00E94463482E00E945217C9
:102F1000CF91089521E030E001C0220F8A95EAF7B1
:102F20008091D804822B0E94321708958093540216
:102F30001092ED030E942C130895882321F00E9423
:102F4000380A0E942C130895882339F09091ED03DC
:102F5000982B9093ED030E942C130895882321F061
:102F60000E943F0A0E942C130895882339F0909103
:102F7000EC03982B9093EC030E942C130895882364
:102F8000A1F19CEF980F913A40F4682F8AEA91E002
:102F90000E94C0070E942C13089590E2980F983069
:102FA00050F4877091E001C0990F8A95EAF7892F54
:102FB0000E943F0AEFCF9BE5980F9330B8F48091C1
:102FC000CE019091CF01892B81F01092CF01109208
:102FD000CE01E091A004F091A104309731F0068079
:102FE000F781E02D90E080E009950895885A8731B7
:102FF000E0F78091D0019091D101892BB1F310922B
:10300000D1011092D001E091A004F091A104309779
:1030100061F30084F185E02DE5CFCF93C82F88239D
:10302000D9F18CEF8C0F813AC8F580912F0188235C
:1030300011F18091A70487FF1EC0EC2FE695E6955D
:10304000E695F0E0E655FE4F828190E04C2F477008
:1030500021E030E002C0220F331F4A95E2F78223BD
:103060009323892B91F06C2F8AEA91E00E94C0078C
:103070000E942C130AC0ECEAF1E082EB91E021916E
:10308000C21789F38E179F07D1F76C2F8AEA91E058
:103090000E94EA070E942C13CF91089580E28C0FC2
:1030A0008830D0F7C77021E030E001C0220FCA9508
:1030B000EAF78091EC03822B8093EC03EBCF1F9314
:1030C000CF93DF93182FD0E0C0E0893311F4C0E52F
:1030D000D0E0812F0E940D18209739F4812F0E9493
:1030E000BF17DF91CF911F9108958FE99FE001975E
:1030F000F1F700C000002197EFCF0F931F93CF93FC
:10310000DF93C62FD42F022FFC0182818823A9F0E0
:103110006093DB040E94B7119093DA048093D90482
:10312000C77081E001C0880FCA95EAF70E94B51701
:10313000DF91CF911F910F9108958091DB04681367
:1031400032C08091D9049091DA040E94A8118C3287
:10315000914048F510E21D0FCD17B9F080E28C0FB9
:10316000883040F4C77081E001C0880FCA95EAF743
:103170000E94AE17183048F481E09D2F977001C06F
:10318000880F9A95EAF70E94B517802F0E945F1862
:10319000183070F6D77081E001C0880FDA95EAF731
:1031A0000E94AE17C5CFC77081E001C0880FCA95D5
:1031B000EAF7F6CFB0E0A0E0E0EEF8E10C941B31C6
:1031C000EC018AE0A82E2881222309F48FC0213047
:1031D000C9F599818A81913021F422960E945F1865
:1031E00005C0923029F422960E940D182196EBCF4B
:1031F000933021F422960E94BF17F8CF943011F03B
:103200002196F4CF229630E020E0AE014F5F5F4F71
:103210008053990B8A30910550F02150310930F3D9
:103220008FE99FE00197F1F700C00000F6CFA29E62
:10323000B001A39E700D11249C01260F371F8981B8
:10324000EA01E3CFE22FF0E0E758FE4FB490822F7F
:1032500086958695869590E0FC01E759FE4FE490AF
:103260002770F12C022E02C0F594E7940A94E2F73D
:1032700031E0E322FF24FC01E75AFE4FC490D12C39
:10328000022E02C0D594C7940A94E2F731E0C3221B
:10329000DD24FC01E75BFE4F049110E002C01595B0
:1032A00007952A95E2F701701127E114F10419F04E
:1032B00081EE0E940D18C114D10419F086EE0E940F
:1032C0000D188B2D0E945F18C114D10419F086EEE1
:1032D0000E94BF17E114F10419F081EE0E94BF179C
:1032E0000115110509F482CF8CE278CFCDB7DEB796
:1032F000EAE00C9437319091A80492FF10C098E056
:10330000899F90011124622B609330020E948A17DA
:103310000E94B71190932F0280932E0208950E946D
:103320008A170895A9E1B0E0E8E9F9E10C941331B6
:10333000498B5A8B6B8B7C8B8D8B8C899D89892BD0
:1033400029F0CA0189238F3F09F013C28B898111AB
:103350001092ED031D861E861F86188A85E0FE01E9
:103360007196DE01199601900D928A95E1F7809190
:10337000A80482FF1CC00E94B71120912E02309138
:103380002F02821B930B8838934120F080913002EA
:1033900082FFEBC10E94B71120915102309152027D
:1033A000821B930B8838934110F00E942D0A8C8564
:1033B0009D85892B31F089859A8589238F3F09F076
:1033C000C0C129853A854B855C856D857E858F8555
:1033D00098890E947025C3C048EFC4164CE5D406F6
:1033E00029F4882379F00E943626EBCF69EFC616C0
:1033F0006CE5D60639F4882329F080912E018111DD
:10340000F2CFAFC108EA13E0E12CB12CA12C882443
:103410008394912C2EEF522E44244394F801408142
:10342000518166246A94762C20E0822F90E0FC0182
:10343000EE0FFF1FE40FF51F6081718161157105AB
:1034400031F0C616D70609F43C012F5FEECFF12C00
:10345000FFEF6F167F0609F444C0F8014481F09035
:103460002E018F2D411180E0F82FF170FF2EF80111
:10347000258086819B85992309F4F2C0FF2009F4F9
:10348000EFC0211014C0A401062C01C0440F0A94FF
:10349000EAF7842B86838091440390914503C29779
:1034A00030F462E370E07093450360934403C40119
:1034B00002C0880F991F2A95E2F70197F80126812B
:1034C0002817190671F48091EA039091EB03009795
:1034D00009F449C00E94A811C39708F444C0F80138
:1034E0004482EF28FFEFAF1ABF0A095F1F4F28E0A1
:1034F000A216B10409F092CF8B85882309F40CC180
:10350000EE2009F409C10E94B7119093EB03809358
:10351000EA0380914703883010F591E0980F90936B
:10352000470398E0FE013996DE01119601900D9255
:103530009A95E1F73CE0839FC0011124885B9C4F82
:1035400028E0FE013196DC0101900D922A95E1F709
:103550002FEF3FEFFC0131872087D386C286699623
:10356000E2E10C942F318091E8035091E903982F08
:10357000F0E0E0E0851314C09093E8030E171F07F6
:1035800009F4AFCF90E0FC01EE0FFF1FE052FC4FBB
:10359000B182A0820196837099278093E903A1CF1D
:1035A000282E312CF101EE0FFF1FE052FC4F20813D
:1035B0003181F7E0F29FD001F39FB00D1124A8559F
:1035C000BC4F2D913C911197398F288F40E020E01E
:1035D00030E0E32FF0E0EE0FFF1F688D798DE60FEE
:1035E000F71F6080718061147104E1F0F8010190AF
:1035F000F081E02DFF8BEE8B20E005C0661677068C
:1036000009F44F2D2F5FE22FF0E0EE0FFF1F6E89C0
:103610007F89E60FF71F608171816115710571F770
:103620003F5FD7CF4423C9F0F801231708F0FD010D
:1036300044820E171F0721F49093E803F42E51CF14
:10364000891305C0AE17BF0711F49F5F93709101F6
:103650002F5F3F4F822F83708DCFF0E0E0E0F7CFF8
:1036600090E0211020C0B40102C0660F771F2A9598
:10367000E2F79B01215031098217930731F444236B
:1036800009F448C0C5010E941F08C401062C01C0EE
:10369000880F0A94EAF7982F9095F801868189237C
:1036A0008683F22C1ECF9C01062C02C035952795EF
:1036B0000A94E2F7A90141705527BC0161507109D4
:1036C00086239723892B11F5452B01F1F80182817F
:1036D0009381892BC1F01B821C821D821E8259821C
:1036E0005A820E94B7118160582F9D838C83F80104
:1036F000828193818F83988729813A814B816D8163
:103700007E810E947025F8011582BFCFF22FF170E3
:103710002F2EBBCF2F2CB9CF9091E8038091E903D6
:10372000981731F00E944526EE2009F44ACE17CFB3
:103730000E94E0251092EB031092EA030E944D08CC
:10374000F3CF61E0CE0109960E94D70E6C018B8504
:10375000F7EFCF16FCE5DF0609F03ECE882309F42B
:1037600051CE81E080932E012CCE82E00E94521730
:1037700011CE8091CC019091CD0101969093CD0115
:103780008093CC01E3CDA5E0B0E0E9ECFBE10C9443
:1037900021318C0190933B0380933A03011580E221
:1037A0001807C0F4802F0E94BF17C8010E94DD0ACD
:1037B0009801205E31092830310518F001151105F6
:1037C00031F40E94AE172596E4E00C943D310E943E
:1037D0009D17F9CF80EF89838A831B820E94B711DE
:1037E0008160782F9D838C8349815A816B818D8183
:1037F0000E949219E8CF0F931F93CF93DF938C0110
:10380000EB016EED72E08C2F0E94AF0D892B71F4ED
:10381000DD27CA52DD4F8881F8011082188283307B
:10382000F1F048F4813059F0823081F0DF91CF918E
:103830001F910F9108958430B9F08530B9F78091C8
:10384000DE029091DF02009789F306C08091E002CA
:103850009091E102009799F30E94C31BE7CF8091FA
:10386000E2029091E302F6CF8091E4029091E502AA
:10387000009791F72091DE023091DF028091E00203
:103880009091E10221153105F1F2009729F7C90164
:10389000E3CFA5E0B0E0EFE4FCE10C9421318C0132
:1038A00090933B0380933A03011580E21807C0F41C
:1038B000C8010E94DD0A9801205E310928303105D7
:1038C00018F00115110549F40E94B517802F0E94C8
:1038D0000D182596E4E00C943D310E94A417F6CF14
:1038E00080EF89838A8381E08B830E94B711816096
:1038F000782F9D838C8349815A816B818D810E94B1
:103900009219E7CFCF93DF93EC010E94491CCE01BF
:103910000E94C31BDF91CF9108950F931F93CF9304
:10392000DF938C01862F6EED72E00E94AF0D892B24
:10393000B1F4C091DE02D091DF02209781F0F8014E
:103940008081833051F4CE010E94821CCE010E94FE
:10395000821CCE010E94821C02C08430D0F7DF910D
:10396000CF911F910F9108950F931F93CF93DF93E2
:103970008C01EB016EED72E08C2F0E94AF0D892B54
:1039800009F061C0FE01FF27D8018C91EA52FD4F7A
:103990008130D9F419969C911997992311F080835D
:1039A0000CC01A969C919923D1F382E08083809178
:1039B000E0029091E1020097D9F48091DE029091AB
:1039C000DF02009709F43FC013C08230D1F5199689
:1039D0008C91199781112AC01A968C9181110BC074
:1039E00083E080838091E2029091E302009701F1ED
:1039F0000E94491C28C084E080838091E402909159
:103A0000E5020097A9F78091DE029091DF0200970E
:103A1000F9F00E94821C8091E0029091E1020097EF
:103A200039F78091DE029091DF02E2CF85E080835A
:103A30008091DE029091DF02009729F00E94821CA3
:103A4000F0CF86E08083DF91CF911F910F91089591
:103A50008091E0029091E102B4CFA4E0B0E0E3E312
:103A6000FDE10C941A317C01DC0113968D919C913F
:103A70001497892B39F08C9111969C9189238F3F53
:103A800009F0F7C52496EBE00C943631D601169672
:103A90008C9116978823D1F019968D919C910817D7
:103AA000190739F48091EE039091EF030817190775
:103AB00069F0F601978614870387C6010E94D51323
:103AC000C60106960E9492131092ED03FFEFAF1A03
:103AD000BF0A26E1C20ED11CE4C5980122513F4520
:103AE0002031310508F0E9C48FEF93E00E943834AB
:103AF0008111A6C05EEED52ED00E07E412E0D110E3
:103B000036C019821A821B821C8299249A946801F9
:103B10004FEFC41AD40AC8010E94383489831A822C
:103B2000882309F48DC0813009F07FC0580152E02C
:103B3000A50EB11CC6010E943834C82E8A83882382
:103B400009F47EC0C5010E943834D82E8FEF8C0D49
:103B50008330D8F4580183E0A80EB11CDB82DD204D
:103B600021F0CE0101960E94DA188501D0CF01150F
:103B700034E0130709F464C0C8010E94383481118D
:103B800001C0DA940F5F1F4FBACF8BEF8C0D8330DB
:103B900030F5C8010396DB825C01DD2031F358016A
:103BA000A4E0AA0EB11C0E9438348C838823E9F269
:103BB0008B819C818130BFEF9B0710F0982F882765
:103BC000E6E0CE1631F0F7E0CF1631F00E94821C0D
:103BD000CCCF0E94491CC9CF0E94C31BC6CF24E092
:103BE000C212C3CF580134E0A30EB11CC801039622
:103BF0000E943834DD2021F1882311F18150990B86
:103C0000989E9001999E300D11244D2D4150550BD9
:103C1000CA01820F931F019708F4A7CFAFE9BFE055
:103C20001197F1F700C00000F6CFCE0101960E9477
:103C3000DA1856019ACF81E00E948A170E9439173C
:103C400080913002877009F41DCFD70112968C91B4
:103C5000882309F417CF8091A80482FF13CF82E054
:103C60000E9452170FCF81E00E944517E7CF82E0F4
:103C7000E3CF2FEFC216D10411F008F05AC06EED59
:103C800072E08C2D0E94AF0D892B19F586E18C9D79
:103C9000F0018D9DF00D1124E051FC4F86818130A3
:103CA00029F58091DE029091DF02892B91F08091BD
:103CB000E0029091E102892B61F08091E202909103
:103CC000E3022091E4023091E502822B932B892BB1
:103CD000A9F0F7018281882309F433C4C801905404
:103CE0008115904108F4FFC3C801FFC3823089F7F2
:103CF0008091E2029091E302892B59F326E12C9DF9
:103D0000C0012D9D900D112480519C4FDC015096D7
:103D10001C920E94D513DDCF882309F45AC48189EF
:103D2000882309F456C4C5018A509C4F0E949213FF
:103D300050C4033FFCE51F0739F188F4083D3CE51A
:103D40001307F1F0093D4CE5140751F1073D5CE51F
:103D5000150709F03EC426E241EE61EE0DC0053FB5
:103D60008CE51807C9F0A0F027E245EE66EE063FA5
:103D7000ACE51A0709F02DC4C7010E947D1860CF79
:103D800027E245EE65EEF8CF26E241EE60EEF4CF95
:103D900027E245EE64EEF0CF26E241EE62EEECCF94
:103DA00028E241E0EFCF01363DE5130709F427C4CF
:103DB000053A4DE5140709F422C40631ACE51A07AB
:103DC00009F096C48091EC038A7A91E009F490E0BE
:103DD0009093CA0169E2811165E38AEA91E00E9449
:103DE000EA070E942C132CCF8091A7048062073031
:103DF0004CE5140709F49AC08091A704806108304B
:103E00005CE5150708F492C08091A70480648EC019
:103E10000D308CE5180709F49EC0A0F48091A7042A
:103E20008E7F0B30ACE51A0709F480C08091A7049F
:103E30008C600C30BCE51B0708F478C08091A704A7
:103E40008D7F74C08091A7048F7E0F30ECE51E0734
:103E500009F46CC08091A704877F0031FCE51F073F
:103E600008F464C08091A7048F7D60C00D3F2CE5ED
:103E7000120709F478C040F505314CE5140709F440
:103E800084C080F403318CE5180709F47AC008F483
:103E900072C00E94F7139091A704892F97FB87F9AE
:103EA000805844C00B3FACE51A0709F44AC008F03B
:103EB00056C08091A80481600A3FECE51E0709F016
:103EC000C8C38093A804C5C30130FDE51F0709F4EA
:103ED00068C0C0F48091A8048C7F0F3F3CE51307B5
:103EE00081F38091A804836001154DE5140748F320
:103EF0008091A804982F909591708E7F892B90FBCC
:103F000081F9DFCF01365DE5150709F450C0053AA8
:103F10008DE5180709F452C002309DE5190709F034
:103F200098C360E03FC08091A70482608093A7049B
:103F300090C38091A7048460F9CF8091A704886022
:103F4000F5CF8091A8048260BCCF0E94F7138091C6
:103F5000A7048068EBCF8091A7048B7FE7CF809187
:103F6000A8048E7FAECF8091A8048D7FAACF8091C8
:103F7000A7048F7BDBCF0E94F7138091A7048F7774
:103F8000D5CF8091A704837FD1CF8091A70482FBF6
:103F9000992790F921E0922790FB82F990FB83F911
:103FA000C5CF61E08EE090E00E94463452C390910C
:103FB000A704892F8F7E94FF8061B8CF9091A704CA
:103FC000892F8E7F90FF8160B1CF0E94F713BFEFE2
:103FD000E4E3FCE0B150E040F040E1F700C0000055
:103FE0000E94A3078091A80482FB882780F991E0B2
:103FF00089270E946E17F701868197810097C9F182
:104000000E94C708182F092FF701B280C580C294FB
:104010003FE0C322809130028770C1F0AB2CBB20FF
:10402000B1F0892F807F803421F080E2810F8830C9
:1040300068F08091A80482FF09C082E00E945217B4
:10404000809130028770AA24A3948111A12C902E14
:1040500092942FE09222FBE0F91508F480C0E92D3C
:10406000F0E0E257FB4C0C94563181E0C2CF80E087
:10407000C0CF828100811181882369F0C8010E942C
:104080008C0ED82E682FC8010E948B0AB8018D2D86
:104090000E946F0EB5CFC8010E94570AD82EF6CFE6
:1040A000202F2F70D22E802F807F19F0D29490EF86
:1040B000D922BB20B9F0DD2069F080E2810F883081
:1040C00010F0111109C08091EC03D82AD092EC03B2
:1040D0000E942C13812F41C08091ED03D82AD092E9
:1040E000ED03F6CF812F0E94BF17DD20C1F180E2E2
:1040F000810F883010F0111104C08D2D0E943F0AED
:1041000003C08D2D0E94380A0E942C1328C0302F26
:104110003F70D32E802F807F803219F0D29480EFB1
:10412000D822112351F0113009F49AC0BB2009F4B0
:10413000A3C0CC2009F472C0CDCF8091A80482FD29
:1041400043C0BB20D9F1DD2039F08091EC03D82A9F
:10415000D092EC030E942C1380E00E940D18292DB0
:104160002850330B2430310510F40E94D10C812FDC
:10417000902F0E94C20A81118EC11092CD0110921F
:10418000CC01AA20B1F08091300280FD12C0D7018D
:1041900012961C928595859585950E948A17C70170
:1041A0000E942D1D809130028595859585950E94F0
:1041B000451760E0C7010E94D70E64CC80E00E94E2
:1041C000BF17DD2061F299CFBB2051F1C11006C0AD
:1041D000809153028D290E94B517C1CF41E0C412CE
:1041E00011C082FFBCCF80915302D82AD81609F49F
:1041F000B6CF0E94B7119093520280935102D09291
:104200005302ADCF55E0C512E3CF0E942D0A909125
:10421000CB018D2D892B89138093CB018D2DDBCF85
:10422000C11003C00E942D0A12C081E0C81213C041
:104230008091EC038D2109F492CF0E942D0A909178
:10424000CB018D2D8095892389138093CB018D2DF2
:104250000E94AE1784CF95E0C91609F480CFE2CF53
:10426000BB2029F0A5E0AC1508F479CFD7CFB4E096
:10427000BC1508F474CFEBCFCC2049F3193349F4C3
:10428000EFEFF7EE23E0E150F0402040E1F700C00F
:104290000000812F0E94BF1762CF802F837091F59D
:1042A000B1105DCF412F429546954770440F440FA2
:1042B000812F8F70042E01C0880F0A94EAF7212FF6
:1042C000207114FF07C02FE030E001C0220F4A9593
:1042D000EAF72095302F369536953370323069F0F5
:1042E00050F440915402313029F0822B84230E94F3
:1042F000961735CF842B822BFACF282B809154022E
:104300008227F5CF8695BB2011F0802F81708823FE
:1043100009F425CF412F429546954770440F440F2D
:10432000812F8F70042E01C0880F0A94EAF7212F85
:10433000207114FF07C02FE030E001C0220F4A9522
:10434000EAF72095302F369536953370323069F084
:1043500050F44091D804313029F0822B84230E94FC
:104360003217FDCE842B822BFACF282B8091D804D4
:104370008227F5CF302F3F70D32EBB2029F0832F1B
:104380000E948A17812F27CF812F0E94AE178D2D73
:104390000E944517E4CE123F89F160F4103FB9F056
:1043A000113F81F0BB2009F466C0C11093CE802F6D
:1043B0008F7128C0133F49F1143FA1F78091A804E1
:1043C00082FD2FC0802F8F71BB2011F31BC0BB203B
:1043D00081F044E04C1508F4C2CE202F2F7181E00B
:1043E00090E001C0880F2A95EAF79091D8048927B8
:1043F000B6CF55E05C1508F4B2CEEFCF802F8F71A9
:10440000B110C6CF0E948A17AACE80E0BB2009F463
:10441000A6CF81E0902F9F7101C0880F9A95EAF78F
:104420009ECFBB20D9F0809130028770843041F458
:104430000E94460A802F8F710E944517A12C8FCEB3
:1044400084E08C15D8F3902F9F71D92E892F0E946C
:104450008A1763E08D2D0E947B19F0CFA4E0AC1584
:1044600030F40E94460A64E0802F8F71F4CF81E01F
:104470000E945217E3CFCC2059F0193309F009CF2D
:10448000BFEFE7EEF3E0B150E040F040E1F7FFCEE0
:10449000802F8F717DCFBB2019F0C1106ECE71CEF1
:1044A000C1106BCE8091CC019091CD01029709F0A3
:1044B00064CE812F0E945F1860CE0031BFE51B07DC
:1044C00009F4B9CB0131EFE51E0709F4D0CB68013F
:1044D000E7E5DE1A882309F4CCCBC8019056811594
:1044E000904208F0FBCBC801992720E28C3391055C
:1044F00020F4FC01E75BFE4F20811F922F939F93D6
:104500008F93D7018C911F928F9311968C911F924C
:104510008F9388E391E09F938F931F9288E18F930D
:104520008DE892E09F938F930E9489310FB6F894A3
:10453000DEBF0FBECDBFFFEFCF16D10411F008F0E4
:10454000F8CB80912501909126018C159D0524F4CE
:10455000D0922601C0922501D70112968C91129714
:1045600096E19C9D50019D9DB00C1124F501E051F8
:10457000FC4F6F01808B12969C918681992309F4E0
:10458000CBCB128701878F5F86830E94B711D6013C
:104590001E969C938E931D978091530217968C9331
:1045A00017978091ED039091EC03892B18968C93CB
:1045B0001897ED91FC911197309739F054966D91C1
:1045C0007C91C5018A509C4F09951093EF0300938D
:1045D000EE03F7018281882309F47BC01092DB048B
:1045E0000330FDE51F0708F0DECB0A3F2CE512077C
:1045F00030F4C80182509C45449708F0DECB0E94FD
:10460000200F9093A8048093A70401315CE515075F
:1046100009F4ADCC08F02ACC09309CE5190709F45F
:1046200094CC08F0F5CB0530BCE51B0709F485CC2C
:1046300008F0DACB0330FCE51F0709F474CC08F06E
:1046400078CC8091A704816002303CE5130709F41F
:104650006DCC6091A7041091A80484E090E00E94C2
:104660004634612F82E290E00E9446340E94F713A4
:10467000E7CA61E0C7010E94D70E8C01D7011296EC
:104680008C918823B1F080912501909126010196AB
:1046900081F060EFC62E63E0D62EB12CA12C9924B8
:1046A000939480912501909126018A159B050CF029
:1046B000EDC9F7018281811110CA0031FFE51F07A2
:1046C00009F4D1CA01312FE5120709F000CF82E0C9
:1046D000CBCA0631BCE51B0709F08DCC8091CA011D
:1046E00069E2811165E38AEA91E00E94C00779CB13
:1046F0000A35EDE51E0709F4B8CC68F401152CE580
:10470000120709F462CC0E3D1C4509F074CC0E94DE
:1047100040100E941C170C354DE5140709F462CCBB
:1047200008F4A5CC073A1D45A1F365CCCF93DF93E0
:104730008091E901807F09F049C08091E6018823DA
:1047400009F444C080912D02D091EC016091E40104
:104750007091E501A091E701B091E801C62FC72350
:10476000D817A1F190E0109711F0CF3F19F40196FE
:104770008770F6CF9C0143E0220F331F4A95E1F783
:10478000F901E351FE4F41814713F1CF40814613B8
:10479000EECF42814111EBCF438154814A1B5B0B29
:1047A0004C32514020F78091E9018F7080618093F5
:1047B000E901F901EE50FE4F80818F7080618083A6
:1047C00084EE91E00E942D1D0E944D0ADF91CF9151
:1047D0000895A5E1B0E0EFEEF3E20C941B318C01FB
:1047E00085E0F801DE01519601900D928A95E1F77E
:1047F000F801E28064EEA62E61E0B62E6091E7013A
:104800007091E8016115710509F44CC19091E401C2
:104810004091E501892F84238F3F09F443C1208112
:104820003181C380D480F090E601F601E61BF70BDE
:10483000BF01FF2009F411C18091E901582F507F79
:104840006C32714008F0C4C0511175C0FE2C431386
:104850001EC092131CC06091EA017091EB01F80137
:10486000468157816417750791F4E11010C08F706D
:1048700080618093E901C5010E942D1D8091E901AD
:10488000F80185838F2D6596EAE00C943731C114C9
:10489000D10429F0822F83238F3F09F01EC180E0CD
:1048A000F82FF170DF2E80FF3CC080912D024091E7
:1048B000EC01841315C0298B3A8B89899A890E944F
:1048C000BB0E292F22952F702230F8F0243020F5CE
:1048D0009F70F9F0F8019581907FD9F4D12C1FC019
:1048E00090E0FC0153E0EE0FFF1F5A95E1F7E35112
:1048F000FE4F5181351306C05081251303C05281EC
:10490000E5120FC001968770D4CF9F7011F08823F5
:1049100029F3805E883010F3C8010E942D1DFD2C04
:10492000B1CFEE2009F4AECF8091E9018160809390
:10493000E901F12CA7CF43131BC0921319C040917A
:10494000EA015091EB01F8012681378142175307A4
:1049500079F4E1100DC08583C8010E942D1D88E007
:10496000F801A4EEB1E001900D928A95E1F78ACFAB
:10497000C8010E94C80E882339F1EE2029F18091E8
:10498000E9018032A0F02091E4013091E5013A87FD
:1049900029871B86DD86CC868E878091EA019091DF
:1049A000EB01988B8F87CE0109960E942D1D88E020
:1049B000F801A4EEB1E001900D928A95E1F70E9412
:1049C0009623FF24F3945ECFC8010E942D1DF9CFDA
:1049D00051110AC084EE91E00E942D1D88E0F5017E
:1049E00011928A95E9F7A5CF431318C0921316C008
:1049F0004091EA015091EB01F8012681378142177D
:104A0000530761F4E1100AC08583C8010E942D1D7F
:104A100088E0F50111928A95E9F734CFC8010E9428
:104A2000C80E882389F2EE2079F28091E901803264
:104A300008F4BDCF2091E4013091E5013A83298348
:104A40001B82DD82CC828E838091EA019091EB0102
:104A500098878F83CE010196A8CF6C327140C0F643
:104A6000FE2CEE2009F4B0CF43130EC092130CC0FD
:104A70002091EA013091EB01F80186819781281796
:104A8000390711F488E06DCFC8010E94C80E81116A
:104A90008ECF8091E90181608093E901C8010E9475
:104AA0002D1DF0CEEE2009F48FCFC8010E94C80E54
:104AB000F82E882309F488CF88E0F801A4EEB1E04D
:104AC00001900D928A95E1F78091E4019091E501C2
:104AD0000E94BB0E0E949623D5CE81E08E25E0CEAB
:104AE000A0E1B0E0E6E7F5E20C94233129873A87AC
:104AF0004B875C876D877E878F87988BCE01099661
:104B00000E94E923811112C088E0FE013996DE017E
:104B1000119601900D928A95E1F78C859D85892BE0
:104B200029F089859A8589238F3F81F580912D020F
:104B30009091EC01891317C06096E2E00C943F312C
:104B400093E0AA0FBB1F9A95E1F7A351BE4F98E0DF
:104B5000FE01319601900D929A95E1F78093EC0158
:104B60000E944D0AE3CFB8E08B9FC001112483510E
:104B70009E4F0E94E9238823F9F280912D0290E054
:104B800001968770992780932D02D0CFA091EC01D8
:104B9000B0E0CD0101968770992720912D0228174A
:104BA000190671F60E94F7131092EC0110922D0273
:104BB00088E0E4EEF1E0DF011D928A95E9F7B6CFD7
:104BC0000F931F93CF93DF9380914703E0914603A8
:104BD000CCE081111AC0DF91CF911F910F91089500
:104BE000D1E0DE0FD09346030E2F10E0EC9FF001D2
:104BF0001124E85BFC4F83819481892B29F080810B
:104C0000918189238F3F51F4ED2F80914703E8175D
:104C100038F31092470310924603DDCFC09FD001B6
:104C2000C19FB00D1124A85BBC4F16968D919C912D
:104C30001797892B29F418968D919C91019651F420
:104C40002081318142815381648175818681978180
:104C50000E947025C09FF001C19FF00D1124E85BF8
:104C6000FC4F148213821092ED03CECF1092EB030F
:104C70001092EA0310922E018091E9038093E803D9
:104C80000E944D080E94E0250895B0E0A0E0EBE40A
:104C9000F6E20C941431C091E80397E0892E01E00C
:104CA00010E02CE0322E3EEF932E4424439480916A
:104CB000E9038C1309C00E94E0250E944D08CDB77E
:104CC000DEB7E1E10C943031D0E0FE01EE0FFF1FC2
:104CD000E052FC4F80819181889ED001899EB00D69
:104CE0001124A855BC4F14962C911497211158C02B
:104CF00050904703E8E4F3E030E020E0712C5D01E0
:104D0000251508F04BC0E284F384D501CD90DC90EA
:104D10006FEF7FEF612C462D50E0DA01AA0FBB1F29
:104D2000AC0DBD1D0D90BC91A02D109731F0EA1671
:104D3000FB0609F4BA016394EECF6F3F7607A9F141
:104D4000D80102C0AA0FBB1F6A95E2F77A2AB80100
:104D5000062C02C0660F771F0A94E2F7AB014150A0
:104D6000510974161506F9F4329EF001339EF00DC8
:104D70001124E85BFC4F889ED001899EB00D112460
:104D8000A855BC4F12962D913C91139737832683DB
:104D9000908291829187808715964C920E941F087D
:104DA0002196C37084CF148213822F5F3F4F3C96AD
:104DB000A7CF1F921FB61F9211248F939F93AF937B
:104DC000BF938091A204811113C08091A30490919C
:104DD000A404A091A504B091A6044196A11DB11D03
:104DE0008093A3049093A404A093A504B093A60475
:104DF000BF91AF919F918F911F901FBE1F901895EB
:104E0000CDB7DEB7E7970FB6F894DEBF0FBECDBFC4
:104E100085B7806885BF85B7806885BF84B7877F81
:104E200084BF0FB6F894A895809160008861809344
:104E30006000109260000FBE80E890E00FB6F8941A
:104E400080936100909361000FBE8BE698E0909391
:104E5000A9018093A8010E94C30D0E94FC0D0E942D
:104E6000F0050E94E3068091E20084608093E200F6
:104E700078948091D7048823A1F01091E9001F70E5
:104E80009091EC00892F817090FD80E8182B109292
:104E9000E9008091E80083FD0E940F141F701093B9
:104EA000E90082E084BD93E095BD9AEF97BD8093C1
:104EB0006E00109276021092770210927802109291
:104EC00079020E94070F811102C00E949F0D0E946B
:104ED000AE0C809318010E94AE0C81110E949D2F90
:104EE000809118018091180194E0811190E09093D5
:104EF000830284E0891B8093820284E90E946D080A
:104F000086E60E946D0887E90E946D0886EC0E9483
:104F10006D080BE811E0D8018D918D018F3F11F0E4
:104F20000E946D08B1E001391B07A9F788E0EEEC9B
:104F3000F2E0DF01282F1D922A95E9F7EAE7F2E077
:104F4000DF011D928A95E9F790E080E00E944034ED
:104F5000883E9E4F21F40E94070F811102C00E94DB
:104F6000401082E090E00E943834809384020E94D6
:104F7000200F9093A8048093A7040E94C311EFE32D
:104F8000FCE93197F1F700C000000E94C3110E94B4
:104F9000AE0CE4E08111E0E0F0E0E253FD4F8081EF
:104FA00081FF08C06FEF7FEF90E080E00E946434E3
:104FB0000E94A30783E090E00E9438340E94961775
:104FC0000E94AE0C811124C182E08093C50280E86A
:104FD0008093DC040E94542E6DE070E08CE092E03F
:104FE0000E94CE0B892BE9F58091C50263E070E049
:104FF00081FD10C189E092E00E94CE0B892B89F5DA
:105000006DE070E089EF91E00E94CE0B892B49F5AD
:105010000E94B407605A75418F4F9F4F60933E03C3
:1050200070933F038093400390934103EFEDF4E0CE
:1050300080E092E0DF019C011D9221503040E1F7B9
:10504000F093E606E093E5068FEF9FEF9093DE0482
:105050008093DD0481E080934303809342031092A8
:10506000C6020E94AE0C811102C00E94A02F89E1ED
:1050700091E09093A1048093A0048EEC92E038E03C
:10508000380F3DAB8091D70410E4F12E00E112E11E
:10509000853009F4F9C00E94C311D82E81110E94F5
:1050A000B407AEECB2E0E5E8F2E010E000E0B02ECC
:1050B000FD9081918F1509F4F6C08F25C12CEE2447
:1050C000E394982F9E2109F4E9C00E94AE0C882336
:1050D00099F0CBA6BCA6FE2081E009F480E08DA764
:1050E0000E94B7118160782F9FA78EA74BA55CA562
:1050F0006DA58FA50E949219F801EB57FD4F808195
:10510000E826E0820E94AE0C882369F08091250198
:105110009091260110E006E1019609F00AC1809104
:105120002E01811110C180914303882351F1809198
:10513000C7029091C8020E94A811C29708F02EC120
:105140002091DD043091DE042115310509F074C190
:10515000809142038823A9F00E94B40700913E0386
:1051600010913F032091400330914103601B710B6C
:10517000820B930B6F3F7F4F8F4F9F4710F40E941E
:10518000F80BD1100E94130C0E94D10C9091C9020F
:1051900089138093C9028091D704843009F072CFBB
:1051A00083E08093E9008091E80082FF6BCF8091DB
:1051B000E80090E085FF06C00E940F06882309F4EE
:1051C0000FC291E08091E8008B778093E8009923EB
:1051D00009F458CF00913C0310913D0389810115DA
:1051E000110509F41AC28E3F09F09FC28A818330EB
:1051F00020F08550833008F098C2EA81EE3008F044
:1052000094C2F0E0E656FB4CCE0101960C94563168
:1052100080E0DBCE86E092E0EFCE8091D704843050
:1052200029F10E94F80B1092A20488E190E00FB6D9
:10523000F894A895809360000FBEF092600083B749
:10524000817F846083BF83B7816083BF78948895B2
:1052500083B78E7F83BF0FB6F894A89580916000C6
:10526000886180936000109260000FBE8091CD0431
:10527000882351F00E94C311EEECF2E0819181117C
:10528000F5C49DA99E13FACF8091D704853009F407
:10529000C4CF0E94F7130E94D10CFDCEC394EE0C34
:1052A00026E0C2120ECF0F5F1F4F0830110509F024
:1052B000FECE8FEF88AB89AB1AAA0E94B71181602E
:1052C000782F9CAB8BAB48A959A96AA98CA90E94DD
:1052D000921918CF089FF001099FF00D1124E05199
:1052E000FC4FE288F388E114F10421F4BCE2EB2ED8
:1052F000FF24F394089FF001099FF00D1124E05161
:10530000FC4F86818823A1F0858596850E94A8118F
:10531000E816F90668F4109F70011124C701805146
:105320009C4F0E94D513C7018A509C4F0E94921334
:105330001F5F812F90E020912501309126012817D1
:10534000390744F6ECCE8091EA039091EB03009785
:1053500009F4E9CE0E94A81120914403309145033D
:105360002817390708F0DFCE9091E8038091E90310
:10537000981759F00E944526109245031092440355
:105380001092EB031092EA03CECE0E94E025109219
:10539000EB031092EA030E944D08C5CE0E94B7119C
:1053A0009093C8028093C7028FED94E09093E60635
:1053B0008093E5060E94AE0C8823C9F184E392E055
:1053C0000E948E0BE091D804EF3060F4F0E0E855D5
:1053D000FB4C0C9456318CE292E00E948E0B81E0E3
:1053E0000E949C0B0DE812E0D8010D900020E9F717
:1053F0008D0101501109ADE8EA2EA2E0FA2EE01667
:10540000F10678F080914303882309F4A1CE98CE69
:1054100086E292E0E2CF80E292E0DFCF89E192E0A3
:10542000DCCFF70181917F010E940E0BE8CF8CE366
:1054300092E00E948E0BE6CF8091C60261E070E0A0
:10544000811186CE082F10E07B01082E02C0EE0CE1
:10545000FF1C0A94E2F7A9014E215F21452B09F4B4
:1054600047C09091C50290FD45C08295880F807617
:105470008093290198013695279536952795209395
:105480002C01815E80932A0110922D0124E630E0E8
:1054900047E050E067E271E088E70E94F72E892B31
:1054A00009F056CEA801E5E0440F551FEA95E1F753
:1054B0008091C50280FD2CC041525B4F04E610E094
:1054C00020E230E060E488E70E94182F892B09F081
:1054D0003FCE0E94130CE094F0948091DD049091F3
:1054E000DE04E822F922F092DE04E092DD0430CE00
:1054F0008F5FA8CF880F880F880F809329011092A3
:105500002C01895F80932A0183E080932D01BECF17
:10551000E5EAF2E080E2DF011D928A95E9F7E5E92C
:10552000F1E0FFABEEAB01E911E069E9262E61E0A5
:10553000362E77E0972E88248394AEA9BFA92D91AB
:10554000BFABAEABF80141908F01440E552E511CFC
:10555000C20181529B4F2C01E22FF0E0EB55FD4F31
:1055600030E020E0692C621AC82C022E01C0CC0C5D
:105570000A94EAF7520190E0D5018D915D018C21EA
:10558000662D691B6770762E062E000C770BB82FE0
:1055900001C0BB0F7A94EAF77B2E71956195710972
:1055A0006770772701C086956A95EAF7782A808127
:1055B000782A70829F5F9830F9F62F5F3F4F3196BF
:1055C0002830310579F6EEA9FFA92E163F0609F01D
:1055D000B4CF04E610E020E230E045EA52E072CFBA
:1055E00000E210E09E012F5F3F4F79018091E800BB
:1055F00085FD0AC08091E8008B778093E8000E94C7
:105600000F06882399F3DDCD8091F100D7018D93AA
:105610007D010150110951F7D4CD8C3009F4D1C06E
:1056200058F5843009F4B4C058F4823009F46CC0E1
:1056300008F09FC0813009F463C08FEF898375C083
:10564000863009F4BBC008F4AEC08B30B1F780914E
:10565000380390913903892B09F467C0CE01019674
:105660000E946A063FEF81EE94E031508040904006
:10567000E1F700C000009CCC803109F4D5C0A0F552
:105680008E3009F4A5C008F49FC080913803909132
:105690003903892B09F449C08C81E82EF12C2DE1C6
:1056A000E216F10408F041C0CA80DB80DC24CD247E
:1056B000DC248E010F5F1F4FE00EF11EC601895BD7
:1056C0009D4F0E151F0589F139EBC31631E0D30646
:1056D00028F4D80114966C910E9446340F5F1F4F36
:1056E000BFEFCB1ADB0AEACF823109F4A2C008F47B
:1056F0009EC0833109F4C8C08E3F09F09ECF7DCD96
:105700001A8289E08B8311C08A81823009F4C4C275
:10571000833081F0813009F090CF0E94B4070E945D
:105720005C316B837C838D839E83CE0101960E94C6
:105730006A06A8CC8091380390913903892BA9F38C
:105740008091CE028B838091CF028C838091D00296
:105750008D838091D1028E838091D2028F8380913C
:10576000D30288878091D40289878091D5028A8765
:10577000DCCF8A81823009F060CF6B817C818D81A2
:105780009E810E945C3186E290E00E944634CDCF3B
:105790004C816B818A810E94400E98278927982727
:1057A0009E838D83C2CF2D813E81322723273227CE
:1057B0004C816B818A810E94F20CB7CF0E94310D1F
:1057C000B4CF80E18A83B1CF81E08A8389EB9ACF1D
:1057D0008C81E82EF12CBDE1EB16F10408F0A5CF89
:1057E000CA80DB80DC24CD24DC248E010F5F1F4FB8
:1057F000E00EF11EC601895B9D4F0E151F0509F4D1
:1058000094CFE9EBCE16E1E0DE0658F40E9438347E
:10581000D80114968C93FFEFCF1ADF0A0F5F1F4F4A
:10582000E9CFF8011482F7CF0E94E20C7ECF84E02A
:10583000C9CF8C81E82EF12CEDE1EE16F10408F0D1
:1058400074CFCA80DB80DC24CD24DC248E010F5F82
:105850001F4FE00EF11EC60187960E151F0509F4B5
:1058600064CFF0E8CF16F1E0DF0658F40E94383438
:10587000D80114968C93FFEFCF1ADF0A0F5F1F4FEA
:10588000EACFF8011482F7CFEC80F12C2DE1E2167B
:10589000F10408F04ACF0A811B8110270127102745
:1058A000003831E0130708F040CF80E891E0801B1A
:1058B000910B8E159F0508F438CF480187E2880EBA
:1058C000911C80913803909139033701600E711E4D
:1058D000892BB9F5680191E0C922DD2400FF0DC0D4
:1058E000C80186960E9438349D8189279827892788
:1058F00081159C4511F48FEF8D83570160FE17C011
:10590000B1E0AB1AB10855E0452E512C4C0E5D1E8E
:105910004A0C5B1CC4018E0D9F1D0E943834F2019D
:10592000908181159C4519F48FEFD2018C93E1E0B1
:10593000F0E0EC0FFD1FEC0DFD1D2FEFCA14DB0492
:1059400028F09E012F5F3F4F790119C09481858116
:1059500081159C4511F42483258332E0C30ED11CAC
:105960003296ECCF0038A1E01A0720F4F7016481E9
:105970000E944634FFEFEF1AFF0A0F5F1F4FC80166
:1059800087960615170571F7D0CE28E0E0E3F1E021
:10599000DE01919601900D922A95E1F720E2DC015B
:1059A0001D922A95E9F785E0898388E0FE01B1968A
:1059B000DE01159601900D928A95E1F7B6CE84E846
:1059C000898381E08A831B821C82AFCE0C81602F89
:1059D00070E0762F66270B81060F172F111D012E01
:1059E000000C220B330B45E0000F111F221F331F49
:1059F0004A95D1F7B901A801405E5F4F6F4F7F4FC5
:105A0000401751076207730708F48FCE0438B1E0DE
:105A10001B072105310508F088CE4538E1E05E0717
:105A20006105710520F044E851E060E070E0401B42
:105A3000510BB80164587D4F0E94633176CE4AE124
:105A400050E06FEF70E0CE0107960E9482318091A6
:105A5000380389830A831B821C821D8281E08E8326
:105A600064CE81E090E090933D0380933C0382E319
:105A700090E09093CD028093CC020E94B711909356
:105A8000CB028093CA0251CE012B51F11091CE026C
:105A90008091CA029091CB020E94A811853691058F
:105AA00040F111FF26C010FF24C00E94B71190934F
:105AB000CB028093CA028091CC029091CD020197D3
:105AC0009093CD028093CC02892B51F410923D0328
:105AD00010923C0381E090E0909339038093380367
