:100000000C9466030C9483030C9483030C94F632D3
:100010000C9483030C9483030C9483030C94830348
:100020000C9483030C9483030C94212A0C94DD29F3
:100030000C941E2B0C9483030C9483030C94830365
:100040000C9483030C9483030C9483030C94830318
:100050000C9483030C94FA2A0C9483030C9483036A
:100060000C9483030C9483030C9483030C948303F8
:100070000C9483030C9483030C9483030C948303E8
:100080000C9483030C9483030C9483030C948303D8
:100090000C9483030C9483030C9483030C948303C8
:1000A0000C9483030C9483030C94830305010902CD
:1000B000A10185020901A100050919012905150001
:1000C00025019505750181029501750381010501E1
:1000D000093009311581257F950275088106093897
:1000E0001581257F950175088106050C0A380215D2
:1000F00081257F950175088106C0C005010980A191
:1001000001850319012AB700150126B7009501756D
:10011000108100C0050C0901A101850419012AA064
:1001200002150126A002950175108100C00660FF2E
:100130000961A1010962150026FF0095207508815B
:10014000020963150026FF00952075089102C0057D
:10015000010906A101050719E029E7150025019508
:1001600008750181029501750881010507190029AB
:10017000FF150026FF009506750881000508190186
:100180002905950575019102950175039101C0003E
:10019000000000000000000000000000000000005F
:1001A000000000000000000000000000000000004F
:1001B0000000007E0F00D4FFFFFFC70000007800A2
:1001C000000000000000002A2B28000000000000B2
:1001D0000000000000000000000029000000002CCA
:1001E0001E3420212224342627252E362D37382769
:1001F0001E1F202122232425263333362E37381F75
:100200000405060708090A0B0C0D0E0F1011121336
:100210001415161718191A1B1C1D2F3130232D35D4
:100220000405060708090A0B0C0D0E0F1011121316
:100230001415161718191A1B1C1D2F3130354CFDBB
:10024000377A585A000004E6D6B446020021011657
:10025000000000742FE5A3E003CF015A5D003D8844
:1002600089C65436C3174FE4DE89CE3559316D8DBA
:10027000D1EB24603C35CB3260F7F2DFD7394382D3
:100280009177D2FA343CD6949ED06B8EE2DE6BE04E
:10029000C8659AAE5A900BA913A304CB65B89D9C70
:1002A00042380FDC413C86739B6C47FCB527D53642
:1002B0002C1D41E3556E4E73ACDB201EBCAA1B3FC8
:1002C0000C4E2EE9907A7B33986A530F541EA6A6E3
:1002D000CD38EE305A7645AA3B53F16987D9D0D94B
:1002E000FA0E6D68D569A80611903009BD3F055911
:1002F000A2DFE780341F378DDE465DB00EC45DFEA1
:10030000FB65BED2D886B6BD05FF6CE6B562AADF36
:100310008CBA059E8B8CC189E7CDCD8E548F4592CA
:100320004216C75106A81852FAC8C68BC622E69BC9
:100330001619D3124E80706703E66EC90DD2250AD6
:10034000B25162C5BBD6C9704CC6B858AB28234F52
:10035000C9F5BED49C97CF8B97989AD9E19CEBE3D3
:100360003B26067CE58CAE8A3A116AD767E086F7B1
:100370000048C2F04827E62AA3E2C354B0556F668E
:10038000033C22B320DF989320415796DA212E5B5D
:100390008416B3C2157359B9B3BCE8C61E5E21C238
:1003A000E25EFA831C1B3DB0A72117C1806B5E7C07
:1003B000CCBBA450C68278000000003B9C6591D75E
:1003C000FD7C760001F602D0070000A5D24559B1A8
:1003D000C467FB020000000004595A14001A000808
:1003E000001500170004611600070009000A001D2F
:1003F000621B0006001900050035612A410000005B
:100400000000001C0018000C00120013000B000D6F
:10041000000E000F003300110010003600370038C6
:10042000722C422B680000000000001E001F0020FC
:100430000021002200165C4A004E004B004D0001D6
:100440000001000100F400F50001000100000000BF
:100450000000002300240025002600270050005142
:100460000052004F003400F200F100F000F30028C9
:1004700000010001000000000000003A003B003CC9
:10048000003D003E002B00010001000100010001C1
:100490000001000100010001000100010000000056
:1004A0000000003F0040004100420043002D002EAC
:1004B000002F00300031022D022E02010001000049
:1004C0005C010001000000000000000100010001CB
:1004D0000001000100010001000100010001000114
:1004E0000001000100010001000100010000000006
:1004F00000000001000100010001000100010001F5
:1005000000010001000100010001000100010001E3
:10051000000100010000000000000001000100CD0A
:1005200003550D880D000002000200C903550D8817
:100530000D000003000100CE03550D880D000004DE
:10054000000200B303550D880D8B0605000100CF96
:1005500003550D880D000006000200B503550D88F7
:100560000D000007000200CB03550D880D000008A8
:10057000000100D003550D880D000009000200B7EE
:1005800003550D880D66060A000200B903550D8853
:100590000D66060B000200BB03550D880D66060CA8
:1005A000000200BD03550D880D66060D000200BF58
:1005B00003550D880D66060E000200C103550D8817
:1005C0000D66060F000200C303550D880D66061068
:1005D000000200C503550D880D660611000200C714
:1005E00003550D880D660612000200D103550D88D3
:1005F0000D000013000200D303550D880D000014F8
:10060000000100D503550D880D0000150000000005
:1006100000EC05D614000009025B00030100A0FAFB
:100620000904000001030101000921110100012258
:1006300040000705810308000109040100020300CE
:100640000000092111010001222200070582032078
:100650000001070503032000010904020001030053
:1006600000000921110100012281000705840320F7
:1006700000011201000200000008ABC2393901007C
:10068000010203011C037600690061006C003A005E
:1006900066003600340063003200620033006300FD
:1006A00000001A03460065007200720069007300C2
:1006B00020007300770065006500700000000803EB
:1006C00044005000420000000403090411241FBE2E
:1006D000CFEFDAE0DEBFCDBF11E0A0E0B1E0E8E4AB
:1006E000FAE602C005900D92A83AB107D9F724E0C6
:1006F000A8EAB1E001C01D92A33BB207E1F70E9456
:10070000452B0C94FE340C940000FC01AC014C5FB2
:100710005F4F8FEF91E32191822728E030E087FF40
:1007200009C0880F892721503109C9F7E417F50757
:1007300091F70895880FF7CFE8EDF0E080818E7F84
:1007400080831092E2001092DA001092E100A0EE95
:10075000B0E08C9181608C9380818F77808319BC0D
:10076000A7EDB0E08C918E7F8C9380818F7E80830B
:1007700010929A0408952091E4003091E50095E6E6
:10078000A9012091EC00822F817020FF06C080918A
:10079000E80080FF06C080E008952091E80022FD77
:1007A0001AC08091A704882389F0853089F0809150
:1007B000EB0085FD0FC02091E4003091E500421769
:1007C0005307F9F29150E1F684E0089582E008952C
:1007D00083E0089581E00895EF92FF920F931F93B5
:1007E000CF937C018B010E94BB03C82F811117C0DE
:1007F0008091E80085FD0BC08091E8008E778093A2
:10080000E8000E94BB03882399F3C82F08C0F701B2
:1008100081917F018093F1000150110949F78C2FDC
:10082000CF911F910F91FF90EF9008958091A904AF
:1008300087FF13C08091E80082FF06C08091E80026
:100840008B778093E80004C08091A7048111F2CFD8
:1008500008958091A7048823D9F38091E80080FF50
:10086000F8CF8091E8008E77ECCF982F9093E90035
:10087000242F762F50E0891731F07091EC002091F1
:10088000ED005091F00021FD07C09F5F973071F798
:100890008093E90081E008953091EB003E7F309332
:1008A000EB003091ED003D7F3093ED003091EB0097
:1008B00031603093EB007093EC002093ED00509387
:1008C000F0002091EE0027FDE0CF80E00895B0E039
:1008D000A0E0EDE6F4E00C941C34C8EDD0E0888193
:1008E0008F7E8883E7EDF0E080818160808384E003
:1008F00082BF81E080939A0488818E7F888302EE94
:1009000010E0F80110821092DA0081EEC82ED12C8E
:10091000F601108288818F77888388818068888338
:1009200088818F7D888319BC1092A7041092A80437
:100930001092A6041092A50490EEE92EF12CF70176
:1009400080818B7F808388818160888342E060E042
:1009500080E00E943504F60180818E7F8083F8015B
:10096000808181608083808188608083F7018081BD
:100970008E7F8083888180618883CDB7DEB7E8E091
:100980000C943834FC018091AF049091B004861728
:100990009707A0F06115710529F49091E8009E7702
:1009A0009093E80090E06115710551F4911108C031
:1009B0008091E80082FF34C080E00895BC01F2CF4E
:1009C0008091A7048823C1F18530C1F18091E800AE
:1009D00083FD30C08091E80082FDEACF8091E8007D
:1009E00080FFE1CF8091F3002091F200382F611554
:1009F000710519F02830310558F091E028303105A3
:100A000009F090E02091E8002E772093E800CBCF0A
:100A100081918093F100615071092F5F3F4FE7CFC3
:100A20008091A704882341F0853041F08091E8004F
:100A300083FFBECF81E0089582E0089583E00895AA
:100A4000089580919C04089587E797E790930108A3
:100A50008093000888E19AE00FB6F894A8958093F7
:100A600060000FBE90936000FFCF9C014FB7F894D9
:100A70008091930490919404A0919504B091960470
:100A80004FBF821B930B08952FB7F8946091930486
:100A90007091940480919504909196042FBF0895CD
:100AA0002FB7F8948091930490919404A0919504A9
:100AB000B09196042FBF08959C01FC0132969FEFE0
:100AC00080E04191461751F09F3F19F4411101C058
:100AD000982F8F5F8630A9F79F3F09F40895290F5B
:100AE000311D97FD3A95F901628308952091900494
:100AF000309191042817390771F0909391048093F5
:100B00009004E0918E04F0918F04309721F00084DE
:100B1000F185E02D0995089520918C0430918D0484
:100B20002817390771F090938D0480938C04E0911D
:100B30008E04F0918F04309721F00680F781E02D2C
:100B400009950895452B39F0682381E06F3F09F03E
:100B500080E08170089581E0FCCFDC016091AF03FB
:100B60008091B003962F891301C00895292F30E09A
:100B7000F901EE0FFF1FE955FC4F408151814A17E3
:100B80005B07A1F487E08A9FA0018B9F500D112481
:100B900041595C4F81E0FA0184839613E6CF2F5FC1
:100BA0003F4F237033272093AF0308952F5F3F4FAC
:100BB000922F9370D8CF10920C0310920B03EFE694
:100BC000F3E08581811102C014821682379683E09A
:100BD000E73AF807B1F70895B0E0A0E0E2EFF5E0FA
:100BE0000C941A348FEF9FEF4430510508F469C01C
:100BF0004091E40241FB882780F990E0880F991F1B
:100C000042FB002700F910E0000F111F000F111F19
:100C1000802B912B40FBCC24C0F8D12C8C299D2912
:100C200043FB222720F9C22FE0E0DE2F53E0CC0F58
:100C3000DD1F5A95E1F78C2B9D2B44FBAA27A0F9C9
:100C4000B0E0E4E0AA0FBB1FEA95E1F78A2B9B2BEB
:100C500045FBEE27E0F9F0E0A5E0EE0FFF1FAA95B7
:100C6000E1F78E2B9F2B46FB222720F930E0B6E0E0
:100C7000220F331FBA95E1F7822B932B47FB2227D4
:100C800020F930E03695322F222737952795822B91
:100C9000932B2091E502322F3170F32EE82EF92AA2
:100CA00026952170B22EBB0CA82EBF28C501BB0C07
:100CB000AA0BBB0BFB0180839183A283B38390E0DB
:100CC00080E0CDB7DEB7EAE00C943634E3EBF3E036
:100CD000848195812AE030E0B9010E944934609313
:100CE000E30286818093430182858093420184855B
:100CF0008093410186859785B9010E9449346093AC
:100D00004001808980933F01828980933E018489DC
:100D100080933D0108958091B3039091B403909323
:100D2000450180934401089581152CE5920741F413
:100D300020913B0130913C01232B11F490E080E0A5
:100D400008950E9450059C019091790280917A0249
:100D5000982B21F0309376022093750290917B02BC
:100D600080917C02982B21F03093740220937302BF
:100D7000E0918E04F0918F04309749F082E08093E7
:100D800077020480F581E02D87E792E009950895C8
:100D900090917902803F59F480917A0287FF0DC0CB
:100DA00010927A0291110BC01092710208C0813F1B
:100DB00081F480917A0218169CF3992381F0809136
:100DC0007B0290917C02892B09F064C01092700222
:100DD0000895823F49F497FFF0CF109279028091F5
:100DE0007A028111ECCFE0CF833F19F41916ACF3EE
:100DF000E4CF20917B02893F29F41216F4F6109279
:100E00007B02DBCF8A3F19F427FFD7CFF8CF2091A1
:100E10007C028B3F29F427FFD0CF10927C02CDCFEC
:100E20008C3F19F41216CCF3C8CF843F31F4809173
:100E300078028E7F80937802C0CF853F21F4809125
:100E400078028D7FF7CF863F21F4809178028B7FE7
:100E5000F1CF873F21F480917802877FEBCF883FE5
:100E600021F4809178028F7EE5CF8D3F31F480911F
:100E700072028E7F80937202A0CF8E3F21F4809108
:100E800072028D7FF7CF8F3F09F097CF809172026A
:100E90008B7FF0CF08958091720280FF0CC060912B
:100EA0003E0170E0759567957595679561157105BB
:100EB00049F1862F089581FF06C060913E0170E0E0
:100EC00075956795F3CF60913E0182FD0BC09091BF
:100ED00070029923A1F060913D0180913E01961727
:100EE00038F0682F70E06038710500F38FE70895DF
:100EF000899FC001112470E00E945D34F4CF61E04D
:100F000070E0D7CF81E00895809172026091BB03B9
:100F10007091BC0380FF16C020914201269FC00142
:100F2000279F900D1124BC0176956795769567955E
:100F30006038710508F043C06115710509F441C0BE
:100F4000862F089581FF0BC020914201269FC0018A
:100F5000279F900D1124BC0176956795E9CF82FFFC
:100F600009C0809142019B01829FB001839F700D57
:100F70001124DECF209171022223D1F29091410100
:100F800080914201482F50E0291748F0CB01849FFF
:100F9000B001859F700D949F700D1124C9CF289FBB
:100FA00090011124269FA001279F500D369F500DC0
:100FB0001124692F70E0CA010E944934B9CF8FE72C
:100FC000089581E00895803F31F40E94840781955F
:100FD00080937A020895813F19F40E948407F8CF24
:100FE000823F31F40E9484078195809379020895AD
:100FF000833F19F40E948407F8CF893F29F40E94A7
:101000004B0780937B0208958A3F21F40E944B078F
:101010008195F7CF8B3F31F40E944B0781958093E8
:101020007C0208958C3F19F40E944B07F8CF843F4F
:1010300031F4809178028160809378020895853F31
:1010400021F4809178028260F7CF863F21F480916D
:1010500078028460F1CF873F21F480917802886024
:10106000EBCF883F21F4809178028061E5CF8D3FFE
:1010700031F48091720281608093720208958E3FF4
:1010800021F4809172028260F7CF8F3FB9F780918F
:1010900072028460F1CF80E008959091E40292FFA3
:1010A00006C0282F28712830F9F4877F846093FFC9
:1010B00006C0282F28712831F1F4877E84612091A1
:1010C000E50220FF06C0382F38713830D9F4877F09
:1010D000816021FF06C0282F28712831D1F4877E36
:1010E000816194FD877E0895282F24712430F9F6BC
:1010F0008B7F8860DCCF282F2471243101F78B7E11
:101100008861DDCF382F3171313019F78E7F8860DB
:10111000E0CF282F2171213121F78E7E8861E1CF28
:10112000CF93DF93EC0182389105A9F1D8F5813393
:10113000910509F496C048F58932910509F48AC0F1
:101140008A9709F495C0C11521E5D20708F0BCC003
:10115000C11530E5D30708F014C1C83ED10508F029
:101160009CC0C03ED10560F5C83AD10508F087C0E3
:10117000C53AD10508F0FDC0C130D10509F120976D
:10118000F9F0C430D105E0F440C08533910509F48D
:101190005AC0C997C1F68091E402837089F0C0EE0D
:1011A000D0E00EC0833E910599F170F4803E910528
:1011B00001F1823E910539F68091E40282FD21C061
:1011C000CE01DF91CF910895863E910561F1873E72
:1011D000910571F1843E910509F0B5CF8091E5024A
:1011E00081FFEECF8091E402C7EED0E084FD0DC018
:1011F000E7CF8091E40280FD12C19091E50290FF5B
:10120000DFCFC3EED0E084FFDBCFD0E0C0E0D8CFAB
:101210008091E40282FD06C19091E50290FDBFCF6E
:1012200084FFCECFF2CF8091E40283FDDDCFC8CF23
:101230008091E40283FDF9C09091E50291FFF0CF27
:10124000C4EED0E0BDCF8091E40285FFB9CFC9E202
:10125000D0E0B6CF8091E40285FFB2CFC5E3D0E005
:10126000AFCF8091E40286FFABCFCAE2D0E0A8CF37
:101270008091E40286FFA4CFC1E3D0E0A1CFCF3BB1
:10128000D10518F6C85AD0E0CC0FDD1FC859DE4F83
:101290000990D881C02DD46493CFC11540E2D40702
:1012A00058F4C11581E0D80708F08ACFC03FD105B6
:1012B00008F4ABCFD06584CFC11590E4D90708F40A
:1012C000A4CFDF70D06A7CCFC11525E5D20700F529
:1012D000C11534E5D30708F08AC0C11543E5D4072A
:1012E00008F071C0C11582E5D80708F467C0CE01C7
:1012F0008370992721E030E002C0220F331F8A95C6
:10130000E2F7C695C69580E2C89FE001112452C05D
:10131000C11599E5D907A8F4C11528E5D20708F049
:101320006BC0C11536E5D30708F06FCF8C2F0E9434
:101330004D08C82FD0E0DC2FCC27CC27DF71D0623E
:101340003FCFC1154AE5D40708F45BC0CE019056E3
:101350008115904208F059CF8D2F8F710E944D0852
:1013600090E0982F882788279F719C012C2BE901FA
:10137000E6CFC55AD0E0CB59DE4FC881D0E0D0646B
:101380001FCFCE01E4E096958795EA95E1F783704B
:101390002C2F26952695237040E2249F900111243E
:1013A000382B8C2F8370C1E0D0E002C0CC0FDD1F42
:1013B0008A95E2F7C22BD32BDC6802CFDC2FCC2737
:1013C000C16FD06AFDCECE018370992721E030E055
:1013D00002C0220F331F8A95E2F7C695C69590E2A8
:1013E000C99FE0011124C22BD32BDA68E9CEDC2F90
:1013F000CC27C46FD06AE4CEDC2FCC27C06FD06A74
:10140000DFCE8C2F8F700E944D0834E0D695C795A3
:101410003A95E1F7CF709C2FEC01D069D1CEC9E3AA
:10142000D0E0CECEC2EED0E0CBCEC6EED0E0C8CE7D
:1014300080911F02882331F010921F0210921E0229
:1014400010921D020895CF93C82F8091E50282FF6C
:101450000CC080911F028C1741F00E9450059093A0
:101460001E0280931D02C0931F02CF9108958095A4
:101470009091B20498239093B2040895809590912E
:10148000E60298239093E60208959091E602892B54
:101490008093E602089510921402109213021092A3
:1014A000120208958091B5039091B603892B89F0BB
:1014B0000E94500520911D0230911E02AC01421B7A
:1014C000530B81E02091B5033091B60342175307C7
:1014D00008F480E081700895209111029091D0016C
:1014E000291302C080E0089530E0F90153E0EE0FC7
:1014F000FF1F5A95E1F7EF52FE4F5181561306C078
:101500005081581303C05281541304C02F5F3F4FC2
:101510002770E6CF81E00895809111029091D0016B
:10152000981301C008958F5F8770FACF292F9830E4
:1015300078F5853068F590E035E0239F800D911DAA
:101540001124682F677023E0969587952A95E1F717
:10155000FC01EE0FFF1FE80FF91FE754FE4F50E0AC
:1015600040E080E0219130E0062E02C036952795BC
:101570000A94E2F721703327042E01C0220F0A9447
:10158000EAF7822B4F5F5F4F4330510559F70895BB
:1015900080E00895292F983098F5853088F590E0FF
:1015A00035E0239F800D911D1124282F277041E0E5
:1015B00001C0440F2A95EAF723E0969587952A956E
:1015C000E1F7FC01EE0FFF1FE80FF91FE754FE4F94
:1015D00030E020E070E05191DF011197CB01022E45
:1015E00002C0969587950A94E2F7817081958527C8
:1015F000842385278C932F5F3F4F2330310559F784
:10160000089592959F70963091F058F4925F9F7074
:10161000923058F4803F19F030F4883E30F481E085
:1016200008959A5FF4CF843FD1F380E00895883E17
:10163000B0F3813FD1F7F3CF9C013A9521153F419B
:1016400050F5FC01EE27F170BC0166277270AC0109
:10165000442754709C012227387094FF0EC080E10B
:10166000EF2B09F480E0672B09F08062452B09F02D
:101670008064232B89F08068089581E0EF2B09F4C2
:1016800080E0672B09F08260452B09F08460232BF2
:1016900019F08860089580E008958093970470930E
:1016A0009904609398048091A7048430F9F480939E
:1016B000E9008FEF9091E800815095FD06C095ED0F
:1016C0009A95F1F700008111F5CF8091E80085FF30
:1016D0000DC050E040E063E070E087E994E00E94D4
:1016E000EC038091E8008E778093E8000895BC01B8
:1016F00084E00E944D0B0895BC0183E00E944D0BD5
:1017000008959C0184E08093E9009FEF8091E800B8
:10171000915085FD06C085ED8A95F1F70000911185
:10172000F5CF8091E80085FF0CC050E040E066E016
:1017300070E0C9010E94EC038091E8008E778093ED
:10174000E8000895CF93DF93EC0181E08093E900F6
:101750008FEF9091E800815095FD06C095ED9A9528
:10176000F1F700008111F5CF8091E80085FF14C0EA
:1017700050E040E068E070E0CE010E94EC03809110
:10178000E8008E778093E80088E0FE01ADE9B4E0E0
:1017900001900D928A95E1F7DF91CF91089501971D
:1017A00008F40895EFE9FFE03197F1F700C0000079
:1017B000F6CFB0E0A0E0EFEDFBE00C941A347C0132
:1017C0005B016A018091410201E010E08A3010F46F
:1017D0000AE010E0C1E0D0E0B501C701F6010995CB
:1017E000811104C021960C171D072CF4CDB7DEB76C
:1017F000EAE00C943634CC9F9001CD9F300D300D33
:10180000112490E080E045E34A95F1F7000001964D
:1018100082179307C1F7E0CF80912B02811110C08E
:101820008091D80080618093D8008AE18A95F1F791
:1018300000C08091D90080FF0AC081E080932B0214
:1018400081E090912B02913009F080E0089582E0D0
:1018500080932B020E949C031092A704F1CF0E9458
:101860000C0C882359F0E0918E04F0918F0430978E
:1018700029F00190F081E02D0995089580E0089508
:101880000F931F93CF93DF9303EB13E0C7E6D1E0F1
:10189000CE010E94B434F80181938F012196CB3898
:1018A000F1E0DF07A9F7C5E2D5E0FE01859194914B
:1018B000009711F0FC0109952C96F6E0C132DF0784
:1018C000A1F7DF91CF911F910F9108950F931F936F
:1018D000CF93DF93843030F5683020F5453010F534
:1018E000C42FD0E0CC0FDD1F2AE0629FC00DD11DB8
:1018F000112430E5839FC00DD11D1124CE018796A0
:101900000E94B434082F10E0102F0027CE018896D3
:101910000E94B4349801282BC901DF91CF911F9107
:101920000F91089590E080E0F8CF462F2091E102DA
:101930003091E202232B99F4703F39F4603F79F43F
:101940008091DF029091E0020895843040F4783075
:1019500030F4653020F4672F0E94660C089590E003
:1019600080E00895CF92DF92FF920F931F93CF9361
:10197000DF936C010091B10480912002082BC7E035
:10198000D0E010E0FC2EC8010C2E02C09595879582
:101990000A94E2F780FD0CC02197A0F7F12C8F2D5F
:1019A000DF91CF911F910F91FF90DF90CF9008951D
:1019B000B6018C2F0E94950C0E949008019761F34C
:1019C000EECFCF93DF93EC010E94B20CBE010E94D8
:1019D000950C0E949008DF91CF910895FC018681BB
:1019E0009781009729F00E9490080E94010B0895AA
:1019F000808191810E94E10CF8CFA5E0B0E0E3E0A6
:101A0000FDE00C94213449835A8389819A816623AD
:101A100099F0222389F00E94B20C182F682F898137
:101A20009A810E94CA0A69817A81812F0E94950C4D
:101A30002596E3E00C943D340E94960A182FF3CFCC
:101A4000FC01262F86819781009739F440815181CE
:101A50006281738184810E94FD0C089583E290E08D
:101A60000E94B434853589F484E290E00E94B43455
:101A7000873B59F485E290E00E94B43491E0813EC6
:101A800009F090E0892F8170089580E0FCCFCF931A
:101A900084E090E00E94B434C82F82E290E00E947B
:101AA000B434982F8C2FCF910895DB01FC0132962E
:101AB000259134914217530758F0FC0134966591F3
:101AC0007491A901CD010E94943490E080E00895C2
:101AD0008FEF9FEF08950F931F93CF93DF9303EB47
:101AE00013E0C7E6D1E0CE010E94B434F801619161
:101AF0008F01681719F0CE010E94C2342196CB38AD
:101B0000F1E0DF0781F7DF91CF911F910F910895E9
:101B1000DA019C012E5F3F4FF90145915491F90183
:101B200025913491A217B30758F0FC0134968591A2
:101B300094910E9494340E946B0D90E080E008958F
:101B40008FEF9FEF0895CF93DF93CBE2D2E060E079
:101B5000CE010E94C2342196C11584E0D807B9F79E
:101B6000DF91CF9108951F93CF93DF93122F84308D
:101B7000E0F46830D0F44530C0F4C42FD0E0CC0F8E
:101B8000DD1F9AE0699FC00DD11D112490E5899F4A
:101B9000C00DD11D1124632FCE0187960E94C2343F
:101BA000612FCE0188960E94C234DF91CF911F91A0
:101BB0000895CF93C82F6FEF811165E583E290E020
:101BC0000E94C2346FEFC11167EB84E290E00E9483
:101BD000C2346FEFC11161EE85E290E00E94C23421
:101BE000CF910895CF93C92F682F84E090E00E9491
:101BF000C2346C2F82E290E00E94C234CF910895EB
:101C00009B01883070F49AE0899FB00111246557D8
:101C10007E4F4AE050E0C9010E94A43490E080E089
:101C200008958FEF9FEF0895AAE0B0E0EAE1FEE0AB
:101C30000C9418340CED13E0F12CE12C8DE3C82E3C
:101C400089E2D82E94E6A92E99E2B92E22EB822EB3
:101C500028E2922EF801D182C082B382A2829582BC
:101C60008482F58AE48ABE016F5F7F4F8E2D0E94C9
:101C7000000E892B29F489859A85F801938B828B34
:101C8000FFEFEF1AFF0A0A5E1F4F88E0E816F10423
:101C900009F72A96ECE00C943434AAE0B0E0E3E5CE
:101CA000FEE00C941C34EFE8F2E080E5DF011D92C9
:101CB0008A95E9F7EFE6F3E088E3DF011D928A9564
:101CC000E9F78FE8C82E82E0D82E7F010BED11E0F6
:101CD000F701D182C0824AE050E0B801CE010196FE
:101CE0000E94A43488E0FE013196D60101900D9245
:101CF0008A95E1F789859A85D70113969C938E93EF
:101D00001297BAE0CB0ED11CE7E0EE0EF11C065F95
:101D10001F4F0B32F2E01F07D9F62A96E8E00C9429
:101D20003834ACE0B0E0E7E9FEE00C941C348E01FE
:101D30000F5F1F4F88E0D8011D928A95E9F7F801DF
:101D400048E151E0BE016B5F7F4F6A01E12CFF2447
:101D5000F39430E0D6012D916D012F3F91F0822F49
:101D600082958F7090E0DC0190968C9190E02F70BE
:101D700002C0959587952A95E2F780FD4FC08F2D7B
:101D8000E82A3F5FFF0C353029F7E1924B5F5F4F48
:101D9000E617F707D1F648E050E0B80186E492E094
:101DA0000E9487347C01892B41F088E0F801A6E489
:101DB000B2E001900D928A95E1F710914F02E11483
:101DC000F10471F181E0809323020E945005909309
:101DD00022028093210280912102909122020E948E
:101DE0003505059790F0E12FF0E0E859FD4F80911F
:101DF00046028083809147028183809148028283DA
:101E00008091490283831092230281E090E0E114E3
:101E1000F10451F02C96E8E00C94383480E0B0CF17
:101E2000809123028111D7CF0E940C0CF82EE091F3
:101E30004F02882309F46CC019861A861B861C86FB
:101E40000E2F10E008591D4F809141028A3050F545
:101E500047EA58E1BE01675F7F4FC8010E94D90B76
:101E6000882379F14EE358E1BE01675F7F4FC801D7
:101E70000E94D90B882329F11092410280914E02D1
:101E800090E044E050E0BE01675F7F4F88599D4F6E
:101E90000E94873421E020932A02892B59F5F12CE6
:101EA0008F2DB8CF80912402909125020E94350594
:101EB000843F914068F680912A02811112C080E02F
:101EC000A9CF809141028F3F29F08F5F809341021B
:101ED0008A30A0F20E94500590932502809324023C
:101EE000EACFFE01399684E0DF011D928A95E9F779
:101EF00010922A02E0914E02F0E0E859FD4F8985E8
:101F00009A85AB85BC8580839183A283B383C8CF38
:101F1000F0E0E859FD4F84E0A5E3B2E001900D92B6
:101F20008A95E1F785E392E00E948503809334026D
:101F3000C0903902D0903A02E0903B02F0903C020F
:101F40008091260290912702A0912802B091290247
:101F5000C816D906EA06FB0609F4B1CFC0922602DC
:101F6000D0922702E0922802F09229020E940C0CE3
:101F70008111A5CF0E944405C61AD70AE80AF90ABA
:101F8000C0924202D0924302E0924402F092450293
:101F900096CF8091E6029091B204892B8093AA019A
:101FA00080911F02882309F18091B5039091B603B7
:101FB000892B29F00E94520A81110E94180A8091EF
:101FC000AA0190911F02892B8093AA0120E08CEA3C
:101FD00091E0FC013191CF0131112F5FF1E0823BA3
:101FE0009F07B9F721110E94180A48E050E065E107
:101FF00072E08AEA91E00E948734892BA9F088E098
:10200000EAEAF1E0A5E1B2E001900D928A95E1F7EC
:10201000E0918E04F0918F04309731F00280F381CB
:10202000E02D8AEA91E009950895EF92FF920F93CF
:102030001F93CF93DF93EC018A85811134C0EB802D
:10204000FC8087E5F81A26E12E9DC0012F9D900D9A
:102050001124DC01A452BC4F1496ED91FC9115970C
:10206000309731F054966D917C918E519C4F09952B
:1020700086E18E9D80018F9D100D112404521C4F0E
:10208000F80187810E943E0AF80180850E94370A84
:102090000E94C90F188219861B861E821D8210920B
:1020A000DB031092DA03CDB7DEB7E6E00C943A34E6
:1020B000CF93DF93EC018989811116C081E0898B70
:1020C0008F810E94450A8091B2049885892B809364
:1020D000B2040E94C90FEA81FB81309729F06C8914
:1020E0007D89CE0106960995DF91CF910895809163
:1020F0004601877F8093460182E00E94370A8091E3
:10210000460184FF06C08F7E8093460182E00E94D4
:10211000450A8091460185FF06C08F7D8093460168
:1021200080E20E94450A0E94C90F089590E080E075
:102130000E948C0590E080E00E9476051092B20427
:102140000E94C90F86E0E7E7F2E0DF011D928A9561
:10215000E9F71092710210927002109272020E94BE
:10216000A10608958093B1040E949610089580916D
:10217000B104982F9670963021F488600E94B210B6
:102180000895877FFBCF21E030E001C0220F8A95C0
:10219000EAF720958091B10482230E94B21008953D
:1021A000909114028095892380931402282F277020
:1021B00091F4282F082E000C330B9217130659F0B8
:1021C0009091E50292FF07C08595859585950E94BF
:1021D000C3100E944B0A08959091E50292FB2227BA
:1021E00020F9281769F080FB92F99093E50280911D
:1021F000E4029091E5020E94F20D82E00E94D0106C
:10220000089521E030E001C0220F8A95EAF780911D
:10221000B104822B0E94B21008959091E50292FFC2
:1022200010C098E0899F90011124622B60931402E2
:102230000E9401110E945005909313028093120294
:1022400008950E9401110895809320020E94961023
:1022500008951092E602ECEAF1E086E0DF011D92BB
:102260008A95E9F70E9496100895AAE2B0E0EBE3A0
:10227000F1E10C94213489EA94E02091F100DC0131
:102280002D93CD01B4E0813B9B07B9F78091AA045F
:10229000833009F472C0B8F4813009F449C0823047
:1022A00009F4B3C08091E80083FF96C28091A9042D
:1022B0009091AA049A3008F08FC2E92FF0E0E05024
:1022C000FB4C0C9471348A3009F48EC08B3009F4C5
:1022D00071C0893039F78091A904813219F7809152
:1022E000AD049091AE04009711F00297D9F6809159
:1022F000E800877F8093E8008091E80082FF38C083
:102300009091F3008091F200029731F48091F100F6
:10231000813011F0863021F48091F10080939C048B
:102320008091E8008B778093E8000E941604BACF72
:102330008091A904813A09F0B5CF8091E800877FA8
:102340008093E8008091AD049091AE04892B61F4F4
:1023500068E08DE994E070E00E94C2048091E8009A
:102360008B778093E8009ECF60E090E080E0F3CF31
:102370008091A7048111C0CF95CF8091A904813AA3
:1023800009F090CF8091AD049091AE04892B09F0B3
:1023900089CF8091E800877F8093E8008091E800F2
:1023A00080FFFCCF809148018093F1008091E8008C
:1023B0008E77B9CF8091A904813209F073CF8091D3
:1023C000AD049091AE04892B09F06CCF8091E800A8
:1023D000877F8093E8000E9416048091AB0480936D
:1023E00048010E9429115ECF8091A904813209F031
:1023F00059CF8091E800877F8093E8000E941604FF
:102400008091AC0480939B044DCF8091A904813AC4
:1024100009F048CF8091E800877F8093E8008091A1
:10242000E80080FFFCCF80919B04BECF803899F0FC
:10243000823809F0D1C18091AD048F70873008F0E7
:10244000CBC18093E9008091EB0085FB882780F960
:102450001092E90006C08091A5049091A604911104
:1024600082609091E800977F9093E8008093F1005C
:102470001092F1008091E8008E77AAC1882309F4B8
:1024800098C1823009F0A8C18091AB0481119BC131
:102490008091AD048F702FEF280F263008F09CC17B
:1024A0008093E9002091EB0020FF8DC1933031F43F
:1024B0008091EB0080628093EB0085C19091EB00EE
:1024C00090619093EB0021E030E001C0220F8A95EB
:1024D000EAF72093EA001092EA008091EB0088600E
:1024E000EACF811179C11091AB041F778091E3008D
:1024F0008078812B8093E3008091E800877F809330
:10250000E8000E9416048091E80080FFFCCF8091D3
:10251000E30080688093E30082E0111183E0809300
:10252000A7045AC18058823008F056C12091AB04EC
:102530003091AC042C3DE3E03E07A1F583E08A83B3
:102540008AE289834FB7F894DE01139620E03EE0DB
:1025500051E2E32FF0E050935700E49120FF03C0D5
:10256000E295EF703F5FEF708E2F90E0EA30C0F0A1
:10257000C7968D939D932F5F243159F74FBF80915C
:10258000E800877F8093E8006AE270E0CE01019660
:102590000E94C2048091E8008B778093E8001CC100
:1025A000C096E7CF8091AD049091AE04432F55279C
:1025B0004330510509F44AC078F54130510509F41A
:1025C00085C08BE590E0E7E1F6E04230510509F087
:1025D00003C12091E800277F2093E8002091AF04F9
:1025E0003091B0048217930708F49C0140E0211554
:1025F000310509F070C041116EC08091E80082FD84
:10260000C9CF8091A704882329F2853019F28091DF
:10261000E80083FFF2CFBECF4132510509F447C035
:102620004232510509F0D8C08330910508F0D4C07A
:10263000FC01EE0FFF1FE556FE4F0190F081E02DEB
:1026400088569E4FDC018C9190E01DC033272130CD
:102650003105E9F02115310579F022303105F9F025
:102660002330310509F0B8C0E4E8F6E0E4918E2F9C
:1026700090E0E4E8F6E007C0E8ECF6E0E4918E2FA5
:1026800090E0E8ECF6E0009709F4A6C0A2CFEEEBEC
:10269000F6E0E4918E2F90E0EEEBF6E0F4CFE2EA84
:1026A000F6E0E4918E2F90E0E2EAF6E0ECCF8330A2
:1026B000910508F091C0880F991FFC01EF55FE4F5E
:1026C0000190F081E02D89E090E083CF82E190E0FD
:1026D000E2E7F6E07ECF8091A704882309F45ACF81
:1026E000853009F457CF8091E80083FD53CF809166
:1026F000E80082FD82CF8091E80080FF78CF909142
:10270000F3008091F2002115310519F08830910510
:1027100050F041E0089709F040E08091E8008E77A2
:102720008093E80064CF44914093F10031962150AA
:1027300031090196E8CF803809F04EC08091E80059
:10274000877F8093E8008091A8048093F10092CE67
:10275000811142C01091AB041230F0F58091E80075
:10276000877F8093E8001093A8040E941604112329
:1027700011F084E005C08091E30087FDFACF81E08D
:102780008093A70442E061EC81E00E94350442E2BC
:1027900061EC84E00E94350442E261EC82E00E9438
:1027A000350442E260EC83E00E9435048091A70486
:1027B00013C08091AB04813079F481E0933009F04B
:1027C00080E08093A6041092E9008091E800877F62
:1027D0008093E8000E9416048091E80083FF0AC0FD
:1027E0008091E800877F8093E8008091EB00806211
:1027F0008093EB00AA96E3E00C943D34E3EBF3E026
:10280000128E138E8FEA90E09183808385E0848F0F
:1028100028E833E13383228325E030E035832483C5
:1028200020E130E03783268321E030E031872087C4
:1028300026E130E0338722872EE130E03587248798
:102840002AE030E03787268743E550E0518B408B04
:1028500043E050E0538B428B48E250E0558B448B71
:1028600042E350E0578B468B40EF50E0518F408F52
:10287000158E378F268F20E530E031A320A382A369
:102880000E946B0D0E9429111092E5021092E40241
:10289000E5EEF2E08081846080838091E402909193
:1028A000E5020E94F20D0E94400C0895A4E1B0E000
:1028B000ECE5F4E10C941734A0903B01B0903C019E
:1028C00081E090E090933C0180933B018BEDC82E1A
:1028D00083E0D82E00E0760110E015C0F4012591C8
:1028E0003491472D612F802F0E94B30D82E0880E16
:1028F000911C7394E5E07E12F1CFFAE0EF0EF11C2B
:102900001F5F183019F04701712CE8CF0F5F80E589
:10291000C80ED11C0430F9F60E94FE131A821982E7
:102920001C821B821E821D8218861F8280EF90E00F
:102930009A8789870BE811E04AE050E0B801CE01A0
:1029400001960E94E634065F1F4F0B3DE1E01E0733
:1029500099F77E01FBE0EF0EF11C8AE0F70111927E
:102960008A95E9F74AE050E0B801C7010E94E634D1
:10297000065F1F4F0B32F2E01F07A1F7B0923C0138
:10298000A0923B016496EDE00C94333480E00E9409
:10299000D90D60E086E290E00E94C2340E94561495
:1029A0000E94A30D81E00E94D90D0895CF92DF927D
:1029B000EF92FF928FEF9FEF4430510508F46AC009
:1029C000FB01C080D180E280F3800E9429118091B8
:1029D000E402C0FA80F9B701A6017695679557958C
:1029E000479540FB81F9B701A60122E076956795EE
:1029F000579547952A95D1F740FB82F9B701A60173
:102A000033E076956795579547953A95D1F740FB12
:102A100083F9B701A601E4E0769567955795479548
:102A2000EA95D1F740FB84F9B701A601F5E0769568
:102A3000679557954795FA95D1F740FB85F9B7010A
:102A4000A601A6E07695679557954795AA95D1F783
:102A500040FB86F9B701A601B7E0769567955795D3
:102A60004795BA95D1F740FB87F98093E4028091AE
:102A7000E502D0FA80F9D1FACC24C0F8C0FA81F985
:102A80008093E5028091E4029091E5020E94F20DAC
:102A900090E080E0FF90EF90DF90CF9008950E944B
:102AA00029112FEF84E39CE0215080409040E1F712
:102AB00000C0000088E19AE00FB6F894A8958093D2
:102AC00060000FBE90936000FFCF882321F00E942A
:102AD000370A0E94C90F0895882339F09091B204F3
:102AE000982B9093B2040E94C90F0895882321F077
:102AF0000E943E0A0E94C90F0895882321F00E9477
:102B0000450A0E94C90F08958823C9F19CEF980FC8
:102B1000913A78F4ECEAF1E09191891303C0DF0176
:102B200011971C9291E0E23BF907B1F70E94C90F9F
:102B3000089590E2980F983050F4877091E001C0AA
:102B4000990F8A95EAF7892F0E943E0AEFCF9BE5FD
:102B5000980F933028F490E080E00E948C0508954F
:102B600098E5980F973128F490E080E00E94760570
:102B70000895803F20F00E94C8060E94A106089593
:102B8000CF93DF93EC010E948415CE010E941C0BB1
:102B90009E01205E31092830310510F0CD2B29F43B
:102BA0000E947615DF91CF9108950E946515FACFA6
:102BB000CF93C82F8823B1F08CEF8C0F813A00F5AA
:102BC000ECEAF1E082EB91E0DF012D91C21761F0B8
:102BD0008A179B07D1F76C2F8AEA91E00E945C0567
:102BE0000E94C90FCF9108952191C21303C0DF0144
:102BF00011971C928E179F07B9F70E94C90FEBCF50
:102C000080E28C0F883048F4C77081E001C0880FE3
:102C1000CA95EAF70E94450AE3CFEBE5EC0FE330F3
:102C200040F4F0E0EB59FE4F808190E00E948C056B
:102C3000D9CFE8E5EC0FE73150F4F0E0EE0FFF1FDD
:102C4000E859FE4F808191810E947605CBCFC03F2D
:102C500048F28C2F0E94E3070E94A106C3CF1F9366
:102C6000CF93DF93182FC091D303D091D40389332E
:102C700021F0C091D103D091D203812F0E94D815A9
:102C8000209739F4812F0E948415DF91CF911F91F5
:102C900008958FE99FE00197F1F700C000002197A8
:102CA000EFCF0F931F93CF93DF93C42FD22FFC014D
:102CB00082818823A9F04093D9030E945005909304
:102CC000D8038093D703C77081E001C0880FCA95ED
:102CD000EAF70E947D15DF91CF911F910F91089522
:102CE0001091D903141336C08091D7039091D80363
:102CF0000E9435052091CB033091CC0382179307B6
:102D000048F5C0E2CD0F1D17B9F080E2810F883081
:102D100040F4177081E001C0880F1A95EAF70E940D
:102D20007615C83048F481E09D2F977001C0880F58
:102D30009A95EAF70E947D15802F0E942F16C830C1
:102D400050F6D77081E001C0880FDA95EAF70E944B
:102D50007615C1CFC77081E001C0880FCA95EAF728
:102D6000F6CFB0E0A0E0E7EBF6E10C941D34E82FDD
:102D7000F0E0E154FE4FD490282F26952695269515
:102D800030E0F901E155FE4F0491877010E0082E04
:102D900002C0159507950A94E2F701701127F90111
:102DA000E156FE4FE490F12C082E02C0F594E79412
:102DB0000A94E2F791E0E922FF24F901E157FE4F7E
:102DC000C491D0E002C0D595C7958A95E2F7C1704D
:102DD000DD270115110519F081EE0E94D815E114C7
:102DE000F10419F086EE0E94D8158D2D0E942F1641
:102DF000E114F10419F086EE0E9484150115110505
:102E000019F081EE0E948415CD2B19F08CE20E94FE
:102E10002F16CDB7DEB7E7E00C9439341F93CF936C
:102E2000DF93EC011AE08881882309F43EC08130E9
:102E3000C9F599818A81913029F422960E942F1632
:102E40002196F1CF923021F422960E94D815F8CF26
:102E5000933021F422960E948415F2CF943011F021
:102E60002196EECF229630E020E0AE014F5F5F4F1B
:102E70008053990B8A30910550F02150310900F3AD
:102E80008FE99FE00197F1F700C00000F6CF129F95
:102E9000B001139F700D11249C01260F371F8981EB
:102EA000EA01E3CF0E94B116CBCFDF91CF911F9102
:102EB0000895CF93DF93EC010E941C0B9E01205ECE
:102EC00031092830310510F0209741F40E947D151A
:102ED0008C2F0E94D815DF91CF9108950E946C1518
:102EE000F7CF662329F02091B20422602093B20428
:102EF0009C013056211540E2340720F0305E211548
:102F0000304108F499270E9459170895B0E0A0E0D5
:102F1000ECE8F7E10C941D347C018B01D42E8091F8
:102F2000460182FF8CC0C0910903D0910A03CE15DF
:102F3000DF0521F0E114F10409F081C08091460120
:102F40008B7F8093460181FD73C080910703909130
:102F50000803A801481B590B81E0209144013091DE
:102F600045014217530708F480E08170F82E8091E4
:102F70004601F0FA81F980934601FE0183E0F6955F
:102F8000E7958A95E1F7EE71FF27E951FD4F208122
:102F90003181AE014F70552781E090E002C0880F6B
:102FA000991F4A95E2F7FF2009F444C0822B932B26
:102FB000918380838091E60281FF08C08091460161
:102FC00080618093460182E00E943E0A8091E60281
:102FD00085FF08C08091460180628093460180E2AF
:102FE0000E943E0A6F2DCE010E947117DD2031F044
:102FF0008091CE0385FF02C086FF3BC08091D10344
:103000009091D2030E94CF0B8091090390910A0303
:103010009C013056211540E2340720F0305E211526
:10302000304108F499270E94C0150E9477101DC0F6
:1030300081E09BCF8095909582239323B9CFC701E0
:10304000992797013056211540E2340728F0305E69
:103050002115304108F0C7010E94C0158091090375
:1030600090910A038E159F0501F3109308030093B6
:103070000703CDB7DEB7E7E00C943934A4E0B0E045
:10308000E4E4F8E10C94203440913D0250913E027A
:1030900060913F02709140022FB7F89480919304A1
:1030A00090919404A0919504B09196042FBF841B35
:1030B000950BA60BB70B11E084369105A105B10560
:1030C00090F10E940C0C882399F10E9444056E5FD8
:1030D0007F4F8F4F9F4F69837A838B839C8380912F
:1030E0001101909112018C5C9D4F4091100150E0B4
:1030F0004530510510F044E050E0BE016F5F7F4F56
:103100000E94943482E090E00E949C33182F882320
:1031100051F00E94440560933D0270933E028093FB
:103120003F0290934002812F2496E4E00C943C34BB
:103130000E944405009142021091430220914402F2
:1031400030914502600F711F821F931FC0CFEF9215
:10315000FF921F93CF93DF9300D000D00F92CDB793
:10316000DEB77B0190E080E00E949C33182F88231B
:1031700009F487C04091030150E04115510511F059
:1031800041E050E060910401709105016C5C7D4F5D
:10319000CE0105960E949434409130025091310244
:1031A00060913202709133022FB7F89480919304AA
:1031B00090919404A0919504B09196042FBF841B24
:1031C000950BA60BB70B84369105A105B10540F40C
:1031D00085E392E00E9485039D81891709F451C01F
:1031E00081E090E00E949C3381111AC010E0809130
:1031F0002C0290912D02A0912E02B0912F02F70186
:1032000080839183A283B383812F0F900F900F90BF
:103210000F900F90DF91CF911F91FF90EF90089545
:1032200040910B0150E04530510510F044E050E072
:1032300060910C0170910D016C5C7D4FCE01019687
:103240000E94943485E392E00E9485039D81891356
:10325000CDCF0E9444056093300270933102809379
:1032600032029093330289819A81AB81BC81809331
:103270002C0290932D02A0932E02B0932F0211E006
:10328000B6CF8091350290913602A0913702B0916D
:10329000380289839A83AB83BC831111E4CFA7CF13
:1032A00068EE7EEF90E080E00E94E03460E082E033
:1032B00090E00E94C23460E083E090E00E94C2345B
:1032C0001092200260E084E090E00E94C23464E04A
:1032D00082E290E00E94C23460E085E090E00E94CB
:1032E000C23460E086E090E00E94C2346FEF87E075
:1032F00090E00E94C23440E050E0BA0188E090E0E3
:103300000E94D43460E08DE090E00E94C23440E03E
:1033100050E0BA0188E190E00E94D43460E087E197
:1033200090E00E94C23440E050E0BA018CE190E0AD
:103330000E94D43470E060E080E290E00E94E034CB
:1033400040E050E0BA0188E190E00E94D43480E08F
:103350000E94D90D0E94C61440E050E0BA018FE0EF
:1033600090E00E94D43440E050E0BA0183E190E064
:103370000E94D4340895A4E0B0E0E1ECF9E10C94AB
:1033800018347C01DC0113964D915C9114971196D1
:103390006C9111978C910E94A205811108C261E085
:1033A000C7010E94200D8C01F70182818111FDC0AF
:1033B000D70112968C91811137C10031BFE51B07EF
:1033C00009F4F9C10131EFE51E0709F4F8C16801FC
:1033D000E7E5DE1A882309F4F4C1FFEFCF16D10424
:1033E00009F008F420C2D70112968C91882369F065
:1033F000C801815E9C45059740F46FE1600F6093C2
:1034000050028CE090E00E94C23417FF72C0F701B6
:103410008281882309F46DC00E942F0C86958170EB
:103420008093B4010E942F0C81708093B30180912E
:103430005002813039F48091B401882319F089E376
:103440000E942F168091E6028093B2011092E6024C
:103450001092B20480915002813009F457C288233F
:1034600009F450C2823009F45AC2843009F46BC2A4
:10347000AFE3BCE91197F1F700C000005801E894F0
:10348000B7F85CE0C52ED12C6AE0862E912CC501E0
:103490000C2C02C0969587950A94E2F78F70909154
:1034A0005002923009F056C28A3008F051C290E0C2
:1034B0000996B4010E945D34875A0E942F16B4E029
:1034C000CB1AD108ECEFCE16EFEFDE0601F78091B4
:1034D0005002813009F44CC2882309F445C282307D
:1034E00009F452C2843009F458C28091B201809329
:1034F000E6028091CE0380FF39C00E9450056C0126
:10350000D70112968C91882309F457C28091460105
:1035100082FF08C02DE532E040E0B60190E080E097
:103520000E9486170B31BCE51B0709F438C20C3129
:10353000ECE51E0709F439C290914601892F8E7F70
:1035400090FF81600A31FCE51F0709F431C2C80110
:103550009056811520E2920728F0905E81159041E7
:1035600008F039C210920A0310920903033FBCE528
:103570001B0709F47CC308F01EC3083DFCE51F07C8
:1035800009F46FC3093D2CE5120709F488C3073D10
:103590003CE5130709F01BC306E221EE41EE67ED9F
:1035A0007CE5C7010E945116F2C0809139019091CB
:1035B0003A01019609F4FCCEFCEDCF2EF3E0DF2EAC
:1035C000B12CA12C992493948091390190913A01C6
:1035D0008A159B050CF4ECCEF60186818823E9F070
:1035E000818592850817190739F48091DA03909143
:1035F000DB030817190789F0D6011F969C921F97C5
:103600001C961C930E931B97C6010E945810C6016E
:1036100006960E9415101092B204BFEFAB1ABB0AB7
:10362000E6E1CE0ED11CD0CF980122513F4520318A
:10363000310508F03DC78FEF93E00E94B43481114B
:10364000A6C0EEEEDE2ED00E0BE212E0D11036C098
:1036500019821A821B821C8299249A9468012FEF86
:10366000C21AD20AC8010E94B43489831A828823FC
:1036700009F48DC0813009F07FC0580132E0A30EFB
:10368000B11CC6010E94B434C82E8A83882309F471
:103690007EC0C5010E94B434D82E8FEF8C0D8330CC
:1036A000D8F4580143E0A40EB11CDB82DD2021F0E8
:1036B000CE0101960E940E178501D0CF0115F4E0CE
:1036C0001F0709F464C0C8010E94B434811101C00D
:1036D000DA940F5F1F4FBACF8BEF8C0D833030F52C
:1036E000C8010396DB825C01DD2031F3580154E010
:1036F000A50EB11C0E94B4348C838823E9F28B811F
:103700009C818130AFEF9A0710F0982F8827B6E0A0
:10371000CB1631F0E7E0CE1631F00E942C29CCCF49
:103720000E940629C9CF0E948D28C6CFF4E0CF128F
:10373000C3CF580124E0A20EB11CC80103960E9419
:10374000B434DD2021F1882311F18150990B989E2A
:103750009001999E300D11244D2D4150550BCA01F9
:10376000820F931F019708F4A7CFAFE9BFE011972D
:10377000F1F700C00000F6CFCE0101960E940E17AF
:1037800056019ACF81E00E9401110E94B7108091EA
:103790001402877061F0D70112968C91882339F05A
:1037A0008091E50282FF03C082E00E94D01024963F
:1037B000ECE00C94343481E00E94C310E6CF82E048
:1037C000FBCF2FEFC216D10411F008F00CCE65E844
:1037D00072E08C2D0E94000E892B29F586E18C9DCC
:1037E000F0018D9DF00D1124E452FC4F8681813053
:1037F00009F062C08091850290918602892B99F030
:103800008091870290918802892B69F080918902CA
:1038100090918A0220918B0230918C02822B932B03
:10382000892B09F453C08091390190913A018C158C
:103830009D0524F4D0923A01C0923901F7018281AA
:1038400096E19C9D50019D9DB00C11249501245240
:103850003C4F6901D90150968C93509792811696EE
:103860008C911697992309F43FC01A961C930E93D6
:1038700019978F5F16968C930E945005F6019687D4
:10388000858780911F0287838091B2049091E60220
:10389000892B80870190F081E02D309741F0D6018F
:1038A00054966D917C91C5018E519C4F0995109352
:1038B000DB030093DA0397CD823009F0B4CF809117
:1038C000890290918A02892B09F4ADCF26E12C9DC3
:1038D000C0012D9D900D112484529C4FDC01509607
:1038E0001C920E9458109FCF882309F47CCDF901C7
:1038F0008189882309F477CDC5018E519C4F0E94A0
:10390000151071CD82EE0E94D815B2CD88E193E0FA
:103910000E94591788E193E00E94C015A9CD8091BB
:10392000B301811103C083E50E942F1682EE0E942D
:10393000D8158FE39CE90197F1F700C0000087E5F7
:103940000E942F1695CD86EE0E942F1688E1F8CFA3
:103950008650B3CD96EF980F963020F0805D0E9490
:10396000B116ADCD895AFBCF82EE0E948415BDCD34
:103970008CE20E942F168091B401882309F4B5CD02
:1039800089E30E942F16B1CD82EE0E9484158091AA
:10399000B3018111AACD83E5F4CF88E2F2CF809103
:1039A0004601816080934601D2CD809146018E7F91
:1039B000809346010E947710CACD809146018F7E88
:1039C000013E110531F0053E1105C9F48091460113
:1039D0008F7D809346018091460180FFC7CDD7013E
:1039E00012968C910832110528F50E31110508F058
:1039F00074C00430110580F58111B4CDB7CDC80174
:103A00009056811540E2940720F0905E8115904118
:103A100010F78091460182FFA9CD8091D00381FDEE
:103A2000A5CD2DE532E040E0B60190E080E00E94B7
:103A300086179CCD0933110558F40D32110518F481
:103A40000B321105C9F69091CE0392FDD5CF08C077
:103A500004361105C1F3D0CF9091CE0394FDCCCFA5
:103A6000882309F4A1C09091E60280911F02282FBB
:103A7000292B322F3D7FB1F110920A0310920903D6
:103A80003091CE0331FD2EC0F80143E0F695E79565
:103A90004A95E1F7EE71FF27E951FD4F98012F702C
:103AA000332781E090E002C0880F991F2A95E2F742
:103AB0008095909520813181822393239183808307
:103AC00060E0C8010E94711780911F028D7F0E94E3
:103AD000230A82E00E94D0105ACE9091CE0393FD2B
:103AE0008BCFBECF38E0F701ADE5B2E001900D928B
:103AF0003A95E1F710925F02109261021092600213
:103B0000A0900903B0900A030A151B05B1F5309186
:103B1000CE0335FF32C04091460141FB992490F815
:103B200041FF02C036FF29C04091070350910803AE
:103B3000B601641B750B4091CB035091CC03641705
:103B40007507D8F491FF08C0809146018061809389
:103B5000460182E00E943E0A8091E60285FF08C08D
:103B60008091460180628093460180E20E943E0A75
:103B7000692DC5010E9471170ACE9091460121FB63
:103B800091F9909346018D7F0E94230A10930A03B6
:103B900000930903D0920803C09207038091460165
:103BA00084608093460195CF970140E0B601C8013B
:103BB0000E948617ECCD053F4CE5140709F463C05D
:103BC00008F45BC0063F8CE5180709F462C0D70112
:103BD00012963C91332309F478C41092D903033030
:103BE000BDE51B0708F061C00A3FECE51E0730F495
:103BF000C80182509C45449708F061C00E94470D5F
:103C00009093E5028093E40201313CE5130709F447
:103C10006CC108F0E6C009305CE5150709F453C132
:103C200008F0B1C005309CE5190709F444C108F05B
:103C300096C00330BCE51B0709F433C108F037C157
:103C40008091E40281600230FCE51F0709F42CC179
:103C50008091E4029091E5020E94F20D0E942911E8
:103C600096CD07E225EE45EE68ED7CE59ACC06E2BE
:103C700021EE40EE63EF7CE594CC07E225EE44EEC6
:103C800064EF7CE58ECC06E221EE42EE65EF7CE54A
:103C900088CC07E225EE46EE66EF7CE582CC08E2B2
:103CA00021E045EE69ED7CE57CCC0136FDE51F07A2
:103CB00009F4A4CF053A2DE5120709F49FCF063188
:103CC0005CE5150709F406C40A358DE5180709F403
:103CD00070C108F049C10115ACE51A0709F44FC1DC
:103CE0000E3D1C4509F458C1F70186819781009764
:103CF00009F463C10E949008182F092FF701D280A0
:103D0000C580C2943FE0C322809114028770C1F045
:103D1000AD2CDD20B1F0892F807F803421F080E24E
:103D2000810F883068F08091E50282FF09C082E04F
:103D30000E94D010809114028770AA24A39481114C
:103D4000A12C902E92942FE09222FBE0F91508F41A
:103D5000C1C1E92DF0E0E65FFA4C0C94713480911A
:103D6000E402806207302CE5120709F49DC08091BF
:103D7000E402806108303CE5130708F495C08091A7
:103D8000E402806491C08091E4028B7F0D304CE5A9
:103D9000140709F489C088F40B308CE5180709F47E
:103DA00098C08091E4028C600C309CE5190708F4FF
:103DB0007BC08091E4028D7F77C08091E4028F7E8A
:103DC0000F30ACE51A0709F46FC08091E402877FD9
:103DD0000031BCE51B0708F467C08091E4028F7DC9
:103DE00063C00D3FECE51E0709F47BC058F50531B3
:103DF0002CE5120709F483C098F48091E402837FD4
:103E000003314CE5140709F44FC008F472C00E9456
:103E100029119091E402892F97FB87F9805844C0BB
:103E20000B3F8CE5180709F44AC008F056C0809192
:103E3000E50281600A3FACE51A0709F009CF8093DB
:103E4000E50206CF0130BDE51B0709F464C0C0F4EC
:103E50008091E5028C7F0F3FFCE51F0781F3809185
:103E6000E502836001152DE5120748F38091E50214
:103E7000982F909591708E7F892B90FB81F9DFCFE1
:103E800001363DE5130709F44CC0053A4DE514072A
:103E900009F44EC002305DE5150709F0D9CE60E0A7
:103EA0003BC08091E40282608093E402D1CE809195
:103EB000E4028460F9CF8091E4028860F5CF8091BC
:103EC000E5028260BCCF0E9429118091E4028068E3
:103ED000EBCF8091E4028E7FE7CF8091E5028E7F69
:103EE000AECF8091E5028D7FAACF8091E4028F7BD7
:103EF000DBCF0E9429118091E4028F77D5CF80918A
:103F0000E40282FB992790F921E0922790FB82F945
:103F100090FB83F9C9CF61E08EE090E00E94C2344B
:103F200097CE9091E402892F8F7E94FF8061BCCF61
:103F30009091E402892F8E7F90FF8160B5CF8091B0
:103F4000B50181110FC089E2ECEAF1E022EB31E02A
:103F50009191891303C0DF0111971C922E173F071F
:103F6000B9F7E5C285E3F0CF0C35EDE51E07B9F0F2
:103F700010F1073A1D4509F0B7CE0E944F150E9477
:103F800029113FEF44E35CE0315040405040E1F7FD
:103F900000C000000E9424050E945019EECF8091BD
:103FA000E50282FB882780F991E089270E94EC10C6
:103FB0009BCE81E0FBCF80E0F9CF8281008111812F
:103FC000882369F0C8010E94B20CD82E682FC8015E
:103FD0000E94CA0AB8018D2D0E94950C8BCEC80193
:103FE0000E94960AD82EF6CF202F2F70B22E802F47
:103FF000807F19F0B29490EFB922DD20A9F0BB20A8
:1040000059F080E2810F883010F0111107C08B2D1C
:104010000E94450A0E94C90F812F5AC08091B204A4
:10402000B82AB092B204F6CF812F0E948415BB202B
:1040300009F450C080E2810F883010F0111104C0E3
:104040008B2D0E943E0A03C08B2D0E94370A0E94CE
:10405000C90F40C0302F3F70B32E802F807F803239
:1040600019F0B29480EFB822112321F1113009F434
:10407000AEC0DD2009F4B7C0CC2009F47FC020E039
:10408000D7014C9111965C91119712966C911297F1
:1040900013967C91139714968C910E94FD0C80913D
:1040A000D00381FDB9CFF701858180FFB5CF8F7037
:1040B000858364C08091E50282FD40C0DD20C1F1AE
:1040C000BB2029F08B2D0E94450A0E94C90F80E079
:1040D0000E94D815A92DA850BB0B149710F40E946C
:1040E0002F0C812F902F0E94010B8111C2C11092C1
:1040F000B8011092B701AA20B1F08091140280FD9E
:1041000012C0D70112961C928595859585950E94BF
:104110000111C7010E94BB198091140285958595F4
:1041200085950E94C31060E0C7010E94200D3FCB1F
:1041300080E00E948415BB2069F282CFDD2011F15E
:10414000C11004C080911F028B2919C041E0C41224
:1041500006C080911F028B290E94230ABBCF809149
:10416000CF03823078F3C812EDCF0E94180A9091E5
:10417000B6018B2D892B89138093B6018B2D0E945C
:104180007D15A8CFC11003C00E94180A17C08091E6
:10419000CF0351E0C51216C0823008F49BCF809146
:1041A000E6028B2109F496CF0E94180A9091B6017D
:1041B0008B2D8095892389138093B6018B2D0E94C6
:1041C000761588CF823000F3C812DECF83CF80917E
:1041D000D503DD2021F08C1508F47CCFCFCFC81695
:1041E00008F078CFEBCFCC2049F38091D3039091A6
:1041F000D403193321F08091D1039091D2030E940E
:10420000CF0B812F0E94841565CF802F86958695D0
:10421000837069F0813009F05DCF812F902F93700A
:10422000D11002C090E080E00E94760553CF812F2C
:10423000902F9370D11002C090E080E00E948C0516
:1042400049CF812FDD2029F00E94E3070E94A106BB
:1042500041CF0E94C806FACF802F837091F5D1100C
:1042600039CF412F429546954770440F440F812F17
:104270008F70042E01C0880F0A94EAF7212F207155
:1042800014FF07C02FE030E001C0220F4A95EAF783
:104290002095302F369536953370323069F050F4D2
:1042A00040912002313029F0822B84230E94241176
:1042B00011CF842B822BFACF282B809120028227CA
:1042C000F5CF8695DD2011F0802F8170882309F4C9
:1042D00001CF412F429546954770440F440F812FDF
:1042E0008F70042E01C0880F0A94EAF7212F2071E5
:1042F00014FF07C02FE030E001C0220F4A95EAF713
:104300002095302F369536953370323069F050F461
:104310004091B104313029F0822B84230E94B210E5
:10432000D9CE842B822BFACF282B8091B1048227FF
:10433000F5CFF02FFF70BF2EDD2029F08F2F0E94C8
:104340000111812F1CCF812F0E9476158B2D0E9489
:10435000C310C0CE123F89F160F4103FB9F0113F95
:1043600081F0DD2009F480C0C11056CE802F8F71FE
:1043700028C0133F49F1143FA1F78091E50282FD67
:104380002FC0802F8F71DD2011F31BC08091D503CA
:10439000DD2079F0C81608F09DCE202F2F7181E026
:1043A00090E001C0880F2A95EAF79091B10489271F
:1043B000B5CF8C1508F48ECEF0CF802F8F71D11031
:1043C000C6CF0E94011186CE80E0DD2009F4A6CF81
:1043D00081E0902F9F7101C0880F9A95EAF79ECFD8
:1043E0008091CF03823040F1DD20D1F09091140212
:1043F0009770943041F40E944B0A802F8F710E9475
:10440000C310A12C67CEC816E0F7202F2F71B22E53
:10441000822F0E94011163E08B2D0E940D11F1CFBC
:10442000C81630F00E944B0A64E0802F8F71F5CFE0
:1044300081E00E94D010E5CFDD2059F0302F3F7190
:10444000B32E832F0E94011163E08B2D0E940D116A
:1044500041CE81E00E94D01041E04C1508F03ACEE8
:1044600082E00E94D01036CEC110BFCE802F8F7157
:104470006ECFDD2019F0C1103ACE3DCEC11037CE3F
:1044800020E0F701408151816281738184810E9423
:10449000FD0C8091D00383FF2ACE8091B7019091CB
:1044A000B801029709F023CE812F0E942F161FCE4C
:1044B0000031FFE51F0709F465C901312FE5120737
:1044C00011F00C94E71982E05EC906314CE514073F
:1044D00009F00ACC8091E602982F9A7A2091CD03B8
:1044E00020FF04C0482F447409F090E021FF04C06D
:1044F000482F417109F090E022FF04C0482F48780E
:1045000009F090E023FF03C0827209F090E03323AA
:1045100009F415CD81E0911101C080E08093B501CF
:1045200069E2911165E38AEA91E00E945C050E94CC
:10453000C90F2DC9B0E0A0E0E0EAF2E20C941C340F
:104540008091CD01807F31F48091CA01C091110228
:10455000811107C0CDB7DEB7E8E00C94383421965E
:10456000C7708091D0018C17A9F3F090C801E0903A
:10457000C901C090CB01D090CC01A6016E2D8F2D2A
:104580000E94A205D0E08111EACF8E0183E0000FE6
:10459000111F8A95E1F7F801EF52FE4F81818E11CC
:1045A000DECF80818F11DBCF82818111D8CFE38074
:1045B000F480EC18FD0860E088EC91E00E94200D8A
:1045C0008091CB039091CC03E816F90640F68091D8
:1045D000CD018F7080618093CD01F801EA52FE4FCA
:1045E00080818F708061808388EC91E00E94BB198C
:1045F0000E948C0AAFCFA5E1B0E0E1E0F3E20C94B9
:1046000013348C0185E0F801DE01519601900D9282
:104610008A95E1F7D8014C9011965C90119712960B
:10462000EC9012971396CD90DC9060E088EC91E0CE
:104630000E94200D88ECA82E81E0B82E8090CB013E
:104640009090CC01A4016091C9018091C8010E94A1
:10465000A2058111B6C1F090CA01F601E819F90965
:104660004F0160E0FF2009F459C1C5010E94200DEF
:104670006090CB037090CC033090CD0186149704EA
:1046800008F0FFC04091CB015091CC01B090C8011F
:10469000A090C901832D807F6A2D09F099C08B2DD0
:1046A0000E94A205FE2C811127C0D80111968C9181
:1046B00011978A1121C08C918B111EC02091CE01BF
:1046C0003091CF0116968D919C9128173907A1F44E
:1046D000E11012C0832D8F7080618093CD0188EC32
:1046E00091E00E94BB198091CD01F80185838F2D47
:1046F0006596E1E10C942F34F4EF6F16F1E07F063C
:1047000020F48091D00380FF21C0A601652D842D67
:104710000E94A205811118C081E08E2580FF16C07D
:104720004E2D652D842D0E946C0A882379F088EC2B
:1047300091E00E94BB1988E0E8ECF1E0DF011D92F6
:104740008A95E9F7F12CD3CF80E0E8CFA601652D5B
:10475000842D0E94A205811124C081E08E25B82FEE
:10476000B170CB2E80FF2BC04E2D652D842D0E9465
:104770006C0AD82E811123C0498A5A8A89899A895C
:104780000E94E10C292F22952F70223060F02430F6
:1047900088F49F7061F0F8019581907F41F4FD2CC1
:1047A000A6CF80E0DCCF9F7011F08823C1F3805E3C
:1047B0008830A8F3C8010E94BB19DC2CF0CFEE2092
:1047C00009F495CF8091CD0181608093CD01BACF5E
:1047D0008B2D0E94A205811124C0D80111968C91C5
:1047E00011978A111EC08C918B111BC02091CE0194
:1047F0003091CF0116968D919C9117972817390704
:1048000081F4E1100EC015963C92C8010E94BB19BC
:1048100088E0F801A8ECB1E001900D928A95E1F7EB
:1048200066CFC8010E94EE0C882339F1EE2029F1F1
:104830008091CD018032A0F02091C8013091C90152
:104840003A8729871B86DD86CC868E878091CE01AC
:104850009091CF01988B8F87CE0109960E94BB194A
:1048600088E0F801A8ECB1E001900D928A95E1F79B
:104870000E949A22FF24F3943ACFC8010E94BB19E8
:10488000F9CF832D807F09F452CF9090C80180909A
:10489000C9014091CB015091CC01682D892D0E9416
:1048A000A20581111CC0F8018181881118C0808186
:1048B000891115C02091CE013091CF018681978159
:1048C0002817390761F4E1100AC03582C8010E9437
:1048D000BB1988E0D5011D928A95E9F708CFC80178
:1048E0000E94EE0C882349F2EE2039F28091CD012E
:1048F000803208F4B5CF2091C8013091C9013A83C4
:1049000029831B82DD82CC828E838091CE0190919F
:10491000CF0198878F83CE010196A0CF88EC91E0DC
:104920000E94200D8091CB039091CC0388169906AC
:1049300080F6FE2CEE2009F4A0CFE090C801D090C4
:10494000C9014091CB015091CC016D2D8E2D0E945B
:10495000A205811128C0F80181818D1124C08081B8
:104960008E1121C02091CE013091CF018681978197
:1049700028173907C1F48091D00382FD49CF909167
:10498000CD0190FD45CF907F09F442CF8091CD01BC
:104990008583903F09F439CF982F907F905F8F7077
:1049A000892B858332CFC8010E94EE0C811158CF2C
:1049B0008091CD0181608093CD01C8010E94BB1917
:1049C00096CEEE2009F459CFC8010E94EE0CF82EC5
:1049D000882309F452CF88E0F801A8ECB1E00190F7
:1049E0000D928A95E1F78091C8019091C9010E94CA
:1049F000E10C0E949A227BCEA0E1B0E0E2E0F5E279
:104A00000C94223429873A874B875C876D877E8791
:104A10008F87988BCE0109960E94FB2281112FC0AF
:104A200088E0FE013996DE01119601900D928A957B
:104A3000E1F74C855D856A8589850E94A205811113
:104A40001EC0A091D001B0E0CD01019687709927DA
:104A50002091110228171906E1F093E0AA0FBB1F5D
:104A60009A95E1F7AF52BE4F98E0FE013196019062
:104A70000D929A95E1F78093D0010E948C0A809163
:104A800011029091D001891312C06096E2E00C945B
:104A90003E340E9429111092D0011092110288E038
:104AA000E8ECF1E0DF011D928A95E9F7E8CFB8E084
:104AB0008B9FC00111248F529E4F0E94FB2288239E
:104AC00021F38091110290E00196877099278093DD
:104AD0001102D5CFEF92FF920F931F93CF93DF93E5
:104AE00080910E03882361F0C0910D038CE0F82EB5
:104AF00080910E03C81748F010920E0310920D0318
:104B0000CDB7DEB7E6E00C943A34EE24E394EC0E35
:104B1000E0920D030C2F10E0CF9DE0011124C15F46
:104B2000DC4F4B815C81698188810E94A2058111E3
:104B30001DC08E819F81892B21F4888599850196DE
:104B400051F4288139814A815B816C817D818E811C
:104B50009F810E94FC24F09EF001F19EF00D112433
:104B6000E15FFC4F148213821092B204CE2DC0CFAD
:104B70001092B2031092B103109247018091B003DA
:104B80008093AF030E94DB050E946A250895B0E080
:104B9000A0E0EDECF5E20C941334C091AF0397E084
:104BA000892E01E010E02CE0322E3EEF932E4424BB
:104BB00043948091B0038C1309C00E946A250E941F
:104BC000DB05CDB7DEB7E1E10C942F34D0E0FE0178
:104BD000EE0FFF1FE955FC4F80819181889ED00127
:104BE000899EB00D1124A159BC4F14962C91149795
:104BF000211158C050900E03EFE0F3E030E020E0C8
:104C0000712C5D01251508F04BC0E284F384D501B9
:104C1000CD90DC906FEF7FEF612C462D50E0DA01F4
:104C2000AA0FBB1FAC0DBD1D0D90BC91A02D109700
:104C300031F0EA16FB0609F4BA016394EECF6F3F38
:104C40007607A9F1D80102C0AA0FBB1F6A95E2F747
:104C50007A2AB801062C02C0660F771F0A94E2F781
:104C6000AB014150510974161506F9F4329EF0015A
:104C7000339EF00D1124E15FFC4F889ED001899E88
:104C8000B00D1124A159BC4F12962D913C91139750
:104C900037832683908291829187808715964C92E4
:104CA0000E94AD052196C37084CF148213822F5FBA
:104CB0003F4F3C96A7CFA9E1B0E0E1E6F6E20C94C5
:104CC0001234942F498B252F5A8B6B8B7C8B8D8BB9
:104CD0004C895D89622F892F0E94A205811109C02C
:104CE0008091B7019091B80101969093B80180939B
:104CF000B7018B8981111092B2041D861E861F8612
:104D0000188A85E0FE017196DE01199601900D92D8
:104D10008A95E1F78091E50282FF1EC08091B5037C
:104D20009091B603892BC1F00E9450052091120288
:104D300030911302821B930B2091B5033091B6037F
:104D40008217930720F08091140282FFE2C10E9433
:104D5000520A81110E94180A4C855D856A858985F1
:104D60000E94A205811111C061E0CE0109960E9446
:104D7000200D6C018B8527EFC2162CE5D20681F43D
:104D8000882321F181E08093470129853A854B856D
:104D90005C856D857E858F8598890E94FC24C6C0C0
:104DA00038EFC3163CE5D30629F4882379F00E9436
:104DB000B825EBCF49EFC4164CE5D40639F4882367
:104DC00029F0809147018111F2CFDCCF0FE613E08B
:104DD000512CB12CA12C22242394312C2EEF422EC5
:104DE000F8014081518188248A94982C20E0822FF8
:104DF00090E0FC01EE0FFF1FE40FF51F6081718151
:104E00006115710531F0C616D70609F44C012F5F04
:104E1000EECFF12CFFEF8F169F0609F449C0F80181
:104E20004481F09047018F2D411180E0F82FF170FF
:104E3000FF2EF801E58086819B85992309F4F8C04F
:104E4000FF2009F4F5C06090C9037090CA03E11017
:104E500013C0A101082C01C0440F0A94EAF7842B67
:104E6000868380910B0390910C038615970520F49F
:104E700070920C0360920B03C10102C0880F991F4E
:104E80002A95E2F70197F80126812817190681F47F
:104E90008091B1039091B203009709F44BC00E9436
:104EA00035056816790608F045C021E0F80124832D
:104EB0005F28FFEFAF1ABF0A095F1F4F28E0A21655
:104EC000B10409F08DCF8B85882309F40DC15520DD
:104ED00009F40AC10E9450059093B2038093B10374
:104EE00080910E03883010F591E0980F90930E0397
:104EF00098E0FE013996DE01119601900D929A9587
:104F0000E1F73CE0839FC0011124815F9C4F28E0C2
:104F1000FE013196DC0101900D922A95E1F72FEF09
:104F20003FEFFC0131872087D386C2866996E2E194
:104F30000C942E348091AF035091B003982FF0E081
:104F4000E0E0851314C09093AF03E017F10709F474
:104F5000AFCF90E0FC01EE0FFF1FE955FC4FB1828F
:104F6000A0820196837099278093B003A1CF682E09
:104F7000712CF301EE0FFF1FE955FC4F20813181A9
:104F800047E0429FD001439FB00D1124A159BC4F6F
:104F90006D917C911197798F688F40E020E030E02F
:104FA000E32FF0E0EE0FFF1F688D798DE60FF71FFE
:104FB0008080918081149104E1F0F8010190F081EA
:104FC000E02DFF8BEE8B20E005C08616970609F4D6
:104FD0004F2D2F5FE22FF0E0EE0FFF1F6E897F89CC
:104FE000E60FF71F608171816115710571F73F5FF1
:104FF000D7CF4423D1F0F801231708F0FD0121E0B9
:1050000024830E171F0721F49093AF03F42E50CF83
:10501000981305C0AE17BF0711F49F5F93709301FB
:105020002F5F3F4F822F83708CCFF0E0E0E0F7CF0F
:1050300090E0E11020C0B10102C0660F771F2A95F1
:10504000E2F79B01215031098217930731F4442381
:1050500009F448C0C5010E94AD05C101082C01C07A
:10506000880F0A94EAF7982F9095F8018681892392
:105070008683FE2C1DCF9C01082C02C035952795F8
:105080000A94E2F7A90141705527BC0161507109EA
:1050900086239723892B11F5452B01F1F801828195
:1050A0009381892BC1F01B821C821D821E82498242
:1050B0004A820E9450058160582F9D838C83F8019D
:1050C000828193818F83988729813A814B816D8179
:1050D0007E810E94FC24F8011582BFCFF22FF1706F
:1050E000EF2EBBCFEF2CB9CF9091AF038091B003DF
:1050F000981731F00E94C725552009F446CE16CFE7
:105100000E946A251092B2031092B1030E94DB053F
:10511000F3CF82E00E94D0101ACEA5E0B0E0E3E920
:10512000F8E20C9422349093E0028093DF02811520
:1051300020E2920730F40E94C0152596E2E00C941C
:105140003E3480EF89838A831B820E9450058160F0
:10515000782F9D838C8349815A816B818D810E9438
:105160005B26EBCF0F931F93CF93DF938C01EB0163
:1051700065E872E08C2F0E94000E892BA1F48091CB
:10518000D1039091D2030E94CF0BDD27C358DD4F8E
:105190008881F801108218828330F1F048F4813060
:1051A00059F0823081F0DF91CF911F910F910895D6
:1051B0008430B9F08530B9F78091850290918602EC
:1051C000009789F306C0809187029091880200972A
:1051D00099F30E948D28E7CF8091890290918A02ED
:1051E000F6CF80918B0290918C02009791F72091DD
:1051F0008502309186028091870290918802211564
:105200003105F1F2009729F7C901E3CFA5E0B0E03D
:10521000ECE0F9E20C9422349093E0028093DF02F8
:10522000811520E2920730F40E9459172596E2E09A
:105230000C943E3480EF89838A8381E08B830E94C3
:1052400050058160782F9D838C8349815A816B81C1
:105250008D810E945B26EACFCF93DF93EC010E9401
:1052600006298091D1039091D2030E94CF0BCE01E9
:105270000E948D28DF91CF9108950F931F93CF93B4
:10528000DF938C01862F65E872E00E94000E892B67
:10529000B1F4C0918502D0918602209781F0F80187
:1052A0008081833051F4CE010E942C29CE010E94CE
:1052B0002C29CE010E942C2902C08430D0F7DF9126
:1052C000CF911F910F9108950F931F93CF93DF9369
:1052D0008C01EB0165E872E08C2F0E94000E892B97
:1052E00009F061C0FE01FF27D8018C91E358FD4F02
:1052F0008130D9F419969C911997992311F08083E4
:105300000CC01A969C919923D1F382E080838091FE
:105310008702909188020097D9F48091850290913C
:105320008602009709F43FC013C08230D1F5199668
:105330008C91199781112AC01A968C9181110BC0FA
:1053400083E080838091890290918A02009701F125
:105350000E94062928C084E0808380918B0290916E
:105360008C020097A9F780918502909186020097A0
:10537000F9F00E942C298091870290918802009771
:1053800039F78091850290918602E2CF85E0808393
:105390008091850290918602009729F00E942C2925
:1053A000F0CF86E08083DF91CF911F910F91089518
:1053B0008091870290918802B4CF1F920F920FB60E
:1053C0000F9211242F933F934F935F936F937F938B
:1053D0008F939F93AF93BF93CF93DF93EF93FF93FD
:1053E000D091E900DF708091EC00C82FC17080FD82
:1053F000C0E81092E9008091F000877F8093F00070
:1054000078940E9435111092E9008091F000886034
:105410008093F000CD2BCF70C093E900FF91EF9106
:10542000DF91CF91BF91AF919F918F917F916F91BC
:105430005F914F913F912F910F900FBE0F901F9052
:1054400018951F920F920FB60F9211242F933F932E
:105450004F935F936F937F938F939F93AF93BF937C
:10546000EF93FF938091E10082FF09C08091E200F9
:1054700082FF05C08091E1008B7F8093E1008091E5
:10548000DA0080FF24C08091D80080FF20C0809186
:10549000DA008E7F8093DA008091D90080FF9DC072
:1054A00080E189BD82E189BD09B400FEFDCF81E0C4
:1054B0008093A70480919A04811109C00E949C03E3
:1054C0000E9467048091E20084608093E2008091F2
:1054D000E10080FF17C08091E20080FF13C080913F
:1054E000E2008E7F8093E2008091E20080618093F1
:1054F000E2008091D80080628093D80019BC85E0DA
:105500008093A7048091E10084FF2BC08091E2008A
:1055100084FF27C080E189BD82E189BD89B5982FCC
:10552000917080FFFBCF8091D8008F7D8093D80051
:105530008091E1008F7E8093E1008091E2008F7E78
:105540008093E2008091E20081608093E20080918C
:10555000A804882309F447C084E08093A7048091BD
:10556000A7048091E10083FF27C08091E20083FFC0
:1055700023C08091E100877F8093E10082E08093E7
:10558000A7041092A8048091E1008E7F8093E1002F
:105590008091E2008E7F8093E2008091E200806142
:1055A0008093E20042E060E080E00E943504809158
:1055B000F00088608093F000FF91EF91BF91AF9170
:1055C0009F918F917F916F915F914F913F912F911B
:1055D0000F900FBE0F901F90189519BC1092A70442
:1055E00010929A0474CF8091E30087FD93E090932A
:1055F000A704B5CF78941F921FB61F9211248F93E2
:105600009F93AF93BF938091930490919404A09142
:105610009504B09196040196A11DB11D8093930449
:1056200090939404A0939504B0939604BF91AF9186
:105630009F918F911F901FBE1F9018951F921FB6AC
:105640001F9211248F939F93AF93BF9380919204E5
:10565000811113C08091930490919404A0919504BA
:10566000B09196044196A11DB11D8093930490932F
:105670009404A0939504B0939604BF91AF919F9129
:105680008F911F901FBE1F901895CDB7DEB7E4977E
:105690000FB6F894DEBF0FBECDBF85B7806885BF5B
:1056A00085B7806885BF84B7877F84BF0FB6F894BD
:1056B000A8958091600088618093600010926000DE
:1056C0000FBE80E890E00FB6F8948093610090934D
:1056D00061000FBE8BE498E09093A9018093A8012C
:1056E0000E94140E0E944D0E0E94400C0E949C03CA
:1056F0000E9467048091E20084608093E2007894C5
:105700008091A7048823A1F01091E9001F70909167
:10571000EC00892F817090FD80E8182B1092E90031
:105720008091E80083FD0E9435111F701093E900FD
:1057300082E084BD93E095BD9AEF97BD80936E00A3
:1057400010924202109243021092440210924502BB
:105750000E942E0D811102C00E94C6148EE090E0BE
:105760000E94B43491E0811101C090E090932C012B
:105770000E940C0C81110E94B03280912C01811189
:1057800026C084E1E9E4F1E0DE01119601900D927A
:105790008A95E1F7FE013196A8E1B1E0CE01459688
:1057A00020812C93218111962C931197228112969E
:1057B0002C931297238113962C931397248114967C
:1057C0002C931497359615968E179F0749F780915D
:1057D0002C0194E0811190E090934F0284E0891BAA
:1057E00080934E0228E131E06CE271E001E010E0CC
:1057F000D90150E040E08D918F3F91F0E82FE29584
:10580000EF70F0E0D1A08F70780101C0EE0C8A95A6
:10581000EAF79E2D90959D2191A382A18E2982A3C6
:105820004F5F5F4F4530510531F72B5F3F4F621798
:105830007307F1F688E0E8E6F2E0DF01282F1D9219
:105840002A95E9F7E6E4F2E0DF011D928A95E9F78F
:1058500090E080E00E94BC34883E9E4F21F40E947C
:105860002E0D811102C00E94501982E090E00E942A
:10587000B434809354020E94470D9093E5028093C4
:10588000E4020E94910EEFE3FCE93197F1F700C0CA
:1058900000000E94910E8EE090E00E94B43424E05B
:1058A000811120E0E22FF0E0E859FD4F808190E087
:1058B00002C0959587952A95E2F780FF08C06FEFA3
:1058C0007FEF90E080E00E94E0340E94240583E0B6
:1058D00090E00E94B4340E9424118CE090E00E9479
:1058E000B43490E0B0E0A0E0809350029093510275
:1058F000A0935202B09353020E940C0C811102C07B
:105900000E94B3328DE291E090938F0480938E04D5
:10591000A8E16A2E712CB0E43B2E10E1412E00E18B
:10592000502E8E010F5F1F4F5E01F3E0AF0EB11CD2
:105930008091A704F2E1FF2E853009F43FC10E9457
:10594000910E81110E944405E8E6F2E0A5E5B2E07F
:10595000F12CE12C8E2CC1908D918C1509F43DC158
:105960008C25912CDD24D394982F9D2109F430C1EE
:105970000E940C0C882399F09BA68CA6CD2081E078
:1059800009F480E08DA70E9450058160782F9FA7C1
:105990008EA74BA55CA56DA58FA50E945B26F70180
:1059A000EB5AFD4F8081D826D0820E940C0C8823B0
:1059B00081F18091390190913A01D12CE6E1CE2E0E
:1059C000019609F052C180914701811158C180911F
:1059D000CE0380FF1EC08091460182FF1AC00E9444
:1059E00050052091070330910803AC01421B530B73
:1059F00020914401309145014217530750F02DE5A5
:105A000032E041E0BC018091090390910A030E94B9
:105A1000861786E0E7E7F2E0D80101900D928A95BB
:105A2000E1F71092790210927A0210927B021092A2
:105A30007C028B819C81892B91F0809175029091E1
:105A400076020E943505AC0190917102992309F408
:105A500041C1809143018417150608F449C18D8125
:105A60009E81892B91F080917302909174020E9423
:105A70003505AC0190917002992309F47AC18091A7
:105A80003F018417150608F482C146E050E0B801D2
:105A900087E792E00E948734892B61F48091790234
:105AA00090917A02892B90917B02892B90917C02B4
:105AB000892B11F00E94A10686E0F801A7E7B2E069
:105AC00001900D928A95E1F70E942F0C909165024A
:105AD0008913809365028091A704843009F028CF50
