:100000000C948A020C94A7020C94A7020C94B41CC2
:100010000C94A7020C94A7020C94A7020C94A702BC
:100020000C94A7020C94A7020C94FF230C94D324E5
:100030000C94DA1E0C94A7020C94A7020C94A7024D
:100040000C94A7020C94A7020C94A7020C94A7028C
:100050000C94A7020C947D1F0C94A7020C94A70289
:100060000C94A7020C94A7020C94A7020C94A7026C
:100070000C94A7020C94A7020C94A7020C94A7025C
:100080000C94A7020C94A7020C94A7020C94A7024C
:100090000C94A7020C94A7020C94A7020C94A7023C
:1000A0000C94A7020C94A7020C94A70214001A0047
:1000B00008001500170004621645074109430A00AD
:1000C0001D001B6106641900050062002A00000083
:1000D000000000001C0018000C00120013000B00B0
:1000E0000D440E420F463362110010003664376132
:1000F00038002C47590000000000000001000100FA
:100100000100010001000100F2000000F100010007
:1001100001000100010001000100010001000000D8
:10012000000000000100F100F900F20001000100F0
:10013000EF00EE00ED00F0000100FB00FA00FC0013
:1001400001000100010000000000000001000100AA
:100150004B00010001005000520051004F0001000F
:1001600001004A004E004D000100010001000000A6
:100170000000000001000100010001000100010079
:10018000E3000000E201E1050100010001000100BF
:10019000010001000100000000000000010001005A
:1001A00001000100010023022502240200000100D9
:1001B00001000100010001000100C55C0100000018
:1001C0000000000001002D02310234000100200275
:1001D000350238003402210201002D0031003500C3
:1001E00001000100C45C00000000000001003302B7
:1001F0003602370233002F023002260227021F0286
:1002000001001E022F0030000100AA0001000000C2
:1002100000000000010001000100010001000100D8
:1002200000002E002E022202010001000100010048
:1002300001000100A9000000000000000100010011
:1002400001000100010001000000E20101000100C5
:100250000100010001000100010001000100000097
:100260000000000001004000410042004300010086
:100270003D003E003F00440001003A003B003C00CE
:1002800045000100010000000000000054002400AF
:1002900025002600570027001E001F0020005600E2
:1002A000550021002200230067000100010000002A
:1002B0000000000001000100010001000100010038
:1002C0000100010000000100010001000100010027
:1002D0000100010001000000000000000100010019
:1002E0003302290001000100220238002800010029
:1002F0000100010001001E02010001002B000000AE
:100300000000000001000100010001004C0001524A
:10031000E300010001000100005201003674377152
:10032000005C000001000000000000000000000070
:10033000000000002A2B2800000000000000000040
:100340000000000000000029000000002C1E3420E6
:10035000212224342627252E362D3738271E1F200C
:100360002122232425263333362E37381F04050651
:100370000708090A0B0C0D0E0F1011121314151695
:100380001718191A1B1C1D2F3130232D3504050693
:100390000708090A0B0C0D0E0F1011121314151675
:1003A0001718191A1B1C1D2F3130354C0000000086
:1003B000000000000000000000000000000000003D
:1003C000000000000000000000000000000000002D
:1003D0007E0F00D4FFFFFFC7000000781A0346001D
:1003E00065007200720069007300200073007700DE
:1003F00065006500700000000803440050004200E2
:1004000000000403090409023B00020100A0FA09EC
:100410000400000103010100092111010001224033
:100420000007058103080001090401000103000021
:10043000000921110100012281000705820320002B
:10044000011201000200000008ABC23939010001AD
:1004500002000105010902A10185020901A10005AF
:1004600009190129051500250195057501810295D8
:1004700001750381010501093009311581257F9539
:10048000027508810609381581257F950175088157
:1004900006050C0A38021581257F9501750881062D
:1004A000C0C005010980A101850319012AB7001503
:1004B0000126B700950175108100C0050C0901A146
:1004C00001850419012AA002150126A002950175D3
:1004D000108100C005010906A101050719E029E7FF
:1004E00015002501950875018102950175088101A6
:1004F0000507190029FF150026FF009506750881DC
:1005000000050819012905950575019102950175E8
:10051000039101C011241FBECFEFDAE0DEBFCDBFD3
:1005200011E0A0E0B1E0E2ECFEE402C005900D9223
:10053000AC3BB107D9F722E0ACEBB1E001C01D92B2
:10054000AB3BB207E1F70E9441160C9449270C948B
:1005500000009C013A9521153F4150F5FC01EE2722
:10056000F170BC0166277270AC01442754709C0185
:100570002227387094FF0EC080E1EF2B09F480E051
:10058000672B09F08062452B09F08064232B89F0EA
:100590008068089581E0EF2B09F480E0672B09F073
:1005A0008260452B09F08460232B19F08860089540
:1005B00080E00895CF93DF93EB010E94A902FE0132
:1005C0000995DF91CF910895CF93DF93EC01805E81
:1005D0009109089720F060E178E0209711F46AE72C
:1005E00075E0CE010E94DA028C2F0E94DB04DF91BD
:1005F000CF910895CF93DF93EC010E942705CE01A0
:10060000805E9109089720F067E178E0209711F467
:1006100061E875E0CE010E94DA02DF91CF91089582
:10062000CF93DF93EC010E94E402C933D10549F472
:100630002FEF87EE93E0215080409040E1F700C01B
:100640000000CE010E94FA02DF91CF91089581E06F
:10065000089581E008950E942903089508950E9455
:100660002E030895A5E0B0E0E8E3F3E00C94B5268E
:1006700049835A833091BF0189819A81311119C010
:10068000662399F0222389F00E94090A182F682F07
:1006900089819A810E94E50969817A81812F0E946E
:1006A00010112596E3E00C94D1260E94F709182F2B
:1006B000F3CF0E94090A69817A81F1CFFC01262FCC
:1006C000408151816281738184810E943203089547
:1006D00081E00895CF93DF93EC0160E00E945E0318
:1006E000BE010E942F03DF91CF9108950E949912BD
:1006F00008950E949D12089508950E9434080E9452
:100700007C032FEF84E39CE0215080409040E1F790
:1007100000C0000008950E947D030E94A11F08955B
:100720000E947D030E94B21F08950F931F93CF93E1
:10073000DF93EC018B010E942B03811106C080E046
:10074000DF91CF911F910F910895B801CE010E94C2
:10075000D8198823A1F3B801CE010E94C21B8823B7
:1007600071F3B801CE010E94F719882341F3B80153
:10077000CE010E94341B882311F3F8018281882363
:1007800061F0CB35FDE5DF0701F158F4C115ECE56B
:10079000DE0791F0CF3DDC4591F0C8010E942703B0
:1007A000CFCFCD358DE5D80769F090F0C83ADD455B
:1007B000A1F70E949003C3CF0E948B03C0CF0E9479
:1007C0004B0FF7CF0E94850EE8CF0E948F0EE5CF2A
:1007D0000E94930EE2CFCF93DF93EC0161E00E9481
:1007E0005E03BE010E949503DF91CF9108950E94A0
:1007F000B71E0E947C0408950E9480040E94BC1EC3
:100800000895B0E0A0E0E7E0F4E00C94B126E82F12
:10081000F0E0E45DFC4FD490282F26952695269590
:1008200030E0F901E453FC4F0491877010E0082E8A
:1008300002C0159507950A94E2F701701127F90196
:10084000E454FC4FE490F12C082E02C0F594E79498
:100850000A94E2F791E0E922FF24F901E455FC4F04
:10086000C491D0E002C0D595C7958A95E2F7C170D2
:10087000DD270115110519F081EE0E94DB04E1145A
:10088000F10419F086EE0E94DB048D2D0E947105A3
:10089000E114F10419F086EE0E94270501151105F7
:1008A00019F081EE0E942705CD2B19F08CE20E94F1
:1008B0007105CDB7DEB7E7E00C94CD26982F9F7079
:1008C0009A50963020F0805D0E9401040895895A64
:1008D000FBCF08950E946904089581E008950E9465
:1008E0006D0408950895CF93C82F0E946A048C2F39
:1008F0000E946F04CF91089580E00E9473040895D0
:100900000E94DA1D0E94730408950E94DA1D9091DE
:10091000BE01981721F08093BE010E9473040895D0
:10092000ABE0B0E0E6E9F4E00C94B6264F835887DC
:1009300069877A878B8761110E94A40D1E821D82B0
:1009400085E0FE013796DE01119601900D928A95A1
:10095000E1F78091900282FF0CC00E94640D882311
:1009600019F082E00E94540E0E944B0D81110E94EA
:10097000D20D8C819D81892B61F449815A816B81D3
:100980007C818D819E810E94A20C2B96E2E00C94CA
:10099000D22689819A8189238F3F79F3CE010196EE
:1009A0000E9468038111E9CFF0CFFC018081918121
:1009B0000E94430A0895CF93C82F8823B9F08CEF83
:1009C0008C0F813AA8F46C2F809100019091010165
:1009D0000E94481E882329F08C2F0E94390D0E9406
:1009E000E00D8C2F0E94310D0E94E00DCF910895F3
:1009F00080E28C0F883048F4C77081E001C0880F16
:100A0000CA95EAF70E94840DEFCFEBE5EC0FE330D7
:100A100040F4F0E0EA57FE4F808190E00E940A1E09
:100A2000E5CFE8E5EC0FE73150F4F0E0EE0FFF1F03
:100A3000E85AFE4F808191810E94201ED7CFCD3E83
:100A4000A8F28C2F0E94C5160E94B017CFCF882322
:100A500079F19CEF980F913A28F40E94390D0E9489
:100A6000E00D089590E2980F983050F4877091E06F
:100A700001C0990F8A95EAF7892F0E948A0DEFCF5E
:100A80009BE5980F933028F490E080E00E940A1EC6
:100A9000089598E5980F973128F490E080E00E943F
:100AA000201E08958D3E20F00E942D170E94B01741
:100AB00008951F93CF93DF93182FEB010E94DB045F
:100AC000209739F4812F0E942705DF91CF911F9144
:100AD00008958FE99FE00197F1F700C0000021978A
:100AE000EFCF70E060E0893311F460E570E00E94C0
:100AF00059050895882321F00E94840D0E94E00D7D
:100B00000895882321F00E948A0D0E94E00D089527
:100B1000B0E0A0E0EEE8F5E00C94AF266C01D62F33
:100B2000C72FFC011281F580F2949FE0F9220E9408
:100B30007A0DE82E8823B9F0E12E1123A1F08C2F35
:100B4000807F803421F080E28D0F8830D0F080915A
:100B5000900282FF16C082E00E94540E0E947A0D1D
:100B600091E0E82EE926BC2EB2948FE0B822FBE09B
:100B7000FB1508F461C0EB2DF0E0E55BF84D0C943B
:100B8000A026E12CF0CF0C2F0F70C07F11F0029542
:100B9000007F112399F0002359F080E28D0F8830F7
:100BA00010F0D11107C0802F0E94840D0E94E00D2B
:100BB0008D2F3AC0802F0E94970DF8CF8D2F0E9465
:100BC00027050023C9F180E28D0F883010F0D11184
:100BD00004C0802F0E948A0D03C0802F0E949D0DAB
:100BE0000E94E00D29C00C2F0F70C07FC03211F0A1
:100BF0000295007FDD2351F0D13009F47CC0112330
:100C000009F485C0FF2009F455C0D2CF809190022D
:100C100082FD33C0112359F0002329F0802F0E9458
:100C2000840D0E94E00D80E00E94DB0405C080E09E
:100C30000E9427050111CDCFEB2DE850FF0B349713
:100C400020F40E94DA1D0E947304EE2089F00E94B5
:100C5000600D80FD0DC0F60112820E945A0D0E94A7
:100C6000ED08C6010E94E6070E945A0D0E940F0976
:100C7000CDB7DEB7E9E00C94CB261123E9F0F110F3
:100C800006C00E94A70D802B0E947A05D5CF21E0D7
:100C9000F21206C00E94A70D802B0E94BB0DCCCF84
:100CA00035E0F312EECF0E94D20D0E94480D802B4A
:100CB0000E94AE0D802FE8CFF11003C00E94D20D2C
:100CC00011C081E0F81212C00E94810D802309F446
:100CD000B3CF0E94D20D0E94480D902F909589238A
:100CE0000E94AE0D802F0E948105A6CF95E0F916D7
:100CF00009F4A2CFE3CF112329F0E5E0EF1508F4C2
:100D00009BCFD8CFF4E0FF1508F496CFEBCFFF20B0
:100D100049F3D93349F42FEF37EE83E021503040C7
:100D20008040E1F700C000008D2F0E94270584CF8E
:100D30008C2F86958695837069F0813009F07CCF81
:100D40008D2F9C2F9370111102C090E080E00E94C3
:100D5000201E72CF8D2F9C2F9370111102C090E036
:100D600080E00E940A1E68CF8D2F112329F00E9477
:100D7000C5160E94B01760CF0E942D17FACF8C2F96
:100D8000837009F041C0111157CF4D2F4295469500
:100D90004770440F440F0D2F0F7010E030E020E03B
:100DA000042E04C0000F111F221F331F0A94D2F714
:100DB00060E070E0CB01D4FF0FC06FE070E080E036
:100DC00090E004C0660F771F881F991F4A95D2F7DD
:100DD0006095709580959095C695C695C370602B6B
:100DE000712B822B932BC23049F058F4C13019F08B
:100DF0000E94980821CF0E9485081ECF0E94AB0850
:100E00001BCF0E94820818CF8695112311F08C2FDA
:100E10008170882309F410CF4D2F42954695477075
:100E2000440F440F0D2F0F7010E030E020E0042E2F
:100E300004C0000F111F221F331F0A94D2F760E075
:100E400070E0CB01D4FF0FC06FE070E080E090E075
:100E500004C0660F771F881F991F4A95D2F76095C7
:100E6000709580959095C695C695C370602B712B33
:100E7000822B932BC23049F058F4C13019F00E94F4
:100E80006809DACE0E945509D7CE0E947B09D4CEDC
:100E90000E94C408D1CECF70112329F08C2F0E945C
:100EA000ED088D2FF1CE8D2F0E9481058C2F0E9491
:100EB0000F09C2CED23F51F160F4D03FB9F0D13F1B
:100EC00081F0112309F45AC0F11072CE8C2F8F716A
:100ED00021C0D33F11F1D43FA1F78091900282FD50
:100EE00026C08C2F8F71112311F314C0112349F0E8
:100EF00094E09F1508F4A0CE8C2F8F710E943309C7
:100F00009BCEE5E0EF1508F497CEF6CF8C2F8F71CE
:100F10001111CDCF0E94ED088FCE112329F08C2F17
:100F20008F710E94D70888CE0E94D10885CE1123E8
:100F3000C1F00E94600D843041F40E944A0E8C2F53
:100F40008F710E940F09E12C77CEF4E0FF15D8F3E2
:100F5000CF718C2F0E94ED0863E08C2F0E942C0E25
:100F6000F2CF24E02F1530F40E944A0E64E08C2F5B
:100F70008F71F4CF81E00E94540EE5CFFF2059F02D
:100F8000D93309F0D1CE3FEF87EE93E03150804066
:100F90009040E1F7C7CE8C2F8F7189CF0F931F93AD
:100FA000CF93DF93EC01688179818A810E944E0A98
:100FB0008C010E948E090E948108B801CE010E9416
:100FC0008805DF91CF911F910F910895CF93DF9303
:100FD000EC018B819C81892B29F08881998189235F
:100FE0008F3F51F4DF91CF910895CE010E94CE073B
:100FF000CE010E946A03F6CFCE010E94EB0381115D
:10100000F4CF0E947A0D882369F38A81882351F3F3
:101010008091900282FFE6CF82E00E94540EE2CFE0
:10102000882321F00E94970D0E94E00D08958823E7
:1010300021F00E949D0D0E94E00D089590E080E057
:101040000E940A1E90E080E00E94201E0E94A40DD3
:101050000E94E00D0E94CC170E94B01708950E94D4
:10106000410D0E941E0808950E94940D0E942F08B1
:10107000089592959F70963091F058F4925F9F700A
:10108000923058F4803F19F030F4883E30F481E01B
:1010900008959A5FF4CF843FD1F380E00895883EAD
:1010A000B0F3813FD1F7F3CFFC01808191810E94A1
:1010B000430A0E9439080895A5E0B0E0E2E6F8E0AE
:1010C0000C94B6262596E2E00C94D226A6E0B0E079
:1010D000ECE6F8E00C94B6262696E2E00C94D226D4
:1010E00008950E94700808950E9471086093DD01C0
:1010F0007093DE018093DF019093E0010E941E084F
:10110000089508950E94740808950F931F93009105
:10111000DD011091DE012091DF013091E001602BB3
:10112000712B822B932B0E9474081F910F910895AD
:101130000F931F930091DD011091DE012091DF01DB
:101140003091E00160237123822393230E9474086D
:101150001F910F9108950F931F930091DD0110913E
:10116000DE012091DF013091E001602771278227A5
:1011700093270E9474081F910F9108950E94700890
:1011800008950E94BE0808950E94C1086093D90185
:101190007093DA018093DB019093DC010E941E08BA
:1011A000089560E070E0CB010E94C40808950F9399
:1011B0001F9341E050E060E070E08A019B0104C0B1
:1011C000000F111F221F331F8A95D2F7C901B801E2
:1011D0000E94C4081F910F9108950F931F9341E03F
:1011E00050E060E070E004C0440F551F661F771F99
:1011F0008A95D2F78091D9019091DA01A091DB0113
:10120000B091DC018A019B01082B192B2A2B3B2B67
:10121000C901B8010E94C4081F910F9108950F934E
:101220001F9341E050E060E070E004C0440F551FA0
:10123000661F771F8A95D2F7CB01BA01609570952A
:10124000809590950091D9011091DA012091DB01F0
:101250003091DC0160237123822393230E94C40810
:101260001F910F9108950F931F9341E050E060E0AC
:1012700070E004C0440F551F661F771F8A95D2F790
:101280008091D9019091DA01A091DB01B091DC014C
:101290008A019B01082719272A273B27C901B80182
:1012A0000E94C4081F910F9108950F931F930091FE
:1012B000D9011091DA012091DB013091DC01602B22
:1012C000712B822B932B0E94C4081F910F910895BC
:1012D0000F931F930091D9011091DA012091DB0146
:1012E0003091DC0160237123822393230E94C40880
:1012F0001F910F9108950F931F930091D9011091A1
:10130000DA012091DB013091DC016027712782270F
:1013100093270E94C4081F910F9108950895262FC6
:10132000277091E001C0990F2A95EAF723E076959E
:1013300067952A95E1F725E0269FF001279FF00D9C
:101340001124E40FF51F50E040E0682F70E0819118
:10135000DF0111979B01042E02C0369527950A9450
:10136000E2F7217021952827292328272C934F5F06
:101370005F4F4530510559F70895A82FA77023E016
:10138000969587952A95E1F725E0289FF001299FFA
:10139000F00D1124E60FF71F50E040E080E02191AE
:1013A00030E00A2E02C0369527950A94E2F72170A4
:1013B0003327042E01C0220F0A94EAF7822B4F5FD5
:1013C0005F4F4530510559F70895262F983070F436
:1013D000853060F4682F70E085E0989F600D711D86
:1013E000112440EC51E0822F0E948F090895292F8B
:1013F000983068F4853058F490E060EC71E035E0A6
:10140000239F800D911D11240E94BD09089580E045
:101410000895B0E0A0E0EFE0FAE00C94AF268C0174
:10142000C090D901D090DA01E090DB01F090DC01AE
:101430008091DD019091DE01A091DF01B091E0018A
:10144000C82AD92AEA2AFB2ACFE1D0E0BC2ED7014C
:10145000C6010C2E04C0B695A795979587950A945A
:10146000D2F780FD09C0219788F7B12C8B2DCDB71D
:10147000DEB7E9E00C94CB26B8018C2F0E942B112B
:10148000019789F3F3CFCF93DF93EC010E94090A10
:10149000BE010E942B11DF91CF9108951F93CF932E
:1014A000DF93EB019091BF01992339F0CB010E94AA
:1014B000430ADF91CF911F910895882369F0CB01F2
:1014C0000E94090A182F682FCE010E94E509BE016B
:1014D000812F0E942B11EDCFCB010E94F709182F0D
:1014E000F6CF1F93CF93DF93C091E10116E0809177
:1014F000E2018C1304C0DF91CF911F910895D0E0D9
:101500001C9FF0011D9FF00D1124ED51FE4F4081F5
:10151000518162817381848195810E946608219640
:10152000C770E5CF409113025091140260911502EB
:101530007091160280911702909118020E9466081D
:1015400008952091E1019091E20156E0291302C033
:1015500080E0089530E0529FF001539FF00D112478
:10156000ED51FE4F7181761306C07081781303C070
:101570007281741304C02F5F3F4F2770E7CF81E063
:1015800008951F93CF93DF9380911802807F09F015
:1015900049C080911502882309F444C08091E1017B
:1015A000C091E2016091130270911402A0911602A1
:1015B000B0911702D62FD72316E0C81799F190E003
:1015C000109711F0DF3F19F401968770F6CF189F3E
:1015D0009001199F300D1124F901ED51FE4F418109
:1015E0004713F2CF40814613EFCF42814111ECCF38
:1015F000438154814A1B5B0B483C510528F780917D
:1016000018028F70806180931802F901E851FE4F33
:1016100080818F708061808383E192E00E94E60781
:101620000E94710ADF91CF911F910895A1E1B0E06E
:10163000ECE1FBE00C94AC268C0185E0F801DE01C6
:101640001D9601900D928A95E1F7D8011296EC90C3
:10165000129783E1A82E82E0B82E40911602509195
:1016600017024115510509F44EC1909113022091C2
:101670001402892F82238F3F09F445C1CC90119623
:10168000DC90119713968D909C901497F090150212
:10169000F401E41BF50BFF2009F405C18091180249
:1016A000382F307FE83CF10508F0BFC031117BC016
:1016B000FE2C2D1117C09C1115C0E11013C08F70A6
:1016C0008061809318020E94920AC5010E94E60779
:1016D00080911802D80115968C938F2D6196ECE0BD
:1016E0000C94C8268114910429F08D2D8C218F3FF4
:1016F00009F025C180E080FF15C04E2D6D2D8C2D89
:101700000E94A10A882371F083E192E00E94E6071B
:1017100086E0E3E1F2E0DF011D928A95E9F70E949D
:10172000920A3FC08114910429F08D2D8C218F3FA6
:1017300009F002C180E0B82FB170AB2E80FF29C044
:101740004E2D6D2D8C2D0E94A10AB82E811121C025
:10175000CD86DE868D859E850E94430A292F22959F
:101760002F70223050F0243078F49F7051F0F8013F
:101770009581907F31F4FB2CB0CF9F7011F08823BE
:10178000D1F3805E8830B8F3C8010E94E607BA2C16
:10179000F2CFEE2009F4A1CF8091180281608093EE
:1017A0001802F12C9ACF2D1114C09C1112C0E11017
:1017B00010C015968C93C8010E94E60786E0F801D8
:1017C000A3E1B2E001900D928A95E1F70E94920A9E
:1017D00084CFC8010E945408882319F1EE2009F132
:1017E00080911802803270F020911302309114021F
:1017F00038872F8319869B868A868C87CE01079629
:101800000E94E60786E0F801A3E1B2E001900D92A4
:101810008A95E1F70E94C10A0E94920AFF24F3947C
:101820005CCFC8010E94E607F9CF311112C0782DB4
:10183000998A888AA6016E2D89890E945C0883E1B5
:1018400092E00E94E60786E0F50111928A95E9F799
:1018500066CF2D110FC09C110DC0E1100BC0159665
:101860008C93C8010E94E60786E0F50111928A95E3
:10187000E9F733CFC8010E945408882391F2EE2083
:1018800081F280911802803208F4BCCF20911302BB
:10189000309114023A8329831B829D828C828E832D
:1018A000CE010196ADCFE83CF105F8F4FE2CEE2018
:1018B00009F4B7CF2D110BC09C1109C086E0F801C7
:1018C000A3E1B2E001900D928A95E1F706CFC8013D
:1018D0000E945408811196CF8091180281608093F4
:1018E0001802C8010E94E607F8CE782D998A888AE6
:1018F000A6016E2D89890E945C0886E0D5011D92A3
:101900008A95E9F763CFEE2009F48BCFC8010E94D6
:101910005408F82E882309F484CF86E0F801A3E167
:10192000B2E001900D928A95E1F783E192E00E9486
:10193000D5040E94C10A4ACF81E08E25FCCE81E009
:101940008E25D9CEACE0B0E0E8EAFCE00C94B526F8
:101950004F83588769877A878B879C87CE01079644
:101960000E94160B882369F08A859B85892B39F0A4
:101970004F815885842F85238F3F09F06BC016E077
:101980005FC086E0FE013796DE01119601900D9250
:101990008A95E1F78A859B85892B89F38F819885C4
:1019A00089238F3F61F32091E20130E0C901019664
:1019B000877099274091E1014817190671F40E9438
:1019C00034081092E2011092E10186E0E3E1F2E0D6
:1019D000DF011D928A95E9F7D2CF96E0929FD00160
:1019E000939FB00D1124AD51BE4FFE013196019071
:1019F0000D929A95E1F78093E2010E94710ABFCFA0
:101A0000819FC00111248D519E4F0E94160B882387
:101A1000E9F0E091E1011E9FF0011124ED51FE4F2C
:101A20004081518162817381848195810E94660821
:101A30008091E10190E00196877099278093E10100
:101A40008091E1019091E2018913DACF2C96E3E0D5
:101A50000C94D12669857A858B859C850E946608C1
:101A60008ECF682F80910001909101010E947E1E0F
:101A70000895682F80910001909101010E94811EBC
:101A8000089580910001909101010E94841E0895A3
:101A90008091260208950E943A1F209124023091DD
:101AA0002502821B930B9C0181E02838334108F406
:101AB00080E0089580912302859585958595089508
:101AC00080912302877008950E943A1F209121027D
:101AD00030912202821B930B8838934148F0809109
:101AE000230282FB882780F991E08927817008957D
:101AF00080E0FCCF90912302977081E009F480E0B0
:101B0000089580913102089590913102892B80933C
:101B1000310208958095909131029823909331027B
:101B200008958093310208951092310208959091A2
:101B30003002892B80933002089580959091300275
:101B40009823909330020895109230020895809166
:101B50002702089508950E94AA0D089590912602E3
:101B6000981721F0809326020E94AB0D08950895E6
:101B70000E94B70D0895CF93C82F8091900282FFE5
:101B80000FC0809127028C1759F00E943A1F909342
:101B9000250280932402C09327028C2F0E94B80D47
:101BA000CF91089580912702882349F0109227024F
:101BB000109225021092240280E00E94B80D089530
:101BC000CF93DF93E0910001F09101018091310208
:101BD0008083E0910001F0910101808190913002B9
:101BE000892B8083809127028823B9F00E944B0DB6
:101BF00081110E94D20DE0910001F09101018081DC
:101C000090912702892B808380910001909101019E
:101C10000E94361E81110E94D20DC0910001D09108
:101C2000010148E050E069E172E0CE010E94F12636
:101C3000892B59F088E0FE01A9E1B2E001900D92F4
:101C40008A95E1F7CE010E94F11DDF91CF910895B1
:101C500008950E94280E08959091900292FF17C057
:101C600098E0899F90011124622B609323020E94C7
:101C7000ED080E943A1F90932202809321028091E6
:101C800023028595859585950E94290E08950E94C9
:101C9000ED08089510922302109222021092210260
:101CA00080E00E94290E0895909123028095892357
:101CB00080932302282F277091F4282F082E000CE0
:101CC000330B9217130659F09091900292FF07C0C0
:101CD0008595859585950E940F090E944A0E089565
:101CE0009091900292FB222720F9281769F080FB3F
:101CF00092F99093900280918F02909190020E94AD
:101D0000C10E82E00E94540E08958091900282FBE1
:101D1000882780F991E089270E94700E089581E05C
:101D20000E94700E089580E00E94700E08956FEF7B
:101D30007FEF90E080E00E943327089590E080E0FC
:101D40000E940F2721E0883E9E4F09F020E0822F5D
:101D5000089582E090E00E940727089583E090E0D4
:101D60000E9407270895CF9384E090E00E94072700
:101D7000C82F82E290E00E940727982F8C2FCF91E6
:101D80000895CF93C92F682F84E090E00E94152713
:101D90006C2F82E290E00E941527CF910895AB014D
:101DA000BC018FE090E00E9427270895AB01BC01A1
:101DB00083E190E00E942727089560E070E0CB0166
:101DC0000E94D60E089560E070E0CB010E94CF0E15
:101DD0000E94DD0E089568EE7EEF90E080E00E94A4
:101DE000332760E082E090E00E94152760E083E006
:101DF00090E00E9415271092DD011092DE011092F2
:101E0000DF011092E00160E084E090E00E9415277D
:101E100064E082E290E00E94152760E085E090E0B7
:101E20000E94152760E086E090E00E9415276FEF82
:101E300087E090E00E94152740E050E0BA0188E07A
:101E400090E00E94272760E08DE090E00E94152737
:101E500040E050E0BA0188E190E00E94272760E06E
:101E600087E190E00E94152740E050E0BA018CE144
:101E700090E00E94272770E060E080E290E00E94FE
:101E8000332740E050E0BA0188E190E00E94272724
:101E90000E94E30E08950E94EB0E08958EE090E0FC
:101EA0000E94072791E0811101C090E0892F0895D9
:101EB000682F8EE090E00E94152708950E94461F2B
:101EC00060933E0270933F028093400290934102E0
:101ED00060933A0270933B0280933C0290933D02E0
:101EE0000895089508950E94720F089508950E941C
:101EF000760F08958AE492E10E94D01D0E94710F2E
:101F00000E94730F08950E9438140895089508954B
:101F10000E94860F0E94870F08950E9473120E94EC
:101F200072040E942C1908950E94311F0E940A1207
:101F30000E9450140E9468130E948D0F0E94EA189C
:101F40000E945A140E94770F0895AAE0B0E0EBEACD
:101F5000FFE00C94AD260E94BC13C82E81110E9494
:101F60005E0F82E3A82E82E0B82E10E000E0902EF3
:101F7000802F0E94A012E82EF501F1905F01F81663
:101F8000B9F18091420281FD0E94A6128F2D8E250B
:101F9000D12CFF24F394982F9F2129F10E94830FC5
:101FA000882399F0DE829F82EF2081E009F480E0AF
:101FB00088870E943A1F8160782F9A8789874E818F
:101FC0005F8168858A850E949004F801EE5CFD4F70
:101FD0008081F826F08281E0C11001C080E02A965D
:101FE000EBE00C94C926D394FF0CF5E0DF12D3CFBD
:101FF0000F5F1F4F0830110509F0B9CF8FEF8983AC
:102000008A831B820E943A1F8160782F9D838C8374
:1020100049815A816B818D810E949004DCCF0E949E
:10202000A50F0E9438140E94EE170E94850408959F
:10203000CF93DF930E943011EC01811521E59207C7
:1020400008F042C0811530E5930708F09DC0883E36
:10205000910530F5803E910508F092C0883A9105CF
:1020600088F4853A910508F084C08130910509F41F
:1020700087C0009709F484C0049708F081C0D0E0BD
:10208000C0E07EC08F3B9105D0F7C85AD0E0CC0F9E
:10209000DD1FC757DE4F0990D881C02DD46470C0B2
:1020A0008115904250F4C11581E0D80708F068C04E
:1020B000CD3ED10520F3D06563C0C11590E4D907AA
:1020C000F0F2DF70D06A5CC0811525E5920700F55B
:1020D000811534E5930708F08BC0811543E594071B
:1020E00008F073C0C11582E5D80708F469C0CE01B5
:1020F0008370992721E030E002C0220F331F8A95B8
:10210000E2F7C695C69580E2C89FE001112454C04D
:10211000C11599E5D907A8F4C11528E5D20708F03B
:102120006CC0C11536E5D30708F0A9CF8C2F0E94EB
:10213000C711C82FD0E0DC2FCC27CC27DF71D062AD
:102140001FC0C1154AE5D40708F45CC0CE01905603
:102150008115904208F093CF8D2F8F710E94C71187
:1021600090E0982F882788279F719C012C2BE901EC
:10217000E6CFC55AD0E0C954DE4FC881D0E0D06464
:10218000CE01DF91CF910895E4E096958795EA9589
:10219000E1F783702C2F26952695237040E2249F2B
:1021A00090011124382B8C2F8370C1E0D0E002C045
:1021B000CC0FDD1F8A95E2F7C22BD32BDC68E0CF72
:1021C000DC2FCC27C16FD06ADBCF8370992721E049
:1021D00030E002C0220F331F8A95E2F7C695C695FC
:1021E00090E2C99FE0011124C22BD32BDA68C8CF3B
:1021F000D82FCC27C46FD06AC3CFDC2FCC27C06FB9
:10220000D06ABECF8C2F8F700E94C71134E0D69554
:10221000C7953A95E1F7CF709C2FEC01D069B0CF0C
:10222000972F7830A8F4653098F470E025E0929FFD
:10223000600D711D1124FB0198E2899FE00DF11DD5
:102240001124EE0FFF1FE455FF4F859194910895DF
:1022500080E090E008950E9410110E9418100895E7
:1022600082389105B1F1B0F48133910509F475C05C
:1022700048F48932910509F469C08A32910509F45C
:1022800073C008958533910509F459C089339105C8
:1022900001F10895833E9105A9F138F4803E91053E
:1022A000F9F0823E910549F10895863E9105A9F124
:1022B000873E9105C9F1843E910519F52091900260
:1022C00021FF1FC080918F0284FD14C087EE90E033
:1022D000089520918F022370A1F080EE90E0089580
:1022E00020918F0220FD47C03091900230FF09C03D
:1022F00024FF44C090E080E004C020918F0222FDC2
:10230000F7CF089520918F0222FD3BC030919002BB
:1023100030FDE3CF24FFF5CFEDCF20918F0223FFD7
:10232000F0CF24FDE7CFD2CF20918F0223FD2CC028
:102330003091900231FFEECF84EE90E0089520912D
:102340008F0225FFDECF89E290E0089520918F0271
:1023500025FFD7CF85E390E0089520918F0226FFD7
:10236000D0CF8AE290E0089520918F0226FFC9CF56
:1023700081E390E0089589E390E0089583EE90E092
:10238000089582EE90E0089586EE90E00895909191
:102390008F0292FF06C0282F28712830F9F4877F1A
:1023A000846093FF06C0282F28712831F1F4877EBE
:1023B00084612091900220FF06C0382F3871383098
:1023C000D9F4877F816021FF06C0282F287128312A
:1023D000D1F4877E816194FD877E0895282F247132
:1023E0002430F9F68B7F8860DCCF282F24712431CC
:1023F00001F78B7E8861DDCF382F3171313019F7CD
:102400008E7F8860E0CF282F2171213121F78E7EC9
:102410008861E1CF10928B0210928C0210928D0293
:1024200010928E020895CF92DF92EF92FF926B018D
:102430007C010E94381481110EC00E94461FC61AEA
:10244000D70AE80AF90AC0928B02D0928C02E09275
:102450008D02F0928E02FF90EF90DF90CF90089562
:102460000F931F930E943814882329F00E94461F5F
:102470001F910F9108950E94461F00918B021091A9
:102480008C0220918D0230918E02600F711F821F8D
:10249000931FEECF80E008950E94970E0895CF938A
:1024A0000E94BC138FE39CE90197F1F700C0000084
:1024B0000E94BC130E943514C4E08111C0E08C2F2F
:1024C0000E94A01290E002C095958795CA95E2F708
:1024D00080FF04C00E944C120E94A11FCF9108955A
:1024E0000E944F1208950E949E0E811102C00E9408
:1024F0004B0F0E94A90E809342020E94B30E90934C
:10250000900280938F020E9470120E94AE0E682F7C
:1025100070E090E080E00E9482086091D9017091A3
:10252000DA018091DB019091DC010E94C1080895DD
:1025300008950E949812089508950E949C1208958B
:10254000E82FF0E0E656FD4F808108950895089544
:102550000E94A7120895EF92FF921F93CF93DF93EB
:1025600000D000D0CDB7DEB70E943814182F60918C
:10257000A202882309F447C019821A821B821C8296
:10258000862F90E09E012F5F3F4F7901B90186565B
:102590009D4F0E9468148823E9F08091910290E099
:1025A00044E050E0B70186569D4F0E94F12621E09D
:1025B00020934302892BC9F410E00E947903812FF4
:1025C0000F900F900F900F90DF91CF911F91FF9080
:1025D000EF90089580914302882371F384E0F7011E
:1025E00011928A95E9F710924302E0919102F0E08E
:1025F000E656FD4F89819A81AB81BC8180839183AE
:10260000A283B383DACF70E066567D4F809191024A
:1026100090E086569D4F0E94EF140E94A812CFCFE3
:102620001F93CF93DF9322E031E0C1E0D0E0D901E6
:1026300050E040E08D918F3F91F0E82FE295EF70F0
:10264000F0E011A18F70BE0101C0660F8A95EAF714
:10265000962F9095912391A382A1862B82A34F5F01
:102660005F4F4530510531F72B5F3F4F81E02631F9
:102670003807E9F6DF91CF911F910895CF93DF934B
:10268000AC01A62FB0E085E0689FF0011124EE5F59
:10269000FE4F75E081E060E091919F3F81F0C92F8E
:1026A000C295CF70D0E028A130E09F7002C0359570
:1026B00027959A95E2F7982F20FD90E0692B880FD7
:1026C000715051F7A40FB51F6C93DF91CF9108950E
:1026D000A4E1B0E0EEE6F3E10C94B6268091160199
:1026E000811126C084E1E4E4F1E0DE01119601905D
:1026F0000D928A95E1F7FE013196A2E0B1E0CE019C
:10270000459620812C93218111962C93119722813B
:1027100012962C931297238113962C93139724814E
:1027200014962C931497359615968E179F0749F794
:102730008091160194E0811190E09093A20284E0D0
:10274000891B809391020E94101388E0EAE9F2E06D
:10275000DF01982F1D929A95E9F7E2E9F2E0DF0197
:102760001D928A95E9F784E00E94FF130E94760388
:102770006496E2E00C94D226A8E0B0E0E2ECF3E14B
:102780000C94B2268E010F5F1F4F88E0F801119262
:102790008A95E9F7F12C6F2DC8010E943E13F3943E
:1027A000F4E0FF12F8CF48E050E0B80182E992E08F
:1027B0000E94F1267C0121E0892B09F420E0E1143C
:1027C000F10441F088E0F801A2E9B2E001900D9235
:1027D0008A95E1F76091A20270E066567D4F44E071
:1027E00082E992E00E94001481E090E0E114F1049B
:1027F00011F40E94AB122896E6E00C94CE260895C0
:10280000FF920F931F93CF93DF93F82E092F162F6C
:10281000D72FC42F222349F081E0809346020E94E3
:102820003A1F909345028093440280914602882388
:10283000A1F080914402909145020E94521F059799
:1028400060F0EF2DF02FA12FBD2FCE0FDF2FD11D68
:10285000EC17FD0739F410924602CDB7DEB7E5E07C
:102860000C94CF2681918D93F3CF0E944E0F089543
:1028700080914902811107C00E947F26882351F070
:1028800081E08093490281E090914902913009F002
:1028900080E0089582E0809349020E947A26F3CF77
:1028A0000E943514809316010E94381481110E94F1
:1028B0009E1408950E943814811102C00E94A11430
:1028C000089581E090914A029A3008F080E00895DE
:1028D0000F931F93CF93DF93EC018B0180914A02FA
:1028E0008A30B8F4B801CE010E94EC14C82F8111CF
:1028F00022C080914A028F3FB9F40E943A1F909300
:102900004802809347028C2FDF91CF911F910F9146
:10291000089580914702909148020E94521F843F7F
:10292000914000F7C0E0EFCF8F5F80934A028A307A
:1029300020F7C1E0E8CF10924A02E5CF0E946E1C5A
:1029400008950E94711C0895B0E0A0E0EAEAF4E165
:102950000C94B1267901C82F880FDD0B4115510564
:10296000A9F0FE0193E0EE0FFF1F9A95E1F7E95EF3
:10297000FE4F81819281855B9D4F208130E042171F
:10298000530708F49A01A9010E94FE26CE010E9475
:102990005A1DD82E8823D1F001151105B9F083E016
:1029A000CC0FDD1F8A95E1F7FE01E95EFE4F438102
:1029B00050E00417150708F4A801C95EDE4F6C81CA
:1029C0007D81655B7D4FC7010E94FE268D2DCDB7B1
:1029D000DEB7E7E00C94CD260E94E61508950E942C
:1029E000FD150895A4E0B0E0E8EFF4E10C94B426FE
:1029F0006091600270916102809162029091630225
:102A00000E94611F11E0643671058105910518F17E
:102A10000E9430126E5F7F4F8F4F9F4F69837A8382
:102A20008B839C8310E000E030E020E044E050E045
:102A3000BE016F5F7F4F82E00E94A414182F88238D
:102A400051F00E94461F6093600270936102809370
:102A5000620290936302812F2496E4E00C94D026C6
:102A6000B0E0A0E0E6E3F5E10C94AE267C015B016A
:102A70006A010E94611401E010E0882311F00AE06D
:102A800010E0C1E0D0E0B501C701F6010995811160
:102A900004C021960C171D072CF4CDB7DEB7EAE071
:102AA0000C94CA26CC9F9001CD9F300D300D11247F
:102AB00090E080E045E34A95F1F700000196821727
:102AC0009307C1F7E0CFA5E0B0E0E9E6F5E10C94AB
:102AD000AE265B01E090BA01F090BB0101E010E08E
:102AE0009E012B5F3F4F50E040E070E060E080E0EF
:102AF0000E94A414182F882309F44BC067018FEF9C
:102B0000C81AD80A60915C0270915D0280915E02E1
:102B100090915F020E94611F6436710581059105E5
:102B200080F104E010E09E012F5F3F4F50E040E055
:102B300070E060E081E00E94A414F82E64E070E090
:102B4000C6010E94EB1811E09D81981310E01F212F
:102B500059F10E94461F60935C0270935D0280935E
:102B60005E0290935F0289819A81AB81BC818093E0
:102B7000580290935902A0935A02B0935B0211E05D
:102B800013C064E070E0C6010E94EB189D818913B8
:102B9000C8CFF70181819281A381B48189839A830F
:102BA000AB83BC831111DFCF809158029091590201
:102BB000A0915A02B0915B02F50180839183A283B8
:102BC000B383812F2596EAE00C94CA260F931F93B6
:102BD000CF93DF93EC018B0143E655E10E94301562
:102BE000882331F042EF54E1B801CE010E94301544
:102BF000DF91CF911F910F9108950F931F93CF9362
:102C0000DF93C091BA01D091BB01CE01019624E0BF
:102C1000FB01DC0101900D922A95E1F764E070E080
:102C20000E94EB1888836D817E818F819885009149
:102C300054021091550220915602309157026017AC
:102C400071078207930751F0609354027093550205
:102C500080935602909357020E941312DF91CF91F6
:102C60001F910F9108950E9455210E94940F0E9478
:102C7000622108950E9467210E940F100E94812105
:102C800008950E94D31E0E943B210E947A0F0E9449
:102C900033160E943A160E94880FFBCF80916A0279
:102CA00080FF0DC06091340170E0660F771F6038BF
:102CB000710570F56115710569F1862F089581FF21
:102CC00007C06091340184E0689FB0011124EFCF08
:102CD0006091340182FD0AC0809169028823A9F0C5
:102CE0002091330160913401821710F088E0ECCF1D
:102CF000869FC001112433E0880F991F3A95E1F7B0
:102D0000622F70E00E948C26D2CF68E070E0D5CFB1
:102D10008FE7089581E0089580916A0280FF0CC0DA
:102D20006091300170E075956795759567956115AF
:102D3000710549F1862F089581FF06C06091300129
:102D400070E075956795F3CF6091300182FD0BC0FF
:102D5000909168029923A1F060912F018091300138
:102D6000961738F0682F70E06038710500F38FE730
:102D70000895899FC001112470E00E948C26F4CF31
:102D800061E070E0D7CF81E008958D3E31F40E947C
:102D90004E16819580936E0208958E3E19F40E941E
:102DA0004E16F8CF8F3E31F40E944E1681958093D7
:102DB0006D020895803F19F40E944E16F8CF893FA6
:102DC00029F40E948C1680936F0208958A3F21F4A3
:102DD0000E948C168195F7CF8B3F31F40E948C16A0
:102DE00081958093700208958C3F19F40E948C168F
:102DF000F8CF813F31F480916C02816080936C0246
:102E00000895823F21F480916C028260F7CF833F66
:102E100021F480916C028460F1CF843F21F4809191
:102E20006C028860EBCF853F21F480916C02806159
:102E3000E5CF8D3F31F480916A02816080936A0210
:102E400008958E3F21F480916A028260F7CF8F3F10
:102E5000B9F780916A028460F1CF90916D028D3E46
:102E600059F480916E0287FF0DC010926E0291118D
:102E70000BC01092690208C08E3E81F480916E02F0
:102E800018169CF3992381F080916F029091700243
:102E9000892B09F064C01092680208958F3E49F4AE
:102EA00097FFF0CF10926D0280916E028111ECCFEE
:102EB000E0CF803F19F41916ACF3E4CF20916F02F4
:102EC000893F29F41216F4F610926F02DBCF8A3F85
:102ED00019F427FFD7CFF8CF209170028B3F29F448
:102EE00027FFD0CF10927002CDCF8C3F19F412166D
:102EF000CCF3C8CF813F31F480916C028E7F8093F8
:102F00006C02C0CF823F21F480916C028D7FF7CF9D
:102F1000833F21F480916C028B7FF1CF843F21F4B9
:102F200080916C02877FEBCF853F21F480916C020A
:102F30008F7EE5CF8D3F31F480916A028E7F809342
:102F40006A02A0CF8E3F21F480916A028D7FF7CF75
:102F50008F3F09F097CF80916A028B7FF0CF089561
:102F60000E943A1F9C0190916D0280916E02982BF5
:102F700021F0309367022093660290916F02809156
:102F80007002982B21F030936502209364028BE647
:102F900092E00E94FC1D089586E0EBE6F2E0DF017E
:102FA0001D928A95E9F710926902109268021092B8
:102FB0006A020895FC01828181110EC08381811112
:102FC0000BC08481811108C091E08581811101C00D
:102FD00090E0892F8170089581E0FCCFA6E0B0E0F9
:102FE000E4EFF7E10C94B52686E0EBE6F2E0DE01D3
:102FF000119601900D928A95E1F710926D02109250
:103000006E0210926F02109270028B819C81892B4C
:1030100089F080916602909167020E94521FAC0174
:10302000909169029923C9F18091350184171506A1
:1030300008F440C08D819E81892B91F080916402BB
:10304000909165020E94521FAC01909168029923F1
:1030500009F471C0809131018417150608F479C014
:10306000BE016F5F7F4F8BE692E00E948B1E811145
:1030700005C08BE692E00E94DA1781110E94B0171A
:1030800086E0FE013196ABE6B2E001900D928A95A2
:10309000E1F72696E3E00C94D126209136018AE0F0
:1030A000289F900111242417350720F69F5F9093E5
:1030B000690202C09F3FD1F71B81112359F00E9482
:1030C0004E169FEF11160CF491E0899F802D11246C
:1030D00080936D021C81112359F00E944E169FEFC0
:1030E00011160CF491E0899F802D112480936E02BB
:1030F00030916D02332309F49DCF20916E0222237B
:1031000009F498CF45EB3403C0011124992359F0F9
:1031100090936D0245EB240390011124332339F081
:1031200030936E0287CF81E080936D02F3CF81E010
:1031300080936E027FCF209132018AE0289F900118
:1031400011242417350708F08BCF9F5F90936802F6
:1031500002C09F3FD1F71D81112359F00E948C16A8
:103160009FEF11160CF491E0899F802D112480931C
:103170006F021E81112359F00E948C169FEF1116C9
:103180000CF491E0899F802D11248093700230917E
:103190006F02332309F464CF20917002222309F4D3
:1031A0005FCF45EB3403C0011124992359F090936C
:1031B0006F0245EB240390011124332339F030933F
:1031C00070024ECF81E080936F02F3CF81E0809355
:1031D000700246CF0895FC01680F791F8FEF91E3CD
:1031E0006E177F0709F408952191822728E030E0C7
:1031F00087FF06C0880F892721503109C9F7F0CF12
:10320000880FFACFCF93DF93EC0197FF0CC0FB013F
:103210008281882341F00E944319CE019F770E944A
:10322000BD190E94941981E0DF91CF91089590918A
:10323000A402923071F48A3050F490E009966AE06A
:1032400070E00E948C26875A0E947105089586506E
:10325000FBCF0E945E0408958CE090E00E94072757
:1032600090E0B0E0A0E08093A4029093A502A09328
:10327000A602B093A70208956091A4028CE090E0AA
:103280000E94152708950E94EE1D869581708093F7
:10329000A9020E94EE1D81708093A3028091A40276
:1032A000813039F48091A902882319F089E30E94C2
:1032B00071050E94810D8093A8020E94940D0E94C6
:1032C000A40D8091A402813089F0882359F08230C6
:1032D00091F0843021F18FE39CE90197F1F700C070
:1032E0000000089582EE0E94DB04F5CF88E193E0B0
:1032F0000E941003F0CF8091A302811103C083E5E7
:103300000E94710582EE0E94DB048FE39CE9019725
:10331000F1F700C0000087E50E947105DCCF86EE62
:103320000E94710588E1F8CF8091A402813079F084
:10333000882349F08230B1F08430E9F08091A8020E
:103340000E94910D089582EE0E942705F7CF8CE22E
:103350000E9471058091A902882381F389E30E946C
:103360007105ECCF82EE0E9427058091A3028111A6
:10337000E5CF83E5F4CF88E2F2CF0F931F93CF938D
:10338000DF938C01CCE0D0E0C8010C2E02C09695F2
:1033900087950A94E2F78F700E9417192497CC3F03
:1033A0008FEFD80789F7DF91CF911F910F91089583
:1033B0000F931F93CF93DF93EC018B01FB0182816D
:1033C000882361F00E94810DCE01825E9C4585308C
:1033D000910520F48093A4020E943C19B801CE010B
:1033E0000E940219DF91CF911F910F910895CF9301
:1033F000DF93EC01FB018281882309F433C1C430DF
:10340000FDE5DF07C0F5CB3F9CE5D90730F49E0111
:1034100022503C4524313105B0F50E94B30E909303
:10342000900280938F02C1318CE5D80709F4EEC079
:1034300008F069C0C930ECE5DE0709F4D5C0C8F56D
:10344000C5308CE5D80709F4C7C000F5C330ECE5FA
:10345000DE0709F4B9C008F0BBC0C230DC4509F48E
:10346000ADC080918F02909190020E94C10E0E9487
:10347000340880E008C0C236EDE5DE0771F2C63AD6
:10348000FDE5DF0751F2DF91CF91089580918F0222
:103490008062C7309CE5D90709F493C080918F0200
:1034A0008061C830DC4508F48CC080918F02806454
:1034B00088C080918F028B7FCD30FCE5DF0709F457
:1034C00080C098F480918F028E7FCB309CE5D90725
:1034D00009F477C080918F028C60CC30DC4508F411
:1034E00070C080918F028D7F6CC080918F028F7E23
:1034F000CF30FCE5DF0709F464C008F47BC080919D
:103500008F028F7D5EC0CE3F9CE5D90709F47AC05B
:1035100050F5C531FCE5DF0709F486C098F48091C9
:103520008F02837FC3319CE5D90709F44AC008F4B0
:1035300071C00E94340890918F02892F97FB87F900
:1035400080583FC0CC3FFCE5DF0709F449C008F0D4
:1035500055C0809190028160CB3FDC4509F081CF5E
:10356000809390027ECFC230EDE5DE0709F468C09B
:10357000A8F4C1158DE5D80709F452C080919002D6
:103580008360C130DD4560F380919002982F909563
:1035900091708E7F892B90FB81F9E2CFC236EDE5E9
:1035A000DE0709F451C0C63AFDE5DF0709F453C050
:1035B000C330DD4509F055CF80E043C080918F02D4
:1035C000816080938F024DCF80918F028260F9CF0E
:1035D00080918F028460F5CF80918F028860F1CF57
:1035E000809190028260BCCF0E94340880918F024B
:1035F0008068E7CF80918F02877FE3CF8091900230
:103600008E7FAECF809190028D7FAACF80918F0266
:103610008F7BD7CF0E94340880918F028F77D1CFD4
:10362000809190028C7F9CCF80918F0282FB9927A2
:1036300090F921E0922790FB82F990FB83F9C1CFAA
:1036400081E00E94580F0DCF90918F02892F8F7EBD
:1036500094FF8061B6CF90918F02892F8E7F90FF6B
:103660008160AFCF81E00FCFCF93DF93EB01863145
:103670009C4511F50E94810D9A81992399F08A7ACF
:1036800091E009F490E090937102811109C089E200
:103690000E94310D0E94E00D80E0DF91CF910895EE
:1036A00085E3F6CF80917102811104C089E20E9406
:1036B000390DF0CF85E3FBCF81E0EFCF0F931F9360
:1036C000CF93DF93C42FD22FFC0182818823C9F0CE
:1036D000409374020E943A1F909373028093720287
:1036E00080E28C0F883040F4C77081E001C0880F01
:1036F000CA95EAF70E947A05DF91CF911F910F9149
:10370000089510917402141332C080917202909146
:1037100073020E94521F883C910548F5C0E2CD0F0C
:103720001D17B9F080E2810F883040F4177081E0F6
:1037300001C0880F1A95EAF70E948105C83048F445
:1037400081E09D2F977001C0880F9A95EAF70E943B
:103750007A05802F0E947105C83070F6D77081E01D
:1037600001C0880FDA95EAF70E948105C5CF80E293
:103770008C0F883008F6C77081E001C0880FCA95A9
:10378000EAF7F2CF0F939C01CB01243F4CE53407BD
:1037900059F1A8F4293DFCE53F0701F12A3D4CE52C
:1037A0003407D1F1283D3C4591F406E221EE41EE8B
:1037B00068ED7CE50E945E1B80E00F910895263F36
:1037C000FCE53F07E9F0B0F0273F3C45F9F0FC018C
:1037D0008281882339F110927402EFCF07E225EE3F
:1037E00045EE69ED7CE5E6CF06E221EE40EE64EFC2
:1037F0007CE5E0CF07E225EE44EE65EF7CE5DACF2D
:1038000006E221EE42EE66EF7CE5D4CF07E225EE3C
:1038100046EE67EF7CE5CECF08E221E045EE6AEDAB
:103820007CE5C8CF81E0C9CF8EE14A9B02C08150C0
:10383000E1F74A9BFECF08955A9880E28A95F1F706
:103840005A9A0895FC013BE03A95F1F798E020E0A0
:1038500080E031E040E14A95F1F7880F4A9B02C0D1
:103860008160232742E04A95F1F7000040E14A9544
:10387000F1F7915079F790E19A95F1F799B132E02B
:103880003A95F1F7000040E14A95F1F792FB99274C
:1038900090F992272081920F90830895A1E0B0E0E3
:1038A000E4E5FCE10C94B22619828C017C01E60E61
:1038B000F11C0E151F0541F481E09981911180E002
:1038C0002196E6E00C94CE260E94141CCE010196AF
:1038D0000E94221CF80181938F01EBCF529A5A9AD1
:1038E000089552985A9AEA9AE9E6F0E080818F7C2E
:1038F000808308956150770B91E001C0990F6A951C
:10390000EAF720E031E0911108C0222391F05A9AA1
:1039100080E28A95F1F75A980895492F482339F0A3
:103920005A9A232740E24A95F1F79695ECCF5A9898
:10393000F9CF5A98EDCFFF920F931F93CF93DF9358
:10394000EC018C01060F111DC017D10729F4CDB76A
:10395000DEB7E5E00C94CF26F9900E941C1C68E0CD
:103960008F2D0E947A1CF0CF1F920F920FB60F92EC
:1039700011240F931F932F933F934F935F936F9354
:103980007F938F939F93AF93BF93EF93FF93CF93C7
:10399000DF930F92CDB7DEB719820E94141CCE01BF
:1039A00001960E94221C082F069506950695282F41
:1039B00022952570902F9570290F922F9370269540
:1039C0002695920F982797708981982B09F05CC0F3
:1039D000043008F059C080E18A95F1F75A9A529A5A
:1039E00082E08A95F1F700C05A9888E0089F80012C
:1039F0001124D801A95EBE4F1696ED91FC91179740
:103A00003097A9F06091BA017091BB0114962D9185
:103A10003C911597260F371F11968D919C91129707
:103A2000680F791F13964C9113978C910995F801A3
:103A3000E95EFE4F6381662351F02091BA01309117
:103A4000BB0184819581820F931F0E949B1C0E9461
:103A50001C1C80E18A95F1F75A9852985A9A80E195
:103A60008A95F1F7F801E95EFE4F6081662351F017
:103A70002091BA013091BB0181819281820F931F05
:103A80000E944E1C0E94141C0F90DF91CF91FF9159
:103A9000EF91BF91AF919F918F917F916F915F91C6
:103AA0004F913F912F911F910F910F900FBE0F904B
:103AB0001F9018950F931F93CF93DF93EC010497FA
:103AC0000CF04CC0F894529A5A9885E08A95F1F718
:103AD00000009C2F969595708C2F8570980F892FDC
:103AE00083709695969523E0CC0FDD1F2A95E1F71C
:103AF000980F8E01092B0E941C1C00C068E0802FCB
:103B00000E947A1C80E18A95F1F752985A9A4A9B52
:103B10001EC087E090E04A991CC0FE01E95EFE4F9E
:103B200063816623F9F02091BA013091BB01848151
:103B30009581820F931F0E944E1C811113C0529ACF
:103B40005A9A7894DF91CF911F910F91089500C0F8
:103B5000DECF019729F4529A5A9A789480E0F2CFF6
:103B600000C0D9CF0E94141C80E28A95F1F75A98C0
:103B7000529A80E18A95F1F7C95EDE4F688166232B
:103B800051F02091BA013091BB0189819A81820F55
:103B9000931F0E949B1C0E941C1C789481E0D2CF32
:103BA0009093BD018093BC01089590937B02809314
:103BB0007A0208950E943814811103C08091750221
:103BC0000895E0917A02F0917B02309729F00190FC
:103BD000F081E02D0995089580E008950E94DA1D96
:103BE0000895E0917A02F0917B02309721F00280F3
:103BF000F381E02D09950895E0917A02F0917B021E
:103C0000309739F022E0DC012C930480F581E02D1F
:103C10000995089520917802309179022817390783
:103C200071F09093790280937802E0917A02F0919A
:103C30007B02309721F00680F781E02D09950895E9
:103C400020917602309177022817390771F090930E
:103C5000770280937602E0917A02F0917B023097AE
:103C600021F00084F185E02D099508959C012E5FD7
:103C70003F4FAC01485F5F4F80E02417350709F4E0
:103C80000895F90191919F019923B9F38F5FF5CFC1
:103C9000662349F0FC01329608962191261729F0F7
:103CA000E817F907D1F780E0089581E008959C01B5
:103CB000FC0132969FEF80E04191461751F09F3F03
:103CC00019F4411101C0982F8F5F8630A9F79F3FEB
:103CD00009F40895290F311D97FD3A95F901628382
:103CE0000895FC01329608962191261303C0DF0146
:103CF00011971C92E817F907B9F708950E94571E0B
:103D000008950E94711E0895029626E0FC0111920A
:103D10002A95E9F7089546E050E00E94F12621E057
:103D2000892B09F420E0822F089508950E94951EA2
:103D30000895811106C081E080937C020E94961E46
:103D4000089582E0F9CF83E080937C020E94961E62
:103D500008950E94991E089581E080937C020E943C
:103D6000961E08950E94AC1E0895089508950E941D
:103D7000B61E0895089508950E94B51E0895CF9324
:103D80000E94BA1E0E94BC130E94BB1EC0E08C2F72
:103D90000E94A012811105C0CF5FC830C1F7CF913A
:103DA000089581E0FCCF85B7806885BF85B78068BE
:103DB00085BF08951F921FB61F9211248F939F9362
:103DC000AF93BF9380917D02811113C08091AA02AD
:103DD0009091AB02A091AC02B091AD024196A11DB1
:103DE000B11D8093AA029093AB02A093AC02B09352
:103DF000AD02BF91AF919F918F911F901FBE1F90F9
:103E000018958091B202843031F10E94F70310922C
:103E10007D0288E190E020E40FB6F894A8958093A5
:103E200060000FBE2093600083B7817F846083BFF2
:103E300083B7816083BF7894889583B78E7F83BF73
:103E40000FB6F894A8958091600088618093600017
:103E5000109260000FBE08950E9434080E94FC0377
:103E6000089582E084BD93E095BD9AEF97BD80935D
:103E70006E0008952FB7F8948091AA029091AB023A
:103E8000A091AC02B091AD022FBF08952FB7F89466
:103E90006091AA027091AB028091AC029091AD0248
:103EA0002FBF08959C014FB7F8948091AA0290917A
:103EB000AB02A091AC02B091AD024FBF821B930B3D
:103EC0000895CF92DF92EF92FF922FB7F894C090AF
:103ED000AA02D090AB02E090AC02F090AD022FBFEE
:103EE000A7019601261B370B480B590BCA01B901D4
:103EF000FF90EF90DF90CF90089578941F921FB6B7
:103F00001F9211248F939F93AF93BF938091AA0226
:103F10009091AB02A091AC02B091AD020196A11DAF
:103F2000B11D8093AA029093AB02A093AC02B09310
:103F3000AD02BF91AF919F918F911F901FBE1F90B7
:103F4000189587E797E7909301088093000888E128
:103F50009AE00FB6F894A895809360000FBE9093F6
:103F60006000FFCF88E19AE00FB6F894A89580939F
:103F700060000FBE90936000FFCF8091890208958A
:103F800008959C0182E08093E9009FEF8091E80012
:103F9000915085FD06C085ED8A95F1F700009111DD
:103FA000F5CF8091E80085FF0CC050E040E066E06E
:103FB00070E0C9010E94F3218091E8008E77809320
:103FC000E8000895CF93DF93EC0181E08093E9004E
:103FD0008FEF9091E800815095FD06C095ED9A9580
:103FE000F1F700008111F5CF8091E80085FF14C042
:103FF00050E040E068E070E0CE010E94F321809143
:10400000E8008E778093E80088E0FE01A1E8B2E046
:1040100001900D928A95E1F7DF91CF9108958093F9
:104020007E027093800260937F028091B20284309E
:1040300001F582E08093E9008FEF9091E8008150D4
:1040400095FD06C095ED9A95F1F700008111F5CF29
:104050008091E80085FF0DC050E040E063E070E033
:104060008EE792E00E94F3218091E8008E778093A2
:10407000E8000895BC0184E00E940F200895BC016F
:1040800083E00E940F2008958091B102811109C040
:104090000E9483230E94E0238091E2008460809349
:1040A000E20008951092B10208950E94AC1E089596
:1040B0006091AE0281E0611101C080E00E94A31E08
:1040C00008959091B20281E0943009F080E060910F
:1040D000AE020E94A91E089542E061EC81E00E94B8
:1040E000FF2242E261EC82E00E94FF229091B20244
:1040F00081E0943009F080E06091AE020E94991E48
:1041000008958091B402833009F461C030F48130A5
:10411000D1F1823009F49EC008958A3009F48AC032
:104120008B3009F46FC0893009F050C08091B30220
:10413000813209F04BC08091B7029091B80202978A
:1041400008F044C08091E800877F8093E800809168
:10415000E80082FF37C09091F3008091F20002974F
:1041600031F48091F100813011F0863021F480919A
:10417000F100809389028091E8008B778093E800BA
:104180000E94332323C08091B302813AF9F48091D5
:10419000E800877F8093E8008091B7029091B80291
:1041A000892B61F468E081E892E070E00E9442228D
:1041B0008091E8008B778093E800089560E090E0BC
:1041C00080E0F3CF8091B2028111C1CF0895809138
:1041D000B302813AD9F78091B7029091B802892B46
:1041E000A9F78091E800877F8093E8008091E8003C
:1041F00080FFFCCF809143018093F1008091E80023
:104200008E77BCCF8091B302813201F78091B702E3
:104210009091B802892BD1F68091E800877F809336
:10422000E8000E9433238091B502809343010E94ED
:10423000340808958091B302813241F68091E800FC
:10424000877F8093E8000E9433238091B602809399
:104250008A0208958091B302813A09F0B7CF809124
:10426000E800877F8093E8008091E80080FFFCCF22
:1042700080918A02C1CF84B7877F84BF0FB6F8943C
:10428000A895809160008861809360001092600022
:104290000FBE80E890E00FB6F89480936100909391
:1042A00061000FBE0E94B21E08950E9483230E94E7
:1042B000E023E2EEF0E080818460808378940E94C5
:1042C0005F26089587E391E00E94D51D08958091AF
:1042D000B202853031F48091B202853019F00E942B
:1042E0002C1F08950E94011F8091B002882399F32A
:1042F0000E94BF1E882379F30E94DD210E943408AA
:10430000EACF08950E9485210895292F332723306D
:10431000310519F168F42130310509F444C0223027
:10432000310509F445C090E080E030E020E025C090
:104330002132310549F122323105A9F780E490E0BC
:1043400024ED34E061157105C1F081E890E023E5CA
:1043500034E06130710589F0E6CF9927813091050D
:1043600081F0009729F00297F1F6ECEDF3E002C03E
:10437000E2E0F4E0849190E09F01FA013183208330
:104380000895E8EFF3E0F6CF89E090E028E134E02B
:104390006115710591F389E090E021E334E061302B
:1043A000710559F3C0CF82E190E021E434E0E5CF1C
:1043B0008BE390E026E034E0E0CF80E189BD82E14C
:1043C00089BD09B400FEFDCF8091D8008F7D809318
:1043D000D8008091E00082608093E0008091E0004E
:1043E00081FDFCCF0895AF92BF92CF92DF92FF92F2
:1043F0000F931F93CF93DF936C01EB018A010E940F
:104400005223F82E811123C00115110539F0F8014E
:1044100080819181C81BD90BC80ED91EB12CA12C4B
:104420002097A9F08091E80085FD22C08091E800E6
:104430008E778093E80001151105A1F0F8018081C5
:104440009181A80EB91EB182A08285E0F82E8F2D31
:10445000DF91CF911F910F91FF90DF90CF90BF9090
:10446000AF9008950E9452238823D1F2F82EEFCF07
:10447000F60181916F018093F1002197FFEFAF1A50
:10448000BF0ACECFFC018091B9029091BA02861783
:104490009707A0F06115710529F49091E8009E77C7
:1044A0009093E80090E06115710551F4911108C0F6
:1044B0008091E80082FF34C080E00895BC01F2CF13
:1044C0008091B2028823C1F18530C1F18091E8006A
:1044D00083FD30C08091E80082FDEACF8091E80042
:1044E00080FFE1CF8091F3002091F200382F611519
:1044F000710519F02830310558F091E02830310568
:1045000009F090E02091E8002E772093E800CBCFCF
:1045100081918093F100615071092F5F3F4FE7CF88
:104520008091B202882341F0853041F08091E8000B
:1045300083FFBECF81E0089582E0089583E008956F
:10454000FC018091B9029091BA0286179707A0F0FA
:104550006115710529F48091E8008E778093E80059
:1045600090E06115710551F4911108C08091E80047
:1045700082FF35C080E00895BC01F2CF8091B20285
:104580008823C9F18530C9F18091E80083FD31C0ED
:104590008091E80082FDEACF8091E80080FFE1CFC2
:1045A0008091F3002091F200382F6115710519F008
:1045B0002830310558F091E02830310509F090E0BD
:1045C0008091E8008E778093E800CBCF8491809330
:1045D000F1003196615071092F5F3F4FE6CF809116
:1045E000B202882341F0853041F08091E80083FFDA
:1045F000BDCF81E0089582E0089583E00895982F6B
:10460000973028F08F708093E90081E008959093AF
:10461000E900242F762F50E0981731F07091EC00CC
:104620002091ED005091F00021FD02C09F5FE8CF86
:104630003091EB003E7F3093EB003091ED003D7FF9
:104640003093ED003091EB0031603093EB007093CC
:10465000EC002093ED005093F0002091EE0027FD38
:10466000E5CF80E008958091B30287FF13C0809169
:10467000E80082FF06C08091E8008B778093E80015
:1046800004C08091B2028111F2CF08958091B202EC
:104690008823D9F38091E80080FFF8CF8091E8006B
:1046A0008E77ECCF2091E4003091E50095E6A901EA
:1046B0002091EC00822F817020FF06C08091E800DD
:1046C00080FF06C080E008952091E80022FD1AC016
:1046D0008091B202882389F0853089F08091EB00C7
:1046E00085FD0FC02091E4003091E500421753078B
:1046F000F9F29150E1F684E0089582E0089583E0B4
:10470000089581E008950E94F2230E94FA23E0EECA
:10471000F0E0808181608083E8EDF0E080818F7738
:10472000808319BCA7EDB0E08C918E7F8C93808143
:104730008F7E80831092B10208950F931F93CF93C1
:10474000DF930E94F2230E94FA23C8EDD0E0888113
:104750008F77888388818068888388818F7D88832C
:1047600019BC1092B2021092AE021092B0021092D6
:10477000AF0200EE10E0F80180818B7F808388819A
:104780008160888342E060E080E00E94FF22E1EEE9
:10479000F0E080818E7F8083E2EEF0E080818160B6
:1047A0008083808188608083F80180818E7F808310
:1047B000888180618883DF91CF911F910F91089547
:1047C000E8EDF0E080818F7E8083E7EDF0E080818E
:1047D0008160808384E082BF81E08093B1020E9487
:1047E0009D230895E8EDF0E080818E7F8083109214
:1047F000E20008951092DA001092E10008951F92ED
:104800000F920FB60F9211242F933F934F935F9304
:104810006F937F938F939F93AF93BF93EF93FF9388
:104820008091E10082FF0BC08091E20082FF07C00F
:104830008091E1008B7F8093E1000E945E26809151
:10484000DA0080FF19C08091D80080FF15C08091E8
:10485000DA008E7F8093DA008091D90080FF96C0C5
:1048600080E189BD82E189BD09B400FEFDCF81E010
:104870008093B2020E9444208091E10080FF19C021
:104880008091E20080FF15C08091E2008E7F8093CE
:10489000E2008091E20080618093E2008091D80084
:1048A00080628093D80019BC85E08093B2020E9498
:1048B00058208091E10084FF2BC08091E20084FFAA
:1048C00027C080E189BD82E189BD89B5982F9170AB
:1048D00080FFFBCF8091D8008F7D8093D80080919E
:1048E000E1008F7E8093E1008091E2008F7E8093D3
:1048F000E2008091E20081608093E2008091AE024C
:10490000882309F449C084E08093B2020E946120A8
:104910008091E10083FF29C08091E20083FF25C0E0
:104920008091E100877F8093E10082E08093B20272
:104930001092AE028091E1008E7F8093E100809121
:10494000E2008E7F8093E2008091E200806180939C
:10495000E20042E060E080E00E94FF228091F000EF
:1049600088608093F0000E945520FF91EF91BF91E5
:10497000AF919F918F917F916F915F914F913F91F7
:104980002F910F900FBE0F901F90189519BC109289
:10499000B2020E94522070CF8091E30087FD93E025
:1049A0009093B202B3CF1F920F920FB60F921124C1
:1049B0002F933F934F935F936F937F938F939F9327
:1049C000AF93BF93CF93DF93EF93FF93D091E90021
:1049D000DF708091EC00C82FC17080FDC0E810929C
:1049E000E9008091F000877F8093F00078940E9426
:1049F00017251092E9008091F00088608093F00004
:104A0000CD2BCF70C093E900FF91EF91DF91CF9153
:104A1000BF91AF919F918F917F916F915F914F91D6
:104A20003F912F910F900FBE0F901F901895AAE203
:104A3000B0E0EDE1F5E20C94B52683EB92E0209135
:104A4000F100FC012193CF01F2E08B3B9F07B9F706
:104A50000E9481208091E80083FF1EC18091B302F3
:104A60009091B4029A3008F017C1E92FF0E0E95AAA
:104A7000F84D0C94A026803899F0823809F00CC1CA
:104A80008091B7028F70873008F006C18093E900EB
:104A90008091EB0085FB882780F91092E90006C021
:104AA0008091AF029091B002911182609091E800E4
:104AB000977F9093E8008093F1001092F10080912D
:104AC000E8008E77E5C0882309F4D3C0823009F06E
:104AD000E3C08091B5028111D6C08091B7028F707A
:104AE0002FEF280F263008F0D7C08093E9002091DF
:104AF000EB0020FFC8C0933031F48091EB0080625E
:104B00008093EB00C0C09091EB0090619093EB001C
:104B100021E030E001C0220F8A95EAF72093EA00F5
:104B20001092EA008091EB008860EACF8111B4C056
:104B30001091B5021F778091E3008078812B8093DC
:104B4000E3008091E800877F8093E8000E94332390
:104B50008091E80080FFFCCF8091E3008068809323
:104B6000E30082E0111183E08093B20295C0805887
:104B7000823008F091C08091B5029091B6028C3DD0
:104B800023E09207A1F583E08A838AE289834FB705
:104B9000F894DE01139620E03EE051E2E32FF0E0CE
:104BA00050935700E49120FF03C0E295EF703F5F00
:104BB000EF708E2F90E0EA30C0F0C7968D939D93F2
:104BC0002F5F243159F74FBF8091E800877F809392
:104BD000E8006AE270E0CE0101960E9442228091D4
:104BE000E8008B778093E80057C0C096E7CF6091CC
:104BF000B7027091B802AE014F5F5F4F0E948221F1
:104C0000BC01892B09F448C09091E800977F9093EC
:104C1000E80089819A810E94A022E1CF8038E1F5E5
:104C20008091E800877F8093E8008091AE028093B6
:104C3000F10045CF811130C09091B502923060F5FE
:104C40008091E800877F8093E8009093AE020E94F5
:104C500033238091AE02882311F084E005C0809157
:104C6000E30087FDFACF81E08093B2020E946C20BE
:104C700013C08091B502813079F481E0933009F05E
:104C800080E08093B0021092E9008091E800877F75
:104C90008093E8000E9433238091E80083FF0AC0DC
:104CA0008091E800877F8093E8008091EB0080622C
:104CB0008093EB00AA96E3E00C94D1260895CF935D
:104CC0008091B2028823A1F0C091E900CF70909149
:104CD000EC00892F817090FD80E8C82B1092E900CC
:104CE0008091E80083FD0E941725CF70C093E900F2
:104CF000CF9108950E9483231092B2020895E8EDA7
:104D0000F0E08081806180838AE18A95F1F700C0BC
:104D10008091D9008170089597FB072E16F40094B6
:104D200007D077FD09D00E94DD2607FC05D03EF4B0
:104D3000909581959F4F0895709561957F4F089547
:104D4000EE0FFF1F0590F491E02D09942F923F92F2
:104D50004F925F926F927F928F929F92AF92BF928B
:104D6000CF92DF92EF92FF920F931F93CF93DF9337
:104D7000CDB7DEB7CA1BDB0B0FB6F894DEBF0FBE94
:104D8000CDBF09942A88398848885F846E847D84E1
:104D90008C849B84AA84B984C884DF80EE80FD80E3
:104DA0000C811B81AA81B981CE0FD11D0FB6F89459
:104DB000DEBF0FBECDBFED010895AA1BBB1B51E1A5
:104DC00007C0AA1FBB1FA617B70710F0A61BB70B7B
:104DD000881F991F5A95A9F780959095BC01CD0120
:104DE0000895FB01DC0104C08D910190801921F42C
:104DF00041505040C8F7881B990B0895FB01DC0116
:104E000002C001900D9241505040D8F70895F99991
:104E1000FECF92BD81BDF89A992780B50895A8E18B
:104E2000B0E042E050E00C943B27262FF999FECFEA
:104E300092BD81BDF89A019700B4021639F01FBAED
:104E400020BD0FB6F894FA9AF99A0FBE089503960A
:104E5000272F0E9416270E941527252F0E9416270C
:104E6000242F0C9416270196272F0E9416270C94A6
:104E70001527DC01CB01FC01F999FECF06C0F2BD7C
:104E8000E1BDF89A319600B40D9241505040B8F708
:104E90000895F894FFCFC305C305F305F3059806FD
:104EA000B4061C061C06BF064B075A075A073B25CB
:104EB00063254C2663254C269625B7254C260E26C1
:024EC0001A26B0
:104EC2002802C6F7F6F5F4313332369391909466A0
:104ED200973435FFFFFF01000000010000000000D1
:104EE200000004010000000405000000000000644E
:104EF20008320A280A100ABD1FE21FC11F3F203ACA
:104F020020C01F01F4F5F6F7C693363233319766A7
:104F12009490913534FFFFFFE200E900EA00B5000A
:104F2200B600B700CD008301CC008A019201940142
:104F32002102230224022502260227022A02B300AA
:104F4200B4006F007000818283E200E900EA00B5DC
:104F520000B600B700CD008301CC008A0192019413
:104F6200012102230224022502260227022A02B379
:0C4F720000B4006F0070008182834B02CD
:00000001FF
